{
  "_format": "hh-sol-artifact-1",
  "contractName": "DaoPool",
  "sourceName": "contracts/DaoPool.sol",
  "abi": [
    {
      "inputs": [
        {
          "internalType": "address",
          "name": "_poolOwnerAddress",
          "type": "address"
        },
        {
          "internalType": "string",
          "name": "_daoName",
          "type": "string"
        },
        {
          "internalType": "string",
          "name": "_daoProfile",
          "type": "string"
        },
        {
          "internalType": "string",
          "name": "_daoIcon",
          "type": "string"
        },
        {
          "internalType": "address",
          "name": "_cheersDappAddress",
          "type": "address"
        }
      ],
      "stateMutability": "nonpayable",
      "type": "constructor"
    },
    {
      "inputs": [
        {
          "internalType": "address",
          "name": "_cheerProjectPoolAddress",
          "type": "address"
        }
      ],
      "name": "addCheerProject",
      "outputs": [
        {
          "internalType": "bool",
          "name": "",
          "type": "bool"
        }
      ],
      "stateMutability": "nonpayable",
      "type": "function"
    },
    {
      "inputs": [
        {
          "internalType": "uint256",
          "name": "_cherAmount",
          "type": "uint256"
        }
      ],
      "name": "chargeCher",
      "outputs": [],
      "stateMutability": "nonpayable",
      "type": "function"
    },
    {
      "inputs": [],
      "name": "cheersDapp",
      "outputs": [
        {
          "internalType": "contract ICheers",
          "name": "",
          "type": "address"
        }
      ],
      "stateMutability": "view",
      "type": "function"
    },
    {
      "inputs": [],
      "name": "cher",
      "outputs": [
        {
          "internalType": "contract IERC20",
          "name": "",
          "type": "address"
        }
      ],
      "stateMutability": "view",
      "type": "function"
    },
    {
      "inputs": [],
      "name": "daoAddress",
      "outputs": [
        {
          "internalType": "address",
          "name": "",
          "type": "address"
        }
      ],
      "stateMutability": "view",
      "type": "function"
    },
    {
      "inputs": [],
      "name": "daoIcon",
      "outputs": [
        {
          "internalType": "string",
          "name": "",
          "type": "string"
        }
      ],
      "stateMutability": "view",
      "type": "function"
    },
    {
      "inputs": [],
      "name": "daoName",
      "outputs": [
        {
          "internalType": "string",
          "name": "",
          "type": "string"
        }
      ],
      "stateMutability": "view",
      "type": "function"
    },
    {
      "inputs": [],
      "name": "daoProfile",
      "outputs": [
        {
          "internalType": "string",
          "name": "",
          "type": "string"
        }
      ],
      "stateMutability": "view",
      "type": "function"
    },
    {
      "inputs": [],
      "name": "getAllChallengeProjects",
      "outputs": [
        {
          "components": [
            {
              "internalType": "address",
              "name": "belongDaoAddress",
              "type": "address"
            },
            {
              "internalType": "string",
              "name": "projectName",
              "type": "string"
            },
            {
              "internalType": "string",
              "name": "projectContents",
              "type": "string"
            },
            {
              "internalType": "string",
              "name": "projectReword",
              "type": "string"
            }
          ],
          "internalType": "struct SharedStruct.Project[]",
          "name": "",
          "type": "tuple[]"
        }
      ],
      "stateMutability": "view",
      "type": "function"
    },
    {
      "inputs": [],
      "name": "getDaoAddress",
      "outputs": [
        {
          "internalType": "address",
          "name": "",
          "type": "address"
        }
      ],
      "stateMutability": "view",
      "type": "function"
    },
    {
      "inputs": [],
      "name": "getDaoIcon",
      "outputs": [
        {
          "internalType": "string",
          "name": "",
          "type": "string"
        }
      ],
      "stateMutability": "view",
      "type": "function"
    },
    {
      "inputs": [],
      "name": "getDaoName",
      "outputs": [
        {
          "internalType": "string",
          "name": "",
          "type": "string"
        }
      ],
      "stateMutability": "view",
      "type": "function"
    },
    {
      "inputs": [],
      "name": "getDaoPoolAddress",
      "outputs": [
        {
          "internalType": "address",
          "name": "",
          "type": "address"
        }
      ],
      "stateMutability": "view",
      "type": "function"
    },
    {
      "inputs": [],
      "name": "getDaoProfile",
      "outputs": [
        {
          "internalType": "string",
          "name": "",
          "type": "string"
        }
      ],
      "stateMutability": "view",
      "type": "function"
    },
    {
      "inputs": [
        {
          "internalType": "string",
          "name": "_projectName",
          "type": "string"
        },
        {
          "internalType": "string",
          "name": "_projectContents",
          "type": "string"
        },
        {
          "internalType": "string",
          "name": "_projectReword",
          "type": "string"
        }
      ],
      "name": "newProjectFactory",
      "outputs": [
        {
          "internalType": "address",
          "name": "",
          "type": "address"
        }
      ],
      "stateMutability": "nonpayable",
      "type": "function"
    },
    {
      "inputs": [
        {
          "internalType": "address",
          "name": "_cheerProjectPoolAddress",
          "type": "address"
        }
      ],
      "name": "removeCheerProject",
      "outputs": [
        {
          "internalType": "bool",
          "name": "",
          "type": "bool"
        }
      ],
      "stateMutability": "nonpayable",
      "type": "function"
    },
    {
      "inputs": [
        {
          "internalType": "uint256",
          "name": "_cherAmount",
          "type": "uint256"
        }
      ],
      "name": "withdrowCher",
      "outputs": [],
      "stateMutability": "nonpayable",
      "type": "function"
    }
  ],
  "bytecode": "0x60806040527338d4172dde4e50a8cdd8b39abc572443d18ad72d600860006101000a81548173ffffffffffffffffffffffffffffffffffffffff021916908373ffffffffffffffffffffffffffffffffffffffff1602179055503480156200006657600080fd5b5060405162004bb038038062004bb083398181016040528101906200008c91906200044d565b600860009054906101000a900473ffffffffffffffffffffffffffffffffffffffff166000806101000a81548173ffffffffffffffffffffffffffffffffffffffff021916908373ffffffffffffffffffffffffffffffffffffffff16021790555084600360006101000a81548173ffffffffffffffffffffffffffffffffffffffff021916908373ffffffffffffffffffffffffffffffffffffffff16021790555084600460006101000a81548173ffffffffffffffffffffffffffffffffffffffff021916908373ffffffffffffffffffffffffffffffffffffffff16021790555083600590816200018191906200077d565b5082600690816200019391906200077d565b508160079081620001a591906200077d565b5080600260006101000a81548173ffffffffffffffffffffffffffffffffffffffff021916908373ffffffffffffffffffffffffffffffffffffffff160217905550600260009054906101000a900473ffffffffffffffffffffffffffffffffffffffff16600160006101000a81548173ffffffffffffffffffffffffffffffffffffffff021916908373ffffffffffffffffffffffffffffffffffffffff160217905550505050505062000864565b6000604051905090565b600080fd5b600080fd5b600073ffffffffffffffffffffffffffffffffffffffff82169050919050565b6000620002968262000269565b9050919050565b620002a88162000289565b8114620002b457600080fd5b50565b600081519050620002c8816200029d565b92915050565b600080fd5b600080fd5b6000601f19601f8301169050919050565b7f4e487b7100000000000000000000000000000000000000000000000000000000600052604160045260246000fd5b6200032382620002d8565b810181811067ffffffffffffffff82111715620003455762000344620002e9565b5b80604052505050565b60006200035a62000255565b905062000368828262000318565b919050565b600067ffffffffffffffff8211156200038b576200038a620002e9565b5b6200039682620002d8565b9050602081019050919050565b60005b83811015620003c3578082015181840152602081019050620003a6565b60008484015250505050565b6000620003e6620003e0846200036d565b6200034e565b905082815260208101848484011115620004055762000404620002d3565b5b62000412848285620003a3565b509392505050565b600082601f830112620004325762000431620002ce565b5b815162000444848260208601620003cf565b91505092915050565b600080600080600060a086880312156200046c576200046b6200025f565b5b60006200047c88828901620002b7565b955050602086015167ffffffffffffffff811115620004a0576200049f62000264565b5b620004ae888289016200041a565b945050604086015167ffffffffffffffff811115620004d257620004d162000264565b5b620004e0888289016200041a565b935050606086015167ffffffffffffffff81111562000504576200050362000264565b5b62000512888289016200041a565b92505060806200052588828901620002b7565b9150509295509295909350565b600081519050919050565b7f4e487b7100000000000000000000000000000000000000000000000000000000600052602260045260246000fd5b600060028204905060018216806200058557607f821691505b6020821081036200059b576200059a6200053d565b5b50919050565b60008190508160005260206000209050919050565b60006020601f8301049050919050565b600082821b905092915050565b600060088302620006057fffffffffffffffffffffffffffffffffffffffffffffffffffffffffffffffff82620005c6565b620006118683620005c6565b95508019841693508086168417925050509392505050565b6000819050919050565b6000819050919050565b60006200065e62000658620006528462000629565b62000633565b62000629565b9050919050565b6000819050919050565b6200067a836200063d565b62000692620006898262000665565b848454620005d3565b825550505050565b600090565b620006a96200069a565b620006b68184846200066f565b505050565b5b81811015620006de57620006d26000826200069f565b600181019050620006bc565b5050565b601f8211156200072d57620006f781620005a1565b6200070284620005b6565b8101602085101562000712578190505b6200072a6200072185620005b6565b830182620006bb565b50505b505050565b600082821c905092915050565b6000620007526000198460080262000732565b1980831691505092915050565b60006200076d83836200073f565b9150826002028217905092915050565b620007888262000532565b67ffffffffffffffff811115620007a457620007a3620002e9565b5b620007b082546200056c565b620007bd828285620006e2565b600060209050601f831160018114620007f55760008415620007e0578287015190505b620007ec85826200075f565b8655506200085c565b601f1984166200080586620005a1565b60005b828110156200082f5784890151825560018201915060208501945060208101905062000808565b868310156200084f57848901516200084b601f8916826200073f565b8355505b6001600288020188555050505b505050505050565b61433c80620008746000396000f3fe60806040523480156200001157600080fd5b5060043610620001245760003560e01c80636e1c120211620000b1578063cc371c14116200007b578063cc371c1414620002e7578063d4a4fc4c1462000309578063d4dadf01146200032b578063dfaca4a21462000361578063f6acee2314620003815762000124565b80636e1c12021462000261578063a36b5fa21462000283578063a7319fd814620002a3578063a80fcbf014620002c55762000124565b80634897693611620000f35780634897693614620001b15780634a37787014620001d35780634c18308a1462000209578063649c3f2b146200023f5762000124565b80631d68702d14620001295780631d90fb1f146200014b5780632131c68c146200016d5780632f593a0b146200018f575b600080fd5b62000133620003a3565b6040516200014291906200136f565b60405180910390f35b62000155620003cd565b604051620001649190620013f7565b60405180910390f35b62000177620003f3565b6040516200018691906200136f565b60405180910390f35b6200019962000419565b604051620001a89190620014ae565b60405180910390f35b620001bb620004b3565b604051620001ca9190620014ae565b60405180910390f35b620001f16004803603810190620001eb919062001517565b62000549565b60405162000200919062001566565b60405180910390f35b620002276004803603810190620002219190620016d4565b62000686565b6040516200023691906200136f565b60405180910390f35b6200024962000709565b604051620002589190620014ae565b60405180910390f35b6200026b6200079f565b6040516200027a9190620014ae565b60405180910390f35b620002a160048036038101906200029b9190620017c8565b62000835565b005b620002ad62000b27565b604051620002bc91906200136f565b60405180910390f35b620002cf62000b2f565b604051620002de9190620014ae565b60405180910390f35b620002f162000bc9565b604051620003009190620019a6565b60405180910390f35b6200031362000c76565b604051620003229190620014ae565b60405180910390f35b62000349600480360381019062000343919062001517565b62000d10565b60405162000358919062001566565b60405180910390f35b6200037f6004803603810190620003799190620017c8565b62000fad565b005b6200038b62001259565b6040516200039a9190620019ef565b60405180910390f35b6000600460009054906101000a900473ffffffffffffffffffffffffffffffffffffffff16905090565b600160009054906101000a900473ffffffffffffffffffffffffffffffffffffffff1681565b600460009054906101000a900473ffffffffffffffffffffffffffffffffffffffff1681565b6060600680546200042a9062001a3b565b80601f0160208091040260200160405190810160405280929190818152602001828054620004589062001a3b565b8015620004a95780601f106200047d57610100808354040283529160200191620004a9565b820191906000526020600020905b8154815290600101906020018083116200048b57829003601f168201915b5050505050905090565b60058054620004c29062001a3b565b80601f0160208091040260200160405190810160405280929190818152602001828054620004f09062001a3b565b8015620005415780601f10620005155761010080835404028352916020019162000541565b820191906000526020600020905b8154815290600101906020018083116200052357829003601f168201915b505050505081565b6000600a60008373ffffffffffffffffffffffffffffffffffffffff1673ffffffffffffffffffffffffffffffffffffffff16815260200190815260200160002060009054906101000a900460ff16620005da576040517f08c379a0000000000000000000000000000000000000000000000000000000008152600401620005d19062001ac0565b60405180910390fd5b6000600a60008473ffffffffffffffffffffffffffffffffffffffff1673ffffffffffffffffffffffffffffffffffffffff16815260200190815260200160002060006101000a81548160ff021916908315150217905550600a60008373ffffffffffffffffffffffffffffffffffffffff1673ffffffffffffffffffffffffffffffffffffffff16815260200190815260200160002060009054906101000a900460ff169050919050565b6000803030868686600260009054906101000a900473ffffffffffffffffffffffffffffffffffffffff16604051620006bf906200131c565b620006d09695949392919062001ae2565b604051809103906000f080158015620006ed573d6000803e3d6000fd5b509050620006fe308686866200127d565b809150509392505050565b60068054620007189062001a3b565b80601f0160208091040260200160405190810160405280929190818152602001828054620007469062001a3b565b8015620007975780601f106200076b5761010080835404028352916020019162000797565b820191906000526020600020905b8154815290600101906020018083116200077957829003601f168201915b505050505081565b60078054620007ae9062001a3b565b80601f0160208091040260200160405190810160405280929190818152602001828054620007dc9062001a3b565b80156200082d5780601f1062000801576101008083540402835291602001916200082d565b820191906000526020600020905b8154815290600101906020018083116200080f57829003601f168201915b505050505081565b3373ffffffffffffffffffffffffffffffffffffffff16600360009054906101000a900473ffffffffffffffffffffffffffffffffffffffff1673ffffffffffffffffffffffffffffffffffffffff16146200089057600080fd5b8060008054906101000a900473ffffffffffffffffffffffffffffffffffffffff1673ffffffffffffffffffffffffffffffffffffffff166370a08231600460009054906101000a900473ffffffffffffffffffffffffffffffffffffffff166040518263ffffffff1660e01b81526004016200090e91906200136f565b602060405180830381865afa1580156200092c573d6000803e3d6000fd5b505050506040513d601f19601f8201168201806040525081019062000952919062001b7b565b101562000996576040517f08c379a00000000000000000000000000000000000000000000000000000000081526004016200098d9062001bfd565b60405180910390fd5b60008054906101000a900473ffffffffffffffffffffffffffffffffffffffff1673ffffffffffffffffffffffffffffffffffffffff1663095ea7b3600460009054906101000a900473ffffffffffffffffffffffffffffffffffffffff16836040518363ffffffff1660e01b815260040162000a1592919062001c30565b6020604051808303816000875af115801562000a35573d6000803e3d6000fd5b505050506040513d601f19601f8201168201806040525081019062000a5b919062001c8e565b5060008054906101000a900473ffffffffffffffffffffffffffffffffffffffff1673ffffffffffffffffffffffffffffffffffffffff166323b872dd600460009054906101000a900473ffffffffffffffffffffffffffffffffffffffff1630846040518463ffffffff1660e01b815260040162000add9392919062001cc0565b6020604051808303816000875af115801562000afd573d6000803e3d6000fd5b505050506040513d601f19601f8201168201806040525081019062000b23919062001c8e565b5050565b600030905090565b60606007805462000b409062001a3b565b80601f016020809104026020016040519081016040528092919081815260200182805462000b6e9062001a3b565b801562000bbf5780601f1062000b935761010080835404028352916020019162000bbf565b820191906000526020600020905b81548152906001019060200180831162000ba157829003601f168201915b5050505050905090565b6060600160009054906101000a900473ffffffffffffffffffffffffffffffffffffffff1673ffffffffffffffffffffffffffffffffffffffff166358cedf57306040518263ffffffff1660e01b815260040162000c2891906200136f565b600060405180830381865afa15801562000c46573d6000803e3d6000fd5b505050506040513d6000823e3d601f19601f8201168201806040525081019062000c71919062001f7a565b905090565b60606005805462000c879062001a3b565b80601f016020809104026020016040519081016040528092919081815260200182805462000cb59062001a3b565b801562000d065780601f1062000cda5761010080835404028352916020019162000d06565b820191906000526020600020905b81548152906001019060200180831162000ce857829003601f168201915b5050505050905090565b6000600a60008373ffffffffffffffffffffffffffffffffffffffff1673ffffffffffffffffffffffffffffffffffffffff16815260200190815260200160002060009054906101000a900460ff161562000da2576040517f08c379a000000000000000000000000000000000000000000000000000000000815260040162000d99906200201b565b60405180910390fd5b60005b60098054905081101562000f58578273ffffffffffffffffffffffffffffffffffffffff166009828154811062000de15762000de06200203d565b5b9060005260206000200160009054906101000a900473ffffffffffffffffffffffffffffffffffffffff1673ffffffffffffffffffffffffffffffffffffffff160362000e86576001600a60008573ffffffffffffffffffffffffffffffffffffffff1673ffffffffffffffffffffffffffffffffffffffff16815260200190815260200160002060006101000a81548160ff02191690831515021790555062000f42565b6009839080600181540180825580915050600190039060005260206000200160009091909190916101000a81548173ffffffffffffffffffffffffffffffffffffffff021916908373ffffffffffffffffffffffffffffffffffffffff1602179055506001600a60008573ffffffffffffffffffffffffffffffffffffffff1673ffffffffffffffffffffffffffffffffffffffff16815260200190815260200160002060006101000a81548160ff0219169083151502179055505b808062000f4f906200209b565b91505062000da5565b50600a60008373ffffffffffffffffffffffffffffffffffffffff1673ffffffffffffffffffffffffffffffffffffffff16815260200190815260200160002060009054906101000a900460ff169050919050565b3373ffffffffffffffffffffffffffffffffffffffff16600360009054906101000a900473ffffffffffffffffffffffffffffffffffffffff1673ffffffffffffffffffffffffffffffffffffffff16146200100857600080fd5b8060008054906101000a900473ffffffffffffffffffffffffffffffffffffffff1673ffffffffffffffffffffffffffffffffffffffff166370a08231306040518263ffffffff1660e01b81526004016200106491906200136f565b602060405180830381865afa15801562001082573d6000803e3d6000fd5b505050506040513d601f19601f82011682018060405250810190620010a8919062001b7b565b1015620010ec576040517f08c379a0000000000000000000000000000000000000000000000000000000008152600401620010e39062001bfd565b60405180910390fd5b60008054906101000a900473ffffffffffffffffffffffffffffffffffffffff1673ffffffffffffffffffffffffffffffffffffffff1663095ea7b330836040518363ffffffff1660e01b81526004016200114992919062001c30565b6020604051808303816000875af115801562001169573d6000803e3d6000fd5b505050506040513d601f19601f820116820180604052508101906200118f919062001c8e565b5060008054906101000a900473ffffffffffffffffffffffffffffffffffffffff1673ffffffffffffffffffffffffffffffffffffffff1663a9059cbb600460009054906101000a900473ffffffffffffffffffffffffffffffffffffffff16836040518363ffffffff1660e01b81526004016200120f92919062001c30565b6020604051808303816000875af11580156200122f573d6000803e3d6000fd5b505050506040513d601f19601f8201168201806040525081019062001255919062001c8e565b5050565b60008054906101000a900473ffffffffffffffffffffffffffffffffffffffff1681565b600160009054906101000a900473ffffffffffffffffffffffffffffffffffffffff1673ffffffffffffffffffffffffffffffffffffffff16632f92fb2e30868686866040518663ffffffff1660e01b8152600401620012e2959493929190620020e8565b600060405180830381600087803b158015620012fd57600080fd5b505af115801562001312573d6000803e3d6000fd5b5050505050505050565b6121ac806200215b83390190565b600073ffffffffffffffffffffffffffffffffffffffff82169050919050565b600062001357826200132a565b9050919050565b62001369816200134a565b82525050565b60006020820190506200138660008301846200135e565b92915050565b6000819050919050565b6000620013b7620013b1620013ab846200132a565b6200138c565b6200132a565b9050919050565b6000620013cb8262001396565b9050919050565b6000620013df82620013be565b9050919050565b620013f181620013d2565b82525050565b60006020820190506200140e6000830184620013e6565b92915050565b600081519050919050565b600082825260208201905092915050565b60005b838110156200145057808201518184015260208101905062001433565b60008484015250505050565b6000601f19601f8301169050919050565b60006200147a8262001414565b6200148681856200141f565b93506200149881856020860162001430565b620014a3816200145c565b840191505092915050565b60006020820190508181036000830152620014ca81846200146d565b905092915050565b6000604051905090565b600080fd5b600080fd5b620014f1816200134a565b8114620014fd57600080fd5b50565b6000813590506200151181620014e6565b92915050565b60006020828403121562001530576200152f620014dc565b5b6000620015408482850162001500565b91505092915050565b60008115159050919050565b620015608162001549565b82525050565b60006020820190506200157d600083018462001555565b92915050565b600080fd5b600080fd5b7f4e487b7100000000000000000000000000000000000000000000000000000000600052604160045260246000fd5b620015c7826200145c565b810181811067ffffffffffffffff82111715620015e957620015e86200158d565b5b80604052505050565b6000620015fe620014d2565b90506200160c8282620015bc565b919050565b600067ffffffffffffffff8211156200162f576200162e6200158d565b5b6200163a826200145c565b9050602081019050919050565b82818337600083830152505050565b60006200166d620016678462001611565b620015f2565b9050828152602081018484840111156200168c576200168b62001588565b5b6200169984828562001647565b509392505050565b600082601f830112620016b957620016b862001583565b5b8135620016cb84826020860162001656565b91505092915050565b600080600060608486031215620016f057620016ef620014dc565b5b600084013567ffffffffffffffff811115620017115762001710620014e1565b5b6200171f86828701620016a1565b935050602084013567ffffffffffffffff811115620017435762001742620014e1565b5b6200175186828701620016a1565b925050604084013567ffffffffffffffff811115620017755762001774620014e1565b5b6200178386828701620016a1565b9150509250925092565b6000819050919050565b620017a2816200178d565b8114620017ae57600080fd5b50565b600081359050620017c28162001797565b92915050565b600060208284031215620017e157620017e0620014dc565b5b6000620017f184828501620017b1565b91505092915050565b600081519050919050565b600082825260208201905092915050565b6000819050602082019050919050565b62001831816200134a565b82525050565b600082825260208201905092915050565b6000620018558262001414565b62001861818562001837565b93506200187381856020860162001430565b6200187e816200145c565b840191505092915050565b6000608083016000830151620018a3600086018262001826565b5060208301518482036020860152620018bd828262001848565b91505060408301518482036040860152620018d9828262001848565b91505060608301518482036060860152620018f5828262001848565b9150508091505092915050565b600062001910838362001889565b905092915050565b6000602082019050919050565b60006200193282620017fa565b6200193e818562001805565b935083602082028501620019528562001816565b8060005b8581101562001994578484038952815162001972858262001902565b94506200197f8362001918565b925060208a0199505060018101905062001956565b50829750879550505050505092915050565b60006020820190508181036000830152620019c2818462001925565b905092915050565b6000620019d782620013be565b9050919050565b620019e981620019ca565b82525050565b600060208201905062001a066000830184620019de565b92915050565b7f4e487b7100000000000000000000000000000000000000000000000000000000600052602260045260246000fd5b6000600282049050600182168062001a5457607f821691505b60208210810362001a6a5762001a6962001a0c565b5b50919050565b7f616c72656479206e6f7420636865657200000000000000000000000000000000600082015250565b600062001aa86010836200141f565b915062001ab58262001a70565b602082019050919050565b6000602082019050818103600083015262001adb8162001a99565b9050919050565b600060c08201905062001af960008301896200135e565b62001b0860208301886200135e565b818103604083015262001b1c81876200146d565b9050818103606083015262001b3281866200146d565b9050818103608083015262001b4881856200146d565b905062001b5960a08301846200135e565b979650505050505050565b60008151905062001b758162001797565b92915050565b60006020828403121562001b945762001b93620014dc565b5b600062001ba48482850162001b64565b91505092915050565b7f6e6f7420696e73756666696369656e7400000000000000000000000000000000600082015250565b600062001be56010836200141f565b915062001bf28262001bad565b602082019050919050565b6000602082019050818103600083015262001c188162001bd6565b9050919050565b62001c2a816200178d565b82525050565b600060408201905062001c4760008301856200135e565b62001c56602083018462001c1f565b9392505050565b62001c688162001549565b811462001c7457600080fd5b50565b60008151905062001c888162001c5d565b92915050565b60006020828403121562001ca75762001ca6620014dc565b5b600062001cb78482850162001c77565b91505092915050565b600060608201905062001cd760008301866200135e565b62001ce660208301856200135e565b62001cf5604083018462001c1f565b949350505050565b600067ffffffffffffffff82111562001d1b5762001d1a6200158d565b5b602082029050602081019050919050565b600080fd5b600080fd5b600080fd5b60008151905062001d4c81620014e6565b92915050565b600062001d6962001d638462001611565b620015f2565b90508281526020810184848401111562001d885762001d8762001588565b5b62001d9584828562001430565b509392505050565b600082601f83011262001db55762001db462001583565b5b815162001dc784826020860162001d52565b91505092915050565b60006080828403121562001de95762001de862001d31565b5b62001df56080620015f2565b9050600062001e078482850162001d3b565b600083015250602082015167ffffffffffffffff81111562001e2e5762001e2d62001d36565b5b62001e3c8482850162001d9d565b602083015250604082015167ffffffffffffffff81111562001e635762001e6262001d36565b5b62001e718482850162001d9d565b604083015250606082015167ffffffffffffffff81111562001e985762001e9762001d36565b5b62001ea68482850162001d9d565b60608301525092915050565b600062001ec962001ec38462001cfd565b620015f2565b9050808382526020820190506020840283018581111562001eef5762001eee62001d2c565b5b835b8181101562001f3d57805167ffffffffffffffff81111562001f185762001f1762001583565b5b80860162001f27898262001dd0565b8552602085019450505060208101905062001ef1565b5050509392505050565b600082601f83011262001f5f5762001f5e62001583565b5b815162001f7184826020860162001eb2565b91505092915050565b60006020828403121562001f935762001f92620014dc565b5b600082015167ffffffffffffffff81111562001fb45762001fb3620014e1565b5b62001fc28482850162001f47565b91505092915050565b7f616c726564792063686565720000000000000000000000000000000000000000600082015250565b600062002003600c836200141f565b9150620020108262001fcb565b602082019050919050565b60006020820190508181036000830152620020368162001ff4565b9050919050565b7f4e487b7100000000000000000000000000000000000000000000000000000000600052603260045260246000fd5b7f4e487b7100000000000000000000000000000000000000000000000000000000600052601160045260246000fd5b6000620020a8826200178d565b91507fffffffffffffffffffffffffffffffffffffffffffffffffffffffffffffffff8203620020dd57620020dc6200206c565b5b600182019050919050565b600060a082019050620020ff60008301886200135e565b6200210e60208301876200135e565b81810360408301526200212281866200146d565b905081810360608301526200213881856200146d565b905081810360808301526200214e81846200146d565b9050969550505050505056fe60806040527338d4172dde4e50a8cdd8b39abc572443d18ad72d600960006101000a81548173ffffffffffffffffffffffffffffffffffffffff021916908373ffffffffffffffffffffffffffffffffffffffff1602179055503480156200006657600080fd5b50604051620021ac380380620021ac83398181016040528101906200008c91906200048f565b600960009054906101000a900473ffffffffffffffffffffffffffffffffffffffff166000806101000a81548173ffffffffffffffffffffffffffffffffffffffff021916908373ffffffffffffffffffffffffffffffffffffffff160217905550600260009054906101000a900473ffffffffffffffffffffffffffffffffffffffff16600160006101000a81548173ffffffffffffffffffffffffffffffffffffffff021916908373ffffffffffffffffffffffffffffffffffffffff16021790555033600360006101000a81548173ffffffffffffffffffffffffffffffffffffffff021916908373ffffffffffffffffffffffffffffffffffffffff16021790555085600460006101000a81548173ffffffffffffffffffffffffffffffffffffffff021916908373ffffffffffffffffffffffffffffffffffffffff16021790555084600560006101000a81548173ffffffffffffffffffffffffffffffffffffffff021916908373ffffffffffffffffffffffffffffffffffffffff1602179055508360069081620002259190620007d3565b508260079081620002379190620007d3565b508160089081620002499190620007d3565b5080600260006101000a81548173ffffffffffffffffffffffffffffffffffffffff021916908373ffffffffffffffffffffffffffffffffffffffff160217905550505050505050620008ba565b6000604051905090565b600080fd5b600080fd5b600073ffffffffffffffffffffffffffffffffffffffff82169050919050565b6000620002d882620002ab565b9050919050565b620002ea81620002cb565b8114620002f657600080fd5b50565b6000815190506200030a81620002df565b92915050565b600080fd5b600080fd5b6000601f19601f8301169050919050565b7f4e487b7100000000000000000000000000000000000000000000000000000000600052604160045260246000fd5b62000365826200031a565b810181811067ffffffffffffffff821117156200038757620003866200032b565b5b80604052505050565b60006200039c62000297565b9050620003aa82826200035a565b919050565b600067ffffffffffffffff821115620003cd57620003cc6200032b565b5b620003d8826200031a565b9050602081019050919050565b60005b8381101562000405578082015181840152602081019050620003e8565b60008484015250505050565b6000620004286200042284620003af565b62000390565b90508281526020810184848401111562000447576200044662000315565b5b62000454848285620003e5565b509392505050565b600082601f83011262000474576200047362000310565b5b81516200048684826020860162000411565b91505092915050565b60008060008060008060c08789031215620004af57620004ae620002a1565b5b6000620004bf89828a01620002f9565b9650506020620004d289828a01620002f9565b955050604087015167ffffffffffffffff811115620004f657620004f5620002a6565b5b6200050489828a016200045c565b945050606087015167ffffffffffffffff811115620005285762000527620002a6565b5b6200053689828a016200045c565b935050608087015167ffffffffffffffff8111156200055a5762000559620002a6565b5b6200056889828a016200045c565b92505060a06200057b89828a01620002f9565b9150509295509295509295565b600081519050919050565b7f4e487b7100000000000000000000000000000000000000000000000000000000600052602260045260246000fd5b60006002820490506001821680620005db57607f821691505b602082108103620005f157620005f062000593565b5b50919050565b60008190508160005260206000209050919050565b60006020601f8301049050919050565b600082821b905092915050565b6000600883026200065b7fffffffffffffffffffffffffffffffffffffffffffffffffffffffffffffffff826200061c565b6200066786836200061c565b95508019841693508086168417925050509392505050565b6000819050919050565b6000819050919050565b6000620006b4620006ae620006a8846200067f565b62000689565b6200067f565b9050919050565b6000819050919050565b620006d08362000693565b620006e8620006df82620006bb565b84845462000629565b825550505050565b600090565b620006ff620006f0565b6200070c818484620006c5565b505050565b5b81811015620007345762000728600082620006f5565b60018101905062000712565b5050565b601f82111562000783576200074d81620005f7565b62000758846200060c565b8101602085101562000768578190505b6200078062000777856200060c565b83018262000711565b50505b505050565b600082821c905092915050565b6000620007a86000198460080262000788565b1980831691505092915050565b6000620007c3838362000795565b9150826002028217905092915050565b620007de8262000588565b67ffffffffffffffff811115620007fa57620007f96200032b565b5b620008068254620005c2565b6200081382828562000738565b600060209050601f8311600181146200084b576000841562000836578287015190505b620008428582620007b5565b865550620008b2565b601f1984166200085b86620005f7565b60005b8281101562000885578489015182556001820191506020850194506020810190506200085e565b86831015620008a55784890151620008a1601f89168262000795565b8355505b6001600288020188555050505b505050505050565b6118e280620008ca6000396000f3fe608060405234801561001057600080fd5b50600436106100885760003560e01c806332b04e2b1161005b57806332b04e2b1461010557806365550ba4146101235780639a33e3001461013f578063f6acee231461015d57610088565b80631a3149561461008d5780631b5feff5146100ab5780631d90fb1f146100c9578063250a12d9146100e7575b600080fd5b61009561017b565b6040516100a29190610d74565b60405180910390f35b6100b3610209565b6040516100c09190610f5f565b60405180910390f35b6100d1610364565b6040516100de9190610fe0565b60405180910390f35b6100ef61038a565b6040516100fc919061100a565b60405180910390f35b61010d61042c565b60405161011a9190610d74565b60405180910390f35b61013d6004803603810190610138919061119a565b6104ba565b005b61014761063e565b6040516101549190610d74565b60405180910390f35b6101656106cc565b6040516101729190611217565b60405180910390f35b6007805461018890611261565b80601f01602080910402602001604051908101604052809291908181526020018280546101b490611261565b80156102015780601f106101d657610100808354040283529160200191610201565b820191906000526020600020905b8154815290600101906020018083116101e457829003601f168201915b505050505081565b6060600a805480602002602001604051908101604052809291908181526020016000905b8282101561035b57838290600052602060002090600402016040518060800160405290816000820160009054906101000a900473ffffffffffffffffffffffffffffffffffffffff1673ffffffffffffffffffffffffffffffffffffffff1673ffffffffffffffffffffffffffffffffffffffff168152602001600182015481526020016002820180546102c090611261565b80601f01602080910402602001604051908101604052809291908181526020018280546102ec90611261565b80156103395780601f1061030e57610100808354040283529160200191610339565b820191906000526020600020905b81548152906001019060200180831161031c57829003601f168201915b505050505081526020016003820154815250508152602001906001019061022d565b50505050905090565b600160009054906101000a900473ffffffffffffffffffffffffffffffffffffffff1681565b60008060009054906101000a900473ffffffffffffffffffffffffffffffffffffffff1673ffffffffffffffffffffffffffffffffffffffff166370a08231306040518263ffffffff1660e01b81526004016103e691906112a1565b602060405180830381865afa158015610403573d6000803e3d6000fd5b505050506040513d601f19601f8201168201806040525081019061042791906112d1565b905090565b6008805461043990611261565b80601f016020809104026020016040519081016040528092919081815260200182805461046590611261565b80156104b25780601f10610487576101008083540402835291602001916104b2565b820191906000526020600020905b81548152906001019060200180831161049557829003601f168201915b505050505081565b8160008054906101000a900473ffffffffffffffffffffffffffffffffffffffff1673ffffffffffffffffffffffffffffffffffffffff166370a08231600160009054906101000a900473ffffffffffffffffffffffffffffffffffffffff1673ffffffffffffffffffffffffffffffffffffffff16631599a352336040518263ffffffff1660e01b815260040161055291906112a1565b602060405180830381865afa15801561056f573d6000803e3d6000fd5b505050506040513d601f19601f82011682018060405250810190610593919061132a565b6040518263ffffffff1660e01b81526004016105af91906112a1565b602060405180830381865afa1580156105cc573d6000803e3d6000fd5b505050506040513d601f19601f820116820180604052508101906105f091906112d1565b11610630576040517f08c379a0000000000000000000000000000000000000000000000000000000008152600401610627906113a3565b60405180910390fd5b61063a82826106f0565b5050565b6006805461064b90611261565b80601f016020809104026020016040519081016040528092919081815260200182805461067790611261565b80156106c45780601f10610699576101008083540402835291602001916106c4565b820191906000526020600020905b8154815290600101906020018083116106a757829003601f168201915b505050505081565b60008054906101000a900473ffffffffffffffffffffffffffffffffffffffff1681565b60008054906101000a900473ffffffffffffffffffffffffffffffffffffffff1673ffffffffffffffffffffffffffffffffffffffff166323b872dd600160009054906101000a900473ffffffffffffffffffffffffffffffffffffffff1673ffffffffffffffffffffffffffffffffffffffff16631599a352336040518263ffffffff1660e01b815260040161078791906112a1565b602060405180830381865afa1580156107a4573d6000803e3d6000fd5b505050506040513d601f19601f820116820180604052508101906107c8919061132a565b30856040518463ffffffff1660e01b81526004016107e8939291906113c3565b6020604051808303816000875af1158015610807573d6000803e3d6000fd5b505050506040513d601f19601f8201168201806040525081019061082b9190611432565b50600a6040518060800160405280600160009054906101000a900473ffffffffffffffffffffffffffffffffffffffff1673ffffffffffffffffffffffffffffffffffffffff16631599a352336040518263ffffffff1660e01b815260040161089491906112a1565b602060405180830381865afa1580156108b1573d6000803e3d6000fd5b505050506040513d601f19601f820116820180604052508101906108d5919061132a565b73ffffffffffffffffffffffffffffffffffffffff16815260200142815260200183815260200184815250908060018154018082558091505060019003906000526020600020906004020160009091909190915060008201518160000160006101000a81548173ffffffffffffffffffffffffffffffffffffffff021916908373ffffffffffffffffffffffffffffffffffffffff16021790555060208201518160010155604082015181600201908161098f9190611601565b506060820151816003015550506109a5826109a9565b5050565b80600b60008282546109bb9190611702565b92505081905550600060646046836109d39190611736565b6109dd91906117a7565b9050600060646019846109f09190611736565b6109fa91906117a7565b90506000818385610a0b91906117d8565b610a1591906117d8565b905060005b600a80549050811015610b5b5760008054906101000a900473ffffffffffffffffffffffffffffffffffffffff1673ffffffffffffffffffffffffffffffffffffffff1663a9059cbb600a8381548110610a7757610a7661180c565b5b906000526020600020906004020160000160009054906101000a900473ffffffffffffffffffffffffffffffffffffffff16600b54600a8581548110610ac057610abf61180c565b5b90600052602060002090600402016003015488610add9190611736565b610ae791906117a7565b6040518363ffffffff1660e01b8152600401610b0492919061183b565b6020604051808303816000875af1158015610b23573d6000803e3d6000fd5b505050506040513d601f19601f82011682018060405250810190610b479190611432565b508080610b5390611864565b915050610a1a565b5060008054906101000a900473ffffffffffffffffffffffffffffffffffffffff1673ffffffffffffffffffffffffffffffffffffffff1663a9059cbb600460009054906101000a900473ffffffffffffffffffffffffffffffffffffffff16846040518363ffffffff1660e01b8152600401610bd992919061183b565b6020604051808303816000875af1158015610bf8573d6000803e3d6000fd5b505050506040513d601f19601f82011682018060405250810190610c1c9190611432565b5060008054906101000a900473ffffffffffffffffffffffffffffffffffffffff1673ffffffffffffffffffffffffffffffffffffffff1663a9059cbb600560009054906101000a900473ffffffffffffffffffffffffffffffffffffffff16836040518363ffffffff1660e01b8152600401610c9a92919061183b565b6020604051808303816000875af1158015610cb9573d6000803e3d6000fd5b505050506040513d601f19601f82011682018060405250810190610cdd9190611432565b5050505050565b600081519050919050565b600082825260208201905092915050565b60005b83811015610d1e578082015181840152602081019050610d03565b60008484015250505050565b6000601f19601f8301169050919050565b6000610d4682610ce4565b610d508185610cef565b9350610d60818560208601610d00565b610d6981610d2a565b840191505092915050565b60006020820190508181036000830152610d8e8184610d3b565b905092915050565b600081519050919050565b600082825260208201905092915050565b6000819050602082019050919050565b600073ffffffffffffffffffffffffffffffffffffffff82169050919050565b6000610ded82610dc2565b9050919050565b610dfd81610de2565b82525050565b6000819050919050565b610e1681610e03565b82525050565b600082825260208201905092915050565b6000610e3882610ce4565b610e428185610e1c565b9350610e52818560208601610d00565b610e5b81610d2a565b840191505092915050565b6000608083016000830151610e7e6000860182610df4565b506020830151610e916020860182610e0d565b5060408301518482036040860152610ea98282610e2d565b9150506060830151610ebe6060860182610e0d565b508091505092915050565b6000610ed58383610e66565b905092915050565b6000602082019050919050565b6000610ef582610d96565b610eff8185610da1565b935083602082028501610f1185610db2565b8060005b85811015610f4d5784840389528151610f2e8582610ec9565b9450610f3983610edd565b925060208a01995050600181019050610f15565b50829750879550505050505092915050565b60006020820190508181036000830152610f798184610eea565b905092915050565b6000819050919050565b6000610fa6610fa1610f9c84610dc2565b610f81565b610dc2565b9050919050565b6000610fb882610f8b565b9050919050565b6000610fca82610fad565b9050919050565b610fda81610fbf565b82525050565b6000602082019050610ff56000830184610fd1565b92915050565b61100481610e03565b82525050565b600060208201905061101f6000830184610ffb565b92915050565b6000604051905090565b600080fd5b600080fd5b61104281610e03565b811461104d57600080fd5b50565b60008135905061105f81611039565b92915050565b600080fd5b600080fd5b7f4e487b7100000000000000000000000000000000000000000000000000000000600052604160045260246000fd5b6110a782610d2a565b810181811067ffffffffffffffff821117156110c6576110c561106f565b5b80604052505050565b60006110d9611025565b90506110e5828261109e565b919050565b600067ffffffffffffffff8211156111055761110461106f565b5b61110e82610d2a565b9050602081019050919050565b82818337600083830152505050565b600061113d611138846110ea565b6110cf565b9050828152602081018484840111156111595761115861106a565b5b61116484828561111b565b509392505050565b600082601f83011261118157611180611065565b5b813561119184826020860161112a565b91505092915050565b600080604083850312156111b1576111b061102f565b5b60006111bf85828601611050565b925050602083013567ffffffffffffffff8111156111e0576111df611034565b5b6111ec8582860161116c565b9150509250929050565b600061120182610fad565b9050919050565b611211816111f6565b82525050565b600060208201905061122c6000830184611208565b92915050565b7f4e487b7100000000000000000000000000000000000000000000000000000000600052602260045260246000fd5b6000600282049050600182168061127957607f821691505b60208210810361128c5761128b611232565b5b50919050565b61129b81610de2565b82525050565b60006020820190506112b66000830184611292565b92915050565b6000815190506112cb81611039565b92915050565b6000602082840312156112e7576112e661102f565b5b60006112f5848285016112bc565b91505092915050565b61130781610de2565b811461131257600080fd5b50565b600081519050611324816112fe565b92915050565b6000602082840312156113405761133f61102f565b5b600061134e84828501611315565b91505092915050565b7f4e6f7420656e6f75676800000000000000000000000000000000000000000000600082015250565b600061138d600a83610cef565b915061139882611357565b602082019050919050565b600060208201905081810360008301526113bc81611380565b9050919050565b60006060820190506113d86000830186611292565b6113e56020830185611292565b6113f26040830184610ffb565b949350505050565b60008115159050919050565b61140f816113fa565b811461141a57600080fd5b50565b60008151905061142c81611406565b92915050565b6000602082840312156114485761144761102f565b5b60006114568482850161141d565b91505092915050565b60008190508160005260206000209050919050565b60006020601f8301049050919050565b600082821b905092915050565b6000600883026114c17fffffffffffffffffffffffffffffffffffffffffffffffffffffffffffffffff82611484565b6114cb8683611484565b95508019841693508086168417925050509392505050565b60006114fe6114f96114f484610e03565b610f81565b610e03565b9050919050565b6000819050919050565b611518836114e3565b61152c61152482611505565b848454611491565b825550505050565b600090565b611541611534565b61154c81848461150f565b505050565b5b8181101561157057611565600082611539565b600181019050611552565b5050565b601f8211156115b5576115868161145f565b61158f84611474565b8101602085101561159e578190505b6115b26115aa85611474565b830182611551565b50505b505050565b600082821c905092915050565b60006115d8600019846008026115ba565b1980831691505092915050565b60006115f183836115c7565b9150826002028217905092915050565b61160a82610ce4565b67ffffffffffffffff8111156116235761162261106f565b5b61162d8254611261565b611638828285611574565b600060209050601f83116001811461166b5760008415611659578287015190505b61166385826115e5565b8655506116cb565b601f1984166116798661145f565b60005b828110156116a15784890151825560018201915060208501945060208101905061167c565b868310156116be57848901516116ba601f8916826115c7565b8355505b6001600288020188555050505b505050505050565b7f4e487b7100000000000000000000000000000000000000000000000000000000600052601160045260246000fd5b600061170d82610e03565b915061171883610e03565b92508282019050808211156117305761172f6116d3565b5b92915050565b600061174182610e03565b915061174c83610e03565b925082820261175a81610e03565b91508282048414831517611771576117706116d3565b5b5092915050565b7f4e487b7100000000000000000000000000000000000000000000000000000000600052601260045260246000fd5b60006117b282610e03565b91506117bd83610e03565b9250826117cd576117cc611778565b5b828204905092915050565b60006117e382610e03565b91506117ee83610e03565b9250828203905081811115611806576118056116d3565b5b92915050565b7f4e487b7100000000000000000000000000000000000000000000000000000000600052603260045260246000fd5b60006040820190506118506000830185611292565b61185d6020830184610ffb565b9392505050565b600061186f82610e03565b91507fffffffffffffffffffffffffffffffffffffffffffffffffffffffffffffffff82036118a1576118a06116d3565b5b60018201905091905056fea26469706673582212204f7cd996c5c820b41bd227229aeccce8813689480344bb5d32ac285e1f2a0ebf64736f6c63430008110033a26469706673582212202a804a220ff86350a6fde51b83f196f182e428807560092fefbb8953efb0cab964736f6c63430008110033",
  "linkReferences": {},
  "deployedLinkReferences": {}
}