{
  "_format": "hh-sol-artifact-1",
  "contractName": "DaoPool",
  "sourceName": "contracts/DaoPool.sol",
  "abi": [
    {
      "inputs": [
        {
          "internalType": "address",
          "name": "_poolOwnerAddress",
          "type": "address"
        },
        {
          "internalType": "string",
          "name": "_daoName",
          "type": "string"
        },
        {
          "internalType": "string",
          "name": "_daoProfile",
          "type": "string"
        },
        {
          "internalType": "string",
          "name": "_daoIcon",
          "type": "string"
        },
        {
          "internalType": "address",
          "name": "_cheersDappAddress",
          "type": "address"
        }
      ],
      "stateMutability": "nonpayable",
      "type": "constructor"
    },
    {
      "inputs": [
        {
          "internalType": "address",
          "name": "_cheerProjectPoolAddress",
          "type": "address"
        }
      ],
      "name": "addCheerProject",
      "outputs": [
        {
          "internalType": "bool",
          "name": "",
          "type": "bool"
        }
      ],
      "stateMutability": "nonpayable",
      "type": "function"
    },
    {
      "inputs": [
        {
          "internalType": "uint256",
          "name": "_cherAmount",
          "type": "uint256"
        }
      ],
      "name": "chargeCher",
      "outputs": [],
      "stateMutability": "nonpayable",
      "type": "function"
    },
    {
      "inputs": [],
      "name": "cheersDapp",
      "outputs": [
        {
          "internalType": "contract ICheers",
          "name": "",
          "type": "address"
        }
      ],
      "stateMutability": "view",
      "type": "function"
    },
    {
      "inputs": [],
      "name": "cher",
      "outputs": [
        {
          "internalType": "contract IERC20",
          "name": "",
          "type": "address"
        }
      ],
      "stateMutability": "view",
      "type": "function"
    },
    {
      "inputs": [],
      "name": "daoAddress",
      "outputs": [
        {
          "internalType": "address",
          "name": "",
          "type": "address"
        }
      ],
      "stateMutability": "view",
      "type": "function"
    },
    {
      "inputs": [],
      "name": "daoIcon",
      "outputs": [
        {
          "internalType": "string",
          "name": "",
          "type": "string"
        }
      ],
      "stateMutability": "view",
      "type": "function"
    },
    {
      "inputs": [],
      "name": "daoName",
      "outputs": [
        {
          "internalType": "string",
          "name": "",
          "type": "string"
        }
      ],
      "stateMutability": "view",
      "type": "function"
    },
    {
      "inputs": [],
      "name": "daoProfile",
      "outputs": [
        {
          "internalType": "string",
          "name": "",
          "type": "string"
        }
      ],
      "stateMutability": "view",
      "type": "function"
    },
    {
      "inputs": [],
      "name": "getAllChallengeProjects",
      "outputs": [
        {
          "components": [
            {
              "internalType": "address",
              "name": "belongDaoAddress",
              "type": "address"
            },
            {
              "internalType": "string",
              "name": "projectName",
              "type": "string"
            },
            {
              "internalType": "string",
              "name": "projectContents",
              "type": "string"
            },
            {
              "internalType": "string",
              "name": "projectReword",
              "type": "string"
            }
          ],
          "internalType": "struct SharedStruct.Project[]",
          "name": "",
          "type": "tuple[]"
        }
      ],
      "stateMutability": "view",
      "type": "function"
    },
    {
      "inputs": [],
      "name": "getDaoAddress",
      "outputs": [
        {
          "internalType": "address",
          "name": "",
          "type": "address"
        }
      ],
      "stateMutability": "view",
      "type": "function"
    },
    {
      "inputs": [],
      "name": "getDaoIcon",
      "outputs": [
        {
          "internalType": "string",
          "name": "",
          "type": "string"
        }
      ],
      "stateMutability": "view",
      "type": "function"
    },
    {
      "inputs": [],
      "name": "getDaoName",
      "outputs": [
        {
          "internalType": "string",
          "name": "",
          "type": "string"
        }
      ],
      "stateMutability": "view",
      "type": "function"
    },
    {
      "inputs": [],
      "name": "getDaoPoolAddress",
      "outputs": [
        {
          "internalType": "address",
          "name": "",
          "type": "address"
        }
      ],
      "stateMutability": "view",
      "type": "function"
    },
    {
      "inputs": [],
      "name": "getDaoProfile",
      "outputs": [
        {
          "internalType": "string",
          "name": "",
          "type": "string"
        }
      ],
      "stateMutability": "view",
      "type": "function"
    },
    {
      "inputs": [
        {
          "internalType": "string",
          "name": "_projectName",
          "type": "string"
        },
        {
          "internalType": "string",
          "name": "_projectContents",
          "type": "string"
        },
        {
          "internalType": "string",
          "name": "_projectReword",
          "type": "string"
        }
      ],
      "name": "newProjectFactory",
      "outputs": [
        {
          "internalType": "address",
          "name": "",
          "type": "address"
        }
      ],
      "stateMutability": "nonpayable",
      "type": "function"
    },
    {
      "inputs": [],
      "name": "projectsData",
      "outputs": [
        {
          "internalType": "contract IProjectsData",
          "name": "",
          "type": "address"
        }
      ],
      "stateMutability": "view",
      "type": "function"
    },
    {
      "inputs": [
        {
          "internalType": "address",
          "name": "_cheerProjectPoolAddress",
          "type": "address"
        }
      ],
      "name": "removeCheerProject",
      "outputs": [
        {
          "internalType": "bool",
          "name": "",
          "type": "bool"
        }
      ],
      "stateMutability": "nonpayable",
      "type": "function"
    },
    {
      "inputs": [
        {
          "internalType": "address",
          "name": "CHERAddress",
          "type": "address"
        }
      ],
      "name": "setCHER",
      "outputs": [],
      "stateMutability": "nonpayable",
      "type": "function"
    },
    {
      "inputs": [
        {
          "internalType": "address",
          "name": "projectsDataAddress",
          "type": "address"
        }
      ],
      "name": "setProjectsData",
      "outputs": [],
      "stateMutability": "nonpayable",
      "type": "function"
    },
    {
      "inputs": [
        {
          "internalType": "uint256",
          "name": "_cherAmount",
          "type": "uint256"
        }
      ],
      "name": "withdrawCher",
      "outputs": [],
      "stateMutability": "nonpayable",
      "type": "function"
    }
  ],
  "bytecode": "0x60806040527338d4172dde4e50a8cdd8b39abc572443d18ad72d600a60006101000a81548173ffffffffffffffffffffffffffffffffffffffff021916908373ffffffffffffffffffffffffffffffffffffffff1602179055503480156200006657600080fd5b5060405162004fa238038062004fa283398181016040528101906200008c9190620004af565b600a60009054906101000a900473ffffffffffffffffffffffffffffffffffffffff16600260006101000a81548173ffffffffffffffffffffffffffffffffffffffff021916908373ffffffffffffffffffffffffffffffffffffffff16021790555084600560006101000a81548173ffffffffffffffffffffffffffffffffffffffff021916908373ffffffffffffffffffffffffffffffffffffffff16021790555084600660006101000a81548173ffffffffffffffffffffffffffffffffffffffff021916908373ffffffffffffffffffffffffffffffffffffffff1602179055508360079081620001829190620007df565b508260089081620001949190620007df565b508160099081620001a69190620007df565b5080600460006101000a81548173ffffffffffffffffffffffffffffffffffffffff021916908373ffffffffffffffffffffffffffffffffffffffff160217905550600460009054906101000a900473ffffffffffffffffffffffffffffffffffffffff16600360006101000a81548173ffffffffffffffffffffffffffffffffffffffff021916908373ffffffffffffffffffffffffffffffffffffffff16021790555060008054906101000a900473ffffffffffffffffffffffffffffffffffffffff16600160006101000a81548173ffffffffffffffffffffffffffffffffffffffff021916908373ffffffffffffffffffffffffffffffffffffffff1602179055505050505050620008c6565b6000604051905090565b600080fd5b600080fd5b600073ffffffffffffffffffffffffffffffffffffffff82169050919050565b6000620002f882620002cb565b9050919050565b6200030a81620002eb565b81146200031657600080fd5b50565b6000815190506200032a81620002ff565b92915050565b600080fd5b600080fd5b6000601f19601f8301169050919050565b7f4e487b7100000000000000000000000000000000000000000000000000000000600052604160045260246000fd5b62000385826200033a565b810181811067ffffffffffffffff82111715620003a757620003a66200034b565b5b80604052505050565b6000620003bc620002b7565b9050620003ca82826200037a565b919050565b600067ffffffffffffffff821115620003ed57620003ec6200034b565b5b620003f8826200033a565b9050602081019050919050565b60005b838110156200042557808201518184015260208101905062000408565b60008484015250505050565b6000620004486200044284620003cf565b620003b0565b90508281526020810184848401111562000467576200046662000335565b5b6200047484828562000405565b509392505050565b600082601f83011262000494576200049362000330565b5b8151620004a684826020860162000431565b91505092915050565b600080600080600060a08688031215620004ce57620004cd620002c1565b5b6000620004de8882890162000319565b955050602086015167ffffffffffffffff811115620005025762000501620002c6565b5b62000510888289016200047c565b945050604086015167ffffffffffffffff811115620005345762000533620002c6565b5b62000542888289016200047c565b935050606086015167ffffffffffffffff811115620005665762000565620002c6565b5b62000574888289016200047c565b9250506080620005878882890162000319565b9150509295509295909350565b600081519050919050565b7f4e487b7100000000000000000000000000000000000000000000000000000000600052602260045260246000fd5b60006002820490506001821680620005e757607f821691505b602082108103620005fd57620005fc6200059f565b5b50919050565b60008190508160005260206000209050919050565b60006020601f8301049050919050565b600082821b905092915050565b600060088302620006677fffffffffffffffffffffffffffffffffffffffffffffffffffffffffffffffff8262000628565b62000673868362000628565b95508019841693508086168417925050509392505050565b6000819050919050565b6000819050919050565b6000620006c0620006ba620006b4846200068b565b62000695565b6200068b565b9050919050565b6000819050919050565b620006dc836200069f565b620006f4620006eb82620006c7565b84845462000635565b825550505050565b600090565b6200070b620006fc565b62000718818484620006d1565b505050565b5b8181101562000740576200073460008262000701565b6001810190506200071e565b5050565b601f8211156200078f57620007598162000603565b620007648462000618565b8101602085101562000774578190505b6200078c620007838562000618565b8301826200071d565b50505b505050565b600082821c905092915050565b6000620007b46000198460080262000794565b1980831691505092915050565b6000620007cf8383620007a1565b9150826002028217905092915050565b620007ea8262000594565b67ffffffffffffffff8111156200080657620008056200034b565b5b620008128254620005ce565b6200081f82828562000744565b600060209050601f83116001811462000857576000841562000842578287015190505b6200084e8582620007c1565b865550620008be565b601f198416620008678662000603565b60005b8281101562000891578489015182556001820191506020850194506020810190506200086a565b86831015620008b15784890151620008ad601f891682620007a1565b8355505b6001600288020188555050505b505050505050565b6146cc80620008d66000396000f3fe60806040523480156200001157600080fd5b5060043610620001485760003560e01c80636e1c120211620000bd578063cc371c14116200007b578063cc371c14146200036d578063d39d655e146200038f578063d4a4fc4c14620003af578063d4dadf0114620003d1578063f6acee2314620004075762000148565b80636e1c120214620002c757806397987faf14620002e9578063a36b5fa21462000309578063a7319fd81462000329578063a80fcbf0146200034b5762000148565b80634a377870116200010b5780634a37787014620001f75780634c18308a146200022d5780634d7adf0914620002635780635e001c341462000285578063649c3f2b14620002a55762000148565b80631d68702d146200014d5780631d90fb1f146200016f5780632131c68c14620001915780632f593a0b14620001b35780634897693614620001d5575b600080fd5b6200015762000429565b6040516200016691906200150e565b60405180910390f35b6200017962000453565b60405162000188919062001596565b60405180910390f35b6200019b62000479565b604051620001aa91906200150e565b60405180910390f35b620001bd6200049f565b604051620001cc91906200164d565b60405180910390f35b620001df62000539565b604051620001ee91906200164d565b60405180910390f35b6200021560048036038101906200020f9190620016b6565b620005cf565b60405162000224919062001705565b60405180910390f35b6200024b600480360381019062000245919062001873565b6200070c565b6040516200025a91906200150e565b60405180910390f35b6200026d6200076b565b6040516200027c919062001951565b60405180910390f35b620002a360048036038101906200029d9190620016b6565b62000791565b005b620002af62000816565b604051620002be91906200164d565b60405180910390f35b620002d1620008ac565b604051620002e091906200164d565b60405180910390f35b620003076004803603810190620003019190620019a9565b62000942565b005b620003276004803603810190620003219190620019a9565b62000bf4565b005b6200033362000eec565b6040516200034291906200150e565b60405180910390f35b6200035562000ef4565b6040516200036491906200164d565b60405180910390f35b6200037762000f8e565b60405162000386919062001b87565b60405180910390f35b620003ad6004803603810190620003a79190620016b6565b6200103b565b005b620003b9620010bf565b604051620003c891906200164d565b60405180910390f35b620003ef6004803603810190620003e99190620016b6565b62001159565b604051620003fe919062001705565b60405180910390f35b62000411620013f6565b60405162000420919062001bd0565b60405180910390f35b6000600660009054906101000a900473ffffffffffffffffffffffffffffffffffffffff16905090565b600360009054906101000a900473ffffffffffffffffffffffffffffffffffffffff1681565b600660009054906101000a900473ffffffffffffffffffffffffffffffffffffffff1681565b606060088054620004b09062001c1c565b80601f0160208091040260200160405190810160405280929190818152602001828054620004de9062001c1c565b80156200052f5780601f1062000503576101008083540402835291602001916200052f565b820191906000526020600020905b8154815290600101906020018083116200051157829003601f168201915b5050505050905090565b60078054620005489062001c1c565b80601f0160208091040260200160405190810160405280929190818152602001828054620005769062001c1c565b8015620005c75780601f106200059b57610100808354040283529160200191620005c7565b820191906000526020600020905b815481529060010190602001808311620005a957829003601f168201915b505050505081565b6000600c60008373ffffffffffffffffffffffffffffffffffffffff1673ffffffffffffffffffffffffffffffffffffffff16815260200190815260200160002060009054906101000a900460ff1662000660576040517f08c379a0000000000000000000000000000000000000000000000000000000008152600401620006579062001ca1565b60405180910390fd5b6000600c60008473ffffffffffffffffffffffffffffffffffffffff1673ffffffffffffffffffffffffffffffffffffffff16815260200190815260200160002060006101000a81548160ff021916908315150217905550600c60008373ffffffffffffffffffffffffffffffffffffffff1673ffffffffffffffffffffffffffffffffffffffff16815260200190815260200160002060009054906101000a900460ff169050919050565b60008030308686866040516200072290620014bb565b6200073295949392919062001cc3565b604051809103906000f0801580156200074f573d6000803e3d6000fd5b50905062000760308686866200141c565b809150509392505050565b600160009054906101000a900473ffffffffffffffffffffffffffffffffffffffff1681565b80600a60006101000a81548173ffffffffffffffffffffffffffffffffffffffff021916908373ffffffffffffffffffffffffffffffffffffffff16021790555080600260006101000a81548173ffffffffffffffffffffffffffffffffffffffff021916908373ffffffffffffffffffffffffffffffffffffffff16021790555050565b60088054620008259062001c1c565b80601f0160208091040260200160405190810160405280929190818152602001828054620008539062001c1c565b8015620008a45780601f106200087857610100808354040283529160200191620008a4565b820191906000526020600020905b8154815290600101906020018083116200088657829003601f168201915b505050505081565b60098054620008bb9062001c1c565b80601f0160208091040260200160405190810160405280929190818152602001828054620008e99062001c1c565b80156200093a5780601f106200090e576101008083540402835291602001916200093a565b820191906000526020600020905b8154815290600101906020018083116200091c57829003601f168201915b505050505081565b3373ffffffffffffffffffffffffffffffffffffffff16600560009054906101000a900473ffffffffffffffffffffffffffffffffffffffff1673ffffffffffffffffffffffffffffffffffffffff16146200099d57600080fd5b80600260009054906101000a900473ffffffffffffffffffffffffffffffffffffffff1673ffffffffffffffffffffffffffffffffffffffff166370a08231306040518263ffffffff1660e01b8152600401620009fb91906200150e565b602060405180830381865afa15801562000a19573d6000803e3d6000fd5b505050506040513d601f19601f8201168201806040525081019062000a3f919062001d4c565b101562000a83576040517f08c379a000000000000000000000000000000000000000000000000000000000815260040162000a7a9062001dce565b60405180910390fd5b600260009054906101000a900473ffffffffffffffffffffffffffffffffffffffff1673ffffffffffffffffffffffffffffffffffffffff1663095ea7b330836040518363ffffffff1660e01b815260040162000ae292919062001e01565b6020604051808303816000875af115801562000b02573d6000803e3d6000fd5b505050506040513d601f19601f8201168201806040525081019062000b28919062001e5f565b50600260009054906101000a900473ffffffffffffffffffffffffffffffffffffffff1673ffffffffffffffffffffffffffffffffffffffff1663a9059cbb600660009054906101000a900473ffffffffffffffffffffffffffffffffffffffff16836040518363ffffffff1660e01b815260040162000baa92919062001e01565b6020604051808303816000875af115801562000bca573d6000803e3d6000fd5b505050506040513d601f19601f8201168201806040525081019062000bf0919062001e5f565b5050565b3373ffffffffffffffffffffffffffffffffffffffff16600560009054906101000a900473ffffffffffffffffffffffffffffffffffffffff1673ffffffffffffffffffffffffffffffffffffffff161462000c4f57600080fd5b80600260009054906101000a900473ffffffffffffffffffffffffffffffffffffffff1673ffffffffffffffffffffffffffffffffffffffff166370a08231600660009054906101000a900473ffffffffffffffffffffffffffffffffffffffff166040518263ffffffff1660e01b815260040162000ccf91906200150e565b602060405180830381865afa15801562000ced573d6000803e3d6000fd5b505050506040513d601f19601f8201168201806040525081019062000d13919062001d4c565b101562000d57576040517f08c379a000000000000000000000000000000000000000000000000000000000815260040162000d4e9062001dce565b60405180910390fd5b600260009054906101000a900473ffffffffffffffffffffffffffffffffffffffff1673ffffffffffffffffffffffffffffffffffffffff1663095ea7b3600660009054906101000a900473ffffffffffffffffffffffffffffffffffffffff16836040518363ffffffff1660e01b815260040162000dd892919062001e01565b6020604051808303816000875af115801562000df8573d6000803e3d6000fd5b505050506040513d601f19601f8201168201806040525081019062000e1e919062001e5f565b50600260009054906101000a900473ffffffffffffffffffffffffffffffffffffffff1673ffffffffffffffffffffffffffffffffffffffff166323b872dd600660009054906101000a900473ffffffffffffffffffffffffffffffffffffffff1630846040518463ffffffff1660e01b815260040162000ea29392919062001e91565b6020604051808303816000875af115801562000ec2573d6000803e3d6000fd5b505050506040513d601f19601f8201168201806040525081019062000ee8919062001e5f565b5050565b600030905090565b60606009805462000f059062001c1c565b80601f016020809104026020016040519081016040528092919081815260200182805462000f339062001c1c565b801562000f845780601f1062000f585761010080835404028352916020019162000f84565b820191906000526020600020905b81548152906001019060200180831162000f6657829003601f168201915b5050505050905090565b6060600160009054906101000a900473ffffffffffffffffffffffffffffffffffffffff1673ffffffffffffffffffffffffffffffffffffffff166358cedf57306040518263ffffffff1660e01b815260040162000fed91906200150e565b600060405180830381865afa1580156200100b573d6000803e3d6000fd5b505050506040513d6000823e3d601f19601f820116820180604052508101906200103691906200214b565b905090565b806000806101000a81548173ffffffffffffffffffffffffffffffffffffffff021916908373ffffffffffffffffffffffffffffffffffffffff16021790555080600160006101000a81548173ffffffffffffffffffffffffffffffffffffffff021916908373ffffffffffffffffffffffffffffffffffffffff16021790555050565b606060078054620010d09062001c1c565b80601f0160208091040260200160405190810160405280929190818152602001828054620010fe9062001c1c565b80156200114f5780601f1062001123576101008083540402835291602001916200114f565b820191906000526020600020905b8154815290600101906020018083116200113157829003601f168201915b5050505050905090565b6000600c60008373ffffffffffffffffffffffffffffffffffffffff1673ffffffffffffffffffffffffffffffffffffffff16815260200190815260200160002060009054906101000a900460ff1615620011eb576040517f08c379a0000000000000000000000000000000000000000000000000000000008152600401620011e290620021ec565b60405180910390fd5b60005b600b80549050811015620013a1578273ffffffffffffffffffffffffffffffffffffffff16600b82815481106200122a57620012296200220e565b5b9060005260206000200160009054906101000a900473ffffffffffffffffffffffffffffffffffffffff1673ffffffffffffffffffffffffffffffffffffffff1603620012cf576001600c60008573ffffffffffffffffffffffffffffffffffffffff1673ffffffffffffffffffffffffffffffffffffffff16815260200190815260200160002060006101000a81548160ff0219169083151502179055506200138b565b600b839080600181540180825580915050600190039060005260206000200160009091909190916101000a81548173ffffffffffffffffffffffffffffffffffffffff021916908373ffffffffffffffffffffffffffffffffffffffff1602179055506001600c60008573ffffffffffffffffffffffffffffffffffffffff1673ffffffffffffffffffffffffffffffffffffffff16815260200190815260200160002060006101000a81548160ff0219169083151502179055505b808062001398906200226c565b915050620011ee565b50600c60008373ffffffffffffffffffffffffffffffffffffffff1673ffffffffffffffffffffffffffffffffffffffff16815260200190815260200160002060009054906101000a900460ff169050919050565b600260009054906101000a900473ffffffffffffffffffffffffffffffffffffffff1681565b600160009054906101000a900473ffffffffffffffffffffffffffffffffffffffff1673ffffffffffffffffffffffffffffffffffffffff16632f92fb2e30868686866040518663ffffffff1660e01b81526004016200148195949392919062001cc3565b600060405180830381600087803b1580156200149c57600080fd5b505af1158015620014b1573d6000803e3d6000fd5b5050505050505050565b6123dd80620022ba83390190565b600073ffffffffffffffffffffffffffffffffffffffff82169050919050565b6000620014f682620014c9565b9050919050565b6200150881620014e9565b82525050565b6000602082019050620015256000830184620014fd565b92915050565b6000819050919050565b600062001556620015506200154a84620014c9565b6200152b565b620014c9565b9050919050565b60006200156a8262001535565b9050919050565b60006200157e826200155d565b9050919050565b620015908162001571565b82525050565b6000602082019050620015ad600083018462001585565b92915050565b600081519050919050565b600082825260208201905092915050565b60005b83811015620015ef578082015181840152602081019050620015d2565b60008484015250505050565b6000601f19601f8301169050919050565b60006200161982620015b3565b620016258185620015be565b935062001637818560208601620015cf565b6200164281620015fb565b840191505092915050565b600060208201905081810360008301526200166981846200160c565b905092915050565b6000604051905090565b600080fd5b600080fd5b6200169081620014e9565b81146200169c57600080fd5b50565b600081359050620016b08162001685565b92915050565b600060208284031215620016cf57620016ce6200167b565b5b6000620016df848285016200169f565b91505092915050565b60008115159050919050565b620016ff81620016e8565b82525050565b60006020820190506200171c6000830184620016f4565b92915050565b600080fd5b600080fd5b7f4e487b7100000000000000000000000000000000000000000000000000000000600052604160045260246000fd5b6200176682620015fb565b810181811067ffffffffffffffff821117156200178857620017876200172c565b5b80604052505050565b60006200179d62001671565b9050620017ab82826200175b565b919050565b600067ffffffffffffffff821115620017ce57620017cd6200172c565b5b620017d982620015fb565b9050602081019050919050565b82818337600083830152505050565b60006200180c6200180684620017b0565b62001791565b9050828152602081018484840111156200182b576200182a62001727565b5b62001838848285620017e6565b509392505050565b600082601f83011262001858576200185762001722565b5b81356200186a848260208601620017f5565b91505092915050565b6000806000606084860312156200188f576200188e6200167b565b5b600084013567ffffffffffffffff811115620018b057620018af62001680565b5b620018be8682870162001840565b935050602084013567ffffffffffffffff811115620018e257620018e162001680565b5b620018f08682870162001840565b925050604084013567ffffffffffffffff81111562001914576200191362001680565b5b620019228682870162001840565b9150509250925092565b600062001939826200155d565b9050919050565b6200194b816200192c565b82525050565b600060208201905062001968600083018462001940565b92915050565b6000819050919050565b62001983816200196e565b81146200198f57600080fd5b50565b600081359050620019a38162001978565b92915050565b600060208284031215620019c257620019c16200167b565b5b6000620019d28482850162001992565b91505092915050565b600081519050919050565b600082825260208201905092915050565b6000819050602082019050919050565b62001a1281620014e9565b82525050565b600082825260208201905092915050565b600062001a3682620015b3565b62001a42818562001a18565b935062001a54818560208601620015cf565b62001a5f81620015fb565b840191505092915050565b600060808301600083015162001a84600086018262001a07565b506020830151848203602086015262001a9e828262001a29565b9150506040830151848203604086015262001aba828262001a29565b9150506060830151848203606086015262001ad6828262001a29565b9150508091505092915050565b600062001af1838362001a6a565b905092915050565b6000602082019050919050565b600062001b1382620019db565b62001b1f8185620019e6565b93508360208202850162001b3385620019f7565b8060005b8581101562001b75578484038952815162001b53858262001ae3565b945062001b608362001af9565b925060208a0199505060018101905062001b37565b50829750879550505050505092915050565b6000602082019050818103600083015262001ba3818462001b06565b905092915050565b600062001bb8826200155d565b9050919050565b62001bca8162001bab565b82525050565b600060208201905062001be7600083018462001bbf565b92915050565b7f4e487b7100000000000000000000000000000000000000000000000000000000600052602260045260246000fd5b6000600282049050600182168062001c3557607f821691505b60208210810362001c4b5762001c4a62001bed565b5b50919050565b7f616c7265616479206e6f74206368656572000000000000000000000000000000600082015250565b600062001c89601183620015be565b915062001c968262001c51565b602082019050919050565b6000602082019050818103600083015262001cbc8162001c7a565b9050919050565b600060a08201905062001cda6000830188620014fd565b62001ce96020830187620014fd565b818103604083015262001cfd81866200160c565b9050818103606083015262001d1381856200160c565b9050818103608083015262001d2981846200160c565b90509695505050505050565b60008151905062001d468162001978565b92915050565b60006020828403121562001d655762001d646200167b565b5b600062001d758482850162001d35565b91505092915050565b7f6e6f7420696e73756666696369656e7400000000000000000000000000000000600082015250565b600062001db6601083620015be565b915062001dc38262001d7e565b602082019050919050565b6000602082019050818103600083015262001de98162001da7565b9050919050565b62001dfb816200196e565b82525050565b600060408201905062001e186000830185620014fd565b62001e27602083018462001df0565b9392505050565b62001e3981620016e8565b811462001e4557600080fd5b50565b60008151905062001e598162001e2e565b92915050565b60006020828403121562001e785762001e776200167b565b5b600062001e888482850162001e48565b91505092915050565b600060608201905062001ea86000830186620014fd565b62001eb76020830185620014fd565b62001ec6604083018462001df0565b949350505050565b600067ffffffffffffffff82111562001eec5762001eeb6200172c565b5b602082029050602081019050919050565b600080fd5b600080fd5b600080fd5b60008151905062001f1d8162001685565b92915050565b600062001f3a62001f3484620017b0565b62001791565b90508281526020810184848401111562001f595762001f5862001727565b5b62001f66848285620015cf565b509392505050565b600082601f83011262001f865762001f8562001722565b5b815162001f9884826020860162001f23565b91505092915050565b60006080828403121562001fba5762001fb962001f02565b5b62001fc6608062001791565b9050600062001fd88482850162001f0c565b600083015250602082015167ffffffffffffffff81111562001fff5762001ffe62001f07565b5b6200200d8482850162001f6e565b602083015250604082015167ffffffffffffffff81111562002034576200203362001f07565b5b620020428482850162001f6e565b604083015250606082015167ffffffffffffffff81111562002069576200206862001f07565b5b620020778482850162001f6e565b60608301525092915050565b60006200209a620020948462001ece565b62001791565b90508083825260208201905060208402830185811115620020c057620020bf62001efd565b5b835b818110156200210e57805167ffffffffffffffff811115620020e957620020e862001722565b5b808601620020f8898262001fa1565b85526020850194505050602081019050620020c2565b5050509392505050565b600082601f83011262002130576200212f62001722565b5b81516200214284826020860162002083565b91505092915050565b6000602082840312156200216457620021636200167b565b5b600082015167ffffffffffffffff81111562002185576200218462001680565b5b620021938482850162002118565b91505092915050565b7f616c726561647920636865657200000000000000000000000000000000000000600082015250565b6000620021d4600d83620015be565b9150620021e1826200219c565b602082019050919050565b600060208201905081810360008301526200220781620021c5565b9050919050565b7f4e487b7100000000000000000000000000000000000000000000000000000000600052603260045260246000fd5b7f4e487b7100000000000000000000000000000000000000000000000000000000600052601160045260246000fd5b600062002279826200196e565b91507fffffffffffffffffffffffffffffffffffffffffffffffffffffffffffffffff8203620022ae57620022ad6200223d565b5b60018201905091905056fe60806040527338d4172dde4e50a8cdd8b39abc572443d18ad72d600960006101000a81548173ffffffffffffffffffffffffffffffffffffffff021916908373ffffffffffffffffffffffffffffffffffffffff1602179055503480156200006657600080fd5b50604051620023dd380380620023dd83398181016040528101906200008c9190620004b0565b600c60009054906101000a900473ffffffffffffffffffffffffffffffffffffffff16600d60006101000a81548173ffffffffffffffffffffffffffffffffffffffff021916908373ffffffffffffffffffffffffffffffffffffffff160217905550600960009054906101000a900473ffffffffffffffffffffffffffffffffffffffff166000806101000a81548173ffffffffffffffffffffffffffffffffffffffff021916908373ffffffffffffffffffffffffffffffffffffffff160217905550600260009054906101000a900473ffffffffffffffffffffffffffffffffffffffff16600160006101000a81548173ffffffffffffffffffffffffffffffffffffffff021916908373ffffffffffffffffffffffffffffffffffffffff16021790555033600360006101000a81548173ffffffffffffffffffffffffffffffffffffffff021916908373ffffffffffffffffffffffffffffffffffffffff16021790555084600460006101000a81548173ffffffffffffffffffffffffffffffffffffffff021916908373ffffffffffffffffffffffffffffffffffffffff16021790555083600560006101000a81548173ffffffffffffffffffffffffffffffffffffffff021916908373ffffffffffffffffffffffffffffffffffffffff1602179055508260069081620002889190620007e0565b5081600790816200029a9190620007e0565b508060089081620002ac9190620007e0565b505050505050620008c7565b6000604051905090565b600080fd5b600080fd5b600073ffffffffffffffffffffffffffffffffffffffff82169050919050565b6000620002f982620002cc565b9050919050565b6200030b81620002ec565b81146200031757600080fd5b50565b6000815190506200032b8162000300565b92915050565b600080fd5b600080fd5b6000601f19601f8301169050919050565b7f4e487b7100000000000000000000000000000000000000000000000000000000600052604160045260246000fd5b62000386826200033b565b810181811067ffffffffffffffff82111715620003a857620003a76200034c565b5b80604052505050565b6000620003bd620002b8565b9050620003cb82826200037b565b919050565b600067ffffffffffffffff821115620003ee57620003ed6200034c565b5b620003f9826200033b565b9050602081019050919050565b60005b838110156200042657808201518184015260208101905062000409565b60008484015250505050565b6000620004496200044384620003d0565b620003b1565b90508281526020810184848401111562000468576200046762000336565b5b6200047584828562000406565b509392505050565b600082601f83011262000495576200049462000331565b5b8151620004a784826020860162000432565b91505092915050565b600080600080600060a08688031215620004cf57620004ce620002c2565b5b6000620004df888289016200031a565b9550506020620004f2888289016200031a565b945050604086015167ffffffffffffffff811115620005165762000515620002c7565b5b62000524888289016200047d565b935050606086015167ffffffffffffffff811115620005485762000547620002c7565b5b62000556888289016200047d565b925050608086015167ffffffffffffffff8111156200057a5762000579620002c7565b5b62000588888289016200047d565b9150509295509295909350565b600081519050919050565b7f4e487b7100000000000000000000000000000000000000000000000000000000600052602260045260246000fd5b60006002820490506001821680620005e857607f821691505b602082108103620005fe57620005fd620005a0565b5b50919050565b60008190508160005260206000209050919050565b60006020601f8301049050919050565b600082821b905092915050565b600060088302620006687fffffffffffffffffffffffffffffffffffffffffffffffffffffffffffffffff8262000629565b62000674868362000629565b95508019841693508086168417925050509392505050565b6000819050919050565b6000819050919050565b6000620006c1620006bb620006b5846200068c565b62000696565b6200068c565b9050919050565b6000819050919050565b620006dd83620006a0565b620006f5620006ec82620006c8565b84845462000636565b825550505050565b600090565b6200070c620006fd565b62000719818484620006d2565b505050565b5b8181101562000741576200073560008262000702565b6001810190506200071f565b5050565b601f82111562000790576200075a8162000604565b620007658462000619565b8101602085101562000775578190505b6200078d620007848562000619565b8301826200071e565b50505b505050565b600082821c905092915050565b6000620007b56000198460080262000795565b1980831691505092915050565b6000620007d08383620007a2565b9150826002028217905092915050565b620007eb8262000595565b67ffffffffffffffff8111156200080757620008066200034c565b5b620008138254620005cf565b6200082082828562000745565b600060209050601f83116001811462000858576000841562000843578287015190505b6200084f8582620007c2565b865550620008bf565b601f198416620008688662000604565b60005b8281101562000892578489015182556001820191506020850194506020810190506200086b565b86831015620008b25784890151620008ae601f891682620007a2565b8355505b6001600288020188555050505b505050505050565b611b0680620008d76000396000f3fe608060405234801561001057600080fd5b50600436106100a95760003560e01c806332b04e2b1161007157806332b04e2b146101425780635e001c341461016057806365550ba41461017c57806371b3423d146101985780639a33e300146101b6578063f6acee23146101d4576100a9565b806316e66f43146100ae5780631a314956146100ca5780631b5feff5146100e85780631d90fb1f14610106578063250a12d914610124575b600080fd5b6100c860048036038101906100c39190610efc565b6101f2565b005b6100d2610277565b6040516100df9190610fb9565b60405180910390f35b6100f0610305565b6040516100fd9190611172565b60405180910390f35b61010e610460565b60405161011b91906111f3565b60405180910390f35b61012c610486565b604051610139919061121d565b60405180910390f35b61014a610528565b6040516101579190610fb9565b60405180910390f35b61017a60048036038101906101759190610efc565b6105b6565b005b61019660048036038101906101919190611399565b61063a565b005b6101a06107be565b6040516101ad9190611416565b60405180910390f35b6101be6107e4565b6040516101cb9190610fb9565b60405180910390f35b6101dc610872565b6040516101e99190611452565b60405180910390f35b80600c60006101000a81548173ffffffffffffffffffffffffffffffffffffffff021916908373ffffffffffffffffffffffffffffffffffffffff16021790555080600d60006101000a81548173ffffffffffffffffffffffffffffffffffffffff021916908373ffffffffffffffffffffffffffffffffffffffff16021790555050565b600780546102849061149c565b80601f01602080910402602001604051908101604052809291908181526020018280546102b09061149c565b80156102fd5780601f106102d2576101008083540402835291602001916102fd565b820191906000526020600020905b8154815290600101906020018083116102e057829003601f168201915b505050505081565b6060600a805480602002602001604051908101604052809291908181526020016000905b8282101561045757838290600052602060002090600402016040518060800160405290816000820160009054906101000a900473ffffffffffffffffffffffffffffffffffffffff1673ffffffffffffffffffffffffffffffffffffffff1673ffffffffffffffffffffffffffffffffffffffff168152602001600182015481526020016002820180546103bc9061149c565b80601f01602080910402602001604051908101604052809291908181526020018280546103e89061149c565b80156104355780601f1061040a57610100808354040283529160200191610435565b820191906000526020600020905b81548152906001019060200180831161041857829003601f168201915b5050505050815260200160038201548152505081526020019060010190610329565b50505050905090565b600160009054906101000a900473ffffffffffffffffffffffffffffffffffffffff1681565b60008060009054906101000a900473ffffffffffffffffffffffffffffffffffffffff1673ffffffffffffffffffffffffffffffffffffffff166370a08231306040518263ffffffff1660e01b81526004016104e291906114dc565b602060405180830381865afa1580156104ff573d6000803e3d6000fd5b505050506040513d601f19601f82011682018060405250810190610523919061150c565b905090565b600880546105359061149c565b80601f01602080910402602001604051908101604052809291908181526020018280546105619061149c565b80156105ae5780601f10610583576101008083540402835291602001916105ae565b820191906000526020600020905b81548152906001019060200180831161059157829003601f168201915b505050505081565b80600960006101000a81548173ffffffffffffffffffffffffffffffffffffffff021916908373ffffffffffffffffffffffffffffffffffffffff160217905550806000806101000a81548173ffffffffffffffffffffffffffffffffffffffff021916908373ffffffffffffffffffffffffffffffffffffffff16021790555050565b8160008054906101000a900473ffffffffffffffffffffffffffffffffffffffff1673ffffffffffffffffffffffffffffffffffffffff166370a08231600d60009054906101000a900473ffffffffffffffffffffffffffffffffffffffff1673ffffffffffffffffffffffffffffffffffffffff16631599a352336040518263ffffffff1660e01b81526004016106d291906114dc565b602060405180830381865afa1580156106ef573d6000803e3d6000fd5b505050506040513d601f19601f82011682018060405250810190610713919061154e565b6040518263ffffffff1660e01b815260040161072f91906114dc565b602060405180830381865afa15801561074c573d6000803e3d6000fd5b505050506040513d601f19601f82011682018060405250810190610770919061150c565b116107b0576040517f08c379a00000000000000000000000000000000000000000000000000000000081526004016107a7906115c7565b60405180910390fd5b6107ba8282610896565b5050565b600d60009054906101000a900473ffffffffffffffffffffffffffffffffffffffff1681565b600680546107f19061149c565b80601f016020809104026020016040519081016040528092919081815260200182805461081d9061149c565b801561086a5780601f1061083f5761010080835404028352916020019161086a565b820191906000526020600020905b81548152906001019060200180831161084d57829003601f168201915b505050505081565b60008054906101000a900473ffffffffffffffffffffffffffffffffffffffff1681565b60008054906101000a900473ffffffffffffffffffffffffffffffffffffffff1673ffffffffffffffffffffffffffffffffffffffff166323b872dd600d60009054906101000a900473ffffffffffffffffffffffffffffffffffffffff1673ffffffffffffffffffffffffffffffffffffffff16631599a352336040518263ffffffff1660e01b815260040161092d91906114dc565b602060405180830381865afa15801561094a573d6000803e3d6000fd5b505050506040513d601f19601f8201168201806040525081019061096e919061154e565b30856040518463ffffffff1660e01b815260040161098e939291906115e7565b6020604051808303816000875af11580156109ad573d6000803e3d6000fd5b505050506040513d601f19601f820116820180604052508101906109d19190611656565b50600a6040518060800160405280600d60009054906101000a900473ffffffffffffffffffffffffffffffffffffffff1673ffffffffffffffffffffffffffffffffffffffff16631599a352336040518263ffffffff1660e01b8152600401610a3a91906114dc565b602060405180830381865afa158015610a57573d6000803e3d6000fd5b505050506040513d601f19601f82011682018060405250810190610a7b919061154e565b73ffffffffffffffffffffffffffffffffffffffff16815260200142815260200183815260200184815250908060018154018082558091505060019003906000526020600020906004020160009091909190915060008201518160000160006101000a81548173ffffffffffffffffffffffffffffffffffffffff021916908373ffffffffffffffffffffffffffffffffffffffff160217905550602082015181600101556040820151816002019081610b359190611825565b50606082015181600301555050610b4b82610b4f565b5050565b80600b6000828254610b619190611926565b9250508190555060006064604683610b79919061195a565b610b8391906119cb565b905060006064601984610b96919061195a565b610ba091906119cb565b90506000818385610bb191906119fc565b610bbb91906119fc565b905060005b600a80549050811015610d015760008054906101000a900473ffffffffffffffffffffffffffffffffffffffff1673ffffffffffffffffffffffffffffffffffffffff1663a9059cbb600a8381548110610c1d57610c1c611a30565b5b906000526020600020906004020160000160009054906101000a900473ffffffffffffffffffffffffffffffffffffffff16600b54600a8581548110610c6657610c65611a30565b5b90600052602060002090600402016003015488610c83919061195a565b610c8d91906119cb565b6040518363ffffffff1660e01b8152600401610caa929190611a5f565b6020604051808303816000875af1158015610cc9573d6000803e3d6000fd5b505050506040513d601f19601f82011682018060405250810190610ced9190611656565b508080610cf990611a88565b915050610bc0565b5060008054906101000a900473ffffffffffffffffffffffffffffffffffffffff1673ffffffffffffffffffffffffffffffffffffffff1663a9059cbb600460009054906101000a900473ffffffffffffffffffffffffffffffffffffffff16846040518363ffffffff1660e01b8152600401610d7f929190611a5f565b6020604051808303816000875af1158015610d9e573d6000803e3d6000fd5b505050506040513d601f19601f82011682018060405250810190610dc29190611656565b5060008054906101000a900473ffffffffffffffffffffffffffffffffffffffff1673ffffffffffffffffffffffffffffffffffffffff1663a9059cbb600560009054906101000a900473ffffffffffffffffffffffffffffffffffffffff16836040518363ffffffff1660e01b8152600401610e40929190611a5f565b6020604051808303816000875af1158015610e5f573d6000803e3d6000fd5b505050506040513d601f19601f82011682018060405250810190610e839190611656565b5050505050565b6000604051905090565b600080fd5b600080fd5b600073ffffffffffffffffffffffffffffffffffffffff82169050919050565b6000610ec982610e9e565b9050919050565b610ed981610ebe565b8114610ee457600080fd5b50565b600081359050610ef681610ed0565b92915050565b600060208284031215610f1257610f11610e94565b5b6000610f2084828501610ee7565b91505092915050565b600081519050919050565b600082825260208201905092915050565b60005b83811015610f63578082015181840152602081019050610f48565b60008484015250505050565b6000601f19601f8301169050919050565b6000610f8b82610f29565b610f958185610f34565b9350610fa5818560208601610f45565b610fae81610f6f565b840191505092915050565b60006020820190508181036000830152610fd38184610f80565b905092915050565b600081519050919050565b600082825260208201905092915050565b6000819050602082019050919050565b61101081610ebe565b82525050565b6000819050919050565b61102981611016565b82525050565b600082825260208201905092915050565b600061104b82610f29565b611055818561102f565b9350611065818560208601610f45565b61106e81610f6f565b840191505092915050565b60006080830160008301516110916000860182611007565b5060208301516110a46020860182611020565b50604083015184820360408601526110bc8282611040565b91505060608301516110d16060860182611020565b508091505092915050565b60006110e88383611079565b905092915050565b6000602082019050919050565b600061110882610fdb565b6111128185610fe6565b93508360208202850161112485610ff7565b8060005b85811015611160578484038952815161114185826110dc565b945061114c836110f0565b925060208a01995050600181019050611128565b50829750879550505050505092915050565b6000602082019050818103600083015261118c81846110fd565b905092915050565b6000819050919050565b60006111b96111b46111af84610e9e565b611194565b610e9e565b9050919050565b60006111cb8261119e565b9050919050565b60006111dd826111c0565b9050919050565b6111ed816111d2565b82525050565b600060208201905061120860008301846111e4565b92915050565b61121781611016565b82525050565b6000602082019050611232600083018461120e565b92915050565b61124181611016565b811461124c57600080fd5b50565b60008135905061125e81611238565b92915050565b600080fd5b600080fd5b7f4e487b7100000000000000000000000000000000000000000000000000000000600052604160045260246000fd5b6112a682610f6f565b810181811067ffffffffffffffff821117156112c5576112c461126e565b5b80604052505050565b60006112d8610e8a565b90506112e4828261129d565b919050565b600067ffffffffffffffff8211156113045761130361126e565b5b61130d82610f6f565b9050602081019050919050565b82818337600083830152505050565b600061133c611337846112e9565b6112ce565b90508281526020810184848401111561135857611357611269565b5b61136384828561131a565b509392505050565b600082601f8301126113805761137f611264565b5b8135611390848260208601611329565b91505092915050565b600080604083850312156113b0576113af610e94565b5b60006113be8582860161124f565b925050602083013567ffffffffffffffff8111156113df576113de610e99565b5b6113eb8582860161136b565b9150509250929050565b6000611400826111c0565b9050919050565b611410816113f5565b82525050565b600060208201905061142b6000830184611407565b92915050565b600061143c826111c0565b9050919050565b61144c81611431565b82525050565b60006020820190506114676000830184611443565b92915050565b7f4e487b7100000000000000000000000000000000000000000000000000000000600052602260045260246000fd5b600060028204905060018216806114b457607f821691505b6020821081036114c7576114c661146d565b5b50919050565b6114d681610ebe565b82525050565b60006020820190506114f160008301846114cd565b92915050565b60008151905061150681611238565b92915050565b60006020828403121561152257611521610e94565b5b6000611530848285016114f7565b91505092915050565b60008151905061154881610ed0565b92915050565b60006020828403121561156457611563610e94565b5b600061157284828501611539565b91505092915050565b7f4e6f7420656e6f75676800000000000000000000000000000000000000000000600082015250565b60006115b1600a83610f34565b91506115bc8261157b565b602082019050919050565b600060208201905081810360008301526115e0816115a4565b9050919050565b60006060820190506115fc60008301866114cd565b61160960208301856114cd565b611616604083018461120e565b949350505050565b60008115159050919050565b6116338161161e565b811461163e57600080fd5b50565b6000815190506116508161162a565b92915050565b60006020828403121561166c5761166b610e94565b5b600061167a84828501611641565b91505092915050565b60008190508160005260206000209050919050565b60006020601f8301049050919050565b600082821b905092915050565b6000600883026116e57fffffffffffffffffffffffffffffffffffffffffffffffffffffffffffffffff826116a8565b6116ef86836116a8565b95508019841693508086168417925050509392505050565b600061172261171d61171884611016565b611194565b611016565b9050919050565b6000819050919050565b61173c83611707565b61175061174882611729565b8484546116b5565b825550505050565b600090565b611765611758565b611770818484611733565b505050565b5b818110156117945761178960008261175d565b600181019050611776565b5050565b601f8211156117d9576117aa81611683565b6117b384611698565b810160208510156117c2578190505b6117d66117ce85611698565b830182611775565b50505b505050565b600082821c905092915050565b60006117fc600019846008026117de565b1980831691505092915050565b600061181583836117eb565b9150826002028217905092915050565b61182e82610f29565b67ffffffffffffffff8111156118475761184661126e565b5b611851825461149c565b61185c828285611798565b600060209050601f83116001811461188f576000841561187d578287015190505b6118878582611809565b8655506118ef565b601f19841661189d86611683565b60005b828110156118c5578489015182556001820191506020850194506020810190506118a0565b868310156118e257848901516118de601f8916826117eb565b8355505b6001600288020188555050505b505050505050565b7f4e487b7100000000000000000000000000000000000000000000000000000000600052601160045260246000fd5b600061193182611016565b915061193c83611016565b9250828201905080821115611954576119536118f7565b5b92915050565b600061196582611016565b915061197083611016565b925082820261197e81611016565b91508282048414831517611995576119946118f7565b5b5092915050565b7f4e487b7100000000000000000000000000000000000000000000000000000000600052601260045260246000fd5b60006119d682611016565b91506119e183611016565b9250826119f1576119f061199c565b5b828204905092915050565b6000611a0782611016565b9150611a1283611016565b9250828203905081811115611a2a57611a296118f7565b5b92915050565b7f4e487b7100000000000000000000000000000000000000000000000000000000600052603260045260246000fd5b6000604082019050611a7460008301856114cd565b611a81602083018461120e565b9392505050565b6000611a9382611016565b91507fffffffffffffffffffffffffffffffffffffffffffffffffffffffffffffffff8203611ac557611ac46118f7565b5b60018201905091905056fea2646970667358221220c17b092bc57a29dea967d41d6ec0af312be5dcc5fb76e7e7993ab0d4b5acc4c764736f6c63430008110033a2646970667358221220618d9bb5a0775f8d5239eb28203917a6777cd079ad106971c7053bf4b0ea21f264736f6c63430008110033",
  "linkReferences": {},
  "deployedLinkReferences": {}
}