{
  "_format": "hh-sol-artifact-1",
  "contractName": "DaoPool",
  "sourceName": "contracts/DaoPool.sol",
  "abi": [
    {
      "inputs": [
        {
          "internalType": "address",
          "name": "_poolOwnerAddress",
          "type": "address"
        },
        {
          "internalType": "string",
          "name": "_daoName",
          "type": "string"
        },
        {
          "internalType": "string",
          "name": "_daoProfile",
          "type": "string"
        },
        {
          "internalType": "string",
          "name": "_daoIcon",
          "type": "string"
        },
        {
          "internalType": "address",
          "name": "_cheersDappAddress",
          "type": "address"
        }
      ],
      "stateMutability": "nonpayable",
      "type": "constructor"
    },
    {
      "inputs": [
        {
          "internalType": "address",
          "name": "_cheerProjectPoolAddress",
          "type": "address"
        }
      ],
      "name": "addCheerProject",
      "outputs": [
        {
          "internalType": "bool",
          "name": "",
          "type": "bool"
        }
      ],
      "stateMutability": "nonpayable",
      "type": "function"
    },
    {
      "inputs": [
        {
          "internalType": "uint256",
          "name": "_cherAmount",
          "type": "uint256"
        }
      ],
      "name": "chargeCher",
      "outputs": [],
      "stateMutability": "nonpayable",
      "type": "function"
    },
    {
      "inputs": [],
      "name": "cheersDapp",
      "outputs": [
        {
          "internalType": "contract ICheers",
          "name": "",
          "type": "address"
        }
      ],
      "stateMutability": "view",
      "type": "function"
    },
    {
      "inputs": [],
      "name": "cher",
      "outputs": [
        {
          "internalType": "contract IERC20",
          "name": "",
          "type": "address"
        }
      ],
      "stateMutability": "view",
      "type": "function"
    },
    {
      "inputs": [],
      "name": "daoAddress",
      "outputs": [
        {
          "internalType": "address",
          "name": "",
          "type": "address"
        }
      ],
      "stateMutability": "view",
      "type": "function"
    },
    {
      "inputs": [],
      "name": "daoIcon",
      "outputs": [
        {
          "internalType": "string",
          "name": "",
          "type": "string"
        }
      ],
      "stateMutability": "view",
      "type": "function"
    },
    {
      "inputs": [],
      "name": "daoName",
      "outputs": [
        {
          "internalType": "string",
          "name": "",
          "type": "string"
        }
      ],
      "stateMutability": "view",
      "type": "function"
    },
    {
      "inputs": [],
      "name": "daoProfile",
      "outputs": [
        {
          "internalType": "string",
          "name": "",
          "type": "string"
        }
      ],
      "stateMutability": "view",
      "type": "function"
    },
    {
      "inputs": [],
      "name": "getAllChallengeProjects",
      "outputs": [
        {
          "components": [
            {
              "internalType": "address",
              "name": "belongDaoAddress",
              "type": "address"
            },
            {
              "internalType": "string",
              "name": "projectName",
              "type": "string"
            },
            {
              "internalType": "string",
              "name": "projectContents",
              "type": "string"
            },
            {
              "internalType": "string",
              "name": "projectReword",
              "type": "string"
            }
          ],
          "internalType": "struct SharedStruct.Project[]",
          "name": "",
          "type": "tuple[]"
        }
      ],
      "stateMutability": "view",
      "type": "function"
    },
    {
      "inputs": [],
      "name": "getDaoAddress",
      "outputs": [
        {
          "internalType": "address",
          "name": "",
          "type": "address"
        }
      ],
      "stateMutability": "view",
      "type": "function"
    },
    {
      "inputs": [],
      "name": "getDaoIcon",
      "outputs": [
        {
          "internalType": "string",
          "name": "",
          "type": "string"
        }
      ],
      "stateMutability": "view",
      "type": "function"
    },
    {
      "inputs": [],
      "name": "getDaoName",
      "outputs": [
        {
          "internalType": "string",
          "name": "",
          "type": "string"
        }
      ],
      "stateMutability": "view",
      "type": "function"
    },
    {
      "inputs": [],
      "name": "getDaoPoolAddress",
      "outputs": [
        {
          "internalType": "address",
          "name": "",
          "type": "address"
        }
      ],
      "stateMutability": "view",
      "type": "function"
    },
    {
      "inputs": [],
      "name": "getDaoProfile",
      "outputs": [
        {
          "internalType": "string",
          "name": "",
          "type": "string"
        }
      ],
      "stateMutability": "view",
      "type": "function"
    },
    {
      "inputs": [
        {
          "internalType": "string",
          "name": "_projectName",
          "type": "string"
        },
        {
          "internalType": "string",
          "name": "_projectContents",
          "type": "string"
        },
        {
          "internalType": "string",
          "name": "_projectReword",
          "type": "string"
        }
      ],
      "name": "newProjectFactory",
      "outputs": [
        {
          "internalType": "address",
          "name": "",
          "type": "address"
        }
      ],
      "stateMutability": "nonpayable",
      "type": "function"
    },
    {
      "inputs": [],
      "name": "projectsData",
      "outputs": [
        {
          "internalType": "contract IProjectsData",
          "name": "",
          "type": "address"
        }
      ],
      "stateMutability": "view",
      "type": "function"
    },
    {
      "inputs": [
        {
          "internalType": "address",
          "name": "_cheerProjectPoolAddress",
          "type": "address"
        }
      ],
      "name": "removeCheerProject",
      "outputs": [
        {
          "internalType": "bool",
          "name": "",
          "type": "bool"
        }
      ],
      "stateMutability": "nonpayable",
      "type": "function"
    },
    {
      "inputs": [
        {
          "internalType": "uint256",
          "name": "_cherAmount",
          "type": "uint256"
        }
      ],
      "name": "withdrowCher",
      "outputs": [],
      "stateMutability": "nonpayable",
      "type": "function"
    }
  ],
  "bytecode": "0x60806040527338d4172dde4e50a8cdd8b39abc572443d18ad72d600a60006101000a81548173ffffffffffffffffffffffffffffffffffffffff021916908373ffffffffffffffffffffffffffffffffffffffff1602179055503480156200006657600080fd5b5060405162004cb638038062004cb683398181016040528101906200008c9190620004af565b600a60009054906101000a900473ffffffffffffffffffffffffffffffffffffffff16600260006101000a81548173ffffffffffffffffffffffffffffffffffffffff021916908373ffffffffffffffffffffffffffffffffffffffff16021790555084600560006101000a81548173ffffffffffffffffffffffffffffffffffffffff021916908373ffffffffffffffffffffffffffffffffffffffff16021790555084600660006101000a81548173ffffffffffffffffffffffffffffffffffffffff021916908373ffffffffffffffffffffffffffffffffffffffff1602179055508360079081620001829190620007df565b508260089081620001949190620007df565b508160099081620001a69190620007df565b5080600460006101000a81548173ffffffffffffffffffffffffffffffffffffffff021916908373ffffffffffffffffffffffffffffffffffffffff160217905550600460009054906101000a900473ffffffffffffffffffffffffffffffffffffffff16600360006101000a81548173ffffffffffffffffffffffffffffffffffffffff021916908373ffffffffffffffffffffffffffffffffffffffff16021790555060008054906101000a900473ffffffffffffffffffffffffffffffffffffffff16600160006101000a81548173ffffffffffffffffffffffffffffffffffffffff021916908373ffffffffffffffffffffffffffffffffffffffff1602179055505050505050620008c6565b6000604051905090565b600080fd5b600080fd5b600073ffffffffffffffffffffffffffffffffffffffff82169050919050565b6000620002f882620002cb565b9050919050565b6200030a81620002eb565b81146200031657600080fd5b50565b6000815190506200032a81620002ff565b92915050565b600080fd5b600080fd5b6000601f19601f8301169050919050565b7f4e487b7100000000000000000000000000000000000000000000000000000000600052604160045260246000fd5b62000385826200033a565b810181811067ffffffffffffffff82111715620003a757620003a66200034b565b5b80604052505050565b6000620003bc620002b7565b9050620003ca82826200037a565b919050565b600067ffffffffffffffff821115620003ed57620003ec6200034b565b5b620003f8826200033a565b9050602081019050919050565b60005b838110156200042557808201518184015260208101905062000408565b60008484015250505050565b6000620004486200044284620003cf565b620003b0565b90508281526020810184848401111562000467576200046662000335565b5b6200047484828562000405565b509392505050565b600082601f83011262000494576200049362000330565b5b8151620004a684826020860162000431565b91505092915050565b600080600080600060a08688031215620004ce57620004cd620002c1565b5b6000620004de8882890162000319565b955050602086015167ffffffffffffffff811115620005025762000501620002c6565b5b62000510888289016200047c565b945050604086015167ffffffffffffffff811115620005345762000533620002c6565b5b62000542888289016200047c565b935050606086015167ffffffffffffffff811115620005665762000565620002c6565b5b62000574888289016200047c565b9250506080620005878882890162000319565b9150509295509295909350565b600081519050919050565b7f4e487b7100000000000000000000000000000000000000000000000000000000600052602260045260246000fd5b60006002820490506001821680620005e757607f821691505b602082108103620005fd57620005fc6200059f565b5b50919050565b60008190508160005260206000209050919050565b60006020601f8301049050919050565b600082821b905092915050565b600060088302620006677fffffffffffffffffffffffffffffffffffffffffffffffffffffffffffffffff8262000628565b62000673868362000628565b95508019841693508086168417925050509392505050565b6000819050919050565b6000819050919050565b6000620006c0620006ba620006b4846200068b565b62000695565b6200068b565b9050919050565b6000819050919050565b620006dc836200069f565b620006f4620006eb82620006c7565b84845462000635565b825550505050565b600090565b6200070b620006fc565b62000718818484620006d1565b505050565b5b8181101562000740576200073460008262000701565b6001810190506200071e565b5050565b601f8211156200078f57620007598162000603565b620007648462000618565b8101602085101562000774578190505b6200078c620007838562000618565b8301826200071d565b50505b505050565b600082821c905092915050565b6000620007b46000198460080262000794565b1980831691505092915050565b6000620007cf8383620007a1565b9150826002028217905092915050565b620007ea8262000594565b67ffffffffffffffff8111156200080657620008056200034b565b5b620008128254620005ce565b6200081f82828562000744565b600060209050601f83116001811462000857576000841562000842578287015190505b6200084e8582620007c1565b865550620008be565b601f198416620008678662000603565b60005b8281101562000891578489015182556001820191506020850194506020810190506200086a565b86831015620008b15784890151620008ad601f891682620007a1565b8355505b6001600288020188555050505b505050505050565b6143e080620008d66000396000f3fe60806040523480156200001157600080fd5b5060043610620001305760003560e01c80636e1c120211620000b1578063cc371c14116200007b578063cc371c141462000315578063d4a4fc4c1462000337578063d4dadf011462000359578063dfaca4a2146200038f578063f6acee2314620003af5762000130565b80636e1c1202146200028f578063a36b5fa214620002b1578063a7319fd814620002d1578063a80fcbf014620002f35762000130565b80634897693611620000ff5780634897693614620001bd5780634a37787014620001df5780634c18308a14620002155780634d7adf09146200024b578063649c3f2b146200026d5762000130565b80631d68702d14620001355780631d90fb1f14620001575780632131c68c14620001795780632f593a0b146200019b575b600080fd5b6200013f620003d1565b6040516200014e9190620013d1565b60405180910390f35b62000161620003fb565b60405162000170919062001459565b60405180910390f35b6200018362000421565b604051620001929190620013d1565b60405180910390f35b620001a562000447565b604051620001b4919062001510565b60405180910390f35b620001c7620004e1565b604051620001d6919062001510565b60405180910390f35b620001fd6004803603810190620001f7919062001579565b62000577565b6040516200020c9190620015c8565b60405180910390f35b6200023360048036038101906200022d919062001736565b620006b4565b604051620002429190620013d1565b60405180910390f35b6200025562000737565b60405162000264919062001814565b60405180910390f35b620002776200075d565b60405162000286919062001510565b60405180910390f35b62000299620007f3565b604051620002a8919062001510565b60405180910390f35b620002cf6004803603810190620002c991906200186c565b62000889565b005b620002db62000b81565b604051620002ea9190620013d1565b60405180910390f35b620002fd62000b89565b6040516200030c919062001510565b60405180910390f35b6200031f62000c23565b6040516200032e919062001a4a565b60405180910390f35b6200034162000cd0565b60405162000350919062001510565b60405180910390f35b62000377600480360381019062000371919062001579565b62000d6a565b604051620003869190620015c8565b60405180910390f35b620003ad6004803603810190620003a791906200186c565b62001007565b005b620003b9620012b9565b604051620003c8919062001a93565b60405180910390f35b6000600660009054906101000a900473ffffffffffffffffffffffffffffffffffffffff16905090565b600360009054906101000a900473ffffffffffffffffffffffffffffffffffffffff1681565b600660009054906101000a900473ffffffffffffffffffffffffffffffffffffffff1681565b606060088054620004589062001adf565b80601f0160208091040260200160405190810160405280929190818152602001828054620004869062001adf565b8015620004d75780601f10620004ab57610100808354040283529160200191620004d7565b820191906000526020600020905b815481529060010190602001808311620004b957829003601f168201915b5050505050905090565b60078054620004f09062001adf565b80601f01602080910402602001604051908101604052809291908181526020018280546200051e9062001adf565b80156200056f5780601f1062000543576101008083540402835291602001916200056f565b820191906000526020600020905b8154815290600101906020018083116200055157829003601f168201915b505050505081565b6000600c60008373ffffffffffffffffffffffffffffffffffffffff1673ffffffffffffffffffffffffffffffffffffffff16815260200190815260200160002060009054906101000a900460ff1662000608576040517f08c379a0000000000000000000000000000000000000000000000000000000008152600401620005ff9062001b64565b60405180910390fd5b6000600c60008473ffffffffffffffffffffffffffffffffffffffff1673ffffffffffffffffffffffffffffffffffffffff16815260200190815260200160002060006101000a81548160ff021916908315150217905550600c60008373ffffffffffffffffffffffffffffffffffffffff1673ffffffffffffffffffffffffffffffffffffffff16815260200190815260200160002060009054906101000a900460ff169050919050565b6000803030868686600460009054906101000a900473ffffffffffffffffffffffffffffffffffffffff16604051620006ed906200137e565b620006fe9695949392919062001b86565b604051809103906000f0801580156200071b573d6000803e3d6000fd5b5090506200072c30868686620012df565b809150509392505050565b600160009054906101000a900473ffffffffffffffffffffffffffffffffffffffff1681565b600880546200076c9062001adf565b80601f01602080910402602001604051908101604052809291908181526020018280546200079a9062001adf565b8015620007eb5780601f10620007bf57610100808354040283529160200191620007eb565b820191906000526020600020905b815481529060010190602001808311620007cd57829003601f168201915b505050505081565b60098054620008029062001adf565b80601f0160208091040260200160405190810160405280929190818152602001828054620008309062001adf565b8015620008815780601f10620008555761010080835404028352916020019162000881565b820191906000526020600020905b8154815290600101906020018083116200086357829003601f168201915b505050505081565b3373ffffffffffffffffffffffffffffffffffffffff16600560009054906101000a900473ffffffffffffffffffffffffffffffffffffffff1673ffffffffffffffffffffffffffffffffffffffff1614620008e457600080fd5b80600260009054906101000a900473ffffffffffffffffffffffffffffffffffffffff1673ffffffffffffffffffffffffffffffffffffffff166370a08231600660009054906101000a900473ffffffffffffffffffffffffffffffffffffffff166040518263ffffffff1660e01b8152600401620009649190620013d1565b602060405180830381865afa15801562000982573d6000803e3d6000fd5b505050506040513d601f19601f82011682018060405250810190620009a8919062001c1f565b1015620009ec576040517f08c379a0000000000000000000000000000000000000000000000000000000008152600401620009e39062001ca1565b60405180910390fd5b600260009054906101000a900473ffffffffffffffffffffffffffffffffffffffff1673ffffffffffffffffffffffffffffffffffffffff1663095ea7b3600660009054906101000a900473ffffffffffffffffffffffffffffffffffffffff16836040518363ffffffff1660e01b815260040162000a6d92919062001cd4565b6020604051808303816000875af115801562000a8d573d6000803e3d6000fd5b505050506040513d601f19601f8201168201806040525081019062000ab3919062001d32565b50600260009054906101000a900473ffffffffffffffffffffffffffffffffffffffff1673ffffffffffffffffffffffffffffffffffffffff166323b872dd600660009054906101000a900473ffffffffffffffffffffffffffffffffffffffff1630846040518463ffffffff1660e01b815260040162000b379392919062001d64565b6020604051808303816000875af115801562000b57573d6000803e3d6000fd5b505050506040513d601f19601f8201168201806040525081019062000b7d919062001d32565b5050565b600030905090565b60606009805462000b9a9062001adf565b80601f016020809104026020016040519081016040528092919081815260200182805462000bc89062001adf565b801562000c195780601f1062000bed5761010080835404028352916020019162000c19565b820191906000526020600020905b81548152906001019060200180831162000bfb57829003601f168201915b5050505050905090565b6060600160009054906101000a900473ffffffffffffffffffffffffffffffffffffffff1673ffffffffffffffffffffffffffffffffffffffff166358cedf57306040518263ffffffff1660e01b815260040162000c829190620013d1565b600060405180830381865afa15801562000ca0573d6000803e3d6000fd5b505050506040513d6000823e3d601f19601f8201168201806040525081019062000ccb91906200201e565b905090565b60606007805462000ce19062001adf565b80601f016020809104026020016040519081016040528092919081815260200182805462000d0f9062001adf565b801562000d605780601f1062000d345761010080835404028352916020019162000d60565b820191906000526020600020905b81548152906001019060200180831162000d4257829003601f168201915b5050505050905090565b6000600c60008373ffffffffffffffffffffffffffffffffffffffff1673ffffffffffffffffffffffffffffffffffffffff16815260200190815260200160002060009054906101000a900460ff161562000dfc576040517f08c379a000000000000000000000000000000000000000000000000000000000815260040162000df390620020bf565b60405180910390fd5b60005b600b8054905081101562000fb2578273ffffffffffffffffffffffffffffffffffffffff16600b828154811062000e3b5762000e3a620020e1565b5b9060005260206000200160009054906101000a900473ffffffffffffffffffffffffffffffffffffffff1673ffffffffffffffffffffffffffffffffffffffff160362000ee0576001600c60008573ffffffffffffffffffffffffffffffffffffffff1673ffffffffffffffffffffffffffffffffffffffff16815260200190815260200160002060006101000a81548160ff02191690831515021790555062000f9c565b600b839080600181540180825580915050600190039060005260206000200160009091909190916101000a81548173ffffffffffffffffffffffffffffffffffffffff021916908373ffffffffffffffffffffffffffffffffffffffff1602179055506001600c60008573ffffffffffffffffffffffffffffffffffffffff1673ffffffffffffffffffffffffffffffffffffffff16815260200190815260200160002060006101000a81548160ff0219169083151502179055505b808062000fa9906200213f565b91505062000dff565b50600c60008373ffffffffffffffffffffffffffffffffffffffff1673ffffffffffffffffffffffffffffffffffffffff16815260200190815260200160002060009054906101000a900460ff169050919050565b3373ffffffffffffffffffffffffffffffffffffffff16600560009054906101000a900473ffffffffffffffffffffffffffffffffffffffff1673ffffffffffffffffffffffffffffffffffffffff16146200106257600080fd5b80600260009054906101000a900473ffffffffffffffffffffffffffffffffffffffff1673ffffffffffffffffffffffffffffffffffffffff166370a08231306040518263ffffffff1660e01b8152600401620010c09190620013d1565b602060405180830381865afa158015620010de573d6000803e3d6000fd5b505050506040513d601f19601f8201168201806040525081019062001104919062001c1f565b101562001148576040517f08c379a00000000000000000000000000000000000000000000000000000000081526004016200113f9062001ca1565b60405180910390fd5b600260009054906101000a900473ffffffffffffffffffffffffffffffffffffffff1673ffffffffffffffffffffffffffffffffffffffff1663095ea7b330836040518363ffffffff1660e01b8152600401620011a792919062001cd4565b6020604051808303816000875af1158015620011c7573d6000803e3d6000fd5b505050506040513d601f19601f82011682018060405250810190620011ed919062001d32565b50600260009054906101000a900473ffffffffffffffffffffffffffffffffffffffff1673ffffffffffffffffffffffffffffffffffffffff1663a9059cbb600660009054906101000a900473ffffffffffffffffffffffffffffffffffffffff16836040518363ffffffff1660e01b81526004016200126f92919062001cd4565b6020604051808303816000875af11580156200128f573d6000803e3d6000fd5b505050506040513d601f19601f82011682018060405250810190620012b5919062001d32565b5050565b600260009054906101000a900473ffffffffffffffffffffffffffffffffffffffff1681565b600160009054906101000a900473ffffffffffffffffffffffffffffffffffffffff1673ffffffffffffffffffffffffffffffffffffffff16632f92fb2e30868686866040518663ffffffff1660e01b8152600401620013449594939291906200218c565b600060405180830381600087803b1580156200135f57600080fd5b505af115801562001374573d6000803e3d6000fd5b5050505050505050565b6121ac80620021ff83390190565b600073ffffffffffffffffffffffffffffffffffffffff82169050919050565b6000620013b9826200138c565b9050919050565b620013cb81620013ac565b82525050565b6000602082019050620013e86000830184620013c0565b92915050565b6000819050919050565b600062001419620014136200140d846200138c565b620013ee565b6200138c565b9050919050565b60006200142d82620013f8565b9050919050565b6000620014418262001420565b9050919050565b620014538162001434565b82525050565b600060208201905062001470600083018462001448565b92915050565b600081519050919050565b600082825260208201905092915050565b60005b83811015620014b257808201518184015260208101905062001495565b60008484015250505050565b6000601f19601f8301169050919050565b6000620014dc8262001476565b620014e8818562001481565b9350620014fa81856020860162001492565b6200150581620014be565b840191505092915050565b600060208201905081810360008301526200152c8184620014cf565b905092915050565b6000604051905090565b600080fd5b600080fd5b6200155381620013ac565b81146200155f57600080fd5b50565b600081359050620015738162001548565b92915050565b6000602082840312156200159257620015916200153e565b5b6000620015a28482850162001562565b91505092915050565b60008115159050919050565b620015c281620015ab565b82525050565b6000602082019050620015df6000830184620015b7565b92915050565b600080fd5b600080fd5b7f4e487b7100000000000000000000000000000000000000000000000000000000600052604160045260246000fd5b6200162982620014be565b810181811067ffffffffffffffff821117156200164b576200164a620015ef565b5b80604052505050565b60006200166062001534565b90506200166e82826200161e565b919050565b600067ffffffffffffffff821115620016915762001690620015ef565b5b6200169c82620014be565b9050602081019050919050565b82818337600083830152505050565b6000620016cf620016c98462001673565b62001654565b905082815260208101848484011115620016ee57620016ed620015ea565b5b620016fb848285620016a9565b509392505050565b600082601f8301126200171b576200171a620015e5565b5b81356200172d848260208601620016b8565b91505092915050565b6000806000606084860312156200175257620017516200153e565b5b600084013567ffffffffffffffff81111562001773576200177262001543565b5b620017818682870162001703565b935050602084013567ffffffffffffffff811115620017a557620017a462001543565b5b620017b38682870162001703565b925050604084013567ffffffffffffffff811115620017d757620017d662001543565b5b620017e58682870162001703565b9150509250925092565b6000620017fc8262001420565b9050919050565b6200180e81620017ef565b82525050565b60006020820190506200182b600083018462001803565b92915050565b6000819050919050565b620018468162001831565b81146200185257600080fd5b50565b60008135905062001866816200183b565b92915050565b6000602082840312156200188557620018846200153e565b5b6000620018958482850162001855565b91505092915050565b600081519050919050565b600082825260208201905092915050565b6000819050602082019050919050565b620018d581620013ac565b82525050565b600082825260208201905092915050565b6000620018f98262001476565b620019058185620018db565b93506200191781856020860162001492565b6200192281620014be565b840191505092915050565b6000608083016000830151620019476000860182620018ca565b5060208301518482036020860152620019618282620018ec565b915050604083015184820360408601526200197d8282620018ec565b91505060608301518482036060860152620019998282620018ec565b9150508091505092915050565b6000620019b483836200192d565b905092915050565b6000602082019050919050565b6000620019d6826200189e565b620019e28185620018a9565b935083602082028501620019f685620018ba565b8060005b8581101562001a38578484038952815162001a168582620019a6565b945062001a2383620019bc565b925060208a01995050600181019050620019fa565b50829750879550505050505092915050565b6000602082019050818103600083015262001a668184620019c9565b905092915050565b600062001a7b8262001420565b9050919050565b62001a8d8162001a6e565b82525050565b600060208201905062001aaa600083018462001a82565b92915050565b7f4e487b7100000000000000000000000000000000000000000000000000000000600052602260045260246000fd5b6000600282049050600182168062001af857607f821691505b60208210810362001b0e5762001b0d62001ab0565b5b50919050565b7f616c72656479206e6f7420636865657200000000000000000000000000000000600082015250565b600062001b4c60108362001481565b915062001b598262001b14565b602082019050919050565b6000602082019050818103600083015262001b7f8162001b3d565b9050919050565b600060c08201905062001b9d6000830189620013c0565b62001bac6020830188620013c0565b818103604083015262001bc08187620014cf565b9050818103606083015262001bd68186620014cf565b9050818103608083015262001bec8185620014cf565b905062001bfd60a0830184620013c0565b979650505050505050565b60008151905062001c19816200183b565b92915050565b60006020828403121562001c385762001c376200153e565b5b600062001c488482850162001c08565b91505092915050565b7f6e6f7420696e73756666696369656e7400000000000000000000000000000000600082015250565b600062001c8960108362001481565b915062001c968262001c51565b602082019050919050565b6000602082019050818103600083015262001cbc8162001c7a565b9050919050565b62001cce8162001831565b82525050565b600060408201905062001ceb6000830185620013c0565b62001cfa602083018462001cc3565b9392505050565b62001d0c81620015ab565b811462001d1857600080fd5b50565b60008151905062001d2c8162001d01565b92915050565b60006020828403121562001d4b5762001d4a6200153e565b5b600062001d5b8482850162001d1b565b91505092915050565b600060608201905062001d7b6000830186620013c0565b62001d8a6020830185620013c0565b62001d99604083018462001cc3565b949350505050565b600067ffffffffffffffff82111562001dbf5762001dbe620015ef565b5b602082029050602081019050919050565b600080fd5b600080fd5b600080fd5b60008151905062001df08162001548565b92915050565b600062001e0d62001e078462001673565b62001654565b90508281526020810184848401111562001e2c5762001e2b620015ea565b5b62001e3984828562001492565b509392505050565b600082601f83011262001e595762001e58620015e5565b5b815162001e6b84826020860162001df6565b91505092915050565b60006080828403121562001e8d5762001e8c62001dd5565b5b62001e99608062001654565b9050600062001eab8482850162001ddf565b600083015250602082015167ffffffffffffffff81111562001ed25762001ed162001dda565b5b62001ee08482850162001e41565b602083015250604082015167ffffffffffffffff81111562001f075762001f0662001dda565b5b62001f158482850162001e41565b604083015250606082015167ffffffffffffffff81111562001f3c5762001f3b62001dda565b5b62001f4a8482850162001e41565b60608301525092915050565b600062001f6d62001f678462001da1565b62001654565b9050808382526020820190506020840283018581111562001f935762001f9262001dd0565b5b835b8181101562001fe157805167ffffffffffffffff81111562001fbc5762001fbb620015e5565b5b80860162001fcb898262001e74565b8552602085019450505060208101905062001f95565b5050509392505050565b600082601f830112620020035762002002620015e5565b5b81516200201584826020860162001f56565b91505092915050565b6000602082840312156200203757620020366200153e565b5b600082015167ffffffffffffffff81111562002058576200205762001543565b5b620020668482850162001feb565b91505092915050565b7f616c726564792063686565720000000000000000000000000000000000000000600082015250565b6000620020a7600c8362001481565b9150620020b4826200206f565b602082019050919050565b60006020820190508181036000830152620020da8162002098565b9050919050565b7f4e487b7100000000000000000000000000000000000000000000000000000000600052603260045260246000fd5b7f4e487b7100000000000000000000000000000000000000000000000000000000600052601160045260246000fd5b60006200214c8262001831565b91507fffffffffffffffffffffffffffffffffffffffffffffffffffffffffffffffff820362002181576200218062002110565b5b600182019050919050565b600060a082019050620021a36000830188620013c0565b620021b26020830187620013c0565b8181036040830152620021c68186620014cf565b90508181036060830152620021dc8185620014cf565b90508181036080830152620021f28184620014cf565b9050969550505050505056fe60806040527338d4172dde4e50a8cdd8b39abc572443d18ad72d600960006101000a81548173ffffffffffffffffffffffffffffffffffffffff021916908373ffffffffffffffffffffffffffffffffffffffff1602179055503480156200006657600080fd5b50604051620021ac380380620021ac83398181016040528101906200008c91906200048f565b600960009054906101000a900473ffffffffffffffffffffffffffffffffffffffff166000806101000a81548173ffffffffffffffffffffffffffffffffffffffff021916908373ffffffffffffffffffffffffffffffffffffffff160217905550600260009054906101000a900473ffffffffffffffffffffffffffffffffffffffff16600160006101000a81548173ffffffffffffffffffffffffffffffffffffffff021916908373ffffffffffffffffffffffffffffffffffffffff16021790555033600360006101000a81548173ffffffffffffffffffffffffffffffffffffffff021916908373ffffffffffffffffffffffffffffffffffffffff16021790555085600460006101000a81548173ffffffffffffffffffffffffffffffffffffffff021916908373ffffffffffffffffffffffffffffffffffffffff16021790555084600560006101000a81548173ffffffffffffffffffffffffffffffffffffffff021916908373ffffffffffffffffffffffffffffffffffffffff1602179055508360069081620002259190620007d3565b508260079081620002379190620007d3565b508160089081620002499190620007d3565b5080600260006101000a81548173ffffffffffffffffffffffffffffffffffffffff021916908373ffffffffffffffffffffffffffffffffffffffff160217905550505050505050620008ba565b6000604051905090565b600080fd5b600080fd5b600073ffffffffffffffffffffffffffffffffffffffff82169050919050565b6000620002d882620002ab565b9050919050565b620002ea81620002cb565b8114620002f657600080fd5b50565b6000815190506200030a81620002df565b92915050565b600080fd5b600080fd5b6000601f19601f8301169050919050565b7f4e487b7100000000000000000000000000000000000000000000000000000000600052604160045260246000fd5b62000365826200031a565b810181811067ffffffffffffffff821117156200038757620003866200032b565b5b80604052505050565b60006200039c62000297565b9050620003aa82826200035a565b919050565b600067ffffffffffffffff821115620003cd57620003cc6200032b565b5b620003d8826200031a565b9050602081019050919050565b60005b8381101562000405578082015181840152602081019050620003e8565b60008484015250505050565b6000620004286200042284620003af565b62000390565b90508281526020810184848401111562000447576200044662000315565b5b62000454848285620003e5565b509392505050565b600082601f83011262000474576200047362000310565b5b81516200048684826020860162000411565b91505092915050565b60008060008060008060c08789031215620004af57620004ae620002a1565b5b6000620004bf89828a01620002f9565b9650506020620004d289828a01620002f9565b955050604087015167ffffffffffffffff811115620004f657620004f5620002a6565b5b6200050489828a016200045c565b945050606087015167ffffffffffffffff811115620005285762000527620002a6565b5b6200053689828a016200045c565b935050608087015167ffffffffffffffff8111156200055a5762000559620002a6565b5b6200056889828a016200045c565b92505060a06200057b89828a01620002f9565b9150509295509295509295565b600081519050919050565b7f4e487b7100000000000000000000000000000000000000000000000000000000600052602260045260246000fd5b60006002820490506001821680620005db57607f821691505b602082108103620005f157620005f062000593565b5b50919050565b60008190508160005260206000209050919050565b60006020601f8301049050919050565b600082821b905092915050565b6000600883026200065b7fffffffffffffffffffffffffffffffffffffffffffffffffffffffffffffffff826200061c565b6200066786836200061c565b95508019841693508086168417925050509392505050565b6000819050919050565b6000819050919050565b6000620006b4620006ae620006a8846200067f565b62000689565b6200067f565b9050919050565b6000819050919050565b620006d08362000693565b620006e8620006df82620006bb565b84845462000629565b825550505050565b600090565b620006ff620006f0565b6200070c818484620006c5565b505050565b5b81811015620007345762000728600082620006f5565b60018101905062000712565b5050565b601f82111562000783576200074d81620005f7565b62000758846200060c565b8101602085101562000768578190505b6200078062000777856200060c565b83018262000711565b50505b505050565b600082821c905092915050565b6000620007a86000198460080262000788565b1980831691505092915050565b6000620007c3838362000795565b9150826002028217905092915050565b620007de8262000588565b67ffffffffffffffff811115620007fa57620007f96200032b565b5b620008068254620005c2565b6200081382828562000738565b600060209050601f8311600181146200084b576000841562000836578287015190505b620008428582620007b5565b865550620008b2565b601f1984166200085b86620005f7565b60005b8281101562000885578489015182556001820191506020850194506020810190506200085e565b86831015620008a55784890151620008a1601f89168262000795565b8355505b6001600288020188555050505b505050505050565b6118e280620008ca6000396000f3fe608060405234801561001057600080fd5b50600436106100885760003560e01c806332b04e2b1161005b57806332b04e2b1461010557806365550ba4146101235780639a33e3001461013f578063f6acee231461015d57610088565b80631a3149561461008d5780631b5feff5146100ab5780631d90fb1f146100c9578063250a12d9146100e7575b600080fd5b61009561017b565b6040516100a29190610d74565b60405180910390f35b6100b3610209565b6040516100c09190610f5f565b60405180910390f35b6100d1610364565b6040516100de9190610fe0565b60405180910390f35b6100ef61038a565b6040516100fc919061100a565b60405180910390f35b61010d61042c565b60405161011a9190610d74565b60405180910390f35b61013d6004803603810190610138919061119a565b6104ba565b005b61014761063e565b6040516101549190610d74565b60405180910390f35b6101656106cc565b6040516101729190611217565b60405180910390f35b6007805461018890611261565b80601f01602080910402602001604051908101604052809291908181526020018280546101b490611261565b80156102015780601f106101d657610100808354040283529160200191610201565b820191906000526020600020905b8154815290600101906020018083116101e457829003601f168201915b505050505081565b6060600a805480602002602001604051908101604052809291908181526020016000905b8282101561035b57838290600052602060002090600402016040518060800160405290816000820160009054906101000a900473ffffffffffffffffffffffffffffffffffffffff1673ffffffffffffffffffffffffffffffffffffffff1673ffffffffffffffffffffffffffffffffffffffff168152602001600182015481526020016002820180546102c090611261565b80601f01602080910402602001604051908101604052809291908181526020018280546102ec90611261565b80156103395780601f1061030e57610100808354040283529160200191610339565b820191906000526020600020905b81548152906001019060200180831161031c57829003601f168201915b505050505081526020016003820154815250508152602001906001019061022d565b50505050905090565b600160009054906101000a900473ffffffffffffffffffffffffffffffffffffffff1681565b60008060009054906101000a900473ffffffffffffffffffffffffffffffffffffffff1673ffffffffffffffffffffffffffffffffffffffff166370a08231306040518263ffffffff1660e01b81526004016103e691906112a1565b602060405180830381865afa158015610403573d6000803e3d6000fd5b505050506040513d601f19601f8201168201806040525081019061042791906112d1565b905090565b6008805461043990611261565b80601f016020809104026020016040519081016040528092919081815260200182805461046590611261565b80156104b25780601f10610487576101008083540402835291602001916104b2565b820191906000526020600020905b81548152906001019060200180831161049557829003601f168201915b505050505081565b8160008054906101000a900473ffffffffffffffffffffffffffffffffffffffff1673ffffffffffffffffffffffffffffffffffffffff166370a08231600160009054906101000a900473ffffffffffffffffffffffffffffffffffffffff1673ffffffffffffffffffffffffffffffffffffffff16631599a352336040518263ffffffff1660e01b815260040161055291906112a1565b602060405180830381865afa15801561056f573d6000803e3d6000fd5b505050506040513d601f19601f82011682018060405250810190610593919061132a565b6040518263ffffffff1660e01b81526004016105af91906112a1565b602060405180830381865afa1580156105cc573d6000803e3d6000fd5b505050506040513d601f19601f820116820180604052508101906105f091906112d1565b11610630576040517f08c379a0000000000000000000000000000000000000000000000000000000008152600401610627906113a3565b60405180910390fd5b61063a82826106f0565b5050565b6006805461064b90611261565b80601f016020809104026020016040519081016040528092919081815260200182805461067790611261565b80156106c45780601f10610699576101008083540402835291602001916106c4565b820191906000526020600020905b8154815290600101906020018083116106a757829003601f168201915b505050505081565b60008054906101000a900473ffffffffffffffffffffffffffffffffffffffff1681565b60008054906101000a900473ffffffffffffffffffffffffffffffffffffffff1673ffffffffffffffffffffffffffffffffffffffff166323b872dd600160009054906101000a900473ffffffffffffffffffffffffffffffffffffffff1673ffffffffffffffffffffffffffffffffffffffff16631599a352336040518263ffffffff1660e01b815260040161078791906112a1565b602060405180830381865afa1580156107a4573d6000803e3d6000fd5b505050506040513d601f19601f820116820180604052508101906107c8919061132a565b30856040518463ffffffff1660e01b81526004016107e8939291906113c3565b6020604051808303816000875af1158015610807573d6000803e3d6000fd5b505050506040513d601f19601f8201168201806040525081019061082b9190611432565b50600a6040518060800160405280600160009054906101000a900473ffffffffffffffffffffffffffffffffffffffff1673ffffffffffffffffffffffffffffffffffffffff16631599a352336040518263ffffffff1660e01b815260040161089491906112a1565b602060405180830381865afa1580156108b1573d6000803e3d6000fd5b505050506040513d601f19601f820116820180604052508101906108d5919061132a565b73ffffffffffffffffffffffffffffffffffffffff16815260200142815260200183815260200184815250908060018154018082558091505060019003906000526020600020906004020160009091909190915060008201518160000160006101000a81548173ffffffffffffffffffffffffffffffffffffffff021916908373ffffffffffffffffffffffffffffffffffffffff16021790555060208201518160010155604082015181600201908161098f9190611601565b506060820151816003015550506109a5826109a9565b5050565b80600b60008282546109bb9190611702565b92505081905550600060646046836109d39190611736565b6109dd91906117a7565b9050600060646019846109f09190611736565b6109fa91906117a7565b90506000818385610a0b91906117d8565b610a1591906117d8565b905060005b600a80549050811015610b5b5760008054906101000a900473ffffffffffffffffffffffffffffffffffffffff1673ffffffffffffffffffffffffffffffffffffffff1663a9059cbb600a8381548110610a7757610a7661180c565b5b906000526020600020906004020160000160009054906101000a900473ffffffffffffffffffffffffffffffffffffffff16600b54600a8581548110610ac057610abf61180c565b5b90600052602060002090600402016003015488610add9190611736565b610ae791906117a7565b6040518363ffffffff1660e01b8152600401610b0492919061183b565b6020604051808303816000875af1158015610b23573d6000803e3d6000fd5b505050506040513d601f19601f82011682018060405250810190610b479190611432565b508080610b5390611864565b915050610a1a565b5060008054906101000a900473ffffffffffffffffffffffffffffffffffffffff1673ffffffffffffffffffffffffffffffffffffffff1663a9059cbb600460009054906101000a900473ffffffffffffffffffffffffffffffffffffffff16846040518363ffffffff1660e01b8152600401610bd992919061183b565b6020604051808303816000875af1158015610bf8573d6000803e3d6000fd5b505050506040513d601f19601f82011682018060405250810190610c1c9190611432565b5060008054906101000a900473ffffffffffffffffffffffffffffffffffffffff1673ffffffffffffffffffffffffffffffffffffffff1663a9059cbb600560009054906101000a900473ffffffffffffffffffffffffffffffffffffffff16836040518363ffffffff1660e01b8152600401610c9a92919061183b565b6020604051808303816000875af1158015610cb9573d6000803e3d6000fd5b505050506040513d601f19601f82011682018060405250810190610cdd9190611432565b5050505050565b600081519050919050565b600082825260208201905092915050565b60005b83811015610d1e578082015181840152602081019050610d03565b60008484015250505050565b6000601f19601f8301169050919050565b6000610d4682610ce4565b610d508185610cef565b9350610d60818560208601610d00565b610d6981610d2a565b840191505092915050565b60006020820190508181036000830152610d8e8184610d3b565b905092915050565b600081519050919050565b600082825260208201905092915050565b6000819050602082019050919050565b600073ffffffffffffffffffffffffffffffffffffffff82169050919050565b6000610ded82610dc2565b9050919050565b610dfd81610de2565b82525050565b6000819050919050565b610e1681610e03565b82525050565b600082825260208201905092915050565b6000610e3882610ce4565b610e428185610e1c565b9350610e52818560208601610d00565b610e5b81610d2a565b840191505092915050565b6000608083016000830151610e7e6000860182610df4565b506020830151610e916020860182610e0d565b5060408301518482036040860152610ea98282610e2d565b9150506060830151610ebe6060860182610e0d565b508091505092915050565b6000610ed58383610e66565b905092915050565b6000602082019050919050565b6000610ef582610d96565b610eff8185610da1565b935083602082028501610f1185610db2565b8060005b85811015610f4d5784840389528151610f2e8582610ec9565b9450610f3983610edd565b925060208a01995050600181019050610f15565b50829750879550505050505092915050565b60006020820190508181036000830152610f798184610eea565b905092915050565b6000819050919050565b6000610fa6610fa1610f9c84610dc2565b610f81565b610dc2565b9050919050565b6000610fb882610f8b565b9050919050565b6000610fca82610fad565b9050919050565b610fda81610fbf565b82525050565b6000602082019050610ff56000830184610fd1565b92915050565b61100481610e03565b82525050565b600060208201905061101f6000830184610ffb565b92915050565b6000604051905090565b600080fd5b600080fd5b61104281610e03565b811461104d57600080fd5b50565b60008135905061105f81611039565b92915050565b600080fd5b600080fd5b7f4e487b7100000000000000000000000000000000000000000000000000000000600052604160045260246000fd5b6110a782610d2a565b810181811067ffffffffffffffff821117156110c6576110c561106f565b5b80604052505050565b60006110d9611025565b90506110e5828261109e565b919050565b600067ffffffffffffffff8211156111055761110461106f565b5b61110e82610d2a565b9050602081019050919050565b82818337600083830152505050565b600061113d611138846110ea565b6110cf565b9050828152602081018484840111156111595761115861106a565b5b61116484828561111b565b509392505050565b600082601f83011261118157611180611065565b5b813561119184826020860161112a565b91505092915050565b600080604083850312156111b1576111b061102f565b5b60006111bf85828601611050565b925050602083013567ffffffffffffffff8111156111e0576111df611034565b5b6111ec8582860161116c565b9150509250929050565b600061120182610fad565b9050919050565b611211816111f6565b82525050565b600060208201905061122c6000830184611208565b92915050565b7f4e487b7100000000000000000000000000000000000000000000000000000000600052602260045260246000fd5b6000600282049050600182168061127957607f821691505b60208210810361128c5761128b611232565b5b50919050565b61129b81610de2565b82525050565b60006020820190506112b66000830184611292565b92915050565b6000815190506112cb81611039565b92915050565b6000602082840312156112e7576112e661102f565b5b60006112f5848285016112bc565b91505092915050565b61130781610de2565b811461131257600080fd5b50565b600081519050611324816112fe565b92915050565b6000602082840312156113405761133f61102f565b5b600061134e84828501611315565b91505092915050565b7f4e6f7420656e6f75676800000000000000000000000000000000000000000000600082015250565b600061138d600a83610cef565b915061139882611357565b602082019050919050565b600060208201905081810360008301526113bc81611380565b9050919050565b60006060820190506113d86000830186611292565b6113e56020830185611292565b6113f26040830184610ffb565b949350505050565b60008115159050919050565b61140f816113fa565b811461141a57600080fd5b50565b60008151905061142c81611406565b92915050565b6000602082840312156114485761144761102f565b5b60006114568482850161141d565b91505092915050565b60008190508160005260206000209050919050565b60006020601f8301049050919050565b600082821b905092915050565b6000600883026114c17fffffffffffffffffffffffffffffffffffffffffffffffffffffffffffffffff82611484565b6114cb8683611484565b95508019841693508086168417925050509392505050565b60006114fe6114f96114f484610e03565b610f81565b610e03565b9050919050565b6000819050919050565b611518836114e3565b61152c61152482611505565b848454611491565b825550505050565b600090565b611541611534565b61154c81848461150f565b505050565b5b8181101561157057611565600082611539565b600181019050611552565b5050565b601f8211156115b5576115868161145f565b61158f84611474565b8101602085101561159e578190505b6115b26115aa85611474565b830182611551565b50505b505050565b600082821c905092915050565b60006115d8600019846008026115ba565b1980831691505092915050565b60006115f183836115c7565b9150826002028217905092915050565b61160a82610ce4565b67ffffffffffffffff8111156116235761162261106f565b5b61162d8254611261565b611638828285611574565b600060209050601f83116001811461166b5760008415611659578287015190505b61166385826115e5565b8655506116cb565b601f1984166116798661145f565b60005b828110156116a15784890151825560018201915060208501945060208101905061167c565b868310156116be57848901516116ba601f8916826115c7565b8355505b6001600288020188555050505b505050505050565b7f4e487b7100000000000000000000000000000000000000000000000000000000600052601160045260246000fd5b600061170d82610e03565b915061171883610e03565b92508282019050808211156117305761172f6116d3565b5b92915050565b600061174182610e03565b915061174c83610e03565b925082820261175a81610e03565b91508282048414831517611771576117706116d3565b5b5092915050565b7f4e487b7100000000000000000000000000000000000000000000000000000000600052601260045260246000fd5b60006117b282610e03565b91506117bd83610e03565b9250826117cd576117cc611778565b5b828204905092915050565b60006117e382610e03565b91506117ee83610e03565b9250828203905081811115611806576118056116d3565b5b92915050565b7f4e487b7100000000000000000000000000000000000000000000000000000000600052603260045260246000fd5b60006040820190506118506000830185611292565b61185d6020830184610ffb565b9392505050565b600061186f82610e03565b91507fffffffffffffffffffffffffffffffffffffffffffffffffffffffffffffffff82036118a1576118a06116d3565b5b60018201905091905056fea26469706673582212203c722124c3a4b8e0d84d2adbd1332bbbdb2d0f94dc7d14a9515b82d03009957d64736f6c63430008110033a2646970667358221220be5481854519ff69ef3219f27feb7e62bf5a36f0838509c58c65d7ae4e57fa6564736f6c63430008110033",
  "linkReferences": {},
  "deployedLinkReferences": {}
}