{
  "_format": "hh-sol-artifact-1",
  "contractName": "DaoPool",
  "sourceName": "contracts/DaoPool.sol",
  "abi": [
    {
      "inputs": [
        {
          "internalType": "address",
          "name": "_poolOwnerAddress",
          "type": "address"
        },
        {
          "internalType": "string",
          "name": "_daoName",
          "type": "string"
        },
        {
          "internalType": "string",
          "name": "_daoProfile",
          "type": "string"
        },
        {
          "internalType": "string",
          "name": "_daoIcon",
          "type": "string"
        },
        {
          "internalType": "address",
          "name": "_cheersDappAddress",
          "type": "address"
        }
      ],
      "stateMutability": "nonpayable",
      "type": "constructor"
    },
    {
      "inputs": [
        {
          "internalType": "address",
          "name": "_cheerProjectPoolAddress",
          "type": "address"
        }
      ],
      "name": "addCheerProject",
      "outputs": [
        {
          "internalType": "bool",
          "name": "",
          "type": "bool"
        }
      ],
      "stateMutability": "nonpayable",
      "type": "function"
    },
    {
      "inputs": [
        {
          "internalType": "uint256",
          "name": "_cherAmount",
          "type": "uint256"
        }
      ],
      "name": "chargeCher",
      "outputs": [],
      "stateMutability": "nonpayable",
      "type": "function"
    },
    {
      "inputs": [],
      "name": "cheersDapp",
      "outputs": [
        {
          "internalType": "contract ICheers",
          "name": "",
          "type": "address"
        }
      ],
      "stateMutability": "view",
      "type": "function"
    },
    {
      "inputs": [],
      "name": "cher",
      "outputs": [
        {
          "internalType": "contract IERC20",
          "name": "",
          "type": "address"
        }
      ],
      "stateMutability": "view",
      "type": "function"
    },
    {
      "inputs": [],
      "name": "daoAddress",
      "outputs": [
        {
          "internalType": "address",
          "name": "",
          "type": "address"
        }
      ],
      "stateMutability": "view",
      "type": "function"
    },
    {
      "inputs": [],
      "name": "daoIcon",
      "outputs": [
        {
          "internalType": "string",
          "name": "",
          "type": "string"
        }
      ],
      "stateMutability": "view",
      "type": "function"
    },
    {
      "inputs": [],
      "name": "daoName",
      "outputs": [
        {
          "internalType": "string",
          "name": "",
          "type": "string"
        }
      ],
      "stateMutability": "view",
      "type": "function"
    },
    {
      "inputs": [],
      "name": "daoProfile",
      "outputs": [
        {
          "internalType": "string",
          "name": "",
          "type": "string"
        }
      ],
      "stateMutability": "view",
      "type": "function"
    },
    {
      "inputs": [],
      "name": "getAllChallengeProjects",
      "outputs": [
        {
          "components": [
            {
              "internalType": "address",
              "name": "belongDaoAddress",
              "type": "address"
            },
            {
              "internalType": "string",
              "name": "projectName",
              "type": "string"
            },
            {
              "internalType": "string",
              "name": "projectContents",
              "type": "string"
            },
            {
              "internalType": "string",
              "name": "projectReword",
              "type": "string"
            }
          ],
          "internalType": "struct SharedStruct.Project[]",
          "name": "",
          "type": "tuple[]"
        }
      ],
      "stateMutability": "view",
      "type": "function"
    },
    {
      "inputs": [],
      "name": "getDaoAddress",
      "outputs": [
        {
          "internalType": "address",
          "name": "",
          "type": "address"
        }
      ],
      "stateMutability": "view",
      "type": "function"
    },
    {
      "inputs": [],
      "name": "getDaoIcon",
      "outputs": [
        {
          "internalType": "string",
          "name": "",
          "type": "string"
        }
      ],
      "stateMutability": "view",
      "type": "function"
    },
    {
      "inputs": [],
      "name": "getDaoName",
      "outputs": [
        {
          "internalType": "string",
          "name": "",
          "type": "string"
        }
      ],
      "stateMutability": "view",
      "type": "function"
    },
    {
      "inputs": [],
      "name": "getDaoPoolAddress",
      "outputs": [
        {
          "internalType": "address",
          "name": "",
          "type": "address"
        }
      ],
      "stateMutability": "view",
      "type": "function"
    },
    {
      "inputs": [],
      "name": "getDaoProfile",
      "outputs": [
        {
          "internalType": "string",
          "name": "",
          "type": "string"
        }
      ],
      "stateMutability": "view",
      "type": "function"
    },
    {
      "inputs": [
        {
          "internalType": "string",
          "name": "_projectName",
          "type": "string"
        },
        {
          "internalType": "string",
          "name": "_projectContents",
          "type": "string"
        },
        {
          "internalType": "string",
          "name": "_projectReword",
          "type": "string"
        }
      ],
      "name": "newProjectFactory",
      "outputs": [
        {
          "internalType": "address",
          "name": "",
          "type": "address"
        }
      ],
      "stateMutability": "nonpayable",
      "type": "function"
    },
    {
      "inputs": [],
      "name": "projectsData",
      "outputs": [
        {
          "internalType": "contract IProjectsData",
          "name": "",
          "type": "address"
        }
      ],
      "stateMutability": "view",
      "type": "function"
    },
    {
      "inputs": [
        {
          "internalType": "address",
          "name": "_cheerProjectPoolAddress",
          "type": "address"
        }
      ],
      "name": "removeCheerProject",
      "outputs": [
        {
          "internalType": "bool",
          "name": "",
          "type": "bool"
        }
      ],
      "stateMutability": "nonpayable",
      "type": "function"
    },
    {
      "inputs": [
        {
          "internalType": "address",
          "name": "CHERAddress",
          "type": "address"
        }
      ],
      "name": "setCHER",
      "outputs": [],
      "stateMutability": "nonpayable",
      "type": "function"
    },
    {
      "inputs": [
        {
          "internalType": "uint256",
          "name": "_cherAmount",
          "type": "uint256"
        }
      ],
      "name": "withdrawCher",
      "outputs": [],
      "stateMutability": "nonpayable",
      "type": "function"
    }
  ],
  "bytecode": "0x60806040527338d4172dde4e50a8cdd8b39abc572443d18ad72d600a60006101000a81548173ffffffffffffffffffffffffffffffffffffffff021916908373ffffffffffffffffffffffffffffffffffffffff1602179055503480156200006657600080fd5b5060405162004dc438038062004dc483398181016040528101906200008c9190620004af565b600a60009054906101000a900473ffffffffffffffffffffffffffffffffffffffff16600260006101000a81548173ffffffffffffffffffffffffffffffffffffffff021916908373ffffffffffffffffffffffffffffffffffffffff16021790555084600560006101000a81548173ffffffffffffffffffffffffffffffffffffffff021916908373ffffffffffffffffffffffffffffffffffffffff16021790555084600660006101000a81548173ffffffffffffffffffffffffffffffffffffffff021916908373ffffffffffffffffffffffffffffffffffffffff1602179055508360079081620001829190620007df565b508260089081620001949190620007df565b508160099081620001a69190620007df565b5080600460006101000a81548173ffffffffffffffffffffffffffffffffffffffff021916908373ffffffffffffffffffffffffffffffffffffffff160217905550600460009054906101000a900473ffffffffffffffffffffffffffffffffffffffff16600360006101000a81548173ffffffffffffffffffffffffffffffffffffffff021916908373ffffffffffffffffffffffffffffffffffffffff16021790555060008054906101000a900473ffffffffffffffffffffffffffffffffffffffff16600160006101000a81548173ffffffffffffffffffffffffffffffffffffffff021916908373ffffffffffffffffffffffffffffffffffffffff1602179055505050505050620008c6565b6000604051905090565b600080fd5b600080fd5b600073ffffffffffffffffffffffffffffffffffffffff82169050919050565b6000620002f882620002cb565b9050919050565b6200030a81620002eb565b81146200031657600080fd5b50565b6000815190506200032a81620002ff565b92915050565b600080fd5b600080fd5b6000601f19601f8301169050919050565b7f4e487b7100000000000000000000000000000000000000000000000000000000600052604160045260246000fd5b62000385826200033a565b810181811067ffffffffffffffff82111715620003a757620003a66200034b565b5b80604052505050565b6000620003bc620002b7565b9050620003ca82826200037a565b919050565b600067ffffffffffffffff821115620003ed57620003ec6200034b565b5b620003f8826200033a565b9050602081019050919050565b60005b838110156200042557808201518184015260208101905062000408565b60008484015250505050565b6000620004486200044284620003cf565b620003b0565b90508281526020810184848401111562000467576200046662000335565b5b6200047484828562000405565b509392505050565b600082601f83011262000494576200049362000330565b5b8151620004a684826020860162000431565b91505092915050565b600080600080600060a08688031215620004ce57620004cd620002c1565b5b6000620004de8882890162000319565b955050602086015167ffffffffffffffff811115620005025762000501620002c6565b5b62000510888289016200047c565b945050604086015167ffffffffffffffff811115620005345762000533620002c6565b5b62000542888289016200047c565b935050606086015167ffffffffffffffff811115620005665762000565620002c6565b5b62000574888289016200047c565b9250506080620005878882890162000319565b9150509295509295909350565b600081519050919050565b7f4e487b7100000000000000000000000000000000000000000000000000000000600052602260045260246000fd5b60006002820490506001821680620005e757607f821691505b602082108103620005fd57620005fc6200059f565b5b50919050565b60008190508160005260206000209050919050565b60006020601f8301049050919050565b600082821b905092915050565b600060088302620006677fffffffffffffffffffffffffffffffffffffffffffffffffffffffffffffffff8262000628565b62000673868362000628565b95508019841693508086168417925050509392505050565b6000819050919050565b6000819050919050565b6000620006c0620006ba620006b4846200068b565b62000695565b6200068b565b9050919050565b6000819050919050565b620006dc836200069f565b620006f4620006eb82620006c7565b84845462000635565b825550505050565b600090565b6200070b620006fc565b62000718818484620006d1565b505050565b5b8181101562000740576200073460008262000701565b6001810190506200071e565b5050565b601f8211156200078f57620007598162000603565b620007648462000618565b8101602085101562000774578190505b6200078c620007838562000618565b8301826200071d565b50505b505050565b600082821c905092915050565b6000620007b46000198460080262000794565b1980831691505092915050565b6000620007cf8383620007a1565b9150826002028217905092915050565b620007ea8262000594565b67ffffffffffffffff8111156200080657620008056200034b565b5b620008128254620005ce565b6200081f82828562000744565b600060209050601f83116001811462000857576000841562000842578287015190505b6200084e8582620007c1565b865550620008be565b601f198416620008678662000603565b60005b8281101562000891578489015182556001820191506020850194506020810190506200086a565b86831015620008b15784890151620008ad601f891682620007a1565b8355505b6001600288020188555050505b505050505050565b6144ee80620008d66000396000f3fe60806040523480156200001157600080fd5b50600436106200013c5760003560e01c8063649c3f2b11620000bd578063a80fcbf0116200007b578063a80fcbf0146200033f578063cc371c141462000361578063d4a4fc4c1462000383578063d4dadf0114620003a5578063f6acee2314620003db576200013c565b8063649c3f2b14620002995780636e1c120214620002bb57806397987faf14620002dd578063a36b5fa214620002fd578063a7319fd8146200031d576200013c565b806348976936116200010b5780634897693614620001c95780634a37787014620001eb5780634c18308a14620002215780634d7adf0914620002575780635e001c341462000279576200013c565b80631d68702d14620001415780631d90fb1f14620001635780632131c68c14620001855780632f593a0b14620001a7575b600080fd5b6200014b620003fd565b6040516200015a91906200141d565b60405180910390f35b6200016d62000427565b6040516200017c9190620014a5565b60405180910390f35b6200018f6200044d565b6040516200019e91906200141d565b60405180910390f35b620001b162000473565b604051620001c091906200155c565b60405180910390f35b620001d36200050d565b604051620001e291906200155c565b60405180910390f35b620002096004803603810190620002039190620015c5565b620005a3565b60405162000218919062001614565b60405180910390f35b6200023f600480360381019062000239919062001782565b620006e0565b6040516200024e91906200141d565b60405180910390f35b620002616200073f565b60405162000270919062001860565b60405180910390f35b620002976004803603810190620002919190620015c5565b62000765565b005b620002a3620007a9565b604051620002b291906200155c565b60405180910390f35b620002c56200083f565b604051620002d491906200155c565b60405180910390f35b620002fb6004803603810190620002f59190620018b8565b620008d5565b005b6200031b6004803603810190620003159190620018b8565b62000b87565b005b6200032762000e7f565b6040516200033691906200141d565b60405180910390f35b6200034962000e87565b6040516200035891906200155c565b60405180910390f35b6200036b62000f21565b6040516200037a919062001a96565b60405180910390f35b6200038d62000fce565b6040516200039c91906200155c565b60405180910390f35b620003c36004803603810190620003bd9190620015c5565b62001068565b604051620003d2919062001614565b60405180910390f35b620003e562001305565b604051620003f4919062001adf565b60405180910390f35b6000600660009054906101000a900473ffffffffffffffffffffffffffffffffffffffff16905090565b600360009054906101000a900473ffffffffffffffffffffffffffffffffffffffff1681565b600660009054906101000a900473ffffffffffffffffffffffffffffffffffffffff1681565b606060088054620004849062001b2b565b80601f0160208091040260200160405190810160405280929190818152602001828054620004b29062001b2b565b8015620005035780601f10620004d75761010080835404028352916020019162000503565b820191906000526020600020905b815481529060010190602001808311620004e557829003601f168201915b5050505050905090565b600780546200051c9062001b2b565b80601f01602080910402602001604051908101604052809291908181526020018280546200054a9062001b2b565b80156200059b5780601f106200056f576101008083540402835291602001916200059b565b820191906000526020600020905b8154815290600101906020018083116200057d57829003601f168201915b505050505081565b6000600c60008373ffffffffffffffffffffffffffffffffffffffff1673ffffffffffffffffffffffffffffffffffffffff16815260200190815260200160002060009054906101000a900460ff1662000634576040517f08c379a00000000000000000000000000000000000000000000000000000000081526004016200062b9062001bb0565b60405180910390fd5b6000600c60008473ffffffffffffffffffffffffffffffffffffffff1673ffffffffffffffffffffffffffffffffffffffff16815260200190815260200160002060006101000a81548160ff021916908315150217905550600c60008373ffffffffffffffffffffffffffffffffffffffff1673ffffffffffffffffffffffffffffffffffffffff16815260200190815260200160002060009054906101000a900460ff169050919050565b6000803030868686604051620006f690620013ca565b6200070695949392919062001bd2565b604051809103906000f08015801562000723573d6000803e3d6000fd5b50905062000734308686866200132b565b809150509392505050565b600160009054906101000a900473ffffffffffffffffffffffffffffffffffffffff1681565b80600260006101000a81548173ffffffffffffffffffffffffffffffffffffffff021916908373ffffffffffffffffffffffffffffffffffffffff16021790555050565b60088054620007b89062001b2b565b80601f0160208091040260200160405190810160405280929190818152602001828054620007e69062001b2b565b8015620008375780601f106200080b5761010080835404028352916020019162000837565b820191906000526020600020905b8154815290600101906020018083116200081957829003601f168201915b505050505081565b600980546200084e9062001b2b565b80601f01602080910402602001604051908101604052809291908181526020018280546200087c9062001b2b565b8015620008cd5780601f10620008a157610100808354040283529160200191620008cd565b820191906000526020600020905b815481529060010190602001808311620008af57829003601f168201915b505050505081565b3373ffffffffffffffffffffffffffffffffffffffff16600560009054906101000a900473ffffffffffffffffffffffffffffffffffffffff1673ffffffffffffffffffffffffffffffffffffffff16146200093057600080fd5b80600260009054906101000a900473ffffffffffffffffffffffffffffffffffffffff1673ffffffffffffffffffffffffffffffffffffffff166370a08231306040518263ffffffff1660e01b81526004016200098e91906200141d565b602060405180830381865afa158015620009ac573d6000803e3d6000fd5b505050506040513d601f19601f82011682018060405250810190620009d2919062001c5b565b101562000a16576040517f08c379a000000000000000000000000000000000000000000000000000000000815260040162000a0d9062001cdd565b60405180910390fd5b600260009054906101000a900473ffffffffffffffffffffffffffffffffffffffff1673ffffffffffffffffffffffffffffffffffffffff1663095ea7b330836040518363ffffffff1660e01b815260040162000a7592919062001d10565b6020604051808303816000875af115801562000a95573d6000803e3d6000fd5b505050506040513d601f19601f8201168201806040525081019062000abb919062001d6e565b50600260009054906101000a900473ffffffffffffffffffffffffffffffffffffffff1673ffffffffffffffffffffffffffffffffffffffff1663a9059cbb600660009054906101000a900473ffffffffffffffffffffffffffffffffffffffff16836040518363ffffffff1660e01b815260040162000b3d92919062001d10565b6020604051808303816000875af115801562000b5d573d6000803e3d6000fd5b505050506040513d601f19601f8201168201806040525081019062000b83919062001d6e565b5050565b3373ffffffffffffffffffffffffffffffffffffffff16600560009054906101000a900473ffffffffffffffffffffffffffffffffffffffff1673ffffffffffffffffffffffffffffffffffffffff161462000be257600080fd5b80600260009054906101000a900473ffffffffffffffffffffffffffffffffffffffff1673ffffffffffffffffffffffffffffffffffffffff166370a08231600660009054906101000a900473ffffffffffffffffffffffffffffffffffffffff166040518263ffffffff1660e01b815260040162000c6291906200141d565b602060405180830381865afa15801562000c80573d6000803e3d6000fd5b505050506040513d601f19601f8201168201806040525081019062000ca6919062001c5b565b101562000cea576040517f08c379a000000000000000000000000000000000000000000000000000000000815260040162000ce19062001cdd565b60405180910390fd5b600260009054906101000a900473ffffffffffffffffffffffffffffffffffffffff1673ffffffffffffffffffffffffffffffffffffffff1663095ea7b3600660009054906101000a900473ffffffffffffffffffffffffffffffffffffffff16836040518363ffffffff1660e01b815260040162000d6b92919062001d10565b6020604051808303816000875af115801562000d8b573d6000803e3d6000fd5b505050506040513d601f19601f8201168201806040525081019062000db1919062001d6e565b50600260009054906101000a900473ffffffffffffffffffffffffffffffffffffffff1673ffffffffffffffffffffffffffffffffffffffff166323b872dd600660009054906101000a900473ffffffffffffffffffffffffffffffffffffffff1630846040518463ffffffff1660e01b815260040162000e359392919062001da0565b6020604051808303816000875af115801562000e55573d6000803e3d6000fd5b505050506040513d601f19601f8201168201806040525081019062000e7b919062001d6e565b5050565b600030905090565b60606009805462000e989062001b2b565b80601f016020809104026020016040519081016040528092919081815260200182805462000ec69062001b2b565b801562000f175780601f1062000eeb5761010080835404028352916020019162000f17565b820191906000526020600020905b81548152906001019060200180831162000ef957829003601f168201915b5050505050905090565b6060600160009054906101000a900473ffffffffffffffffffffffffffffffffffffffff1673ffffffffffffffffffffffffffffffffffffffff166358cedf57306040518263ffffffff1660e01b815260040162000f8091906200141d565b600060405180830381865afa15801562000f9e573d6000803e3d6000fd5b505050506040513d6000823e3d601f19601f8201168201806040525081019062000fc991906200205a565b905090565b60606007805462000fdf9062001b2b565b80601f01602080910402602001604051908101604052809291908181526020018280546200100d9062001b2b565b80156200105e5780601f1062001032576101008083540402835291602001916200105e565b820191906000526020600020905b8154815290600101906020018083116200104057829003601f168201915b5050505050905090565b6000600c60008373ffffffffffffffffffffffffffffffffffffffff1673ffffffffffffffffffffffffffffffffffffffff16815260200190815260200160002060009054906101000a900460ff1615620010fa576040517f08c379a0000000000000000000000000000000000000000000000000000000008152600401620010f190620020fb565b60405180910390fd5b60005b600b80549050811015620012b0578273ffffffffffffffffffffffffffffffffffffffff16600b82815481106200113957620011386200211d565b5b9060005260206000200160009054906101000a900473ffffffffffffffffffffffffffffffffffffffff1673ffffffffffffffffffffffffffffffffffffffff1603620011de576001600c60008573ffffffffffffffffffffffffffffffffffffffff1673ffffffffffffffffffffffffffffffffffffffff16815260200190815260200160002060006101000a81548160ff0219169083151502179055506200129a565b600b839080600181540180825580915050600190039060005260206000200160009091909190916101000a81548173ffffffffffffffffffffffffffffffffffffffff021916908373ffffffffffffffffffffffffffffffffffffffff1602179055506001600c60008573ffffffffffffffffffffffffffffffffffffffff1673ffffffffffffffffffffffffffffffffffffffff16815260200190815260200160002060006101000a81548160ff0219169083151502179055505b8080620012a7906200217b565b915050620010fd565b50600c60008373ffffffffffffffffffffffffffffffffffffffff1673ffffffffffffffffffffffffffffffffffffffff16815260200190815260200160002060009054906101000a900460ff169050919050565b600260009054906101000a900473ffffffffffffffffffffffffffffffffffffffff1681565b600160009054906101000a900473ffffffffffffffffffffffffffffffffffffffff1673ffffffffffffffffffffffffffffffffffffffff16632f92fb2e30868686866040518663ffffffff1660e01b81526004016200139095949392919062001bd2565b600060405180830381600087803b158015620013ab57600080fd5b505af1158015620013c0573d6000803e3d6000fd5b5050505050505050565b6122f080620021c983390190565b600073ffffffffffffffffffffffffffffffffffffffff82169050919050565b60006200140582620013d8565b9050919050565b6200141781620013f8565b82525050565b60006020820190506200143460008301846200140c565b92915050565b6000819050919050565b6000620014656200145f6200145984620013d8565b6200143a565b620013d8565b9050919050565b6000620014798262001444565b9050919050565b60006200148d826200146c565b9050919050565b6200149f8162001480565b82525050565b6000602082019050620014bc600083018462001494565b92915050565b600081519050919050565b600082825260208201905092915050565b60005b83811015620014fe578082015181840152602081019050620014e1565b60008484015250505050565b6000601f19601f8301169050919050565b60006200152882620014c2565b620015348185620014cd565b935062001546818560208601620014de565b62001551816200150a565b840191505092915050565b600060208201905081810360008301526200157881846200151b565b905092915050565b6000604051905090565b600080fd5b600080fd5b6200159f81620013f8565b8114620015ab57600080fd5b50565b600081359050620015bf8162001594565b92915050565b600060208284031215620015de57620015dd6200158a565b5b6000620015ee84828501620015ae565b91505092915050565b60008115159050919050565b6200160e81620015f7565b82525050565b60006020820190506200162b600083018462001603565b92915050565b600080fd5b600080fd5b7f4e487b7100000000000000000000000000000000000000000000000000000000600052604160045260246000fd5b62001675826200150a565b810181811067ffffffffffffffff821117156200169757620016966200163b565b5b80604052505050565b6000620016ac62001580565b9050620016ba82826200166a565b919050565b600067ffffffffffffffff821115620016dd57620016dc6200163b565b5b620016e8826200150a565b9050602081019050919050565b82818337600083830152505050565b60006200171b6200171584620016bf565b620016a0565b9050828152602081018484840111156200173a576200173962001636565b5b62001747848285620016f5565b509392505050565b600082601f83011262001767576200176662001631565b5b81356200177984826020860162001704565b91505092915050565b6000806000606084860312156200179e576200179d6200158a565b5b600084013567ffffffffffffffff811115620017bf57620017be6200158f565b5b620017cd868287016200174f565b935050602084013567ffffffffffffffff811115620017f157620017f06200158f565b5b620017ff868287016200174f565b925050604084013567ffffffffffffffff8111156200182357620018226200158f565b5b62001831868287016200174f565b9150509250925092565b600062001848826200146c565b9050919050565b6200185a816200183b565b82525050565b60006020820190506200187760008301846200184f565b92915050565b6000819050919050565b62001892816200187d565b81146200189e57600080fd5b50565b600081359050620018b28162001887565b92915050565b600060208284031215620018d157620018d06200158a565b5b6000620018e184828501620018a1565b91505092915050565b600081519050919050565b600082825260208201905092915050565b6000819050602082019050919050565b6200192181620013f8565b82525050565b600082825260208201905092915050565b60006200194582620014c2565b62001951818562001927565b935062001963818560208601620014de565b6200196e816200150a565b840191505092915050565b600060808301600083015162001993600086018262001916565b5060208301518482036020860152620019ad828262001938565b91505060408301518482036040860152620019c9828262001938565b91505060608301518482036060860152620019e5828262001938565b9150508091505092915050565b600062001a00838362001979565b905092915050565b6000602082019050919050565b600062001a2282620018ea565b62001a2e8185620018f5565b93508360208202850162001a428562001906565b8060005b8581101562001a84578484038952815162001a628582620019f2565b945062001a6f8362001a08565b925060208a0199505060018101905062001a46565b50829750879550505050505092915050565b6000602082019050818103600083015262001ab2818462001a15565b905092915050565b600062001ac7826200146c565b9050919050565b62001ad98162001aba565b82525050565b600060208201905062001af6600083018462001ace565b92915050565b7f4e487b7100000000000000000000000000000000000000000000000000000000600052602260045260246000fd5b6000600282049050600182168062001b4457607f821691505b60208210810362001b5a5762001b5962001afc565b5b50919050565b7f616c7265616479206e6f74206368656572000000000000000000000000000000600082015250565b600062001b98601183620014cd565b915062001ba58262001b60565b602082019050919050565b6000602082019050818103600083015262001bcb8162001b89565b9050919050565b600060a08201905062001be960008301886200140c565b62001bf860208301876200140c565b818103604083015262001c0c81866200151b565b9050818103606083015262001c2281856200151b565b9050818103608083015262001c3881846200151b565b90509695505050505050565b60008151905062001c558162001887565b92915050565b60006020828403121562001c745762001c736200158a565b5b600062001c848482850162001c44565b91505092915050565b7f6e6f7420696e73756666696369656e7400000000000000000000000000000000600082015250565b600062001cc5601083620014cd565b915062001cd28262001c8d565b602082019050919050565b6000602082019050818103600083015262001cf88162001cb6565b9050919050565b62001d0a816200187d565b82525050565b600060408201905062001d2760008301856200140c565b62001d36602083018462001cff565b9392505050565b62001d4881620015f7565b811462001d5457600080fd5b50565b60008151905062001d688162001d3d565b92915050565b60006020828403121562001d875762001d866200158a565b5b600062001d978482850162001d57565b91505092915050565b600060608201905062001db760008301866200140c565b62001dc660208301856200140c565b62001dd5604083018462001cff565b949350505050565b600067ffffffffffffffff82111562001dfb5762001dfa6200163b565b5b602082029050602081019050919050565b600080fd5b600080fd5b600080fd5b60008151905062001e2c8162001594565b92915050565b600062001e4962001e4384620016bf565b620016a0565b90508281526020810184848401111562001e685762001e6762001636565b5b62001e75848285620014de565b509392505050565b600082601f83011262001e955762001e9462001631565b5b815162001ea784826020860162001e32565b91505092915050565b60006080828403121562001ec95762001ec862001e11565b5b62001ed56080620016a0565b9050600062001ee78482850162001e1b565b600083015250602082015167ffffffffffffffff81111562001f0e5762001f0d62001e16565b5b62001f1c8482850162001e7d565b602083015250604082015167ffffffffffffffff81111562001f435762001f4262001e16565b5b62001f518482850162001e7d565b604083015250606082015167ffffffffffffffff81111562001f785762001f7762001e16565b5b62001f868482850162001e7d565b60608301525092915050565b600062001fa962001fa38462001ddd565b620016a0565b9050808382526020820190506020840283018581111562001fcf5762001fce62001e0c565b5b835b818110156200201d57805167ffffffffffffffff81111562001ff85762001ff762001631565b5b80860162002007898262001eb0565b8552602085019450505060208101905062001fd1565b5050509392505050565b600082601f8301126200203f576200203e62001631565b5b81516200205184826020860162001f92565b91505092915050565b6000602082840312156200207357620020726200158a565b5b600082015167ffffffffffffffff8111156200209457620020936200158f565b5b620020a28482850162002027565b91505092915050565b7f616c726561647920636865657200000000000000000000000000000000000000600082015250565b6000620020e3600d83620014cd565b9150620020f082620020ab565b602082019050919050565b600060208201905081810360008301526200211681620020d4565b9050919050565b7f4e487b7100000000000000000000000000000000000000000000000000000000600052603260045260246000fd5b7f4e487b7100000000000000000000000000000000000000000000000000000000600052601160045260246000fd5b600062002188826200187d565b91507fffffffffffffffffffffffffffffffffffffffffffffffffffffffffffffffff8203620021bd57620021bc6200214c565b5b60018201905091905056fe60806040527338d4172dde4e50a8cdd8b39abc572443d18ad72d600960006101000a81548173ffffffffffffffffffffffffffffffffffffffff021916908373ffffffffffffffffffffffffffffffffffffffff1602179055503480156200006657600080fd5b50604051620022f0380380620022f083398181016040528101906200008c9190620004b0565b600c60009054906101000a900473ffffffffffffffffffffffffffffffffffffffff16600d60006101000a81548173ffffffffffffffffffffffffffffffffffffffff021916908373ffffffffffffffffffffffffffffffffffffffff160217905550600960009054906101000a900473ffffffffffffffffffffffffffffffffffffffff166000806101000a81548173ffffffffffffffffffffffffffffffffffffffff021916908373ffffffffffffffffffffffffffffffffffffffff160217905550600260009054906101000a900473ffffffffffffffffffffffffffffffffffffffff16600160006101000a81548173ffffffffffffffffffffffffffffffffffffffff021916908373ffffffffffffffffffffffffffffffffffffffff16021790555033600360006101000a81548173ffffffffffffffffffffffffffffffffffffffff021916908373ffffffffffffffffffffffffffffffffffffffff16021790555084600460006101000a81548173ffffffffffffffffffffffffffffffffffffffff021916908373ffffffffffffffffffffffffffffffffffffffff16021790555083600560006101000a81548173ffffffffffffffffffffffffffffffffffffffff021916908373ffffffffffffffffffffffffffffffffffffffff1602179055508260069081620002889190620007e0565b5081600790816200029a9190620007e0565b508060089081620002ac9190620007e0565b505050505050620008c7565b6000604051905090565b600080fd5b600080fd5b600073ffffffffffffffffffffffffffffffffffffffff82169050919050565b6000620002f982620002cc565b9050919050565b6200030b81620002ec565b81146200031757600080fd5b50565b6000815190506200032b8162000300565b92915050565b600080fd5b600080fd5b6000601f19601f8301169050919050565b7f4e487b7100000000000000000000000000000000000000000000000000000000600052604160045260246000fd5b62000386826200033b565b810181811067ffffffffffffffff82111715620003a857620003a76200034c565b5b80604052505050565b6000620003bd620002b8565b9050620003cb82826200037b565b919050565b600067ffffffffffffffff821115620003ee57620003ed6200034c565b5b620003f9826200033b565b9050602081019050919050565b60005b838110156200042657808201518184015260208101905062000409565b60008484015250505050565b6000620004496200044384620003d0565b620003b1565b90508281526020810184848401111562000468576200046762000336565b5b6200047584828562000406565b509392505050565b600082601f83011262000495576200049462000331565b5b8151620004a784826020860162000432565b91505092915050565b600080600080600060a08688031215620004cf57620004ce620002c2565b5b6000620004df888289016200031a565b9550506020620004f2888289016200031a565b945050604086015167ffffffffffffffff811115620005165762000515620002c7565b5b62000524888289016200047d565b935050606086015167ffffffffffffffff811115620005485762000547620002c7565b5b62000556888289016200047d565b925050608086015167ffffffffffffffff8111156200057a5762000579620002c7565b5b62000588888289016200047d565b9150509295509295909350565b600081519050919050565b7f4e487b7100000000000000000000000000000000000000000000000000000000600052602260045260246000fd5b60006002820490506001821680620005e857607f821691505b602082108103620005fe57620005fd620005a0565b5b50919050565b60008190508160005260206000209050919050565b60006020601f8301049050919050565b600082821b905092915050565b600060088302620006687fffffffffffffffffffffffffffffffffffffffffffffffffffffffffffffffff8262000629565b62000674868362000629565b95508019841693508086168417925050509392505050565b6000819050919050565b6000819050919050565b6000620006c1620006bb620006b5846200068c565b62000696565b6200068c565b9050919050565b6000819050919050565b620006dd83620006a0565b620006f5620006ec82620006c8565b84845462000636565b825550505050565b600090565b6200070c620006fd565b62000719818484620006d2565b505050565b5b8181101562000741576200073560008262000702565b6001810190506200071f565b5050565b601f82111562000790576200075a8162000604565b620007658462000619565b8101602085101562000775578190505b6200078d620007848562000619565b8301826200071e565b50505b505050565b600082821c905092915050565b6000620007b56000198460080262000795565b1980831691505092915050565b6000620007d08383620007a2565b9150826002028217905092915050565b620007eb8262000595565b67ffffffffffffffff8111156200080757620008066200034c565b5b620008138254620005cf565b6200082082828562000745565b600060209050601f83116001811462000858576000841562000843578287015190505b6200084f8582620007c2565b865550620008bf565b601f198416620008688662000604565b60005b8281101562000892578489015182556001820191506020850194506020810190506200086b565b86831015620008b25784890151620008ae601f891682620007a2565b8355505b6001600288020188555050505b505050505050565b611a1980620008d76000396000f3fe608060405234801561001057600080fd5b506004361061009e5760003560e01c80635e001c34116100665780635e001c341461013957806365550ba41461015557806371b3423d146101715780639a33e3001461018f578063f6acee23146101ad5761009e565b80631a314956146100a35780631b5feff5146100c15780631d90fb1f146100df578063250a12d9146100fd57806332b04e2b1461011b575b600080fd5b6100ab6101cb565b6040516100b89190610e2d565b60405180910390f35b6100c9610259565b6040516100d69190611018565b60405180910390f35b6100e76103b4565b6040516100f49190611099565b60405180910390f35b6101056103da565b60405161011291906110c3565b60405180910390f35b61012361047c565b6040516101309190610e2d565b60405180910390f35b610153600480360381019061014e919061111e565b61050a565b005b61016f600480360381019061016a91906112ac565b61054d565b005b6101796106d1565b6040516101869190611329565b60405180910390f35b6101976106f7565b6040516101a49190610e2d565b60405180910390f35b6101b5610785565b6040516101c29190611365565b60405180910390f35b600780546101d8906113af565b80601f0160208091040260200160405190810160405280929190818152602001828054610204906113af565b80156102515780601f1061022657610100808354040283529160200191610251565b820191906000526020600020905b81548152906001019060200180831161023457829003601f168201915b505050505081565b6060600a805480602002602001604051908101604052809291908181526020016000905b828210156103ab57838290600052602060002090600402016040518060800160405290816000820160009054906101000a900473ffffffffffffffffffffffffffffffffffffffff1673ffffffffffffffffffffffffffffffffffffffff1673ffffffffffffffffffffffffffffffffffffffff16815260200160018201548152602001600282018054610310906113af565b80601f016020809104026020016040519081016040528092919081815260200182805461033c906113af565b80156103895780601f1061035e57610100808354040283529160200191610389565b820191906000526020600020905b81548152906001019060200180831161036c57829003601f168201915b505050505081526020016003820154815250508152602001906001019061027d565b50505050905090565b600160009054906101000a900473ffffffffffffffffffffffffffffffffffffffff1681565b60008060009054906101000a900473ffffffffffffffffffffffffffffffffffffffff1673ffffffffffffffffffffffffffffffffffffffff166370a08231306040518263ffffffff1660e01b815260040161043691906113ef565b602060405180830381865afa158015610453573d6000803e3d6000fd5b505050506040513d601f19601f82011682018060405250810190610477919061141f565b905090565b60088054610489906113af565b80601f01602080910402602001604051908101604052809291908181526020018280546104b5906113af565b80156105025780601f106104d757610100808354040283529160200191610502565b820191906000526020600020905b8154815290600101906020018083116104e557829003601f168201915b505050505081565b806000806101000a81548173ffffffffffffffffffffffffffffffffffffffff021916908373ffffffffffffffffffffffffffffffffffffffff16021790555050565b8160008054906101000a900473ffffffffffffffffffffffffffffffffffffffff1673ffffffffffffffffffffffffffffffffffffffff166370a08231600d60009054906101000a900473ffffffffffffffffffffffffffffffffffffffff1673ffffffffffffffffffffffffffffffffffffffff16631599a352336040518263ffffffff1660e01b81526004016105e591906113ef565b602060405180830381865afa158015610602573d6000803e3d6000fd5b505050506040513d601f19601f820116820180604052508101906106269190611461565b6040518263ffffffff1660e01b815260040161064291906113ef565b602060405180830381865afa15801561065f573d6000803e3d6000fd5b505050506040513d601f19601f82011682018060405250810190610683919061141f565b116106c3576040517f08c379a00000000000000000000000000000000000000000000000000000000081526004016106ba906114da565b60405180910390fd5b6106cd82826107a9565b5050565b600d60009054906101000a900473ffffffffffffffffffffffffffffffffffffffff1681565b60068054610704906113af565b80601f0160208091040260200160405190810160405280929190818152602001828054610730906113af565b801561077d5780601f106107525761010080835404028352916020019161077d565b820191906000526020600020905b81548152906001019060200180831161076057829003601f168201915b505050505081565b60008054906101000a900473ffffffffffffffffffffffffffffffffffffffff1681565b60008054906101000a900473ffffffffffffffffffffffffffffffffffffffff1673ffffffffffffffffffffffffffffffffffffffff166323b872dd600d60009054906101000a900473ffffffffffffffffffffffffffffffffffffffff1673ffffffffffffffffffffffffffffffffffffffff16631599a352336040518263ffffffff1660e01b815260040161084091906113ef565b602060405180830381865afa15801561085d573d6000803e3d6000fd5b505050506040513d601f19601f820116820180604052508101906108819190611461565b30856040518463ffffffff1660e01b81526004016108a1939291906114fa565b6020604051808303816000875af11580156108c0573d6000803e3d6000fd5b505050506040513d601f19601f820116820180604052508101906108e49190611569565b50600a6040518060800160405280600d60009054906101000a900473ffffffffffffffffffffffffffffffffffffffff1673ffffffffffffffffffffffffffffffffffffffff16631599a352336040518263ffffffff1660e01b815260040161094d91906113ef565b602060405180830381865afa15801561096a573d6000803e3d6000fd5b505050506040513d601f19601f8201168201806040525081019061098e9190611461565b73ffffffffffffffffffffffffffffffffffffffff16815260200142815260200183815260200184815250908060018154018082558091505060019003906000526020600020906004020160009091909190915060008201518160000160006101000a81548173ffffffffffffffffffffffffffffffffffffffff021916908373ffffffffffffffffffffffffffffffffffffffff160217905550602082015181600101556040820151816002019081610a489190611738565b50606082015181600301555050610a5e82610a62565b5050565b80600b6000828254610a749190611839565b9250508190555060006064604683610a8c919061186d565b610a9691906118de565b905060006064601984610aa9919061186d565b610ab391906118de565b90506000818385610ac4919061190f565b610ace919061190f565b905060005b600a80549050811015610c145760008054906101000a900473ffffffffffffffffffffffffffffffffffffffff1673ffffffffffffffffffffffffffffffffffffffff1663a9059cbb600a8381548110610b3057610b2f611943565b5b906000526020600020906004020160000160009054906101000a900473ffffffffffffffffffffffffffffffffffffffff16600b54600a8581548110610b7957610b78611943565b5b90600052602060002090600402016003015488610b96919061186d565b610ba091906118de565b6040518363ffffffff1660e01b8152600401610bbd929190611972565b6020604051808303816000875af1158015610bdc573d6000803e3d6000fd5b505050506040513d601f19601f82011682018060405250810190610c009190611569565b508080610c0c9061199b565b915050610ad3565b5060008054906101000a900473ffffffffffffffffffffffffffffffffffffffff1673ffffffffffffffffffffffffffffffffffffffff1663a9059cbb600460009054906101000a900473ffffffffffffffffffffffffffffffffffffffff16846040518363ffffffff1660e01b8152600401610c92929190611972565b6020604051808303816000875af1158015610cb1573d6000803e3d6000fd5b505050506040513d601f19601f82011682018060405250810190610cd59190611569565b5060008054906101000a900473ffffffffffffffffffffffffffffffffffffffff1673ffffffffffffffffffffffffffffffffffffffff1663a9059cbb600560009054906101000a900473ffffffffffffffffffffffffffffffffffffffff16836040518363ffffffff1660e01b8152600401610d53929190611972565b6020604051808303816000875af1158015610d72573d6000803e3d6000fd5b505050506040513d601f19601f82011682018060405250810190610d969190611569565b5050505050565b600081519050919050565b600082825260208201905092915050565b60005b83811015610dd7578082015181840152602081019050610dbc565b60008484015250505050565b6000601f19601f8301169050919050565b6000610dff82610d9d565b610e098185610da8565b9350610e19818560208601610db9565b610e2281610de3565b840191505092915050565b60006020820190508181036000830152610e478184610df4565b905092915050565b600081519050919050565b600082825260208201905092915050565b6000819050602082019050919050565b600073ffffffffffffffffffffffffffffffffffffffff82169050919050565b6000610ea682610e7b565b9050919050565b610eb681610e9b565b82525050565b6000819050919050565b610ecf81610ebc565b82525050565b600082825260208201905092915050565b6000610ef182610d9d565b610efb8185610ed5565b9350610f0b818560208601610db9565b610f1481610de3565b840191505092915050565b6000608083016000830151610f376000860182610ead565b506020830151610f4a6020860182610ec6565b5060408301518482036040860152610f628282610ee6565b9150506060830151610f776060860182610ec6565b508091505092915050565b6000610f8e8383610f1f565b905092915050565b6000602082019050919050565b6000610fae82610e4f565b610fb88185610e5a565b935083602082028501610fca85610e6b565b8060005b858110156110065784840389528151610fe78582610f82565b9450610ff283610f96565b925060208a01995050600181019050610fce565b50829750879550505050505092915050565b600060208201905081810360008301526110328184610fa3565b905092915050565b6000819050919050565b600061105f61105a61105584610e7b565b61103a565b610e7b565b9050919050565b600061107182611044565b9050919050565b600061108382611066565b9050919050565b61109381611078565b82525050565b60006020820190506110ae600083018461108a565b92915050565b6110bd81610ebc565b82525050565b60006020820190506110d860008301846110b4565b92915050565b6000604051905090565b600080fd5b600080fd5b6110fb81610e9b565b811461110657600080fd5b50565b600081359050611118816110f2565b92915050565b600060208284031215611134576111336110e8565b5b600061114284828501611109565b91505092915050565b61115481610ebc565b811461115f57600080fd5b50565b6000813590506111718161114b565b92915050565b600080fd5b600080fd5b7f4e487b7100000000000000000000000000000000000000000000000000000000600052604160045260246000fd5b6111b982610de3565b810181811067ffffffffffffffff821117156111d8576111d7611181565b5b80604052505050565b60006111eb6110de565b90506111f782826111b0565b919050565b600067ffffffffffffffff82111561121757611216611181565b5b61122082610de3565b9050602081019050919050565b82818337600083830152505050565b600061124f61124a846111fc565b6111e1565b90508281526020810184848401111561126b5761126a61117c565b5b61127684828561122d565b509392505050565b600082601f83011261129357611292611177565b5b81356112a384826020860161123c565b91505092915050565b600080604083850312156112c3576112c26110e8565b5b60006112d185828601611162565b925050602083013567ffffffffffffffff8111156112f2576112f16110ed565b5b6112fe8582860161127e565b9150509250929050565b600061131382611066565b9050919050565b61132381611308565b82525050565b600060208201905061133e600083018461131a565b92915050565b600061134f82611066565b9050919050565b61135f81611344565b82525050565b600060208201905061137a6000830184611356565b92915050565b7f4e487b7100000000000000000000000000000000000000000000000000000000600052602260045260246000fd5b600060028204905060018216806113c757607f821691505b6020821081036113da576113d9611380565b5b50919050565b6113e981610e9b565b82525050565b600060208201905061140460008301846113e0565b92915050565b6000815190506114198161114b565b92915050565b600060208284031215611435576114346110e8565b5b60006114438482850161140a565b91505092915050565b60008151905061145b816110f2565b92915050565b600060208284031215611477576114766110e8565b5b60006114858482850161144c565b91505092915050565b7f4e6f7420656e6f75676800000000000000000000000000000000000000000000600082015250565b60006114c4600a83610da8565b91506114cf8261148e565b602082019050919050565b600060208201905081810360008301526114f3816114b7565b9050919050565b600060608201905061150f60008301866113e0565b61151c60208301856113e0565b61152960408301846110b4565b949350505050565b60008115159050919050565b61154681611531565b811461155157600080fd5b50565b6000815190506115638161153d565b92915050565b60006020828403121561157f5761157e6110e8565b5b600061158d84828501611554565b91505092915050565b60008190508160005260206000209050919050565b60006020601f8301049050919050565b600082821b905092915050565b6000600883026115f87fffffffffffffffffffffffffffffffffffffffffffffffffffffffffffffffff826115bb565b61160286836115bb565b95508019841693508086168417925050509392505050565b600061163561163061162b84610ebc565b61103a565b610ebc565b9050919050565b6000819050919050565b61164f8361161a565b61166361165b8261163c565b8484546115c8565b825550505050565b600090565b61167861166b565b611683818484611646565b505050565b5b818110156116a75761169c600082611670565b600181019050611689565b5050565b601f8211156116ec576116bd81611596565b6116c6846115ab565b810160208510156116d5578190505b6116e96116e1856115ab565b830182611688565b50505b505050565b600082821c905092915050565b600061170f600019846008026116f1565b1980831691505092915050565b600061172883836116fe565b9150826002028217905092915050565b61174182610d9d565b67ffffffffffffffff81111561175a57611759611181565b5b61176482546113af565b61176f8282856116ab565b600060209050601f8311600181146117a25760008415611790578287015190505b61179a858261171c565b865550611802565b601f1984166117b086611596565b60005b828110156117d8578489015182556001820191506020850194506020810190506117b3565b868310156117f557848901516117f1601f8916826116fe565b8355505b6001600288020188555050505b505050505050565b7f4e487b7100000000000000000000000000000000000000000000000000000000600052601160045260246000fd5b600061184482610ebc565b915061184f83610ebc565b92508282019050808211156118675761186661180a565b5b92915050565b600061187882610ebc565b915061188383610ebc565b925082820261189181610ebc565b915082820484148315176118a8576118a761180a565b5b5092915050565b7f4e487b7100000000000000000000000000000000000000000000000000000000600052601260045260246000fd5b60006118e982610ebc565b91506118f483610ebc565b925082611904576119036118af565b5b828204905092915050565b600061191a82610ebc565b915061192583610ebc565b925082820390508181111561193d5761193c61180a565b5b92915050565b7f4e487b7100000000000000000000000000000000000000000000000000000000600052603260045260246000fd5b600060408201905061198760008301856113e0565b61199460208301846110b4565b9392505050565b60006119a682610ebc565b91507fffffffffffffffffffffffffffffffffffffffffffffffffffffffffffffffff82036119d8576119d761180a565b5b60018201905091905056fea26469706673582212205f2c41bbdaf4e72fb704f05b02fdfbdd5edf031e218dd3cf622b245c4df6679264736f6c63430008110033a26469706673582212206c2935e7a80e04f89bc09acb864878704715f747721e7301bfb4e35f0c274a0d64736f6c63430008110033",
  "linkReferences": {},
  "deployedLinkReferences": {}
}