{
  "_format": "hh-sol-artifact-1",
  "contractName": "UserPoolFactory",
  "sourceName": "contracts/factory/UserPoolFactory.sol",
  "abi": [
    {
      "inputs": [],
      "stateMutability": "nonpayable",
      "type": "constructor"
    },
    {
      "inputs": [
        {
          "internalType": "string",
          "name": "_userName",
          "type": "string"
        },
        {
          "internalType": "string",
          "name": "_userProfile",
          "type": "string"
        },
        {
          "internalType": "string",
          "name": "_userIcon",
          "type": "string"
        }
      ],
      "name": "newUserPoolFactory",
      "outputs": [
        {
          "internalType": "address",
          "name": "",
          "type": "address"
        }
      ],
      "stateMutability": "nonpayable",
      "type": "function"
    },
    {
      "inputs": [],
      "name": "poolListData",
      "outputs": [
        {
          "internalType": "contract IPoolListData",
          "name": "",
          "type": "address"
        }
      ],
      "stateMutability": "view",
      "type": "function"
    },
    {
      "inputs": [
        {
          "internalType": "address",
          "name": "poolListDataAddress",
          "type": "address"
        }
      ],
      "name": "setPoolListData",
      "outputs": [],
      "stateMutability": "nonpayable",
      "type": "function"
    },
    {
      "inputs": [
        {
          "internalType": "address",
          "name": "usersDataAddress",
          "type": "address"
        }
      ],
      "name": "setUsersData",
      "outputs": [],
      "stateMutability": "nonpayable",
      "type": "function"
    },
    {
      "inputs": [],
      "name": "usersData",
      "outputs": [
        {
          "internalType": "contract IUsersData",
          "name": "",
          "type": "address"
        }
      ],
      "stateMutability": "view",
      "type": "function"
    }
  ],
  "bytecode": "0x608060405234801561001057600080fd5b5060008054906101000a900473ffffffffffffffffffffffffffffffffffffffff16600160006101000a81548173ffffffffffffffffffffffffffffffffffffffff021916908373ffffffffffffffffffffffffffffffffffffffff160217905550600260009054906101000a900473ffffffffffffffffffffffffffffffffffffffff16600360006101000a81548173ffffffffffffffffffffffffffffffffffffffff021916908373ffffffffffffffffffffffffffffffffffffffff160217905550615f48806100e46000396000f3fe60806040523480156200001157600080fd5b50600436106200005e5760003560e01c806316e66f43146200006357806321991798146200008357806371b3423d14620000b9578063aba0e57514620000db578063f8115dcf14620000fd575b600080fd5b6200008160048036038101906200007b919062000626565b6200011d565b005b620000a160048036038101906200009b9190620007ba565b620001a1565b604051620000b0919062000884565b60405180910390f35b620000c3620004ce565b604051620000d291906200090c565b60405180910390f35b620000e5620004f4565b604051620000f491906200094e565b60405180910390f35b6200011b600480360381019062000115919062000626565b6200051a565b005b806000806101000a81548173ffffffffffffffffffffffffffffffffffffffff021916908373ffffffffffffffffffffffffffffffffffffffff16021790555080600160006101000a81548173ffffffffffffffffffffffffffffffffffffffff021916908373ffffffffffffffffffffffffffffffffffffffff16021790555050565b60008073ffffffffffffffffffffffffffffffffffffffff16600160009054906101000a900473ffffffffffffffffffffffffffffffffffffffff1673ffffffffffffffffffffffffffffffffffffffff16631599a352336040518263ffffffff1660e01b815260040162000217919062000884565b602060405180830381865afa15801562000235573d6000803e3d6000fd5b505050506040513d601f19601f820116820180604052508101906200025b919062000982565b73ffffffffffffffffffffffffffffffffffffffff1614620002b4576040517f08c379a0000000000000000000000000000000000000000000000000000000008152600401620002ab9062000a15565b60405180910390fd5b60003385858530604051620002c9906200059f565b620002d995949392919062000aaf565b604051809103906000f080158015620002f6573d6000803e3d6000fd5b509050600360009054906101000a900473ffffffffffffffffffffffffffffffffffffffff1673ffffffffffffffffffffffffffffffffffffffff16632ce058f6338787876040518563ffffffff1660e01b81526004016200035c949392919062000b21565b600060405180830381600087803b1580156200037757600080fd5b505af11580156200038c573d6000803e3d6000fd5b50505050600160009054906101000a900473ffffffffffffffffffffffffffffffffffffffff1673ffffffffffffffffffffffffffffffffffffffff16635e52fe5033836040518363ffffffff1660e01b8152600401620003ef92919062000b83565b600060405180830381600087803b1580156200040a57600080fd5b505af11580156200041f573d6000803e3d6000fd5b50505050600160009054906101000a900473ffffffffffffffffffffffffffffffffffffffff1673ffffffffffffffffffffffffffffffffffffffff16631599a352336040518263ffffffff1660e01b815260040162000480919062000884565b602060405180830381865afa1580156200049e573d6000803e3d6000fd5b505050506040513d601f19601f82011682018060405250810190620004c4919062000982565b9150509392505050565b600160009054906101000a900473ffffffffffffffffffffffffffffffffffffffff1681565b600360009054906101000a900473ffffffffffffffffffffffffffffffffffffffff1681565b80600260006101000a81548173ffffffffffffffffffffffffffffffffffffffff021916908373ffffffffffffffffffffffffffffffffffffffff16021790555080600360006101000a81548173ffffffffffffffffffffffffffffffffffffffff021916908373ffffffffffffffffffffffffffffffffffffffff16021790555050565b6153628062000bb183390190565b6000604051905090565b600080fd5b600080fd5b600073ffffffffffffffffffffffffffffffffffffffff82169050919050565b6000620005ee82620005c1565b9050919050565b6200060081620005e1565b81146200060c57600080fd5b50565b6000813590506200062081620005f5565b92915050565b6000602082840312156200063f576200063e620005b7565b5b60006200064f848285016200060f565b91505092915050565b600080fd5b600080fd5b6000601f19601f8301169050919050565b7f4e487b7100000000000000000000000000000000000000000000000000000000600052604160045260246000fd5b620006ad8262000662565b810181811067ffffffffffffffff82111715620006cf57620006ce62000673565b5b80604052505050565b6000620006e4620005ad565b9050620006f28282620006a2565b919050565b600067ffffffffffffffff82111562000715576200071462000673565b5b620007208262000662565b9050602081019050919050565b82818337600083830152505050565b6000620007536200074d84620006f7565b620006d8565b9050828152602081018484840111156200077257620007716200065d565b5b6200077f8482856200072d565b509392505050565b600082601f8301126200079f576200079e62000658565b5b8135620007b18482602086016200073c565b91505092915050565b600080600060608486031215620007d657620007d5620005b7565b5b600084013567ffffffffffffffff811115620007f757620007f6620005bc565b5b620008058682870162000787565b935050602084013567ffffffffffffffff811115620008295762000828620005bc565b5b620008378682870162000787565b925050604084013567ffffffffffffffff8111156200085b576200085a620005bc565b5b620008698682870162000787565b9150509250925092565b6200087e81620005e1565b82525050565b60006020820190506200089b600083018462000873565b92915050565b6000819050919050565b6000620008cc620008c6620008c084620005c1565b620008a1565b620005c1565b9050919050565b6000620008e082620008ab565b9050919050565b6000620008f482620008d3565b9050919050565b6200090681620008e7565b82525050565b6000602082019050620009236000830184620008fb565b92915050565b60006200093682620008d3565b9050919050565b620009488162000929565b82525050565b60006020820190506200096560008301846200093d565b92915050565b6000815190506200097c81620005f5565b92915050565b6000602082840312156200099b576200099a620005b7565b5b6000620009ab848285016200096b565b91505092915050565b600082825260208201905092915050565b7f616c726561647920637265617465642100000000000000000000000000000000600082015250565b6000620009fd601083620009b4565b915062000a0a82620009c5565b602082019050919050565b6000602082019050818103600083015262000a3081620009ee565b9050919050565b600081519050919050565b60005b8381101562000a6257808201518184015260208101905062000a45565b60008484015250505050565b600062000a7b8262000a37565b62000a878185620009b4565b935062000a9981856020860162000a42565b62000aa48162000662565b840191505092915050565b600060a08201905062000ac6600083018862000873565b818103602083015262000ada818762000a6e565b9050818103604083015262000af0818662000a6e565b9050818103606083015262000b06818562000a6e565b905062000b17608083018462000873565b9695505050505050565b600060808201905062000b38600083018762000873565b818103602083015262000b4c818662000a6e565b9050818103604083015262000b62818562000a6e565b9050818103606083015262000b78818462000a6e565b905095945050505050565b600060408201905062000b9a600083018562000873565b62000ba9602083018462000873565b939250505056fe60806040527338d4172dde4e50a8cdd8b39abc572443d18ad72d600a60006101000a81548173ffffffffffffffffffffffffffffffffffffffff021916908373ffffffffffffffffffffffffffffffffffffffff1602179055503480156200006657600080fd5b50604051620053623803806200536283398181016040528101906200008c9190620004af565b600a60009054906101000a900473ffffffffffffffffffffffffffffffffffffffff16600260006101000a81548173ffffffffffffffffffffffffffffffffffffffff021916908373ffffffffffffffffffffffffffffffffffffffff16021790555084600560006101000a81548173ffffffffffffffffffffffffffffffffffffffff021916908373ffffffffffffffffffffffffffffffffffffffff16021790555084600660006101000a81548173ffffffffffffffffffffffffffffffffffffffff021916908373ffffffffffffffffffffffffffffffffffffffff1602179055508360079081620001829190620007df565b508260089081620001949190620007df565b508160099081620001a69190620007df565b5080600460006101000a81548173ffffffffffffffffffffffffffffffffffffffff021916908373ffffffffffffffffffffffffffffffffffffffff160217905550600460009054906101000a900473ffffffffffffffffffffffffffffffffffffffff16600360006101000a81548173ffffffffffffffffffffffffffffffffffffffff021916908373ffffffffffffffffffffffffffffffffffffffff16021790555060008054906101000a900473ffffffffffffffffffffffffffffffffffffffff16600160006101000a81548173ffffffffffffffffffffffffffffffffffffffff021916908373ffffffffffffffffffffffffffffffffffffffff1602179055505050505050620008c6565b6000604051905090565b600080fd5b600080fd5b600073ffffffffffffffffffffffffffffffffffffffff82169050919050565b6000620002f882620002cb565b9050919050565b6200030a81620002eb565b81146200031657600080fd5b50565b6000815190506200032a81620002ff565b92915050565b600080fd5b600080fd5b6000601f19601f8301169050919050565b7f4e487b7100000000000000000000000000000000000000000000000000000000600052604160045260246000fd5b62000385826200033a565b810181811067ffffffffffffffff82111715620003a757620003a66200034b565b5b80604052505050565b6000620003bc620002b7565b9050620003ca82826200037a565b919050565b600067ffffffffffffffff821115620003ed57620003ec6200034b565b5b620003f8826200033a565b9050602081019050919050565b60005b838110156200042557808201518184015260208101905062000408565b60008484015250505050565b6000620004486200044284620003cf565b620003b0565b90508281526020810184848401111562000467576200046662000335565b5b6200047484828562000405565b509392505050565b600082601f83011262000494576200049362000330565b5b8151620004a684826020860162000431565b91505092915050565b600080600080600060a08688031215620004ce57620004cd620002c1565b5b6000620004de8882890162000319565b955050602086015167ffffffffffffffff811115620005025762000501620002c6565b5b62000510888289016200047c565b945050604086015167ffffffffffffffff811115620005345762000533620002c6565b5b62000542888289016200047c565b935050606086015167ffffffffffffffff811115620005665762000565620002c6565b5b62000574888289016200047c565b9250506080620005878882890162000319565b9150509295509295909350565b600081519050919050565b7f4e487b7100000000000000000000000000000000000000000000000000000000600052602260045260246000fd5b60006002820490506001821680620005e757607f821691505b602082108103620005fd57620005fc6200059f565b5b50919050565b60008190508160005260206000209050919050565b60006020601f8301049050919050565b600082821b905092915050565b600060088302620006677fffffffffffffffffffffffffffffffffffffffffffffffffffffffffffffffff8262000628565b62000673868362000628565b95508019841693508086168417925050509392505050565b6000819050919050565b6000819050919050565b6000620006c0620006ba620006b4846200068b565b62000695565b6200068b565b9050919050565b6000819050919050565b620006dc836200069f565b620006f4620006eb82620006c7565b84845462000635565b825550505050565b600090565b6200070b620006fc565b62000718818484620006d1565b505050565b5b8181101562000740576200073460008262000701565b6001810190506200071e565b5050565b601f8211156200078f57620007598162000603565b620007648462000618565b8101602085101562000774578190505b6200078c620007838562000618565b8301826200071d565b50505b505050565b600082821c905092915050565b6000620007b46000198460080262000794565b1980831691505092915050565b6000620007cf8383620007a1565b9150826002028217905092915050565b620007ea8262000594565b67ffffffffffffffff8111156200080657620008056200034b565b5b620008128254620005ce565b6200081f82828562000744565b600060209050601f83116001811462000857576000841562000842578287015190505b6200084e8582620007c1565b865550620008be565b601f198416620008678662000603565b60005b8281101562000891578489015182556001820191506020850194506020810190506200086a565b86831015620008b15784890151620008ad601f891682620007a1565b8355505b6001600288020188555050505b505050505050565b614a8c80620008d66000396000f3fe60806040523480156200001157600080fd5b50600436106200016c5760003560e01c806370019b3511620000d5578063d4dadf011162000087578063d4dadf0114620003d1578063e4128fb31462000407578063e60faa311462000429578063ebc3eee8146200044b578063f6acee23146200046d578063ffd17c89146200048f576200016c565b806370019b35146200030b57806397987faf146200032d578063a0965ed2146200034d578063a36b5fa2146200036f578063cc371c14146200038f578063d39d655e14620003b1576200016c565b80634a377870116200012f5780634a377870146200021b5780634bb1c3f714620002515780634d7adf0914620002875780634ec9e9dc14620002a95780635e001c3414620002c95780636f61c74414620002e9576200016c565b806312958f1c14620001715780631d90fb1f14620001935780631fa1470e14620001b5578063250a12d914620001d75780632a5de35014620001f9575b600080fd5b6200017b620004c5565b6040516200018a919062001819565b60405180910390f35b6200019d6200055f565b604051620001ac9190620018c8565b60405180910390f35b620001bf62000585565b604051620001ce919062001819565b60405180910390f35b620001e16200061f565b604051620001f0919062001900565b60405180910390f35b62000203620006c7565b60405162000212919062001819565b60405180910390f35b62000239600480360381019062000233919062001976565b6200075d565b604051620002489190620019c5565b60405180910390f35b6200026f600480360381019062000269919062001b33565b6200089a565b6040516200027e919062001c13565b60405180910390f35b62000291620008fb565b604051620002a0919062001c55565b60405180910390f35b620002c76004803603810190620002c1919062001ca3565b62000921565b005b620002e76004803603810190620002e1919062001976565b62000b0c565b005b620002f362000b91565b60405162000302919062001819565b60405180910390f35b6200031562000c2b565b60405162000324919062001819565b60405180910390f35b6200034b600480360381019062000345919062001cea565b62000cc1565b005b6200035762000ecd565b60405162000366919062001c13565b60405180910390f35b6200038d600480360381019062000387919062001cea565b62000ed5565b005b6200039962001105565b604051620003a8919062001f18565b60405180910390f35b620003cf6004803603810190620003c9919062001976565b620011b2565b005b620003ef6004803603810190620003e9919062001976565b62001236565b604051620003fe9190620019c5565b60405180910390f35b62000411620015a3565b60405162000420919062001c13565b60405180910390f35b62000433620015c9565b60405162000442919062001819565b60405180910390f35b620004556200165f565b60405162000464919062001c13565b60405180910390f35b6200047762001689565b60405162000486919062001f61565b60405180910390f35b620004ad6004803603810190620004a7919062001976565b620016af565b604051620004bc9190620019c5565b60405180910390f35b606060078054620004d69062001fad565b80601f0160208091040260200160405190810160405280929190818152602001828054620005049062001fad565b8015620005555780601f10620005295761010080835404028352916020019162000555565b820191906000526020600020905b8154815290600101906020018083116200053757829003601f168201915b5050505050905090565b600360009054906101000a900473ffffffffffffffffffffffffffffffffffffffff1681565b606060098054620005969062001fad565b80601f0160208091040260200160405190810160405280929190818152602001828054620005c49062001fad565b8015620006155780601f10620005e95761010080835404028352916020019162000615565b820191906000526020600020905b815481529060010190602001808311620005f757829003601f168201915b5050505050905090565b6000600260009054906101000a900473ffffffffffffffffffffffffffffffffffffffff1673ffffffffffffffffffffffffffffffffffffffff166370a08231306040518263ffffffff1660e01b81526004016200067e919062001c13565b602060405180830381865afa1580156200069c573d6000803e3d6000fd5b505050506040513d601f19601f82011682018060405250810190620006c2919062001ff9565b905090565b60088054620006d69062001fad565b80601f0160208091040260200160405190810160405280929190818152602001828054620007049062001fad565b8015620007555780601f10620007295761010080835404028352916020019162000755565b820191906000526020600020905b8154815290600101906020018083116200073757829003601f168201915b505050505081565b6000600c60008373ffffffffffffffffffffffffffffffffffffffff1673ffffffffffffffffffffffffffffffffffffffff16815260200190815260200160002060009054906101000a900460ff16620007ee576040517f08c379a0000000000000000000000000000000000000000000000000000000008152600401620007e5906200207b565b60405180910390fd5b6000600c60008473ffffffffffffffffffffffffffffffffffffffff1673ffffffffffffffffffffffffffffffffffffffff16815260200190815260200160002060006101000a81548160ff021916908315150217905550600c60008373ffffffffffffffffffffffffffffffffffffffff1673ffffffffffffffffffffffffffffffffffffffff16815260200190815260200160002060009054906101000a900460ff169050919050565b6000803086868686604051620008b09062001771565b620008c09594939291906200209d565b604051809103906000f080158015620008dd573d6000803e3d6000fd5b509050620008ef8187878787620016cf565b80915050949350505050565b600160009054906101000a900473ffffffffffffffffffffffffffffffffffffffff1681565b3373ffffffffffffffffffffffffffffffffffffffff16600560009054906101000a900473ffffffffffffffffffffffffffffffffffffffff1673ffffffffffffffffffffffffffffffffffffffff16146200097c57600080fd5b80600260009054906101000a900473ffffffffffffffffffffffffffffffffffffffff1673ffffffffffffffffffffffffffffffffffffffff166370a08231306040518263ffffffff1660e01b8152600401620009da919062001c13565b602060405180830381865afa158015620009f8573d6000803e3d6000fd5b505050506040513d601f19601f8201168201806040525081019062000a1e919062001ff9565b101562000a62576040517f08c379a000000000000000000000000000000000000000000000000000000000815260040162000a59906200215f565b60405180910390fd5b600260009054906101000a900473ffffffffffffffffffffffffffffffffffffffff1673ffffffffffffffffffffffffffffffffffffffff1663095ea7b383836040518363ffffffff1660e01b815260040162000ac192919062002181565b6020604051808303816000875af115801562000ae1573d6000803e3d6000fd5b505050506040513d601f19601f8201168201806040525081019062000b079190620021df565b505050565b80600a60006101000a81548173ffffffffffffffffffffffffffffffffffffffff021916908373ffffffffffffffffffffffffffffffffffffffff16021790555080600260006101000a81548173ffffffffffffffffffffffffffffffffffffffff021916908373ffffffffffffffffffffffffffffffffffffffff16021790555050565b60606008805462000ba29062001fad565b80601f016020809104026020016040519081016040528092919081815260200182805462000bd09062001fad565b801562000c215780601f1062000bf55761010080835404028352916020019162000c21565b820191906000526020600020905b81548152906001019060200180831162000c0357829003601f168201915b5050505050905090565b6007805462000c3a9062001fad565b80601f016020809104026020016040519081016040528092919081815260200182805462000c689062001fad565b801562000cb95780601f1062000c8d5761010080835404028352916020019162000cb9565b820191906000526020600020905b81548152906001019060200180831162000c9b57829003601f168201915b505050505081565b3373ffffffffffffffffffffffffffffffffffffffff16600560009054906101000a900473ffffffffffffffffffffffffffffffffffffffff1673ffffffffffffffffffffffffffffffffffffffff161462000d1c57600080fd5b80600260009054906101000a900473ffffffffffffffffffffffffffffffffffffffff1673ffffffffffffffffffffffffffffffffffffffff166370a08231306040518263ffffffff1660e01b815260040162000d7a919062001c13565b602060405180830381865afa15801562000d98573d6000803e3d6000fd5b505050506040513d601f19601f8201168201806040525081019062000dbe919062001ff9565b101562000e02576040517f08c379a000000000000000000000000000000000000000000000000000000000815260040162000df9906200215f565b60405180910390fd5b600260009054906101000a900473ffffffffffffffffffffffffffffffffffffffff1673ffffffffffffffffffffffffffffffffffffffff1663a9059cbb600660009054906101000a900473ffffffffffffffffffffffffffffffffffffffff16836040518363ffffffff1660e01b815260040162000e8392919062002181565b6020604051808303816000875af115801562000ea3573d6000803e3d6000fd5b505050506040513d601f19601f8201168201806040525081019062000ec99190620021df565b5050565b600030905090565b3373ffffffffffffffffffffffffffffffffffffffff16600560009054906101000a900473ffffffffffffffffffffffffffffffffffffffff1673ffffffffffffffffffffffffffffffffffffffff161462000f3057600080fd5b80600260009054906101000a900473ffffffffffffffffffffffffffffffffffffffff1673ffffffffffffffffffffffffffffffffffffffff166370a08231600660009054906101000a900473ffffffffffffffffffffffffffffffffffffffff166040518263ffffffff1660e01b815260040162000fb0919062001c13565b602060405180830381865afa15801562000fce573d6000803e3d6000fd5b505050506040513d601f19601f8201168201806040525081019062000ff4919062001ff9565b101562001038576040517f08c379a00000000000000000000000000000000000000000000000000000000081526004016200102f906200215f565b60405180910390fd5b600260009054906101000a900473ffffffffffffffffffffffffffffffffffffffff1673ffffffffffffffffffffffffffffffffffffffff166323b872dd600660009054906101000a900473ffffffffffffffffffffffffffffffffffffffff1630846040518463ffffffff1660e01b8152600401620010bb9392919062002211565b6020604051808303816000875af1158015620010db573d6000803e3d6000fd5b505050506040513d601f19601f82011682018060405250810190620011019190620021df565b5050565b6060600160009054906101000a900473ffffffffffffffffffffffffffffffffffffffff1673ffffffffffffffffffffffffffffffffffffffff166358cedf57306040518263ffffffff1660e01b815260040162001164919062001c13565b600060405180830381865afa15801562001182573d6000803e3d6000fd5b505050506040513d6000823e3d601f19601f82011682018060405250810190620011ad91906200250d565b905090565b806000806101000a81548173ffffffffffffffffffffffffffffffffffffffff021916908373ffffffffffffffffffffffffffffffffffffffff16021790555080600160006101000a81548173ffffffffffffffffffffffffffffffffffffffff021916908373ffffffffffffffffffffffffffffffffffffffff16021790555050565b6000600c60008373ffffffffffffffffffffffffffffffffffffffff1673ffffffffffffffffffffffffffffffffffffffff16815260200190815260200160002060009054906101000a900460ff1615620012c8576040517f08c379a0000000000000000000000000000000000000000000000000000000008152600401620012bf90620025ae565b60405180910390fd5b6000600b80549050036200139757600b829080600181540180825580915050600190039060005260206000200160009091909190916101000a81548173ffffffffffffffffffffffffffffffffffffffff021916908373ffffffffffffffffffffffffffffffffffffffff1602179055506001600c60008473ffffffffffffffffffffffffffffffffffffffff1673ffffffffffffffffffffffffffffffffffffffff16815260200190815260200160002060006101000a81548160ff0219169083151502179055506200154f565b60005b600b805490508110156200154d578273ffffffffffffffffffffffffffffffffffffffff16600b8281548110620013d657620013d5620025d0565b5b9060005260206000200160009054906101000a900473ffffffffffffffffffffffffffffffffffffffff1673ffffffffffffffffffffffffffffffffffffffff16036200147b576001600c60008573ffffffffffffffffffffffffffffffffffffffff1673ffffffffffffffffffffffffffffffffffffffff16815260200190815260200160002060006101000a81548160ff02191690831515021790555062001537565b600b839080600181540180825580915050600190039060005260206000200160009091909190916101000a81548173ffffffffffffffffffffffffffffffffffffffff021916908373ffffffffffffffffffffffffffffffffffffffff1602179055506001600c60008573ffffffffffffffffffffffffffffffffffffffff1673ffffffffffffffffffffffffffffffffffffffff16815260200190815260200160002060006101000a81548160ff0219169083151502179055505b808062001544906200262e565b9150506200139a565b505b600c60008373ffffffffffffffffffffffffffffffffffffffff1673ffffffffffffffffffffffffffffffffffffffff16815260200190815260200160002060009054906101000a900460ff169050919050565b600660009054906101000a900473ffffffffffffffffffffffffffffffffffffffff1681565b60098054620015d89062001fad565b80601f0160208091040260200160405190810160405280929190818152602001828054620016069062001fad565b8015620016575780601f106200162b5761010080835404028352916020019162001657565b820191906000526020600020905b8154815290600101906020018083116200163957829003601f168201915b505050505081565b6000600660009054906101000a900473ffffffffffffffffffffffffffffffffffffffff16905090565b600260009054906101000a900473ffffffffffffffffffffffffffffffffffffffff1681565b600c6020528060005260406000206000915054906101000a900460ff1681565b600160009054906101000a900473ffffffffffffffffffffffffffffffffffffffff1673ffffffffffffffffffffffffffffffffffffffff1663c34b28f53087878787876040518763ffffffff1660e01b815260040162001736969594939291906200267b565b600060405180830381600087803b1580156200175157600080fd5b505af115801562001766573d6000803e3d6000fd5b505050505050505050565b61235980620026fe83390190565b600081519050919050565b600082825260208201905092915050565b60005b83811015620017bb5780820151818401526020810190506200179e565b60008484015250505050565b6000601f19601f8301169050919050565b6000620017e5826200177f565b620017f181856200178a565b9350620018038185602086016200179b565b6200180e81620017c7565b840191505092915050565b60006020820190508181036000830152620018358184620017d8565b905092915050565b600073ffffffffffffffffffffffffffffffffffffffff82169050919050565b6000819050919050565b600062001888620018826200187c846200183d565b6200185d565b6200183d565b9050919050565b60006200189c8262001867565b9050919050565b6000620018b0826200188f565b9050919050565b620018c281620018a3565b82525050565b6000602082019050620018df6000830184620018b7565b92915050565b6000819050919050565b620018fa81620018e5565b82525050565b6000602082019050620019176000830184620018ef565b92915050565b6000604051905090565b600080fd5b600080fd5b60006200193e826200183d565b9050919050565b620019508162001931565b81146200195c57600080fd5b50565b600081359050620019708162001945565b92915050565b6000602082840312156200198f576200198e62001927565b5b60006200199f848285016200195f565b91505092915050565b60008115159050919050565b620019bf81620019a8565b82525050565b6000602082019050620019dc6000830184620019b4565b92915050565b600080fd5b600080fd5b7f4e487b7100000000000000000000000000000000000000000000000000000000600052604160045260246000fd5b62001a2682620017c7565b810181811067ffffffffffffffff8211171562001a485762001a47620019ec565b5b80604052505050565b600062001a5d6200191d565b905062001a6b828262001a1b565b919050565b600067ffffffffffffffff82111562001a8e5762001a8d620019ec565b5b62001a9982620017c7565b9050602081019050919050565b82818337600083830152505050565b600062001acc62001ac68462001a70565b62001a51565b90508281526020810184848401111562001aeb5762001aea620019e7565b5b62001af884828562001aa6565b509392505050565b600082601f83011262001b185762001b17620019e2565b5b813562001b2a84826020860162001ab5565b91505092915050565b6000806000806080858703121562001b505762001b4f62001927565b5b600062001b60878288016200195f565b945050602085013567ffffffffffffffff81111562001b845762001b836200192c565b5b62001b928782880162001b00565b935050604085013567ffffffffffffffff81111562001bb65762001bb56200192c565b5b62001bc48782880162001b00565b925050606085013567ffffffffffffffff81111562001be85762001be76200192c565b5b62001bf68782880162001b00565b91505092959194509250565b62001c0d8162001931565b82525050565b600060208201905062001c2a600083018462001c02565b92915050565b600062001c3d826200188f565b9050919050565b62001c4f8162001c30565b82525050565b600060208201905062001c6c600083018462001c44565b92915050565b62001c7d81620018e5565b811462001c8957600080fd5b50565b60008135905062001c9d8162001c72565b92915050565b6000806040838503121562001cbd5762001cbc62001927565b5b600062001ccd858286016200195f565b925050602062001ce08582860162001c8c565b9150509250929050565b60006020828403121562001d035762001d0262001927565b5b600062001d138482850162001c8c565b91505092915050565b600081519050919050565b600082825260208201905092915050565b6000819050602082019050919050565b62001d538162001931565b82525050565b600082825260208201905092915050565b600062001d77826200177f565b62001d83818562001d59565b935062001d958185602086016200179b565b62001da081620017c7565b840191505092915050565b62001db681620018e5565b82525050565b600060e08301600083015162001dd6600086018262001d48565b50602083015162001deb602086018262001d48565b50604083015162001e00604086018262001d48565b506060830151848203606086015262001e1a828262001d6a565b9150506080830151848203608086015262001e36828262001d6a565b91505060a083015184820360a086015262001e52828262001d6a565b91505060c083015162001e6960c086018262001dab565b508091505092915050565b600062001e82838362001dbc565b905092915050565b6000602082019050919050565b600062001ea48262001d1c565b62001eb0818562001d27565b93508360208202850162001ec48562001d38565b8060005b8581101562001f06578484038952815162001ee4858262001e74565b945062001ef18362001e8a565b925060208a0199505060018101905062001ec8565b50829750879550505050505092915050565b6000602082019050818103600083015262001f34818462001e97565b905092915050565b600062001f49826200188f565b9050919050565b62001f5b8162001f3c565b82525050565b600060208201905062001f78600083018462001f50565b92915050565b7f4e487b7100000000000000000000000000000000000000000000000000000000600052602260045260246000fd5b6000600282049050600182168062001fc657607f821691505b60208210810362001fdc5762001fdb62001f7e565b5b50919050565b60008151905062001ff38162001c72565b92915050565b60006020828403121562002012576200201162001927565b5b6000620020228482850162001fe2565b91505092915050565b7f616c7265616479206e6f74206368656572000000000000000000000000000000600082015250565b6000620020636011836200178a565b915062002070826200202b565b602082019050919050565b60006020820190508181036000830152620020968162002054565b9050919050565b600060a082019050620020b4600083018862001c02565b620020c3602083018762001c02565b8181036040830152620020d78186620017d8565b90508181036060830152620020ed8185620017d8565b90508181036080830152620021038184620017d8565b90509695505050505050565b7f6e6f7420696e73756666696369656e7400000000000000000000000000000000600082015250565b6000620021476010836200178a565b915062002154826200210f565b602082019050919050565b600060208201905081810360008301526200217a8162002138565b9050919050565b600060408201905062002198600083018562001c02565b620021a76020830184620018ef565b9392505050565b620021b981620019a8565b8114620021c557600080fd5b50565b600081519050620021d981620021ae565b92915050565b600060208284031215620021f857620021f762001927565b5b60006200220884828501620021c8565b91505092915050565b600060608201905062002228600083018662001c02565b62002237602083018562001c02565b620022466040830184620018ef565b949350505050565b600067ffffffffffffffff8211156200226c576200226b620019ec565b5b602082029050602081019050919050565b600080fd5b600080fd5b600080fd5b6000815190506200229d8162001945565b92915050565b6000620022ba620022b48462001a70565b62001a51565b905082815260208101848484011115620022d957620022d8620019e7565b5b620022e68482856200179b565b509392505050565b600082601f830112620023065762002305620019e2565b5b815162002318848260208601620022a3565b91505092915050565b600060e082840312156200233a576200233962002282565b5b6200234660e062001a51565b9050600062002358848285016200228c565b60008301525060206200236e848285016200228c565b602083015250604062002384848285016200228c565b604083015250606082015167ffffffffffffffff811115620023ab57620023aa62002287565b5b620023b984828501620022ee565b606083015250608082015167ffffffffffffffff811115620023e057620023df62002287565b5b620023ee84828501620022ee565b60808301525060a082015167ffffffffffffffff81111562002415576200241462002287565b5b6200242384828501620022ee565b60a08301525060c0620024398482850162001fe2565b60c08301525092915050565b60006200245c62002456846200224e565b62001a51565b905080838252602082019050602084028301858111156200248257620024816200227d565b5b835b81811015620024d057805167ffffffffffffffff811115620024ab57620024aa620019e2565b5b808601620024ba898262002321565b8552602085019450505060208101905062002484565b5050509392505050565b600082601f830112620024f257620024f1620019e2565b5b81516200250484826020860162002445565b91505092915050565b60006020828403121562002526576200252562001927565b5b600082015167ffffffffffffffff8111156200254757620025466200192c565b5b6200255584828501620024da565b91505092915050565b7f616c726561647920636865657200000000000000000000000000000000000000600082015250565b600062002596600d836200178a565b9150620025a3826200255e565b602082019050919050565b60006020820190508181036000830152620025c98162002587565b9050919050565b7f4e487b7100000000000000000000000000000000000000000000000000000000600052603260045260246000fd5b7f4e487b7100000000000000000000000000000000000000000000000000000000600052601160045260246000fd5b60006200263b82620018e5565b91507fffffffffffffffffffffffffffffffffffffffffffffffffffffffffffffffff820362002670576200266f620025ff565b5b600182019050919050565b600060c08201905062002692600083018962001c02565b620026a1602083018862001c02565b620026b0604083018762001c02565b8181036060830152620026c48186620017d8565b90508181036080830152620026da8185620017d8565b905081810360a0830152620026f08184620017d8565b905097965050505050505056fe60806040527338d4172dde4e50a8cdd8b39abc572443d18ad72d600960006101000a81548173ffffffffffffffffffffffffffffffffffffffff021916908373ffffffffffffffffffffffffffffffffffffffff1602179055503480156200006657600080fd5b50604051620023593803806200235983398181016040528101906200008c919062000513565b600b60009054906101000a900473ffffffffffffffffffffffffffffffffffffffff16600c60006101000a81548173ffffffffffffffffffffffffffffffffffffffff021916908373ffffffffffffffffffffffffffffffffffffffff160217905550600d60009054906101000a900473ffffffffffffffffffffffffffffffffffffffff16600e60006101000a81548173ffffffffffffffffffffffffffffffffffffffff021916908373ffffffffffffffffffffffffffffffffffffffff160217905550600960009054906101000a900473ffffffffffffffffffffffffffffffffffffffff166000806101000a81548173ffffffffffffffffffffffffffffffffffffffff021916908373ffffffffffffffffffffffffffffffffffffffff160217905550600260009054906101000a900473ffffffffffffffffffffffffffffffffffffffff16600160006101000a81548173ffffffffffffffffffffffffffffffffffffffff021916908373ffffffffffffffffffffffffffffffffffffffff16021790555033600360006101000a81548173ffffffffffffffffffffffffffffffffffffffff021916908373ffffffffffffffffffffffffffffffffffffffff16021790555084600460006101000a81548173ffffffffffffffffffffffffffffffffffffffff021916908373ffffffffffffffffffffffffffffffffffffffff16021790555083600560006101000a81548173ffffffffffffffffffffffffffffffffffffffff021916908373ffffffffffffffffffffffffffffffffffffffff1602179055508260069081620002eb919062000843565b508160079081620002fd919062000843565b5080600890816200030f919062000843565b5050505050506200092a565b6000604051905090565b600080fd5b600080fd5b600073ffffffffffffffffffffffffffffffffffffffff82169050919050565b60006200035c826200032f565b9050919050565b6200036e816200034f565b81146200037a57600080fd5b50565b6000815190506200038e8162000363565b92915050565b600080fd5b600080fd5b6000601f19601f8301169050919050565b7f4e487b7100000000000000000000000000000000000000000000000000000000600052604160045260246000fd5b620003e9826200039e565b810181811067ffffffffffffffff821117156200040b576200040a620003af565b5b80604052505050565b6000620004206200031b565b90506200042e8282620003de565b919050565b600067ffffffffffffffff821115620004515762000450620003af565b5b6200045c826200039e565b9050602081019050919050565b60005b83811015620004895780820151818401526020810190506200046c565b60008484015250505050565b6000620004ac620004a68462000433565b62000414565b905082815260208101848484011115620004cb57620004ca62000399565b5b620004d884828562000469565b509392505050565b600082601f830112620004f857620004f762000394565b5b81516200050a84826020860162000495565b91505092915050565b600080600080600060a0868803121562000532576200053162000325565b5b600062000542888289016200037d565b955050602062000555888289016200037d565b945050604086015167ffffffffffffffff8111156200057957620005786200032a565b5b6200058788828901620004e0565b935050606086015167ffffffffffffffff811115620005ab57620005aa6200032a565b5b620005b988828901620004e0565b925050608086015167ffffffffffffffff811115620005dd57620005dc6200032a565b5b620005eb88828901620004e0565b9150509295509295909350565b600081519050919050565b7f4e487b7100000000000000000000000000000000000000000000000000000000600052602260045260246000fd5b600060028204905060018216806200064b57607f821691505b60208210810362000661576200066062000603565b5b50919050565b60008190508160005260206000209050919050565b60006020601f8301049050919050565b600082821b905092915050565b600060088302620006cb7fffffffffffffffffffffffffffffffffffffffffffffffffffffffffffffffff826200068c565b620006d786836200068c565b95508019841693508086168417925050509392505050565b6000819050919050565b6000819050919050565b6000620007246200071e6200071884620006ef565b620006f9565b620006ef565b9050919050565b6000819050919050565b620007408362000703565b620007586200074f826200072b565b84845462000699565b825550505050565b600090565b6200076f62000760565b6200077c81848462000735565b505050565b5b81811015620007a4576200079860008262000765565b60018101905062000782565b5050565b601f821115620007f357620007bd8162000667565b620007c8846200067c565b81016020851015620007d8578190505b620007f0620007e7856200067c565b83018262000781565b50505b505050565b600082821c905092915050565b60006200081860001984600802620007f8565b1980831691505092915050565b600062000833838362000805565b9150826002028217905092915050565b6200084e82620005f8565b67ffffffffffffffff8111156200086a5762000869620003af565b5b62000876825462000632565b62000883828285620007a8565b600060209050601f831160018114620008bb5760008415620008a6578287015190505b620008b2858262000825565b86555062000922565b601f198416620008cb8662000667565b60005b82811015620008f557848901518255600182019150602085019450602081019050620008ce565b8683101562000915578489015162000911601f89168262000805565b8355505b6001600288020188555050505b505050505050565b611a1f806200093a6000396000f3fe608060405234801561001057600080fd5b50600436106100b45760003560e01c80635e001c34116100715780635e001c341461016b57806365550ba41461018757806371b3423d146101a357806373531cfe146101c15780639a33e300146101df578063f6acee23146101fd576100b4565b806316e66f43146100b95780631a314956146100d55780631d90fb1f146100f3578063250a12d91461011157806332b04e2b1461012f5780634d7adf091461014d575b600080fd5b6100d360048036038101906100ce9190610f65565b61021b565b005b6100dd6102a0565b6040516100ea9190611022565b60405180910390f35b6100fb61032e565b60405161010891906110a3565b60405180910390f35b610119610354565b60405161012691906110d7565b60405180910390f35b6101376103f6565b6040516101449190611022565b60405180910390f35b610155610484565b6040516101629190611113565b60405180910390f35b61018560048036038101906101809190610f65565b6104aa565b005b6101a1600480360381019061019c919061128f565b61052e565b005b6101ab6106b3565b6040516101b8919061130c565b60405180910390f35b6101c96106d9565b6040516101d691906110d7565b60405180910390f35b6101e76106df565b6040516101f49190611022565b60405180910390f35b61020561076d565b6040516102129190611348565b60405180910390f35b80600b60006101000a81548173ffffffffffffffffffffffffffffffffffffffff021916908373ffffffffffffffffffffffffffffffffffffffff16021790555080600c60006101000a81548173ffffffffffffffffffffffffffffffffffffffff021916908373ffffffffffffffffffffffffffffffffffffffff16021790555050565b600780546102ad90611392565b80601f01602080910402602001604051908101604052809291908181526020018280546102d990611392565b80156103265780601f106102fb57610100808354040283529160200191610326565b820191906000526020600020905b81548152906001019060200180831161030957829003601f168201915b505050505081565b600160009054906101000a900473ffffffffffffffffffffffffffffffffffffffff1681565b60008060009054906101000a900473ffffffffffffffffffffffffffffffffffffffff1673ffffffffffffffffffffffffffffffffffffffff166370a08231306040518263ffffffff1660e01b81526004016103b091906113d2565b602060405180830381865afa1580156103cd573d6000803e3d6000fd5b505050506040513d601f19601f820116820180604052508101906103f19190611402565b905090565b6008805461040390611392565b80601f016020809104026020016040519081016040528092919081815260200182805461042f90611392565b801561047c5780601f106104515761010080835404028352916020019161047c565b820191906000526020600020905b81548152906001019060200180831161045f57829003601f168201915b505050505081565b600e60009054906101000a900473ffffffffffffffffffffffffffffffffffffffff1681565b80600960006101000a81548173ffffffffffffffffffffffffffffffffffffffff021916908373ffffffffffffffffffffffffffffffffffffffff160217905550806000806101000a81548173ffffffffffffffffffffffffffffffffffffffff021916908373ffffffffffffffffffffffffffffffffffffffff16021790555050565b8160008054906101000a900473ffffffffffffffffffffffffffffffffffffffff1673ffffffffffffffffffffffffffffffffffffffff166370a08231600c60009054906101000a900473ffffffffffffffffffffffffffffffffffffffff1673ffffffffffffffffffffffffffffffffffffffff16631599a352336040518263ffffffff1660e01b81526004016105c691906113d2565b602060405180830381865afa1580156105e3573d6000803e3d6000fd5b505050506040513d601f19601f820116820180604052508101906106079190611444565b6040518263ffffffff1660e01b815260040161062391906113d2565b602060405180830381865afa158015610640573d6000803e3d6000fd5b505050506040513d601f19601f820116820180604052508101906106649190611402565b10156106a5576040517f08c379a000000000000000000000000000000000000000000000000000000000815260040161069c906114bd565b60405180910390fd5b6106af8282610791565b5050565b600c60009054906101000a900473ffffffffffffffffffffffffffffffffffffffff1681565b600a5481565b600680546106ec90611392565b80601f016020809104026020016040519081016040528092919081815260200182805461071890611392565b80156107655780601f1061073a57610100808354040283529160200191610765565b820191906000526020600020905b81548152906001019060200180831161074857829003601f168201915b505050505081565b60008054906101000a900473ffffffffffffffffffffffffffffffffffffffff1681565b60008054906101000a900473ffffffffffffffffffffffffffffffffffffffff1673ffffffffffffffffffffffffffffffffffffffff166323b872dd600c60009054906101000a900473ffffffffffffffffffffffffffffffffffffffff1673ffffffffffffffffffffffffffffffffffffffff16631599a352336040518263ffffffff1660e01b815260040161082891906113d2565b602060405180830381865afa158015610845573d6000803e3d6000fd5b505050506040513d601f19601f820116820180604052508101906108699190611444565b30856040518463ffffffff1660e01b8152600401610889939291906114dd565b6020604051808303816000875af11580156108a8573d6000803e3d6000fd5b505050506040513d601f19601f820116820180604052508101906108cc919061154c565b50600e60009054906101000a900473ffffffffffffffffffffffffffffffffffffffff1673ffffffffffffffffffffffffffffffffffffffff1663c4ee4c0d30600c60009054906101000a900473ffffffffffffffffffffffffffffffffffffffff1673ffffffffffffffffffffffffffffffffffffffff16631599a352336040518263ffffffff1660e01b815260040161096791906113d2565b602060405180830381865afa158015610984573d6000803e3d6000fd5b505050506040513d601f19601f820116820180604052508101906109a89190611444565b4285876040518663ffffffff1660e01b81526004016109cb959493929190611579565b600060405180830381600087803b1580156109e557600080fd5b505af11580156109f9573d6000803e3d6000fd5b50505050610a0682610a0a565b5050565b80600a6000828254610a1c9190611602565b9250508190555060006064604683610a349190611636565b610a3e91906116a7565b905060006064601984610a519190611636565b610a5b91906116a7565b90506000818385610a6c91906116d8565b610a7691906116d8565b905060005b600e60009054906101000a900473ffffffffffffffffffffffffffffffffffffffff1673ffffffffffffffffffffffffffffffffffffffff1663d621e518306040518263ffffffff1660e01b8152600401610ad691906113d2565b600060405180830381865afa158015610af3573d6000803e3d6000fd5b505050506040513d6000823e3d601f19601f82011682018060405250810190610b1c9190611900565b51811015610d6a5760008054906101000a900473ffffffffffffffffffffffffffffffffffffffff1673ffffffffffffffffffffffffffffffffffffffff1663a9059cbb600e60009054906101000a900473ffffffffffffffffffffffffffffffffffffffff1673ffffffffffffffffffffffffffffffffffffffff1663d621e518306040518263ffffffff1660e01b8152600401610bbb91906113d2565b600060405180830381865afa158015610bd8573d6000803e3d6000fd5b505050506040513d6000823e3d601f19601f82011682018060405250810190610c019190611900565b8381518110610c1357610c12611949565b5b602002602001015160000151600a54600e60009054906101000a900473ffffffffffffffffffffffffffffffffffffffff1673ffffffffffffffffffffffffffffffffffffffff1663d621e518306040518263ffffffff1660e01b8152600401610c7d91906113d2565b600060405180830381865afa158015610c9a573d6000803e3d6000fd5b505050506040513d6000823e3d601f19601f82011682018060405250810190610cc39190611900565b8581518110610cd557610cd4611949565b5b60200260200101516060015188610cec9190611636565b610cf691906116a7565b6040518363ffffffff1660e01b8152600401610d13929190611978565b6020604051808303816000875af1158015610d32573d6000803e3d6000fd5b505050506040513d601f19601f82011682018060405250810190610d56919061154c565b508080610d62906119a1565b915050610a7b565b5060008054906101000a900473ffffffffffffffffffffffffffffffffffffffff1673ffffffffffffffffffffffffffffffffffffffff1663a9059cbb600460009054906101000a900473ffffffffffffffffffffffffffffffffffffffff16846040518363ffffffff1660e01b8152600401610de8929190611978565b6020604051808303816000875af1158015610e07573d6000803e3d6000fd5b505050506040513d601f19601f82011682018060405250810190610e2b919061154c565b5060008054906101000a900473ffffffffffffffffffffffffffffffffffffffff1673ffffffffffffffffffffffffffffffffffffffff1663a9059cbb600560009054906101000a900473ffffffffffffffffffffffffffffffffffffffff16836040518363ffffffff1660e01b8152600401610ea9929190611978565b6020604051808303816000875af1158015610ec8573d6000803e3d6000fd5b505050506040513d601f19601f82011682018060405250810190610eec919061154c565b5050505050565b6000604051905090565b600080fd5b600080fd5b600073ffffffffffffffffffffffffffffffffffffffff82169050919050565b6000610f3282610f07565b9050919050565b610f4281610f27565b8114610f4d57600080fd5b50565b600081359050610f5f81610f39565b92915050565b600060208284031215610f7b57610f7a610efd565b5b6000610f8984828501610f50565b91505092915050565b600081519050919050565b600082825260208201905092915050565b60005b83811015610fcc578082015181840152602081019050610fb1565b60008484015250505050565b6000601f19601f8301169050919050565b6000610ff482610f92565b610ffe8185610f9d565b935061100e818560208601610fae565b61101781610fd8565b840191505092915050565b6000602082019050818103600083015261103c8184610fe9565b905092915050565b6000819050919050565b600061106961106461105f84610f07565b611044565b610f07565b9050919050565b600061107b8261104e565b9050919050565b600061108d82611070565b9050919050565b61109d81611082565b82525050565b60006020820190506110b86000830184611094565b92915050565b6000819050919050565b6110d1816110be565b82525050565b60006020820190506110ec60008301846110c8565b92915050565b60006110fd82611070565b9050919050565b61110d816110f2565b82525050565b60006020820190506111286000830184611104565b92915050565b611137816110be565b811461114257600080fd5b50565b6000813590506111548161112e565b92915050565b600080fd5b600080fd5b7f4e487b7100000000000000000000000000000000000000000000000000000000600052604160045260246000fd5b61119c82610fd8565b810181811067ffffffffffffffff821117156111bb576111ba611164565b5b80604052505050565b60006111ce610ef3565b90506111da8282611193565b919050565b600067ffffffffffffffff8211156111fa576111f9611164565b5b61120382610fd8565b9050602081019050919050565b82818337600083830152505050565b600061123261122d846111df565b6111c4565b90508281526020810184848401111561124e5761124d61115f565b5b611259848285611210565b509392505050565b600082601f8301126112765761127561115a565b5b813561128684826020860161121f565b91505092915050565b600080604083850312156112a6576112a5610efd565b5b60006112b485828601611145565b925050602083013567ffffffffffffffff8111156112d5576112d4610f02565b5b6112e185828601611261565b9150509250929050565b60006112f682611070565b9050919050565b611306816112eb565b82525050565b600060208201905061132160008301846112fd565b92915050565b600061133282611070565b9050919050565b61134281611327565b82525050565b600060208201905061135d6000830184611339565b92915050565b7f4e487b7100000000000000000000000000000000000000000000000000000000600052602260045260246000fd5b600060028204905060018216806113aa57607f821691505b6020821081036113bd576113bc611363565b5b50919050565b6113cc81610f27565b82525050565b60006020820190506113e760008301846113c3565b92915050565b6000815190506113fc8161112e565b92915050565b60006020828403121561141857611417610efd565b5b6000611426848285016113ed565b91505092915050565b60008151905061143e81610f39565b92915050565b60006020828403121561145a57611459610efd565b5b60006114688482850161142f565b91505092915050565b7f4e6f7420656e6f75676800000000000000000000000000000000000000000000600082015250565b60006114a7600a83610f9d565b91506114b282611471565b602082019050919050565b600060208201905081810360008301526114d68161149a565b9050919050565b60006060820190506114f260008301866113c3565b6114ff60208301856113c3565b61150c60408301846110c8565b949350505050565b60008115159050919050565b61152981611514565b811461153457600080fd5b50565b60008151905061154681611520565b92915050565b60006020828403121561156257611561610efd565b5b600061157084828501611537565b91505092915050565b600060a08201905061158e60008301886113c3565b61159b60208301876113c3565b6115a860408301866110c8565b81810360608301526115ba8185610fe9565b90506115c960808301846110c8565b9695505050505050565b7f4e487b7100000000000000000000000000000000000000000000000000000000600052601160045260246000fd5b600061160d826110be565b9150611618836110be565b92508282019050808211156116305761162f6115d3565b5b92915050565b6000611641826110be565b915061164c836110be565b925082820261165a816110be565b91508282048414831517611671576116706115d3565b5b5092915050565b7f4e487b7100000000000000000000000000000000000000000000000000000000600052601260045260246000fd5b60006116b2826110be565b91506116bd836110be565b9250826116cd576116cc611678565b5b828204905092915050565b60006116e3826110be565b91506116ee836110be565b9250828203905081811115611706576117056115d3565b5b92915050565b600067ffffffffffffffff82111561172757611726611164565b5b602082029050602081019050919050565b600080fd5b600080fd5b600080fd5b600061175a611755846111df565b6111c4565b9050828152602081018484840111156117765761177561115f565b5b611781848285610fae565b509392505050565b600082601f83011261179e5761179d61115a565b5b81516117ae848260208601611747565b91505092915050565b6000608082840312156117cd576117cc61173d565b5b6117d760806111c4565b905060006117e78482850161142f565b60008301525060206117fb848285016113ed565b602083015250604082015167ffffffffffffffff81111561181f5761181e611742565b5b61182b84828501611789565b604083015250606061183f848285016113ed565b60608301525092915050565b600061185e6118598461170c565b6111c4565b9050808382526020820190506020840283018581111561188157611880611738565b5b835b818110156118c857805167ffffffffffffffff8111156118a6576118a561115a565b5b8086016118b389826117b7565b85526020850194505050602081019050611883565b5050509392505050565b600082601f8301126118e7576118e661115a565b5b81516118f784826020860161184b565b91505092915050565b60006020828403121561191657611915610efd565b5b600082015167ffffffffffffffff81111561193457611933610f02565b5b611940848285016118d2565b91505092915050565b7f4e487b7100000000000000000000000000000000000000000000000000000000600052603260045260246000fd5b600060408201905061198d60008301856113c3565b61199a60208301846110c8565b9392505050565b60006119ac826110be565b91507fffffffffffffffffffffffffffffffffffffffffffffffffffffffffffffffff82036119de576119dd6115d3565b5b60018201905091905056fea264697066735822122050335bffc8188ca208f07108bafb20a9a9e96fcf8adb36d11f8d15480685063c64736f6c63430008110033a26469706673582212206fe556c9d3556c6507b804cf664879e8b0f1c4b8c55d60948b995f313c254e0a64736f6c63430008110033a2646970667358221220f4ddf5130c0a43c2d8e4bc614b9a545590dbf52b2e233f3eb7d0aeb2c209077064736f6c63430008110033",
  "linkReferences": {},
  "deployedLinkReferences": {}
}