{
  "_format": "hh-sol-artifact-1",
  "contractName": "UserPoolFactory",
  "sourceName": "contracts/factory/UserPoolFactory.sol",
  "abi": [
    {
      "inputs": [],
      "stateMutability": "nonpayable",
      "type": "constructor"
    },
    {
      "inputs": [
        {
          "internalType": "string",
          "name": "_userName",
          "type": "string"
        },
        {
          "internalType": "string",
          "name": "_userProfile",
          "type": "string"
        },
        {
          "internalType": "string",
          "name": "_userIcon",
          "type": "string"
        }
      ],
      "name": "newUserPoolFactory",
      "outputs": [
        {
          "internalType": "address",
          "name": "",
          "type": "address"
        }
      ],
      "stateMutability": "nonpayable",
      "type": "function"
    },
    {
      "inputs": [],
      "name": "poolListData",
      "outputs": [
        {
          "internalType": "contract IPoolListData",
          "name": "",
          "type": "address"
        }
      ],
      "stateMutability": "view",
      "type": "function"
    },
    {
      "inputs": [
        {
          "internalType": "address",
          "name": "poolListDataAddress",
          "type": "address"
        }
      ],
      "name": "setPoolListData",
      "outputs": [],
      "stateMutability": "nonpayable",
      "type": "function"
    },
    {
      "inputs": [
        {
          "internalType": "address",
          "name": "usersDataAddress",
          "type": "address"
        }
      ],
      "name": "setUsersData",
      "outputs": [],
      "stateMutability": "nonpayable",
      "type": "function"
    },
    {
      "inputs": [],
      "name": "usersData",
      "outputs": [
        {
          "internalType": "contract IUsersData",
          "name": "",
          "type": "address"
        }
      ],
      "stateMutability": "view",
      "type": "function"
    }
  ],
  "bytecode": "0x608060405234801561001057600080fd5b5060008054906101000a900473ffffffffffffffffffffffffffffffffffffffff16600160006101000a81548173ffffffffffffffffffffffffffffffffffffffff021916908373ffffffffffffffffffffffffffffffffffffffff160217905550600260009054906101000a900473ffffffffffffffffffffffffffffffffffffffff16600360006101000a81548173ffffffffffffffffffffffffffffffffffffffff021916908373ffffffffffffffffffffffffffffffffffffffff160217905550615c62806100e46000396000f3fe60806040523480156200001157600080fd5b50600436106200005e5760003560e01c806316e66f43146200006357806321991798146200008357806371b3423d14620000b9578063aba0e57514620000db578063f8115dcf14620000fd575b600080fd5b6200008160048036038101906200007b919062000626565b6200011d565b005b620000a160048036038101906200009b9190620007ba565b620001a1565b604051620000b0919062000884565b60405180910390f35b620000c3620004ce565b604051620000d291906200090c565b60405180910390f35b620000e5620004f4565b604051620000f491906200094e565b60405180910390f35b6200011b600480360381019062000115919062000626565b6200051a565b005b806000806101000a81548173ffffffffffffffffffffffffffffffffffffffff021916908373ffffffffffffffffffffffffffffffffffffffff16021790555080600160006101000a81548173ffffffffffffffffffffffffffffffffffffffff021916908373ffffffffffffffffffffffffffffffffffffffff16021790555050565b60008073ffffffffffffffffffffffffffffffffffffffff16600160009054906101000a900473ffffffffffffffffffffffffffffffffffffffff1673ffffffffffffffffffffffffffffffffffffffff16631599a352336040518263ffffffff1660e01b815260040162000217919062000884565b602060405180830381865afa15801562000235573d6000803e3d6000fd5b505050506040513d601f19601f820116820180604052508101906200025b919062000982565b73ffffffffffffffffffffffffffffffffffffffff1614620002b4576040517f08c379a0000000000000000000000000000000000000000000000000000000008152600401620002ab9062000a15565b60405180910390fd5b60003385858530604051620002c9906200059f565b620002d995949392919062000aaf565b604051809103906000f080158015620002f6573d6000803e3d6000fd5b509050600360009054906101000a900473ffffffffffffffffffffffffffffffffffffffff1673ffffffffffffffffffffffffffffffffffffffff16632ce058f6338787876040518563ffffffff1660e01b81526004016200035c949392919062000b21565b600060405180830381600087803b1580156200037757600080fd5b505af11580156200038c573d6000803e3d6000fd5b50505050600160009054906101000a900473ffffffffffffffffffffffffffffffffffffffff1673ffffffffffffffffffffffffffffffffffffffff16635e52fe5033836040518363ffffffff1660e01b8152600401620003ef92919062000b83565b600060405180830381600087803b1580156200040a57600080fd5b505af11580156200041f573d6000803e3d6000fd5b50505050600160009054906101000a900473ffffffffffffffffffffffffffffffffffffffff1673ffffffffffffffffffffffffffffffffffffffff16631599a352336040518263ffffffff1660e01b815260040162000480919062000884565b602060405180830381865afa1580156200049e573d6000803e3d6000fd5b505050506040513d601f19601f82011682018060405250810190620004c4919062000982565b9150509392505050565b600160009054906101000a900473ffffffffffffffffffffffffffffffffffffffff1681565b600360009054906101000a900473ffffffffffffffffffffffffffffffffffffffff1681565b80600260006101000a81548173ffffffffffffffffffffffffffffffffffffffff021916908373ffffffffffffffffffffffffffffffffffffffff16021790555080600360006101000a81548173ffffffffffffffffffffffffffffffffffffffff021916908373ffffffffffffffffffffffffffffffffffffffff16021790555050565b61507c8062000bb183390190565b6000604051905090565b600080fd5b600080fd5b600073ffffffffffffffffffffffffffffffffffffffff82169050919050565b6000620005ee82620005c1565b9050919050565b6200060081620005e1565b81146200060c57600080fd5b50565b6000813590506200062081620005f5565b92915050565b6000602082840312156200063f576200063e620005b7565b5b60006200064f848285016200060f565b91505092915050565b600080fd5b600080fd5b6000601f19601f8301169050919050565b7f4e487b7100000000000000000000000000000000000000000000000000000000600052604160045260246000fd5b620006ad8262000662565b810181811067ffffffffffffffff82111715620006cf57620006ce62000673565b5b80604052505050565b6000620006e4620005ad565b9050620006f28282620006a2565b919050565b600067ffffffffffffffff82111562000715576200071462000673565b5b620007208262000662565b9050602081019050919050565b82818337600083830152505050565b6000620007536200074d84620006f7565b620006d8565b9050828152602081018484840111156200077257620007716200065d565b5b6200077f8482856200072d565b509392505050565b600082601f8301126200079f576200079e62000658565b5b8135620007b18482602086016200073c565b91505092915050565b600080600060608486031215620007d657620007d5620005b7565b5b600084013567ffffffffffffffff811115620007f757620007f6620005bc565b5b620008058682870162000787565b935050602084013567ffffffffffffffff811115620008295762000828620005bc565b5b620008378682870162000787565b925050604084013567ffffffffffffffff8111156200085b576200085a620005bc565b5b620008698682870162000787565b9150509250925092565b6200087e81620005e1565b82525050565b60006020820190506200089b600083018462000873565b92915050565b6000819050919050565b6000620008cc620008c6620008c084620005c1565b620008a1565b620005c1565b9050919050565b6000620008e082620008ab565b9050919050565b6000620008f482620008d3565b9050919050565b6200090681620008e7565b82525050565b6000602082019050620009236000830184620008fb565b92915050565b60006200093682620008d3565b9050919050565b620009488162000929565b82525050565b60006020820190506200096560008301846200093d565b92915050565b6000815190506200097c81620005f5565b92915050565b6000602082840312156200099b576200099a620005b7565b5b6000620009ab848285016200096b565b91505092915050565b600082825260208201905092915050565b7f616c726561647920637265617465642100000000000000000000000000000000600082015250565b6000620009fd601083620009b4565b915062000a0a82620009c5565b602082019050919050565b6000602082019050818103600083015262000a3081620009ee565b9050919050565b600081519050919050565b60005b8381101562000a6257808201518184015260208101905062000a45565b60008484015250505050565b600062000a7b8262000a37565b62000a878185620009b4565b935062000a9981856020860162000a42565b62000aa48162000662565b840191505092915050565b600060a08201905062000ac6600083018862000873565b818103602083015262000ada818762000a6e565b9050818103604083015262000af0818662000a6e565b9050818103606083015262000b06818562000a6e565b905062000b17608083018462000873565b9695505050505050565b600060808201905062000b38600083018762000873565b818103602083015262000b4c818662000a6e565b9050818103604083015262000b62818562000a6e565b9050818103606083015262000b78818462000a6e565b905095945050505050565b600060408201905062000b9a600083018562000873565b62000ba9602083018462000873565b939250505056fe60806040527338d4172dde4e50a8cdd8b39abc572443d18ad72d600a60006101000a81548173ffffffffffffffffffffffffffffffffffffffff021916908373ffffffffffffffffffffffffffffffffffffffff1602179055503480156200006657600080fd5b506040516200507c3803806200507c83398181016040528101906200008c9190620004af565b600a60009054906101000a900473ffffffffffffffffffffffffffffffffffffffff16600260006101000a81548173ffffffffffffffffffffffffffffffffffffffff021916908373ffffffffffffffffffffffffffffffffffffffff16021790555084600560006101000a81548173ffffffffffffffffffffffffffffffffffffffff021916908373ffffffffffffffffffffffffffffffffffffffff16021790555084600660006101000a81548173ffffffffffffffffffffffffffffffffffffffff021916908373ffffffffffffffffffffffffffffffffffffffff1602179055508360079081620001829190620007df565b508260089081620001949190620007df565b508160099081620001a69190620007df565b5080600460006101000a81548173ffffffffffffffffffffffffffffffffffffffff021916908373ffffffffffffffffffffffffffffffffffffffff160217905550600460009054906101000a900473ffffffffffffffffffffffffffffffffffffffff16600360006101000a81548173ffffffffffffffffffffffffffffffffffffffff021916908373ffffffffffffffffffffffffffffffffffffffff16021790555060008054906101000a900473ffffffffffffffffffffffffffffffffffffffff16600160006101000a81548173ffffffffffffffffffffffffffffffffffffffff021916908373ffffffffffffffffffffffffffffffffffffffff1602179055505050505050620008c6565b6000604051905090565b600080fd5b600080fd5b600073ffffffffffffffffffffffffffffffffffffffff82169050919050565b6000620002f882620002cb565b9050919050565b6200030a81620002eb565b81146200031657600080fd5b50565b6000815190506200032a81620002ff565b92915050565b600080fd5b600080fd5b6000601f19601f8301169050919050565b7f4e487b7100000000000000000000000000000000000000000000000000000000600052604160045260246000fd5b62000385826200033a565b810181811067ffffffffffffffff82111715620003a757620003a66200034b565b5b80604052505050565b6000620003bc620002b7565b9050620003ca82826200037a565b919050565b600067ffffffffffffffff821115620003ed57620003ec6200034b565b5b620003f8826200033a565b9050602081019050919050565b60005b838110156200042557808201518184015260208101905062000408565b60008484015250505050565b6000620004486200044284620003cf565b620003b0565b90508281526020810184848401111562000467576200046662000335565b5b6200047484828562000405565b509392505050565b600082601f83011262000494576200049362000330565b5b8151620004a684826020860162000431565b91505092915050565b600080600080600060a08688031215620004ce57620004cd620002c1565b5b6000620004de8882890162000319565b955050602086015167ffffffffffffffff811115620005025762000501620002c6565b5b62000510888289016200047c565b945050604086015167ffffffffffffffff811115620005345762000533620002c6565b5b62000542888289016200047c565b935050606086015167ffffffffffffffff811115620005665762000565620002c6565b5b62000574888289016200047c565b9250506080620005878882890162000319565b9150509295509295909350565b600081519050919050565b7f4e487b7100000000000000000000000000000000000000000000000000000000600052602260045260246000fd5b60006002820490506001821680620005e757607f821691505b602082108103620005fd57620005fc6200059f565b5b50919050565b60008190508160005260206000209050919050565b60006020601f8301049050919050565b600082821b905092915050565b600060088302620006677fffffffffffffffffffffffffffffffffffffffffffffffffffffffffffffffff8262000628565b62000673868362000628565b95508019841693508086168417925050509392505050565b6000819050919050565b6000819050919050565b6000620006c0620006ba620006b4846200068b565b62000695565b6200068b565b9050919050565b6000819050919050565b620006dc836200069f565b620006f4620006eb82620006c7565b84845462000635565b825550505050565b600090565b6200070b620006fc565b62000718818484620006d1565b505050565b5b8181101562000740576200073460008262000701565b6001810190506200071e565b5050565b601f8211156200078f57620007598162000603565b620007648462000618565b8101602085101562000774578190505b6200078c620007838562000618565b8301826200071d565b50505b505050565b600082821c905092915050565b6000620007b46000198460080262000794565b1980831691505092915050565b6000620007cf8383620007a1565b9150826002028217905092915050565b620007ea8262000594565b67ffffffffffffffff8111156200080657620008056200034b565b5b620008128254620005ce565b6200081f82828562000744565b600060209050601f83116001811462000857576000841562000842578287015190505b6200084e8582620007c1565b865550620008be565b601f198416620008678662000603565b60005b8281101562000891578489015182556001820191506020850194506020810190506200086a565b86831015620008b15784890151620008ad601f891682620007a1565b8355505b6001600288020188555050505b505050505050565b6147a680620008d66000396000f3fe60806040523480156200001157600080fd5b5060043610620001545760003560e01c806370019b3511620000c9578063d4dadf011162000087578063d4dadf011462000379578063e4128fb314620003af578063e60faa3114620003d1578063ebc3eee814620003f3578063f6acee231462000415578063ffd17c8914620004375762000154565b806370019b3514620002d357806397987faf14620002f5578063a0965ed21462000315578063a36b5fa21462000337578063cc371c1414620003575762000154565b80634a37787011620001175780634a37787014620002035780634bb1c3f714620002395780634d7adf09146200026f5780634ec9e9dc14620002915780636f61c74414620002b15762000154565b806312958f1c14620001595780631d90fb1f146200017b5780631fa1470e146200019d578063250a12d914620001bf5780632a5de35014620001e1575b600080fd5b620001636200046d565b604051620001729190620016b8565b60405180910390f35b6200018562000507565b60405162000194919062001767565b60405180910390f35b620001a76200052d565b604051620001b69190620016b8565b60405180910390f35b620001c9620005c7565b604051620001d891906200179f565b60405180910390f35b620001eb6200066f565b604051620001fa9190620016b8565b60405180910390f35b6200022160048036038101906200021b919062001815565b62000705565b60405162000230919062001864565b60405180910390f35b620002576004803603810190620002519190620019d2565b62000842565b60405162000266919062001ab2565b60405180910390f35b62000279620008a3565b60405162000288919062001af4565b60405180910390f35b620002af6004803603810190620002a9919062001b42565b620008c9565b005b620002bb62000ab4565b604051620002ca9190620016b8565b60405180910390f35b620002dd62000b4e565b604051620002ec9190620016b8565b60405180910390f35b6200031360048036038101906200030d919062001b89565b62000be4565b005b6200031f62000df0565b6040516200032e919062001ab2565b60405180910390f35b6200035560048036038101906200034f919062001b89565b62000df8565b005b6200036162001028565b60405162000370919062001db7565b60405180910390f35b62000397600480360381019062000391919062001815565b620010d5565b604051620003a6919062001864565b60405180910390f35b620003b962001442565b604051620003c8919062001ab2565b60405180910390f35b620003db62001468565b604051620003ea9190620016b8565b60405180910390f35b620003fd620014fe565b6040516200040c919062001ab2565b60405180910390f35b6200041f62001528565b6040516200042e919062001e00565b60405180910390f35b6200045560048036038101906200044f919062001815565b6200154e565b60405162000464919062001864565b60405180910390f35b6060600780546200047e9062001e4c565b80601f0160208091040260200160405190810160405280929190818152602001828054620004ac9062001e4c565b8015620004fd5780601f10620004d157610100808354040283529160200191620004fd565b820191906000526020600020905b815481529060010190602001808311620004df57829003601f168201915b5050505050905090565b600360009054906101000a900473ffffffffffffffffffffffffffffffffffffffff1681565b6060600980546200053e9062001e4c565b80601f01602080910402602001604051908101604052809291908181526020018280546200056c9062001e4c565b8015620005bd5780601f106200059157610100808354040283529160200191620005bd565b820191906000526020600020905b8154815290600101906020018083116200059f57829003601f168201915b5050505050905090565b6000600260009054906101000a900473ffffffffffffffffffffffffffffffffffffffff1673ffffffffffffffffffffffffffffffffffffffff166370a08231306040518263ffffffff1660e01b815260040162000626919062001ab2565b602060405180830381865afa15801562000644573d6000803e3d6000fd5b505050506040513d601f19601f820116820180604052508101906200066a919062001e98565b905090565b600880546200067e9062001e4c565b80601f0160208091040260200160405190810160405280929190818152602001828054620006ac9062001e4c565b8015620006fd5780601f10620006d157610100808354040283529160200191620006fd565b820191906000526020600020905b815481529060010190602001808311620006df57829003601f168201915b505050505081565b6000600c60008373ffffffffffffffffffffffffffffffffffffffff1673ffffffffffffffffffffffffffffffffffffffff16815260200190815260200160002060009054906101000a900460ff1662000796576040517f08c379a00000000000000000000000000000000000000000000000000000000081526004016200078d9062001f1a565b60405180910390fd5b6000600c60008473ffffffffffffffffffffffffffffffffffffffff1673ffffffffffffffffffffffffffffffffffffffff16815260200190815260200160002060006101000a81548160ff021916908315150217905550600c60008373ffffffffffffffffffffffffffffffffffffffff1673ffffffffffffffffffffffffffffffffffffffff16815260200190815260200160002060009054906101000a900460ff169050919050565b6000803086868686604051620008589062001610565b6200086895949392919062001f3c565b604051809103906000f08015801562000885573d6000803e3d6000fd5b5090506200089781878787876200156e565b80915050949350505050565b600160009054906101000a900473ffffffffffffffffffffffffffffffffffffffff1681565b3373ffffffffffffffffffffffffffffffffffffffff16600560009054906101000a900473ffffffffffffffffffffffffffffffffffffffff1673ffffffffffffffffffffffffffffffffffffffff16146200092457600080fd5b80600260009054906101000a900473ffffffffffffffffffffffffffffffffffffffff1673ffffffffffffffffffffffffffffffffffffffff166370a08231306040518263ffffffff1660e01b815260040162000982919062001ab2565b602060405180830381865afa158015620009a0573d6000803e3d6000fd5b505050506040513d601f19601f82011682018060405250810190620009c6919062001e98565b101562000a0a576040517f08c379a000000000000000000000000000000000000000000000000000000000815260040162000a019062001ffe565b60405180910390fd5b600260009054906101000a900473ffffffffffffffffffffffffffffffffffffffff1673ffffffffffffffffffffffffffffffffffffffff1663095ea7b383836040518363ffffffff1660e01b815260040162000a6992919062002020565b6020604051808303816000875af115801562000a89573d6000803e3d6000fd5b505050506040513d601f19601f8201168201806040525081019062000aaf91906200207e565b505050565b60606008805462000ac59062001e4c565b80601f016020809104026020016040519081016040528092919081815260200182805462000af39062001e4c565b801562000b445780601f1062000b185761010080835404028352916020019162000b44565b820191906000526020600020905b81548152906001019060200180831162000b2657829003601f168201915b5050505050905090565b6007805462000b5d9062001e4c565b80601f016020809104026020016040519081016040528092919081815260200182805462000b8b9062001e4c565b801562000bdc5780601f1062000bb05761010080835404028352916020019162000bdc565b820191906000526020600020905b81548152906001019060200180831162000bbe57829003601f168201915b505050505081565b3373ffffffffffffffffffffffffffffffffffffffff16600560009054906101000a900473ffffffffffffffffffffffffffffffffffffffff1673ffffffffffffffffffffffffffffffffffffffff161462000c3f57600080fd5b80600260009054906101000a900473ffffffffffffffffffffffffffffffffffffffff1673ffffffffffffffffffffffffffffffffffffffff166370a08231306040518263ffffffff1660e01b815260040162000c9d919062001ab2565b602060405180830381865afa15801562000cbb573d6000803e3d6000fd5b505050506040513d601f19601f8201168201806040525081019062000ce1919062001e98565b101562000d25576040517f08c379a000000000000000000000000000000000000000000000000000000000815260040162000d1c9062001ffe565b60405180910390fd5b600260009054906101000a900473ffffffffffffffffffffffffffffffffffffffff1673ffffffffffffffffffffffffffffffffffffffff1663a9059cbb600660009054906101000a900473ffffffffffffffffffffffffffffffffffffffff16836040518363ffffffff1660e01b815260040162000da692919062002020565b6020604051808303816000875af115801562000dc6573d6000803e3d6000fd5b505050506040513d601f19601f8201168201806040525081019062000dec91906200207e565b5050565b600030905090565b3373ffffffffffffffffffffffffffffffffffffffff16600560009054906101000a900473ffffffffffffffffffffffffffffffffffffffff1673ffffffffffffffffffffffffffffffffffffffff161462000e5357600080fd5b80600260009054906101000a900473ffffffffffffffffffffffffffffffffffffffff1673ffffffffffffffffffffffffffffffffffffffff166370a08231600660009054906101000a900473ffffffffffffffffffffffffffffffffffffffff166040518263ffffffff1660e01b815260040162000ed3919062001ab2565b602060405180830381865afa15801562000ef1573d6000803e3d6000fd5b505050506040513d601f19601f8201168201806040525081019062000f17919062001e98565b101562000f5b576040517f08c379a000000000000000000000000000000000000000000000000000000000815260040162000f529062001ffe565b60405180910390fd5b600260009054906101000a900473ffffffffffffffffffffffffffffffffffffffff1673ffffffffffffffffffffffffffffffffffffffff166323b872dd600660009054906101000a900473ffffffffffffffffffffffffffffffffffffffff1630846040518463ffffffff1660e01b815260040162000fde93929190620020b0565b6020604051808303816000875af115801562000ffe573d6000803e3d6000fd5b505050506040513d601f19601f820116820180604052508101906200102491906200207e565b5050565b6060600160009054906101000a900473ffffffffffffffffffffffffffffffffffffffff1673ffffffffffffffffffffffffffffffffffffffff166358cedf57306040518263ffffffff1660e01b815260040162001087919062001ab2565b600060405180830381865afa158015620010a5573d6000803e3d6000fd5b505050506040513d6000823e3d601f19601f82011682018060405250810190620010d09190620023ac565b905090565b6000600c60008373ffffffffffffffffffffffffffffffffffffffff1673ffffffffffffffffffffffffffffffffffffffff16815260200190815260200160002060009054906101000a900460ff161562001167576040517f08c379a00000000000000000000000000000000000000000000000000000000081526004016200115e906200244d565b60405180910390fd5b6000600b80549050036200123657600b829080600181540180825580915050600190039060005260206000200160009091909190916101000a81548173ffffffffffffffffffffffffffffffffffffffff021916908373ffffffffffffffffffffffffffffffffffffffff1602179055506001600c60008473ffffffffffffffffffffffffffffffffffffffff1673ffffffffffffffffffffffffffffffffffffffff16815260200190815260200160002060006101000a81548160ff021916908315150217905550620013ee565b60005b600b80549050811015620013ec578273ffffffffffffffffffffffffffffffffffffffff16600b82815481106200127557620012746200246f565b5b9060005260206000200160009054906101000a900473ffffffffffffffffffffffffffffffffffffffff1673ffffffffffffffffffffffffffffffffffffffff16036200131a576001600c60008573ffffffffffffffffffffffffffffffffffffffff1673ffffffffffffffffffffffffffffffffffffffff16815260200190815260200160002060006101000a81548160ff021916908315150217905550620013d6565b600b839080600181540180825580915050600190039060005260206000200160009091909190916101000a81548173ffffffffffffffffffffffffffffffffffffffff021916908373ffffffffffffffffffffffffffffffffffffffff1602179055506001600c60008573ffffffffffffffffffffffffffffffffffffffff1673ffffffffffffffffffffffffffffffffffffffff16815260200190815260200160002060006101000a81548160ff0219169083151502179055505b8080620013e390620024cd565b91505062001239565b505b600c60008373ffffffffffffffffffffffffffffffffffffffff1673ffffffffffffffffffffffffffffffffffffffff16815260200190815260200160002060009054906101000a900460ff169050919050565b600660009054906101000a900473ffffffffffffffffffffffffffffffffffffffff1681565b60098054620014779062001e4c565b80601f0160208091040260200160405190810160405280929190818152602001828054620014a59062001e4c565b8015620014f65780601f10620014ca57610100808354040283529160200191620014f6565b820191906000526020600020905b815481529060010190602001808311620014d857829003601f168201915b505050505081565b6000600660009054906101000a900473ffffffffffffffffffffffffffffffffffffffff16905090565b600260009054906101000a900473ffffffffffffffffffffffffffffffffffffffff1681565b600c6020528060005260406000206000915054906101000a900460ff1681565b600160009054906101000a900473ffffffffffffffffffffffffffffffffffffffff1673ffffffffffffffffffffffffffffffffffffffff1663c34b28f53087878787876040518763ffffffff1660e01b8152600401620015d5969594939291906200251a565b600060405180830381600087803b158015620015f057600080fd5b505af115801562001605573d6000803e3d6000fd5b505050505050505050565b6121d4806200259d83390190565b600081519050919050565b600082825260208201905092915050565b60005b838110156200165a5780820151818401526020810190506200163d565b60008484015250505050565b6000601f19601f8301169050919050565b600062001684826200161e565b62001690818562001629565b9350620016a28185602086016200163a565b620016ad8162001666565b840191505092915050565b60006020820190508181036000830152620016d4818462001677565b905092915050565b600073ffffffffffffffffffffffffffffffffffffffff82169050919050565b6000819050919050565b600062001727620017216200171b84620016dc565b620016fc565b620016dc565b9050919050565b60006200173b8262001706565b9050919050565b60006200174f826200172e565b9050919050565b620017618162001742565b82525050565b60006020820190506200177e600083018462001756565b92915050565b6000819050919050565b620017998162001784565b82525050565b6000602082019050620017b660008301846200178e565b92915050565b6000604051905090565b600080fd5b600080fd5b6000620017dd82620016dc565b9050919050565b620017ef81620017d0565b8114620017fb57600080fd5b50565b6000813590506200180f81620017e4565b92915050565b6000602082840312156200182e576200182d620017c6565b5b60006200183e84828501620017fe565b91505092915050565b60008115159050919050565b6200185e8162001847565b82525050565b60006020820190506200187b600083018462001853565b92915050565b600080fd5b600080fd5b7f4e487b7100000000000000000000000000000000000000000000000000000000600052604160045260246000fd5b620018c58262001666565b810181811067ffffffffffffffff82111715620018e757620018e66200188b565b5b80604052505050565b6000620018fc620017bc565b90506200190a8282620018ba565b919050565b600067ffffffffffffffff8211156200192d576200192c6200188b565b5b620019388262001666565b9050602081019050919050565b82818337600083830152505050565b60006200196b62001965846200190f565b620018f0565b9050828152602081018484840111156200198a576200198962001886565b5b6200199784828562001945565b509392505050565b600082601f830112620019b757620019b662001881565b5b8135620019c984826020860162001954565b91505092915050565b60008060008060808587031215620019ef57620019ee620017c6565b5b6000620019ff87828801620017fe565b945050602085013567ffffffffffffffff81111562001a235762001a22620017cb565b5b62001a31878288016200199f565b935050604085013567ffffffffffffffff81111562001a555762001a54620017cb565b5b62001a63878288016200199f565b925050606085013567ffffffffffffffff81111562001a875762001a86620017cb565b5b62001a95878288016200199f565b91505092959194509250565b62001aac81620017d0565b82525050565b600060208201905062001ac9600083018462001aa1565b92915050565b600062001adc826200172e565b9050919050565b62001aee8162001acf565b82525050565b600060208201905062001b0b600083018462001ae3565b92915050565b62001b1c8162001784565b811462001b2857600080fd5b50565b60008135905062001b3c8162001b11565b92915050565b6000806040838503121562001b5c5762001b5b620017c6565b5b600062001b6c85828601620017fe565b925050602062001b7f8582860162001b2b565b9150509250929050565b60006020828403121562001ba25762001ba1620017c6565b5b600062001bb28482850162001b2b565b91505092915050565b600081519050919050565b600082825260208201905092915050565b6000819050602082019050919050565b62001bf281620017d0565b82525050565b600082825260208201905092915050565b600062001c16826200161e565b62001c22818562001bf8565b935062001c348185602086016200163a565b62001c3f8162001666565b840191505092915050565b62001c558162001784565b82525050565b600060e08301600083015162001c75600086018262001be7565b50602083015162001c8a602086018262001be7565b50604083015162001c9f604086018262001be7565b506060830151848203606086015262001cb9828262001c09565b9150506080830151848203608086015262001cd5828262001c09565b91505060a083015184820360a086015262001cf1828262001c09565b91505060c083015162001d0860c086018262001c4a565b508091505092915050565b600062001d21838362001c5b565b905092915050565b6000602082019050919050565b600062001d438262001bbb565b62001d4f818562001bc6565b93508360208202850162001d638562001bd7565b8060005b8581101562001da5578484038952815162001d83858262001d13565b945062001d908362001d29565b925060208a0199505060018101905062001d67565b50829750879550505050505092915050565b6000602082019050818103600083015262001dd3818462001d36565b905092915050565b600062001de8826200172e565b9050919050565b62001dfa8162001ddb565b82525050565b600060208201905062001e17600083018462001def565b92915050565b7f4e487b7100000000000000000000000000000000000000000000000000000000600052602260045260246000fd5b6000600282049050600182168062001e6557607f821691505b60208210810362001e7b5762001e7a62001e1d565b5b50919050565b60008151905062001e928162001b11565b92915050565b60006020828403121562001eb15762001eb0620017c6565b5b600062001ec18482850162001e81565b91505092915050565b7f616c7265616479206e6f74206368656572000000000000000000000000000000600082015250565b600062001f0260118362001629565b915062001f0f8262001eca565b602082019050919050565b6000602082019050818103600083015262001f358162001ef3565b9050919050565b600060a08201905062001f53600083018862001aa1565b62001f62602083018762001aa1565b818103604083015262001f76818662001677565b9050818103606083015262001f8c818562001677565b9050818103608083015262001fa2818462001677565b90509695505050505050565b7f6e6f7420696e73756666696369656e7400000000000000000000000000000000600082015250565b600062001fe660108362001629565b915062001ff38262001fae565b602082019050919050565b60006020820190508181036000830152620020198162001fd7565b9050919050565b600060408201905062002037600083018562001aa1565b6200204660208301846200178e565b9392505050565b620020588162001847565b81146200206457600080fd5b50565b60008151905062002078816200204d565b92915050565b600060208284031215620020975762002096620017c6565b5b6000620020a78482850162002067565b91505092915050565b6000606082019050620020c7600083018662001aa1565b620020d6602083018562001aa1565b620020e560408301846200178e565b949350505050565b600067ffffffffffffffff8211156200210b576200210a6200188b565b5b602082029050602081019050919050565b600080fd5b600080fd5b600080fd5b6000815190506200213c81620017e4565b92915050565b60006200215962002153846200190f565b620018f0565b90508281526020810184848401111562002178576200217762001886565b5b620021858482856200163a565b509392505050565b600082601f830112620021a557620021a462001881565b5b8151620021b784826020860162002142565b91505092915050565b600060e08284031215620021d957620021d862002121565b5b620021e560e0620018f0565b90506000620021f7848285016200212b565b60008301525060206200220d848285016200212b565b602083015250604062002223848285016200212b565b604083015250606082015167ffffffffffffffff8111156200224a576200224962002126565b5b62002258848285016200218d565b606083015250608082015167ffffffffffffffff8111156200227f576200227e62002126565b5b6200228d848285016200218d565b60808301525060a082015167ffffffffffffffff811115620022b457620022b362002126565b5b620022c2848285016200218d565b60a08301525060c0620022d88482850162001e81565b60c08301525092915050565b6000620022fb620022f584620020ed565b620018f0565b905080838252602082019050602084028301858111156200232157620023206200211c565b5b835b818110156200236f57805167ffffffffffffffff8111156200234a576200234962001881565b5b808601620023598982620021c0565b8552602085019450505060208101905062002323565b5050509392505050565b600082601f83011262002391576200239062001881565b5b8151620023a3848260208601620022e4565b91505092915050565b600060208284031215620023c557620023c4620017c6565b5b600082015167ffffffffffffffff811115620023e657620023e5620017cb565b5b620023f48482850162002379565b91505092915050565b7f616c726561647920636865657200000000000000000000000000000000000000600082015250565b600062002435600d8362001629565b91506200244282620023fd565b602082019050919050565b60006020820190508181036000830152620024688162002426565b9050919050565b7f4e487b7100000000000000000000000000000000000000000000000000000000600052603260045260246000fd5b7f4e487b7100000000000000000000000000000000000000000000000000000000600052601160045260246000fd5b6000620024da8262001784565b91507fffffffffffffffffffffffffffffffffffffffffffffffffffffffffffffffff82036200250f576200250e6200249e565b5b600182019050919050565b600060c08201905062002531600083018962001aa1565b62002540602083018862001aa1565b6200254f604083018762001aa1565b818103606083015262002563818662001677565b9050818103608083015262002579818562001677565b905081810360a08301526200258f818462001677565b905097965050505050505056fe60806040527338d4172dde4e50a8cdd8b39abc572443d18ad72d600960006101000a81548173ffffffffffffffffffffffffffffffffffffffff021916908373ffffffffffffffffffffffffffffffffffffffff1602179055503480156200006657600080fd5b50604051620021d4380380620021d483398181016040528101906200008c919062000513565b600b60009054906101000a900473ffffffffffffffffffffffffffffffffffffffff16600c60006101000a81548173ffffffffffffffffffffffffffffffffffffffff021916908373ffffffffffffffffffffffffffffffffffffffff160217905550600d60009054906101000a900473ffffffffffffffffffffffffffffffffffffffff16600e60006101000a81548173ffffffffffffffffffffffffffffffffffffffff021916908373ffffffffffffffffffffffffffffffffffffffff160217905550600960009054906101000a900473ffffffffffffffffffffffffffffffffffffffff166000806101000a81548173ffffffffffffffffffffffffffffffffffffffff021916908373ffffffffffffffffffffffffffffffffffffffff160217905550600260009054906101000a900473ffffffffffffffffffffffffffffffffffffffff16600160006101000a81548173ffffffffffffffffffffffffffffffffffffffff021916908373ffffffffffffffffffffffffffffffffffffffff16021790555033600360006101000a81548173ffffffffffffffffffffffffffffffffffffffff021916908373ffffffffffffffffffffffffffffffffffffffff16021790555084600460006101000a81548173ffffffffffffffffffffffffffffffffffffffff021916908373ffffffffffffffffffffffffffffffffffffffff16021790555083600560006101000a81548173ffffffffffffffffffffffffffffffffffffffff021916908373ffffffffffffffffffffffffffffffffffffffff1602179055508260069081620002eb919062000843565b508160079081620002fd919062000843565b5080600890816200030f919062000843565b5050505050506200092a565b6000604051905090565b600080fd5b600080fd5b600073ffffffffffffffffffffffffffffffffffffffff82169050919050565b60006200035c826200032f565b9050919050565b6200036e816200034f565b81146200037a57600080fd5b50565b6000815190506200038e8162000363565b92915050565b600080fd5b600080fd5b6000601f19601f8301169050919050565b7f4e487b7100000000000000000000000000000000000000000000000000000000600052604160045260246000fd5b620003e9826200039e565b810181811067ffffffffffffffff821117156200040b576200040a620003af565b5b80604052505050565b6000620004206200031b565b90506200042e8282620003de565b919050565b600067ffffffffffffffff821115620004515762000450620003af565b5b6200045c826200039e565b9050602081019050919050565b60005b83811015620004895780820151818401526020810190506200046c565b60008484015250505050565b6000620004ac620004a68462000433565b62000414565b905082815260208101848484011115620004cb57620004ca62000399565b5b620004d884828562000469565b509392505050565b600082601f830112620004f857620004f762000394565b5b81516200050a84826020860162000495565b91505092915050565b600080600080600060a0868803121562000532576200053162000325565b5b600062000542888289016200037d565b955050602062000555888289016200037d565b945050604086015167ffffffffffffffff8111156200057957620005786200032a565b5b6200058788828901620004e0565b935050606086015167ffffffffffffffff811115620005ab57620005aa6200032a565b5b620005b988828901620004e0565b925050608086015167ffffffffffffffff811115620005dd57620005dc6200032a565b5b620005eb88828901620004e0565b9150509295509295909350565b600081519050919050565b7f4e487b7100000000000000000000000000000000000000000000000000000000600052602260045260246000fd5b600060028204905060018216806200064b57607f821691505b60208210810362000661576200066062000603565b5b50919050565b60008190508160005260206000209050919050565b60006020601f8301049050919050565b600082821b905092915050565b600060088302620006cb7fffffffffffffffffffffffffffffffffffffffffffffffffffffffffffffffff826200068c565b620006d786836200068c565b95508019841693508086168417925050509392505050565b6000819050919050565b6000819050919050565b6000620007246200071e6200071884620006ef565b620006f9565b620006ef565b9050919050565b6000819050919050565b620007408362000703565b620007586200074f826200072b565b84845462000699565b825550505050565b600090565b6200076f62000760565b6200077c81848462000735565b505050565b5b81811015620007a4576200079860008262000765565b60018101905062000782565b5050565b601f821115620007f357620007bd8162000667565b620007c8846200067c565b81016020851015620007d8578190505b620007f0620007e7856200067c565b83018262000781565b50505b505050565b600082821c905092915050565b60006200081860001984600802620007f8565b1980831691505092915050565b600062000833838362000805565b9150826002028217905092915050565b6200084e82620005f8565b67ffffffffffffffff8111156200086a5762000869620003af565b5b62000876825462000632565b62000883828285620007a8565b600060209050601f831160018114620008bb5760008415620008a6578287015190505b620008b2858262000825565b86555062000922565b601f198416620008cb8662000667565b60005b82811015620008f557848901518255600182019150602085019450602081019050620008ce565b8683101562000915578489015162000911601f89168262000805565b8355505b6001600288020188555050505b505050505050565b61189a806200093a6000396000f3fe608060405234801561001057600080fd5b506004361061009e5760003560e01c806371b3423d1161006657806371b3423d1461013757806373531cfe146101555780639a33e30014610173578063f48ca5c114610191578063f6acee23146101af5761009e565b80631a314956146100a35780631d90fb1f146100c1578063250a12d9146100df57806332b04e2b146100fd57806365550ba41461011b575b600080fd5b6100ab6101cd565b6040516100b89190610e2c565b60405180910390f35b6100c961025b565b6040516100d69190610ecd565b60405180910390f35b6100e7610281565b6040516100f49190610f01565b60405180910390f35b610105610323565b6040516101129190610e2c565b60405180910390f35b61013560048036038101906101309190611091565b6103b1565b005b61013f610536565b60405161014c919061110e565b60405180910390f35b61015d61055c565b60405161016a9190610f01565b60405180910390f35b61017b610562565b6040516101889190610e2c565b60405180910390f35b6101996105f0565b6040516101a6919061114a565b60405180910390f35b6101b7610616565b6040516101c49190611186565b60405180910390f35b600780546101da906111d0565b80601f0160208091040260200160405190810160405280929190818152602001828054610206906111d0565b80156102535780601f1061022857610100808354040283529160200191610253565b820191906000526020600020905b81548152906001019060200180831161023657829003601f168201915b505050505081565b600160009054906101000a900473ffffffffffffffffffffffffffffffffffffffff1681565b60008060009054906101000a900473ffffffffffffffffffffffffffffffffffffffff1673ffffffffffffffffffffffffffffffffffffffff166370a08231306040518263ffffffff1660e01b81526004016102dd9190611222565b602060405180830381865afa1580156102fa573d6000803e3d6000fd5b505050506040513d601f19601f8201168201806040525081019061031e9190611252565b905090565b60088054610330906111d0565b80601f016020809104026020016040519081016040528092919081815260200182805461035c906111d0565b80156103a95780601f1061037e576101008083540402835291602001916103a9565b820191906000526020600020905b81548152906001019060200180831161038c57829003601f168201915b505050505081565b8160008054906101000a900473ffffffffffffffffffffffffffffffffffffffff1673ffffffffffffffffffffffffffffffffffffffff166370a08231600c60009054906101000a900473ffffffffffffffffffffffffffffffffffffffff1673ffffffffffffffffffffffffffffffffffffffff16631599a352336040518263ffffffff1660e01b81526004016104499190611222565b602060405180830381865afa158015610466573d6000803e3d6000fd5b505050506040513d601f19601f8201168201806040525081019061048a91906112ab565b6040518263ffffffff1660e01b81526004016104a69190611222565b602060405180830381865afa1580156104c3573d6000803e3d6000fd5b505050506040513d601f19601f820116820180604052508101906104e79190611252565b1015610528576040517f08c379a000000000000000000000000000000000000000000000000000000000815260040161051f90611324565b60405180910390fd5b610532828261063a565b5050565b600c60009054906101000a900473ffffffffffffffffffffffffffffffffffffffff1681565b600a5481565b6006805461056f906111d0565b80601f016020809104026020016040519081016040528092919081815260200182805461059b906111d0565b80156105e85780601f106105bd576101008083540402835291602001916105e8565b820191906000526020600020905b8154815290600101906020018083116105cb57829003601f168201915b505050505081565b600e60009054906101000a900473ffffffffffffffffffffffffffffffffffffffff1681565b60008054906101000a900473ffffffffffffffffffffffffffffffffffffffff1681565b60008054906101000a900473ffffffffffffffffffffffffffffffffffffffff1673ffffffffffffffffffffffffffffffffffffffff166323b872dd600c60009054906101000a900473ffffffffffffffffffffffffffffffffffffffff1673ffffffffffffffffffffffffffffffffffffffff16631599a352336040518263ffffffff1660e01b81526004016106d19190611222565b602060405180830381865afa1580156106ee573d6000803e3d6000fd5b505050506040513d601f19601f8201168201806040525081019061071291906112ab565b30856040518463ffffffff1660e01b815260040161073293929190611344565b6020604051808303816000875af1158015610751573d6000803e3d6000fd5b505050506040513d601f19601f8201168201806040525081019061077591906113b3565b50600e60009054906101000a900473ffffffffffffffffffffffffffffffffffffffff1673ffffffffffffffffffffffffffffffffffffffff166308df15a330600c60009054906101000a900473ffffffffffffffffffffffffffffffffffffffff1673ffffffffffffffffffffffffffffffffffffffff16631599a352336040518263ffffffff1660e01b81526004016108109190611222565b602060405180830381865afa15801561082d573d6000803e3d6000fd5b505050506040513d601f19601f8201168201806040525081019061085191906112ab565b4285876040518663ffffffff1660e01b81526004016108749594939291906113e0565b600060405180830381600087803b15801561088e57600080fd5b505af11580156108a2573d6000803e3d6000fd5b505050506108af826108b3565b5050565b80600a60008282546108c59190611469565b92505081905550600060646046836108dd919061149d565b6108e7919061150e565b9050600060646019846108fa919061149d565b610904919061150e565b90506000818385610915919061153f565b61091f919061153f565b905060005b600e60009054906101000a900473ffffffffffffffffffffffffffffffffffffffff1673ffffffffffffffffffffffffffffffffffffffff166312d9ac69306040518263ffffffff1660e01b815260040161097f9190611222565b600060405180830381865afa15801561099c573d6000803e3d6000fd5b505050506040513d6000823e3d601f19601f820116820180604052508101906109c5919061177b565b51811015610c135760008054906101000a900473ffffffffffffffffffffffffffffffffffffffff1673ffffffffffffffffffffffffffffffffffffffff1663a9059cbb600e60009054906101000a900473ffffffffffffffffffffffffffffffffffffffff1673ffffffffffffffffffffffffffffffffffffffff166312d9ac69306040518263ffffffff1660e01b8152600401610a649190611222565b600060405180830381865afa158015610a81573d6000803e3d6000fd5b505050506040513d6000823e3d601f19601f82011682018060405250810190610aaa919061177b565b8381518110610abc57610abb6117c4565b5b602002602001015160200151600a54600e60009054906101000a900473ffffffffffffffffffffffffffffffffffffffff1673ffffffffffffffffffffffffffffffffffffffff166312d9ac69306040518263ffffffff1660e01b8152600401610b269190611222565b600060405180830381865afa158015610b43573d6000803e3d6000fd5b505050506040513d6000823e3d601f19601f82011682018060405250810190610b6c919061177b565b8581518110610b7e57610b7d6117c4565b5b60200260200101516080015188610b95919061149d565b610b9f919061150e565b6040518363ffffffff1660e01b8152600401610bbc9291906117f3565b6020604051808303816000875af1158015610bdb573d6000803e3d6000fd5b505050506040513d601f19601f82011682018060405250810190610bff91906113b3565b508080610c0b9061181c565b915050610924565b5060008054906101000a900473ffffffffffffffffffffffffffffffffffffffff1673ffffffffffffffffffffffffffffffffffffffff1663a9059cbb600460009054906101000a900473ffffffffffffffffffffffffffffffffffffffff16846040518363ffffffff1660e01b8152600401610c919291906117f3565b6020604051808303816000875af1158015610cb0573d6000803e3d6000fd5b505050506040513d601f19601f82011682018060405250810190610cd491906113b3565b5060008054906101000a900473ffffffffffffffffffffffffffffffffffffffff1673ffffffffffffffffffffffffffffffffffffffff1663a9059cbb600560009054906101000a900473ffffffffffffffffffffffffffffffffffffffff16836040518363ffffffff1660e01b8152600401610d529291906117f3565b6020604051808303816000875af1158015610d71573d6000803e3d6000fd5b505050506040513d601f19601f82011682018060405250810190610d9591906113b3565b5050505050565b600081519050919050565b600082825260208201905092915050565b60005b83811015610dd6578082015181840152602081019050610dbb565b60008484015250505050565b6000601f19601f8301169050919050565b6000610dfe82610d9c565b610e088185610da7565b9350610e18818560208601610db8565b610e2181610de2565b840191505092915050565b60006020820190508181036000830152610e468184610df3565b905092915050565b600073ffffffffffffffffffffffffffffffffffffffff82169050919050565b6000819050919050565b6000610e93610e8e610e8984610e4e565b610e6e565b610e4e565b9050919050565b6000610ea582610e78565b9050919050565b6000610eb782610e9a565b9050919050565b610ec781610eac565b82525050565b6000602082019050610ee26000830184610ebe565b92915050565b6000819050919050565b610efb81610ee8565b82525050565b6000602082019050610f166000830184610ef2565b92915050565b6000604051905090565b600080fd5b600080fd5b610f3981610ee8565b8114610f4457600080fd5b50565b600081359050610f5681610f30565b92915050565b600080fd5b600080fd5b7f4e487b7100000000000000000000000000000000000000000000000000000000600052604160045260246000fd5b610f9e82610de2565b810181811067ffffffffffffffff82111715610fbd57610fbc610f66565b5b80604052505050565b6000610fd0610f1c565b9050610fdc8282610f95565b919050565b600067ffffffffffffffff821115610ffc57610ffb610f66565b5b61100582610de2565b9050602081019050919050565b82818337600083830152505050565b600061103461102f84610fe1565b610fc6565b9050828152602081018484840111156110505761104f610f61565b5b61105b848285611012565b509392505050565b600082601f83011261107857611077610f5c565b5b8135611088848260208601611021565b91505092915050565b600080604083850312156110a8576110a7610f26565b5b60006110b685828601610f47565b925050602083013567ffffffffffffffff8111156110d7576110d6610f2b565b5b6110e385828601611063565b9150509250929050565b60006110f882610e9a565b9050919050565b611108816110ed565b82525050565b600060208201905061112360008301846110ff565b92915050565b600061113482610e9a565b9050919050565b61114481611129565b82525050565b600060208201905061115f600083018461113b565b92915050565b600061117082610e9a565b9050919050565b61118081611165565b82525050565b600060208201905061119b6000830184611177565b92915050565b7f4e487b7100000000000000000000000000000000000000000000000000000000600052602260045260246000fd5b600060028204905060018216806111e857607f821691505b6020821081036111fb576111fa6111a1565b5b50919050565b600061120c82610e4e565b9050919050565b61121c81611201565b82525050565b60006020820190506112376000830184611213565b92915050565b60008151905061124c81610f30565b92915050565b60006020828403121561126857611267610f26565b5b60006112768482850161123d565b91505092915050565b61128881611201565b811461129357600080fd5b50565b6000815190506112a58161127f565b92915050565b6000602082840312156112c1576112c0610f26565b5b60006112cf84828501611296565b91505092915050565b7f4e6f7420656e6f75676800000000000000000000000000000000000000000000600082015250565b600061130e600a83610da7565b9150611319826112d8565b602082019050919050565b6000602082019050818103600083015261133d81611301565b9050919050565b60006060820190506113596000830186611213565b6113666020830185611213565b6113736040830184610ef2565b949350505050565b60008115159050919050565b6113908161137b565b811461139b57600080fd5b50565b6000815190506113ad81611387565b92915050565b6000602082840312156113c9576113c8610f26565b5b60006113d78482850161139e565b91505092915050565b600060a0820190506113f56000830188611213565b6114026020830187611213565b61140f6040830186610ef2565b81810360608301526114218185610df3565b90506114306080830184610ef2565b9695505050505050565b7f4e487b7100000000000000000000000000000000000000000000000000000000600052601160045260246000fd5b600061147482610ee8565b915061147f83610ee8565b92508282019050808211156114975761149661143a565b5b92915050565b60006114a882610ee8565b91506114b383610ee8565b92508282026114c181610ee8565b915082820484148315176114d8576114d761143a565b5b5092915050565b7f4e487b7100000000000000000000000000000000000000000000000000000000600052601260045260246000fd5b600061151982610ee8565b915061152483610ee8565b925082611534576115336114df565b5b828204905092915050565b600061154a82610ee8565b915061155583610ee8565b925082820390508181111561156d5761156c61143a565b5b92915050565b600067ffffffffffffffff82111561158e5761158d610f66565b5b602082029050602081019050919050565b600080fd5b600080fd5b600080fd5b60006115c16115bc84610fe1565b610fc6565b9050828152602081018484840111156115dd576115dc610f61565b5b6115e8848285610db8565b509392505050565b600082601f83011261160557611604610f5c565b5b81516116158482602086016115ae565b91505092915050565b600060a08284031215611634576116336115a4565b5b61163e60a0610fc6565b9050600061164e84828501611296565b600083015250602061166284828501611296565b60208301525060406116768482850161123d565b604083015250606082015167ffffffffffffffff81111561169a576116996115a9565b5b6116a6848285016115f0565b60608301525060806116ba8482850161123d565b60808301525092915050565b60006116d96116d484611573565b610fc6565b905080838252602082019050602084028301858111156116fc576116fb61159f565b5b835b8181101561174357805167ffffffffffffffff81111561172157611720610f5c565b5b80860161172e898261161e565b855260208501945050506020810190506116fe565b5050509392505050565b600082601f83011261176257611761610f5c565b5b81516117728482602086016116c6565b91505092915050565b60006020828403121561179157611790610f26565b5b600082015167ffffffffffffffff8111156117af576117ae610f2b565b5b6117bb8482850161174d565b91505092915050565b7f4e487b7100000000000000000000000000000000000000000000000000000000600052603260045260246000fd5b60006040820190506118086000830185611213565b6118156020830184610ef2565b9392505050565b600061182782610ee8565b91507fffffffffffffffffffffffffffffffffffffffffffffffffffffffffffffffff82036118595761185861143a565b5b60018201905091905056fea26469706673582212204b7b69d19af8c2100f9fb99f192e62cb03474b3388cbef04d826cc1858e5692e64736f6c63430008110033a2646970667358221220b9efa5fbaa054de1bb7d1129b9886fd6878c68bb1c26fefcc26a06ce2d36223f64736f6c63430008110033a2646970667358221220cb8febe539dfb80e86cb2eef9b79afbd750b85dc533af5c91f047d8ecd442f1e64736f6c63430008110033",
  "linkReferences": {},
  "deployedLinkReferences": {}
}