{
  "_format": "hh-sol-artifact-1",
  "contractName": "UserPool",
  "sourceName": "contracts/UserPool.sol",
  "abi": [
    {
      "inputs": [
        {
          "internalType": "address",
          "name": "_poolOwnerAddress",
          "type": "address"
        },
        {
          "internalType": "string",
          "name": "_userName",
          "type": "string"
        },
        {
          "internalType": "string",
          "name": "_userProfile",
          "type": "string"
        },
        {
          "internalType": "string",
          "name": "_userIcon",
          "type": "string"
        },
        {
          "internalType": "address",
          "name": "_cheersDappAddress",
          "type": "address"
        }
      ],
      "stateMutability": "nonpayable",
      "type": "constructor"
    },
    {
      "inputs": [
        {
          "internalType": "address",
          "name": "_cheerProjectPoolAddress",
          "type": "address"
        }
      ],
      "name": "addCheerProject",
      "outputs": [
        {
          "internalType": "bool",
          "name": "",
          "type": "bool"
        }
      ],
      "stateMutability": "nonpayable",
      "type": "function"
    },
    {
      "inputs": [
        {
          "internalType": "uint256",
          "name": "_cherAmount",
          "type": "uint256"
        }
      ],
      "name": "chargeCher",
      "outputs": [],
      "stateMutability": "nonpayable",
      "type": "function"
    },
    {
      "inputs": [],
      "name": "cheersDapp",
      "outputs": [
        {
          "internalType": "contract ICheers",
          "name": "",
          "type": "address"
        }
      ],
      "stateMutability": "view",
      "type": "function"
    },
    {
      "inputs": [],
      "name": "cher",
      "outputs": [
        {
          "internalType": "contract IERC20",
          "name": "",
          "type": "address"
        }
      ],
      "stateMutability": "view",
      "type": "function"
    },
    {
      "inputs": [],
      "name": "getAllChallengeProjects",
      "outputs": [
        {
          "components": [
            {
              "internalType": "address",
              "name": "belongDaoAddress",
              "type": "address"
            },
            {
              "internalType": "string",
              "name": "projectName",
              "type": "string"
            },
            {
              "internalType": "string",
              "name": "projectContents",
              "type": "string"
            },
            {
              "internalType": "string",
              "name": "projectReword",
              "type": "string"
            }
          ],
          "internalType": "struct SharedStruct.Project[]",
          "name": "",
          "type": "tuple[]"
        }
      ],
      "stateMutability": "view",
      "type": "function"
    },
    {
      "inputs": [],
      "name": "getUserAddress",
      "outputs": [
        {
          "internalType": "address",
          "name": "",
          "type": "address"
        }
      ],
      "stateMutability": "view",
      "type": "function"
    },
    {
      "inputs": [],
      "name": "getUserIcon",
      "outputs": [
        {
          "internalType": "string",
          "name": "",
          "type": "string"
        }
      ],
      "stateMutability": "view",
      "type": "function"
    },
    {
      "inputs": [],
      "name": "getUserName",
      "outputs": [
        {
          "internalType": "string",
          "name": "",
          "type": "string"
        }
      ],
      "stateMutability": "view",
      "type": "function"
    },
    {
      "inputs": [],
      "name": "getUserPoolAddress",
      "outputs": [
        {
          "internalType": "address",
          "name": "",
          "type": "address"
        }
      ],
      "stateMutability": "view",
      "type": "function"
    },
    {
      "inputs": [],
      "name": "getUserProfile",
      "outputs": [
        {
          "internalType": "string",
          "name": "",
          "type": "string"
        }
      ],
      "stateMutability": "view",
      "type": "function"
    },
    {
      "inputs": [
        {
          "internalType": "address",
          "name": "_belongDaoAddress",
          "type": "address"
        },
        {
          "internalType": "string",
          "name": "_projectName",
          "type": "string"
        },
        {
          "internalType": "string",
          "name": "_projectContents",
          "type": "string"
        },
        {
          "internalType": "string",
          "name": "_projectReword",
          "type": "string"
        }
      ],
      "name": "newProjectFactory",
      "outputs": [
        {
          "internalType": "address",
          "name": "",
          "type": "address"
        }
      ],
      "stateMutability": "nonpayable",
      "type": "function"
    },
    {
      "inputs": [
        {
          "internalType": "address",
          "name": "_cheerProjectPoolAddress",
          "type": "address"
        }
      ],
      "name": "removeCheerProject",
      "outputs": [
        {
          "internalType": "bool",
          "name": "",
          "type": "bool"
        }
      ],
      "stateMutability": "nonpayable",
      "type": "function"
    },
    {
      "inputs": [],
      "name": "userAddress",
      "outputs": [
        {
          "internalType": "address",
          "name": "",
          "type": "address"
        }
      ],
      "stateMutability": "view",
      "type": "function"
    },
    {
      "inputs": [],
      "name": "userIcon",
      "outputs": [
        {
          "internalType": "string",
          "name": "",
          "type": "string"
        }
      ],
      "stateMutability": "view",
      "type": "function"
    },
    {
      "inputs": [],
      "name": "userName",
      "outputs": [
        {
          "internalType": "string",
          "name": "",
          "type": "string"
        }
      ],
      "stateMutability": "view",
      "type": "function"
    },
    {
      "inputs": [],
      "name": "userProfile",
      "outputs": [
        {
          "internalType": "string",
          "name": "",
          "type": "string"
        }
      ],
      "stateMutability": "view",
      "type": "function"
    },
    {
      "inputs": [
        {
          "internalType": "uint256",
          "name": "_cherAmount",
          "type": "uint256"
        }
      ],
      "name": "withdrowCher",
      "outputs": [],
      "stateMutability": "nonpayable",
      "type": "function"
    }
  ],
  "bytecode": "0x60806040527338d4172dde4e50a8cdd8b39abc572443d18ad72d600860006101000a81548173ffffffffffffffffffffffffffffffffffffffff021916908373ffffffffffffffffffffffffffffffffffffffff1602179055503480156200006657600080fd5b5060405162004b8638038062004b8683398181016040528101906200008c91906200040c565b600860009054906101000a900473ffffffffffffffffffffffffffffffffffffffff166000806101000a81548173ffffffffffffffffffffffffffffffffffffffff021916908373ffffffffffffffffffffffffffffffffffffffff16021790555084600360006101000a81548173ffffffffffffffffffffffffffffffffffffffff021916908373ffffffffffffffffffffffffffffffffffffffff16021790555083600590816200014091906200073c565b5082600690816200015291906200073c565b5081600790816200016491906200073c565b5080600260006101000a81548173ffffffffffffffffffffffffffffffffffffffff021916908373ffffffffffffffffffffffffffffffffffffffff160217905550600260009054906101000a900473ffffffffffffffffffffffffffffffffffffffff16600160006101000a81548173ffffffffffffffffffffffffffffffffffffffff021916908373ffffffffffffffffffffffffffffffffffffffff160217905550505050505062000823565b6000604051905090565b600080fd5b600080fd5b600073ffffffffffffffffffffffffffffffffffffffff82169050919050565b6000620002558262000228565b9050919050565b620002678162000248565b81146200027357600080fd5b50565b60008151905062000287816200025c565b92915050565b600080fd5b600080fd5b6000601f19601f8301169050919050565b7f4e487b7100000000000000000000000000000000000000000000000000000000600052604160045260246000fd5b620002e28262000297565b810181811067ffffffffffffffff82111715620003045762000303620002a8565b5b80604052505050565b60006200031962000214565b9050620003278282620002d7565b919050565b600067ffffffffffffffff8211156200034a5762000349620002a8565b5b620003558262000297565b9050602081019050919050565b60005b838110156200038257808201518184015260208101905062000365565b60008484015250505050565b6000620003a56200039f846200032c565b6200030d565b905082815260208101848484011115620003c457620003c362000292565b5b620003d184828562000362565b509392505050565b600082601f830112620003f157620003f06200028d565b5b8151620004038482602086016200038e565b91505092915050565b600080600080600060a086880312156200042b576200042a6200021e565b5b60006200043b8882890162000276565b955050602086015167ffffffffffffffff8111156200045f576200045e62000223565b5b6200046d88828901620003d9565b945050604086015167ffffffffffffffff81111562000491576200049062000223565b5b6200049f88828901620003d9565b935050606086015167ffffffffffffffff811115620004c357620004c262000223565b5b620004d188828901620003d9565b9250506080620004e48882890162000276565b9150509295509295909350565b600081519050919050565b7f4e487b7100000000000000000000000000000000000000000000000000000000600052602260045260246000fd5b600060028204905060018216806200054457607f821691505b6020821081036200055a5762000559620004fc565b5b50919050565b60008190508160005260206000209050919050565b60006020601f8301049050919050565b600082821b905092915050565b600060088302620005c47fffffffffffffffffffffffffffffffffffffffffffffffffffffffffffffffff8262000585565b620005d0868362000585565b95508019841693508086168417925050509392505050565b6000819050919050565b6000819050919050565b60006200061d620006176200061184620005e8565b620005f2565b620005e8565b9050919050565b6000819050919050565b6200063983620005fc565b62000651620006488262000624565b84845462000592565b825550505050565b600090565b6200066862000659565b620006758184846200062e565b505050565b5b818110156200069d57620006916000826200065e565b6001810190506200067b565b5050565b601f821115620006ec57620006b68162000560565b620006c18462000575565b81016020851015620006d1578190505b620006e9620006e08562000575565b8301826200067a565b50505b505050565b600082821c905092915050565b60006200071160001984600802620006f1565b1980831691505092915050565b60006200072c8383620006fe565b9150826002028217905092915050565b6200074782620004f1565b67ffffffffffffffff811115620007635762000762620002a8565b5b6200076f82546200052b565b6200077c828285620006a1565b600060209050601f831160018114620007b457600084156200079f578287015190505b620007ab85826200071e565b8655506200081b565b601f198416620007c48662000560565b60005b82811015620007ee57848901518255600182019150602085019450602081019050620007c7565b868310156200080e57848901516200080a601f891682620006fe565b8355505b6001600288020188555050505b505050505050565b61435380620008336000396000f3fe60806040523480156200001157600080fd5b5060043610620001245760003560e01c8063a0965ed211620000b1578063dfaca4a2116200007b578063dfaca4a214620002fb578063e4128fb3146200031b578063e60faa31146200033d578063ebc3eee8146200035f578063f6acee2314620003815762000124565b8063a0965ed21462000261578063a36b5fa21462000283578063cc371c1414620002a3578063d4dadf0114620002c55762000124565b80634a37787011620000f35780634a37787014620001b15780634bb1c3f714620001e75780636f61c744146200021d57806370019b35146200023f5762000124565b806312958f1c14620001295780631d90fb1f146200014b5780631fa1470e146200016d5780632a5de350146200018f575b600080fd5b62000133620003a3565b604051620001429190620013c5565b60405180910390f35b620001556200043d565b60405162000164919062001474565b60405180910390f35b6200017762000463565b604051620001869190620013c5565b60405180910390f35b62000199620004fd565b604051620001a89190620013c5565b60405180910390f35b620001cf6004803603810190620001c99190620014ea565b62000593565b604051620001de919062001539565b60405180910390f35b620002056004803603810190620001ff9190620016a7565b620006d0565b60405162000214919062001787565b60405180910390f35b6200022762000754565b604051620002369190620013c5565b60405180910390f35b62000249620007ee565b604051620002589190620013c5565b60405180910390f35b6200026b62000884565b6040516200027a919062001787565b60405180910390f35b620002a160048036038101906200029b9190620017df565b6200088c565b005b620002ad62000b7e565b604051620002bc9190620019bd565b60405180910390f35b620002e36004803603810190620002dd9190620014ea565b62000c2b565b604051620002f2919062001539565b60405180910390f35b620003196004803603810190620003139190620017df565b62000ec8565b005b6200032562001174565b60405162000334919062001787565b60405180910390f35b620003476200119a565b604051620003569190620013c5565b60405180910390f35b6200036962001230565b60405162000378919062001787565b60405180910390f35b6200038b6200125a565b6040516200039a919062001a06565b60405180910390f35b606060058054620003b49062001a52565b80601f0160208091040260200160405190810160405280929190818152602001828054620003e29062001a52565b8015620004335780601f10620004075761010080835404028352916020019162000433565b820191906000526020600020905b8154815290600101906020018083116200041557829003601f168201915b5050505050905090565b600160009054906101000a900473ffffffffffffffffffffffffffffffffffffffff1681565b606060078054620004749062001a52565b80601f0160208091040260200160405190810160405280929190818152602001828054620004a29062001a52565b8015620004f35780601f10620004c757610100808354040283529160200191620004f3565b820191906000526020600020905b815481529060010190602001808311620004d557829003601f168201915b5050505050905090565b600680546200050c9062001a52565b80601f01602080910402602001604051908101604052809291908181526020018280546200053a9062001a52565b80156200058b5780601f106200055f576101008083540402835291602001916200058b565b820191906000526020600020905b8154815290600101906020018083116200056d57829003601f168201915b505050505081565b6000600a60008373ffffffffffffffffffffffffffffffffffffffff1673ffffffffffffffffffffffffffffffffffffffff16815260200190815260200160002060009054906101000a900460ff1662000624576040517f08c379a00000000000000000000000000000000000000000000000000000000081526004016200061b9062001ad7565b60405180910390fd5b6000600a60008473ffffffffffffffffffffffffffffffffffffffff1673ffffffffffffffffffffffffffffffffffffffff16815260200190815260200160002060006101000a81548160ff021916908315150217905550600a60008373ffffffffffffffffffffffffffffffffffffffff1673ffffffffffffffffffffffffffffffffffffffff16815260200190815260200160002060009054906101000a900460ff169050919050565b6000803086868686600260009054906101000a900473ffffffffffffffffffffffffffffffffffffffff1660405162000709906200131d565b6200071a9695949392919062001af9565b604051809103906000f08015801562000737573d6000803e3d6000fd5b50905062000748308686866200127e565b80915050949350505050565b606060068054620007659062001a52565b80601f0160208091040260200160405190810160405280929190818152602001828054620007939062001a52565b8015620007e45780601f10620007b857610100808354040283529160200191620007e4565b820191906000526020600020905b815481529060010190602001808311620007c657829003601f168201915b5050505050905090565b60058054620007fd9062001a52565b80601f01602080910402602001604051908101604052809291908181526020018280546200082b9062001a52565b80156200087c5780601f1062000850576101008083540402835291602001916200087c565b820191906000526020600020905b8154815290600101906020018083116200085e57829003601f168201915b505050505081565b600030905090565b3373ffffffffffffffffffffffffffffffffffffffff16600360009054906101000a900473ffffffffffffffffffffffffffffffffffffffff1673ffffffffffffffffffffffffffffffffffffffff1614620008e757600080fd5b8060008054906101000a900473ffffffffffffffffffffffffffffffffffffffff1673ffffffffffffffffffffffffffffffffffffffff166370a08231600460009054906101000a900473ffffffffffffffffffffffffffffffffffffffff166040518263ffffffff1660e01b815260040162000965919062001787565b602060405180830381865afa15801562000983573d6000803e3d6000fd5b505050506040513d601f19601f82011682018060405250810190620009a9919062001b92565b1015620009ed576040517f08c379a0000000000000000000000000000000000000000000000000000000008152600401620009e49062001c14565b60405180910390fd5b60008054906101000a900473ffffffffffffffffffffffffffffffffffffffff1673ffffffffffffffffffffffffffffffffffffffff1663095ea7b3600460009054906101000a900473ffffffffffffffffffffffffffffffffffffffff16836040518363ffffffff1660e01b815260040162000a6c92919062001c47565b6020604051808303816000875af115801562000a8c573d6000803e3d6000fd5b505050506040513d601f19601f8201168201806040525081019062000ab2919062001ca5565b5060008054906101000a900473ffffffffffffffffffffffffffffffffffffffff1673ffffffffffffffffffffffffffffffffffffffff166323b872dd600460009054906101000a900473ffffffffffffffffffffffffffffffffffffffff1630846040518463ffffffff1660e01b815260040162000b349392919062001cd7565b6020604051808303816000875af115801562000b54573d6000803e3d6000fd5b505050506040513d601f19601f8201168201806040525081019062000b7a919062001ca5565b5050565b6060600160009054906101000a900473ffffffffffffffffffffffffffffffffffffffff1673ffffffffffffffffffffffffffffffffffffffff166358cedf57306040518263ffffffff1660e01b815260040162000bdd919062001787565b600060405180830381865afa15801562000bfb573d6000803e3d6000fd5b505050506040513d6000823e3d601f19601f8201168201806040525081019062000c26919062001f91565b905090565b6000600a60008373ffffffffffffffffffffffffffffffffffffffff1673ffffffffffffffffffffffffffffffffffffffff16815260200190815260200160002060009054906101000a900460ff161562000cbd576040517f08c379a000000000000000000000000000000000000000000000000000000000815260040162000cb49062002032565b60405180910390fd5b60005b60098054905081101562000e73578273ffffffffffffffffffffffffffffffffffffffff166009828154811062000cfc5762000cfb62002054565b5b9060005260206000200160009054906101000a900473ffffffffffffffffffffffffffffffffffffffff1673ffffffffffffffffffffffffffffffffffffffff160362000da1576001600a60008573ffffffffffffffffffffffffffffffffffffffff1673ffffffffffffffffffffffffffffffffffffffff16815260200190815260200160002060006101000a81548160ff02191690831515021790555062000e5d565b6009839080600181540180825580915050600190039060005260206000200160009091909190916101000a81548173ffffffffffffffffffffffffffffffffffffffff021916908373ffffffffffffffffffffffffffffffffffffffff1602179055506001600a60008573ffffffffffffffffffffffffffffffffffffffff1673ffffffffffffffffffffffffffffffffffffffff16815260200190815260200160002060006101000a81548160ff0219169083151502179055505b808062000e6a90620020b2565b91505062000cc0565b50600a60008373ffffffffffffffffffffffffffffffffffffffff1673ffffffffffffffffffffffffffffffffffffffff16815260200190815260200160002060009054906101000a900460ff169050919050565b3373ffffffffffffffffffffffffffffffffffffffff16600360009054906101000a900473ffffffffffffffffffffffffffffffffffffffff1673ffffffffffffffffffffffffffffffffffffffff161462000f2357600080fd5b8060008054906101000a900473ffffffffffffffffffffffffffffffffffffffff1673ffffffffffffffffffffffffffffffffffffffff166370a08231306040518263ffffffff1660e01b815260040162000f7f919062001787565b602060405180830381865afa15801562000f9d573d6000803e3d6000fd5b505050506040513d601f19601f8201168201806040525081019062000fc3919062001b92565b101562001007576040517f08c379a000000000000000000000000000000000000000000000000000000000815260040162000ffe9062001c14565b60405180910390fd5b60008054906101000a900473ffffffffffffffffffffffffffffffffffffffff1673ffffffffffffffffffffffffffffffffffffffff1663095ea7b330836040518363ffffffff1660e01b81526004016200106492919062001c47565b6020604051808303816000875af115801562001084573d6000803e3d6000fd5b505050506040513d601f19601f82011682018060405250810190620010aa919062001ca5565b5060008054906101000a900473ffffffffffffffffffffffffffffffffffffffff1673ffffffffffffffffffffffffffffffffffffffff1663a9059cbb600460009054906101000a900473ffffffffffffffffffffffffffffffffffffffff16836040518363ffffffff1660e01b81526004016200112a92919062001c47565b6020604051808303816000875af11580156200114a573d6000803e3d6000fd5b505050506040513d601f19601f8201168201806040525081019062001170919062001ca5565b5050565b600460009054906101000a900473ffffffffffffffffffffffffffffffffffffffff1681565b60078054620011a99062001a52565b80601f0160208091040260200160405190810160405280929190818152602001828054620011d79062001a52565b8015620012285780601f10620011fc5761010080835404028352916020019162001228565b820191906000526020600020905b8154815290600101906020018083116200120a57829003601f168201915b505050505081565b6000600460009054906101000a900473ffffffffffffffffffffffffffffffffffffffff16905090565b60008054906101000a900473ffffffffffffffffffffffffffffffffffffffff1681565b600160009054906101000a900473ffffffffffffffffffffffffffffffffffffffff1673ffffffffffffffffffffffffffffffffffffffff16632f92fb2e30868686866040518663ffffffff1660e01b8152600401620012e3959493929190620020ff565b600060405180830381600087803b158015620012fe57600080fd5b505af115801562001313573d6000803e3d6000fd5b5050505050505050565b6121ac806200217283390190565b600081519050919050565b600082825260208201905092915050565b60005b83811015620013675780820151818401526020810190506200134a565b60008484015250505050565b6000601f19601f8301169050919050565b600062001391826200132b565b6200139d818562001336565b9350620013af81856020860162001347565b620013ba8162001373565b840191505092915050565b60006020820190508181036000830152620013e1818462001384565b905092915050565b600073ffffffffffffffffffffffffffffffffffffffff82169050919050565b6000819050919050565b6000620014346200142e6200142884620013e9565b62001409565b620013e9565b9050919050565b6000620014488262001413565b9050919050565b60006200145c826200143b565b9050919050565b6200146e816200144f565b82525050565b60006020820190506200148b600083018462001463565b92915050565b6000604051905090565b600080fd5b600080fd5b6000620014b282620013e9565b9050919050565b620014c481620014a5565b8114620014d057600080fd5b50565b600081359050620014e481620014b9565b92915050565b6000602082840312156200150357620015026200149b565b5b60006200151384828501620014d3565b91505092915050565b60008115159050919050565b62001533816200151c565b82525050565b600060208201905062001550600083018462001528565b92915050565b600080fd5b600080fd5b7f4e487b7100000000000000000000000000000000000000000000000000000000600052604160045260246000fd5b6200159a8262001373565b810181811067ffffffffffffffff82111715620015bc57620015bb62001560565b5b80604052505050565b6000620015d162001491565b9050620015df82826200158f565b919050565b600067ffffffffffffffff82111562001602576200160162001560565b5b6200160d8262001373565b9050602081019050919050565b82818337600083830152505050565b6000620016406200163a84620015e4565b620015c5565b9050828152602081018484840111156200165f576200165e6200155b565b5b6200166c8482856200161a565b509392505050565b600082601f8301126200168c576200168b62001556565b5b81356200169e84826020860162001629565b91505092915050565b60008060008060808587031215620016c457620016c36200149b565b5b6000620016d487828801620014d3565b945050602085013567ffffffffffffffff811115620016f857620016f7620014a0565b5b620017068782880162001674565b935050604085013567ffffffffffffffff8111156200172a5762001729620014a0565b5b620017388782880162001674565b925050606085013567ffffffffffffffff8111156200175c576200175b620014a0565b5b6200176a8782880162001674565b91505092959194509250565b6200178181620014a5565b82525050565b60006020820190506200179e600083018462001776565b92915050565b6000819050919050565b620017b981620017a4565b8114620017c557600080fd5b50565b600081359050620017d981620017ae565b92915050565b600060208284031215620017f857620017f76200149b565b5b60006200180884828501620017c8565b91505092915050565b600081519050919050565b600082825260208201905092915050565b6000819050602082019050919050565b6200184881620014a5565b82525050565b600082825260208201905092915050565b60006200186c826200132b565b6200187881856200184e565b93506200188a81856020860162001347565b620018958162001373565b840191505092915050565b6000608083016000830151620018ba60008601826200183d565b5060208301518482036020860152620018d482826200185f565b91505060408301518482036040860152620018f082826200185f565b915050606083015184820360608601526200190c82826200185f565b9150508091505092915050565b6000620019278383620018a0565b905092915050565b6000602082019050919050565b6000620019498262001811565b6200195581856200181c565b93508360208202850162001969856200182d565b8060005b85811015620019ab578484038952815162001989858262001919565b945062001996836200192f565b925060208a019950506001810190506200196d565b50829750879550505050505092915050565b60006020820190508181036000830152620019d981846200193c565b905092915050565b6000620019ee826200143b565b9050919050565b62001a0081620019e1565b82525050565b600060208201905062001a1d6000830184620019f5565b92915050565b7f4e487b7100000000000000000000000000000000000000000000000000000000600052602260045260246000fd5b6000600282049050600182168062001a6b57607f821691505b60208210810362001a815762001a8062001a23565b5b50919050565b7f616c72656479206e6f7420636865657200000000000000000000000000000000600082015250565b600062001abf60108362001336565b915062001acc8262001a87565b602082019050919050565b6000602082019050818103600083015262001af28162001ab0565b9050919050565b600060c08201905062001b10600083018962001776565b62001b1f602083018862001776565b818103604083015262001b33818762001384565b9050818103606083015262001b49818662001384565b9050818103608083015262001b5f818562001384565b905062001b7060a083018462001776565b979650505050505050565b60008151905062001b8c81620017ae565b92915050565b60006020828403121562001bab5762001baa6200149b565b5b600062001bbb8482850162001b7b565b91505092915050565b7f6e6f7420696e73756666696369656e7400000000000000000000000000000000600082015250565b600062001bfc60108362001336565b915062001c098262001bc4565b602082019050919050565b6000602082019050818103600083015262001c2f8162001bed565b9050919050565b62001c4181620017a4565b82525050565b600060408201905062001c5e600083018562001776565b62001c6d602083018462001c36565b9392505050565b62001c7f816200151c565b811462001c8b57600080fd5b50565b60008151905062001c9f8162001c74565b92915050565b60006020828403121562001cbe5762001cbd6200149b565b5b600062001cce8482850162001c8e565b91505092915050565b600060608201905062001cee600083018662001776565b62001cfd602083018562001776565b62001d0c604083018462001c36565b949350505050565b600067ffffffffffffffff82111562001d325762001d3162001560565b5b602082029050602081019050919050565b600080fd5b600080fd5b600080fd5b60008151905062001d6381620014b9565b92915050565b600062001d8062001d7a84620015e4565b620015c5565b90508281526020810184848401111562001d9f5762001d9e6200155b565b5b62001dac84828562001347565b509392505050565b600082601f83011262001dcc5762001dcb62001556565b5b815162001dde84826020860162001d69565b91505092915050565b60006080828403121562001e005762001dff62001d48565b5b62001e0c6080620015c5565b9050600062001e1e8482850162001d52565b600083015250602082015167ffffffffffffffff81111562001e455762001e4462001d4d565b5b62001e538482850162001db4565b602083015250604082015167ffffffffffffffff81111562001e7a5762001e7962001d4d565b5b62001e888482850162001db4565b604083015250606082015167ffffffffffffffff81111562001eaf5762001eae62001d4d565b5b62001ebd8482850162001db4565b60608301525092915050565b600062001ee062001eda8462001d14565b620015c5565b9050808382526020820190506020840283018581111562001f065762001f0562001d43565b5b835b8181101562001f5457805167ffffffffffffffff81111562001f2f5762001f2e62001556565b5b80860162001f3e898262001de7565b8552602085019450505060208101905062001f08565b5050509392505050565b600082601f83011262001f765762001f7562001556565b5b815162001f8884826020860162001ec9565b91505092915050565b60006020828403121562001faa5762001fa96200149b565b5b600082015167ffffffffffffffff81111562001fcb5762001fca620014a0565b5b62001fd98482850162001f5e565b91505092915050565b7f616c726564792063686565720000000000000000000000000000000000000000600082015250565b60006200201a600c8362001336565b9150620020278262001fe2565b602082019050919050565b600060208201905081810360008301526200204d816200200b565b9050919050565b7f4e487b7100000000000000000000000000000000000000000000000000000000600052603260045260246000fd5b7f4e487b7100000000000000000000000000000000000000000000000000000000600052601160045260246000fd5b6000620020bf82620017a4565b91507fffffffffffffffffffffffffffffffffffffffffffffffffffffffffffffffff8203620020f457620020f362002083565b5b600182019050919050565b600060a08201905062002116600083018862001776565b62002125602083018762001776565b818103604083015262002139818662001384565b905081810360608301526200214f818562001384565b9050818103608083015262002165818462001384565b9050969550505050505056fe60806040527338d4172dde4e50a8cdd8b39abc572443d18ad72d600960006101000a81548173ffffffffffffffffffffffffffffffffffffffff021916908373ffffffffffffffffffffffffffffffffffffffff1602179055503480156200006657600080fd5b50604051620021ac380380620021ac83398181016040528101906200008c91906200048f565b600960009054906101000a900473ffffffffffffffffffffffffffffffffffffffff166000806101000a81548173ffffffffffffffffffffffffffffffffffffffff021916908373ffffffffffffffffffffffffffffffffffffffff160217905550600260009054906101000a900473ffffffffffffffffffffffffffffffffffffffff16600160006101000a81548173ffffffffffffffffffffffffffffffffffffffff021916908373ffffffffffffffffffffffffffffffffffffffff16021790555033600360006101000a81548173ffffffffffffffffffffffffffffffffffffffff021916908373ffffffffffffffffffffffffffffffffffffffff16021790555085600460006101000a81548173ffffffffffffffffffffffffffffffffffffffff021916908373ffffffffffffffffffffffffffffffffffffffff16021790555084600560006101000a81548173ffffffffffffffffffffffffffffffffffffffff021916908373ffffffffffffffffffffffffffffffffffffffff1602179055508360069081620002259190620007d3565b508260079081620002379190620007d3565b508160089081620002499190620007d3565b5080600260006101000a81548173ffffffffffffffffffffffffffffffffffffffff021916908373ffffffffffffffffffffffffffffffffffffffff160217905550505050505050620008ba565b6000604051905090565b600080fd5b600080fd5b600073ffffffffffffffffffffffffffffffffffffffff82169050919050565b6000620002d882620002ab565b9050919050565b620002ea81620002cb565b8114620002f657600080fd5b50565b6000815190506200030a81620002df565b92915050565b600080fd5b600080fd5b6000601f19601f8301169050919050565b7f4e487b7100000000000000000000000000000000000000000000000000000000600052604160045260246000fd5b62000365826200031a565b810181811067ffffffffffffffff821117156200038757620003866200032b565b5b80604052505050565b60006200039c62000297565b9050620003aa82826200035a565b919050565b600067ffffffffffffffff821115620003cd57620003cc6200032b565b5b620003d8826200031a565b9050602081019050919050565b60005b8381101562000405578082015181840152602081019050620003e8565b60008484015250505050565b6000620004286200042284620003af565b62000390565b90508281526020810184848401111562000447576200044662000315565b5b62000454848285620003e5565b509392505050565b600082601f83011262000474576200047362000310565b5b81516200048684826020860162000411565b91505092915050565b60008060008060008060c08789031215620004af57620004ae620002a1565b5b6000620004bf89828a01620002f9565b9650506020620004d289828a01620002f9565b955050604087015167ffffffffffffffff811115620004f657620004f5620002a6565b5b6200050489828a016200045c565b945050606087015167ffffffffffffffff811115620005285762000527620002a6565b5b6200053689828a016200045c565b935050608087015167ffffffffffffffff8111156200055a5762000559620002a6565b5b6200056889828a016200045c565b92505060a06200057b89828a01620002f9565b9150509295509295509295565b600081519050919050565b7f4e487b7100000000000000000000000000000000000000000000000000000000600052602260045260246000fd5b60006002820490506001821680620005db57607f821691505b602082108103620005f157620005f062000593565b5b50919050565b60008190508160005260206000209050919050565b60006020601f8301049050919050565b600082821b905092915050565b6000600883026200065b7fffffffffffffffffffffffffffffffffffffffffffffffffffffffffffffffff826200061c565b6200066786836200061c565b95508019841693508086168417925050509392505050565b6000819050919050565b6000819050919050565b6000620006b4620006ae620006a8846200067f565b62000689565b6200067f565b9050919050565b6000819050919050565b620006d08362000693565b620006e8620006df82620006bb565b84845462000629565b825550505050565b600090565b620006ff620006f0565b6200070c818484620006c5565b505050565b5b81811015620007345762000728600082620006f5565b60018101905062000712565b5050565b601f82111562000783576200074d81620005f7565b62000758846200060c565b8101602085101562000768578190505b6200078062000777856200060c565b83018262000711565b50505b505050565b600082821c905092915050565b6000620007a86000198460080262000788565b1980831691505092915050565b6000620007c3838362000795565b9150826002028217905092915050565b620007de8262000588565b67ffffffffffffffff811115620007fa57620007f96200032b565b5b620008068254620005c2565b6200081382828562000738565b600060209050601f8311600181146200084b576000841562000836578287015190505b620008428582620007b5565b865550620008b2565b601f1984166200085b86620005f7565b60005b8281101562000885578489015182556001820191506020850194506020810190506200085e565b86831015620008a55784890151620008a1601f89168262000795565b8355505b6001600288020188555050505b505050505050565b6118e280620008ca6000396000f3fe608060405234801561001057600080fd5b50600436106100885760003560e01c806332b04e2b1161005b57806332b04e2b1461010557806365550ba4146101235780639a33e3001461013f578063f6acee231461015d57610088565b80631a3149561461008d5780631b5feff5146100ab5780631d90fb1f146100c9578063250a12d9146100e7575b600080fd5b61009561017b565b6040516100a29190610d74565b60405180910390f35b6100b3610209565b6040516100c09190610f5f565b60405180910390f35b6100d1610364565b6040516100de9190610fe0565b60405180910390f35b6100ef61038a565b6040516100fc919061100a565b60405180910390f35b61010d61042c565b60405161011a9190610d74565b60405180910390f35b61013d6004803603810190610138919061119a565b6104ba565b005b61014761063e565b6040516101549190610d74565b60405180910390f35b6101656106cc565b6040516101729190611217565b60405180910390f35b6007805461018890611261565b80601f01602080910402602001604051908101604052809291908181526020018280546101b490611261565b80156102015780601f106101d657610100808354040283529160200191610201565b820191906000526020600020905b8154815290600101906020018083116101e457829003601f168201915b505050505081565b6060600a805480602002602001604051908101604052809291908181526020016000905b8282101561035b57838290600052602060002090600402016040518060800160405290816000820160009054906101000a900473ffffffffffffffffffffffffffffffffffffffff1673ffffffffffffffffffffffffffffffffffffffff1673ffffffffffffffffffffffffffffffffffffffff168152602001600182015481526020016002820180546102c090611261565b80601f01602080910402602001604051908101604052809291908181526020018280546102ec90611261565b80156103395780601f1061030e57610100808354040283529160200191610339565b820191906000526020600020905b81548152906001019060200180831161031c57829003601f168201915b505050505081526020016003820154815250508152602001906001019061022d565b50505050905090565b600160009054906101000a900473ffffffffffffffffffffffffffffffffffffffff1681565b60008060009054906101000a900473ffffffffffffffffffffffffffffffffffffffff1673ffffffffffffffffffffffffffffffffffffffff166370a08231306040518263ffffffff1660e01b81526004016103e691906112a1565b602060405180830381865afa158015610403573d6000803e3d6000fd5b505050506040513d601f19601f8201168201806040525081019061042791906112d1565b905090565b6008805461043990611261565b80601f016020809104026020016040519081016040528092919081815260200182805461046590611261565b80156104b25780601f10610487576101008083540402835291602001916104b2565b820191906000526020600020905b81548152906001019060200180831161049557829003601f168201915b505050505081565b8160008054906101000a900473ffffffffffffffffffffffffffffffffffffffff1673ffffffffffffffffffffffffffffffffffffffff166370a08231600160009054906101000a900473ffffffffffffffffffffffffffffffffffffffff1673ffffffffffffffffffffffffffffffffffffffff16631599a352336040518263ffffffff1660e01b815260040161055291906112a1565b602060405180830381865afa15801561056f573d6000803e3d6000fd5b505050506040513d601f19601f82011682018060405250810190610593919061132a565b6040518263ffffffff1660e01b81526004016105af91906112a1565b602060405180830381865afa1580156105cc573d6000803e3d6000fd5b505050506040513d601f19601f820116820180604052508101906105f091906112d1565b11610630576040517f08c379a0000000000000000000000000000000000000000000000000000000008152600401610627906113a3565b60405180910390fd5b61063a82826106f0565b5050565b6006805461064b90611261565b80601f016020809104026020016040519081016040528092919081815260200182805461067790611261565b80156106c45780601f10610699576101008083540402835291602001916106c4565b820191906000526020600020905b8154815290600101906020018083116106a757829003601f168201915b505050505081565b60008054906101000a900473ffffffffffffffffffffffffffffffffffffffff1681565b60008054906101000a900473ffffffffffffffffffffffffffffffffffffffff1673ffffffffffffffffffffffffffffffffffffffff166323b872dd600160009054906101000a900473ffffffffffffffffffffffffffffffffffffffff1673ffffffffffffffffffffffffffffffffffffffff16631599a352336040518263ffffffff1660e01b815260040161078791906112a1565b602060405180830381865afa1580156107a4573d6000803e3d6000fd5b505050506040513d601f19601f820116820180604052508101906107c8919061132a565b30856040518463ffffffff1660e01b81526004016107e8939291906113c3565b6020604051808303816000875af1158015610807573d6000803e3d6000fd5b505050506040513d601f19601f8201168201806040525081019061082b9190611432565b50600a6040518060800160405280600160009054906101000a900473ffffffffffffffffffffffffffffffffffffffff1673ffffffffffffffffffffffffffffffffffffffff16631599a352336040518263ffffffff1660e01b815260040161089491906112a1565b602060405180830381865afa1580156108b1573d6000803e3d6000fd5b505050506040513d601f19601f820116820180604052508101906108d5919061132a565b73ffffffffffffffffffffffffffffffffffffffff16815260200142815260200183815260200184815250908060018154018082558091505060019003906000526020600020906004020160009091909190915060008201518160000160006101000a81548173ffffffffffffffffffffffffffffffffffffffff021916908373ffffffffffffffffffffffffffffffffffffffff16021790555060208201518160010155604082015181600201908161098f9190611601565b506060820151816003015550506109a5826109a9565b5050565b80600b60008282546109bb9190611702565b92505081905550600060646046836109d39190611736565b6109dd91906117a7565b9050600060646019846109f09190611736565b6109fa91906117a7565b90506000818385610a0b91906117d8565b610a1591906117d8565b905060005b600a80549050811015610b5b5760008054906101000a900473ffffffffffffffffffffffffffffffffffffffff1673ffffffffffffffffffffffffffffffffffffffff1663a9059cbb600a8381548110610a7757610a7661180c565b5b906000526020600020906004020160000160009054906101000a900473ffffffffffffffffffffffffffffffffffffffff16600b54600a8581548110610ac057610abf61180c565b5b90600052602060002090600402016003015488610add9190611736565b610ae791906117a7565b6040518363ffffffff1660e01b8152600401610b0492919061183b565b6020604051808303816000875af1158015610b23573d6000803e3d6000fd5b505050506040513d601f19601f82011682018060405250810190610b479190611432565b508080610b5390611864565b915050610a1a565b5060008054906101000a900473ffffffffffffffffffffffffffffffffffffffff1673ffffffffffffffffffffffffffffffffffffffff1663a9059cbb600460009054906101000a900473ffffffffffffffffffffffffffffffffffffffff16846040518363ffffffff1660e01b8152600401610bd992919061183b565b6020604051808303816000875af1158015610bf8573d6000803e3d6000fd5b505050506040513d601f19601f82011682018060405250810190610c1c9190611432565b5060008054906101000a900473ffffffffffffffffffffffffffffffffffffffff1673ffffffffffffffffffffffffffffffffffffffff1663a9059cbb600560009054906101000a900473ffffffffffffffffffffffffffffffffffffffff16836040518363ffffffff1660e01b8152600401610c9a92919061183b565b6020604051808303816000875af1158015610cb9573d6000803e3d6000fd5b505050506040513d601f19601f82011682018060405250810190610cdd9190611432565b5050505050565b600081519050919050565b600082825260208201905092915050565b60005b83811015610d1e578082015181840152602081019050610d03565b60008484015250505050565b6000601f19601f8301169050919050565b6000610d4682610ce4565b610d508185610cef565b9350610d60818560208601610d00565b610d6981610d2a565b840191505092915050565b60006020820190508181036000830152610d8e8184610d3b565b905092915050565b600081519050919050565b600082825260208201905092915050565b6000819050602082019050919050565b600073ffffffffffffffffffffffffffffffffffffffff82169050919050565b6000610ded82610dc2565b9050919050565b610dfd81610de2565b82525050565b6000819050919050565b610e1681610e03565b82525050565b600082825260208201905092915050565b6000610e3882610ce4565b610e428185610e1c565b9350610e52818560208601610d00565b610e5b81610d2a565b840191505092915050565b6000608083016000830151610e7e6000860182610df4565b506020830151610e916020860182610e0d565b5060408301518482036040860152610ea98282610e2d565b9150506060830151610ebe6060860182610e0d565b508091505092915050565b6000610ed58383610e66565b905092915050565b6000602082019050919050565b6000610ef582610d96565b610eff8185610da1565b935083602082028501610f1185610db2565b8060005b85811015610f4d5784840389528151610f2e8582610ec9565b9450610f3983610edd565b925060208a01995050600181019050610f15565b50829750879550505050505092915050565b60006020820190508181036000830152610f798184610eea565b905092915050565b6000819050919050565b6000610fa6610fa1610f9c84610dc2565b610f81565b610dc2565b9050919050565b6000610fb882610f8b565b9050919050565b6000610fca82610fad565b9050919050565b610fda81610fbf565b82525050565b6000602082019050610ff56000830184610fd1565b92915050565b61100481610e03565b82525050565b600060208201905061101f6000830184610ffb565b92915050565b6000604051905090565b600080fd5b600080fd5b61104281610e03565b811461104d57600080fd5b50565b60008135905061105f81611039565b92915050565b600080fd5b600080fd5b7f4e487b7100000000000000000000000000000000000000000000000000000000600052604160045260246000fd5b6110a782610d2a565b810181811067ffffffffffffffff821117156110c6576110c561106f565b5b80604052505050565b60006110d9611025565b90506110e5828261109e565b919050565b600067ffffffffffffffff8211156111055761110461106f565b5b61110e82610d2a565b9050602081019050919050565b82818337600083830152505050565b600061113d611138846110ea565b6110cf565b9050828152602081018484840111156111595761115861106a565b5b61116484828561111b565b509392505050565b600082601f83011261118157611180611065565b5b813561119184826020860161112a565b91505092915050565b600080604083850312156111b1576111b061102f565b5b60006111bf85828601611050565b925050602083013567ffffffffffffffff8111156111e0576111df611034565b5b6111ec8582860161116c565b9150509250929050565b600061120182610fad565b9050919050565b611211816111f6565b82525050565b600060208201905061122c6000830184611208565b92915050565b7f4e487b7100000000000000000000000000000000000000000000000000000000600052602260045260246000fd5b6000600282049050600182168061127957607f821691505b60208210810361128c5761128b611232565b5b50919050565b61129b81610de2565b82525050565b60006020820190506112b66000830184611292565b92915050565b6000815190506112cb81611039565b92915050565b6000602082840312156112e7576112e661102f565b5b60006112f5848285016112bc565b91505092915050565b61130781610de2565b811461131257600080fd5b50565b600081519050611324816112fe565b92915050565b6000602082840312156113405761133f61102f565b5b600061134e84828501611315565b91505092915050565b7f4e6f7420656e6f75676800000000000000000000000000000000000000000000600082015250565b600061138d600a83610cef565b915061139882611357565b602082019050919050565b600060208201905081810360008301526113bc81611380565b9050919050565b60006060820190506113d86000830186611292565b6113e56020830185611292565b6113f26040830184610ffb565b949350505050565b60008115159050919050565b61140f816113fa565b811461141a57600080fd5b50565b60008151905061142c81611406565b92915050565b6000602082840312156114485761144761102f565b5b60006114568482850161141d565b91505092915050565b60008190508160005260206000209050919050565b60006020601f8301049050919050565b600082821b905092915050565b6000600883026114c17fffffffffffffffffffffffffffffffffffffffffffffffffffffffffffffffff82611484565b6114cb8683611484565b95508019841693508086168417925050509392505050565b60006114fe6114f96114f484610e03565b610f81565b610e03565b9050919050565b6000819050919050565b611518836114e3565b61152c61152482611505565b848454611491565b825550505050565b600090565b611541611534565b61154c81848461150f565b505050565b5b8181101561157057611565600082611539565b600181019050611552565b5050565b601f8211156115b5576115868161145f565b61158f84611474565b8101602085101561159e578190505b6115b26115aa85611474565b830182611551565b50505b505050565b600082821c905092915050565b60006115d8600019846008026115ba565b1980831691505092915050565b60006115f183836115c7565b9150826002028217905092915050565b61160a82610ce4565b67ffffffffffffffff8111156116235761162261106f565b5b61162d8254611261565b611638828285611574565b600060209050601f83116001811461166b5760008415611659578287015190505b61166385826115e5565b8655506116cb565b601f1984166116798661145f565b60005b828110156116a15784890151825560018201915060208501945060208101905061167c565b868310156116be57848901516116ba601f8916826115c7565b8355505b6001600288020188555050505b505050505050565b7f4e487b7100000000000000000000000000000000000000000000000000000000600052601160045260246000fd5b600061170d82610e03565b915061171883610e03565b92508282019050808211156117305761172f6116d3565b5b92915050565b600061174182610e03565b915061174c83610e03565b925082820261175a81610e03565b91508282048414831517611771576117706116d3565b5b5092915050565b7f4e487b7100000000000000000000000000000000000000000000000000000000600052601260045260246000fd5b60006117b282610e03565b91506117bd83610e03565b9250826117cd576117cc611778565b5b828204905092915050565b60006117e382610e03565b91506117ee83610e03565b9250828203905081811115611806576118056116d3565b5b92915050565b7f4e487b7100000000000000000000000000000000000000000000000000000000600052603260045260246000fd5b60006040820190506118506000830185611292565b61185d6020830184610ffb565b9392505050565b600061186f82610e03565b91507fffffffffffffffffffffffffffffffffffffffffffffffffffffffffffffffff82036118a1576118a06116d3565b5b60018201905091905056fea26469706673582212204f7cd996c5c820b41bd227229aeccce8813689480344bb5d32ac285e1f2a0ebf64736f6c63430008110033a2646970667358221220f5917f9c26e04df49eefc70fb31631ac6311c7cb8ae5376d1abe73ead4e288e164736f6c63430008110033",
  "linkReferences": {},
  "deployedLinkReferences": {}
}