{
  "_format": "hh-sol-artifact-1",
  "contractName": "UserPool",
  "sourceName": "contracts/UserPool.sol",
  "abi": [
    {
      "inputs": [
        {
          "internalType": "address",
          "name": "_poolOwnerAddress",
          "type": "address"
        },
        {
          "internalType": "string",
          "name": "_userName",
          "type": "string"
        },
        {
          "internalType": "string",
          "name": "_userProfile",
          "type": "string"
        },
        {
          "internalType": "string",
          "name": "_userIcon",
          "type": "string"
        },
        {
          "internalType": "address",
          "name": "_cheersDappAddress",
          "type": "address"
        }
      ],
      "stateMutability": "nonpayable",
      "type": "constructor"
    },
    {
      "inputs": [
        {
          "internalType": "address",
          "name": "_cheerProjectPoolAddress",
          "type": "address"
        }
      ],
      "name": "addCheerProject",
      "outputs": [
        {
          "internalType": "bool",
          "name": "",
          "type": "bool"
        }
      ],
      "stateMutability": "nonpayable",
      "type": "function"
    },
    {
      "inputs": [
        {
          "internalType": "uint256",
          "name": "_cherAmount",
          "type": "uint256"
        }
      ],
      "name": "chargeCher",
      "outputs": [],
      "stateMutability": "nonpayable",
      "type": "function"
    },
    {
      "inputs": [],
      "name": "cheersDapp",
      "outputs": [
        {
          "internalType": "contract ICheers",
          "name": "",
          "type": "address"
        }
      ],
      "stateMutability": "view",
      "type": "function"
    },
    {
      "inputs": [],
      "name": "cher",
      "outputs": [
        {
          "internalType": "contract IERC20",
          "name": "",
          "type": "address"
        }
      ],
      "stateMutability": "view",
      "type": "function"
    },
    {
      "inputs": [],
      "name": "getAllChallengeProjects",
      "outputs": [
        {
          "components": [
            {
              "internalType": "address",
              "name": "projectAddress",
              "type": "address"
            },
            {
              "internalType": "address",
              "name": "belongDaoAddress",
              "type": "address"
            },
            {
              "internalType": "string",
              "name": "projectName",
              "type": "string"
            },
            {
              "internalType": "string",
              "name": "projectContents",
              "type": "string"
            },
            {
              "internalType": "string",
              "name": "projectReword",
              "type": "string"
            }
          ],
          "internalType": "struct SharedStruct.Project[]",
          "name": "",
          "type": "tuple[]"
        }
      ],
      "stateMutability": "view",
      "type": "function"
    },
    {
      "inputs": [],
      "name": "getUserAddress",
      "outputs": [
        {
          "internalType": "address",
          "name": "",
          "type": "address"
        }
      ],
      "stateMutability": "view",
      "type": "function"
    },
    {
      "inputs": [],
      "name": "getUserIcon",
      "outputs": [
        {
          "internalType": "string",
          "name": "",
          "type": "string"
        }
      ],
      "stateMutability": "view",
      "type": "function"
    },
    {
      "inputs": [],
      "name": "getUserName",
      "outputs": [
        {
          "internalType": "string",
          "name": "",
          "type": "string"
        }
      ],
      "stateMutability": "view",
      "type": "function"
    },
    {
      "inputs": [],
      "name": "getUserPoolAddress",
      "outputs": [
        {
          "internalType": "address",
          "name": "",
          "type": "address"
        }
      ],
      "stateMutability": "view",
      "type": "function"
    },
    {
      "inputs": [],
      "name": "getUserProfile",
      "outputs": [
        {
          "internalType": "string",
          "name": "",
          "type": "string"
        }
      ],
      "stateMutability": "view",
      "type": "function"
    },
    {
      "inputs": [
        {
          "internalType": "address",
          "name": "_belongDaoAddress",
          "type": "address"
        },
        {
          "internalType": "string",
          "name": "_projectName",
          "type": "string"
        },
        {
          "internalType": "string",
          "name": "_projectContents",
          "type": "string"
        },
        {
          "internalType": "string",
          "name": "_projectReword",
          "type": "string"
        }
      ],
      "name": "newProjectFactory",
      "outputs": [
        {
          "internalType": "address",
          "name": "",
          "type": "address"
        }
      ],
      "stateMutability": "nonpayable",
      "type": "function"
    },
    {
      "inputs": [],
      "name": "projectsData",
      "outputs": [
        {
          "internalType": "contract IProjectsData",
          "name": "",
          "type": "address"
        }
      ],
      "stateMutability": "view",
      "type": "function"
    },
    {
      "inputs": [
        {
          "internalType": "address",
          "name": "_cheerProjectPoolAddress",
          "type": "address"
        }
      ],
      "name": "removeCheerProject",
      "outputs": [
        {
          "internalType": "bool",
          "name": "",
          "type": "bool"
        }
      ],
      "stateMutability": "nonpayable",
      "type": "function"
    },
    {
      "inputs": [],
      "name": "userAddress",
      "outputs": [
        {
          "internalType": "address",
          "name": "",
          "type": "address"
        }
      ],
      "stateMutability": "view",
      "type": "function"
    },
    {
      "inputs": [],
      "name": "userIcon",
      "outputs": [
        {
          "internalType": "string",
          "name": "",
          "type": "string"
        }
      ],
      "stateMutability": "view",
      "type": "function"
    },
    {
      "inputs": [],
      "name": "userName",
      "outputs": [
        {
          "internalType": "string",
          "name": "",
          "type": "string"
        }
      ],
      "stateMutability": "view",
      "type": "function"
    },
    {
      "inputs": [],
      "name": "userProfile",
      "outputs": [
        {
          "internalType": "string",
          "name": "",
          "type": "string"
        }
      ],
      "stateMutability": "view",
      "type": "function"
    },
    {
      "inputs": [
        {
          "internalType": "uint256",
          "name": "_cherAmount",
          "type": "uint256"
        }
      ],
      "name": "withdrawCher",
      "outputs": [],
      "stateMutability": "nonpayable",
      "type": "function"
    }
  ],
  "bytecode": "0x60806040527338d4172dde4e50a8cdd8b39abc572443d18ad72d600a60006101000a81548173ffffffffffffffffffffffffffffffffffffffff021916908373ffffffffffffffffffffffffffffffffffffffff1602179055503480156200006657600080fd5b5060405162004ec838038062004ec883398181016040528101906200008c91906200046e565b600a60009054906101000a900473ffffffffffffffffffffffffffffffffffffffff16600260006101000a81548173ffffffffffffffffffffffffffffffffffffffff021916908373ffffffffffffffffffffffffffffffffffffffff16021790555084600660006101000a81548173ffffffffffffffffffffffffffffffffffffffff021916908373ffffffffffffffffffffffffffffffffffffffff16021790555083600790816200014191906200079e565b5082600890816200015391906200079e565b5081600990816200016591906200079e565b5080600460006101000a81548173ffffffffffffffffffffffffffffffffffffffff021916908373ffffffffffffffffffffffffffffffffffffffff160217905550600460009054906101000a900473ffffffffffffffffffffffffffffffffffffffff16600360006101000a81548173ffffffffffffffffffffffffffffffffffffffff021916908373ffffffffffffffffffffffffffffffffffffffff16021790555060008054906101000a900473ffffffffffffffffffffffffffffffffffffffff16600160006101000a81548173ffffffffffffffffffffffffffffffffffffffff021916908373ffffffffffffffffffffffffffffffffffffffff160217905550505050505062000885565b6000604051905090565b600080fd5b600080fd5b600073ffffffffffffffffffffffffffffffffffffffff82169050919050565b6000620002b7826200028a565b9050919050565b620002c981620002aa565b8114620002d557600080fd5b50565b600081519050620002e981620002be565b92915050565b600080fd5b600080fd5b6000601f19601f8301169050919050565b7f4e487b7100000000000000000000000000000000000000000000000000000000600052604160045260246000fd5b6200034482620002f9565b810181811067ffffffffffffffff821117156200036657620003656200030a565b5b80604052505050565b60006200037b62000276565b905062000389828262000339565b919050565b600067ffffffffffffffff821115620003ac57620003ab6200030a565b5b620003b782620002f9565b9050602081019050919050565b60005b83811015620003e4578082015181840152602081019050620003c7565b60008484015250505050565b60006200040762000401846200038e565b6200036f565b905082815260208101848484011115620004265762000425620002f4565b5b62000433848285620003c4565b509392505050565b600082601f830112620004535762000452620002ef565b5b815162000465848260208601620003f0565b91505092915050565b600080600080600060a086880312156200048d576200048c62000280565b5b60006200049d88828901620002d8565b955050602086015167ffffffffffffffff811115620004c157620004c062000285565b5b620004cf888289016200043b565b945050604086015167ffffffffffffffff811115620004f357620004f262000285565b5b62000501888289016200043b565b935050606086015167ffffffffffffffff81111562000525576200052462000285565b5b62000533888289016200043b565b92505060806200054688828901620002d8565b9150509295509295909350565b600081519050919050565b7f4e487b7100000000000000000000000000000000000000000000000000000000600052602260045260246000fd5b60006002820490506001821680620005a657607f821691505b602082108103620005bc57620005bb6200055e565b5b50919050565b60008190508160005260206000209050919050565b60006020601f8301049050919050565b600082821b905092915050565b600060088302620006267fffffffffffffffffffffffffffffffffffffffffffffffffffffffffffffffff82620005e7565b620006328683620005e7565b95508019841693508086168417925050509392505050565b6000819050919050565b6000819050919050565b60006200067f6200067962000673846200064a565b62000654565b6200064a565b9050919050565b6000819050919050565b6200069b836200065e565b620006b3620006aa8262000686565b848454620005f4565b825550505050565b600090565b620006ca620006bb565b620006d781848462000690565b505050565b5b81811015620006ff57620006f3600082620006c0565b600181019050620006dd565b5050565b601f8211156200074e576200071881620005c2565b6200072384620005d7565b8101602085101562000733578190505b6200074b6200074285620005d7565b830182620006dc565b50505b505050565b600082821c905092915050565b6000620007736000198460080262000753565b1980831691505092915050565b60006200078e838362000760565b9150826002028217905092915050565b620007a98262000553565b67ffffffffffffffff811115620007c557620007c46200030a565b5b620007d182546200058d565b620007de82828562000703565b600060209050601f83116001811462000816576000841562000801578287015190505b6200080d858262000780565b8655506200087d565b601f1984166200082686620005c2565b60005b82811015620008505784890151825560018201915060208501945060208101905062000829565b868310156200087057848901516200086c601f89168262000760565b8355505b6001600288020188555050505b505050505050565b61463380620008956000396000f3fe60806040523480156200001157600080fd5b5060043610620001305760003560e01c806397987faf11620000b1578063d4dadf01116200007b578063d4dadf011462000313578063e4128fb31462000349578063e60faa31146200036b578063ebc3eee8146200038d578063f6acee2314620003af5762000130565b806397987faf146200028f578063a0965ed214620002af578063a36b5fa214620002d1578063cc371c1414620002f15762000130565b80634a37787011620000ff5780634a37787014620001bd5780634bb1c3f714620001f35780634d7adf0914620002295780636f61c744146200024b57806370019b35146200026d5762000130565b806312958f1c14620001355780631d90fb1f14620001575780631fa1470e14620001795780632a5de350146200019b575b600080fd5b6200013f620003d1565b6040516200014e919062001407565b60405180910390f35b620001616200046b565b604051620001709190620014b6565b60405180910390f35b6200018362000491565b60405162000192919062001407565b60405180910390f35b620001a56200052b565b604051620001b4919062001407565b60405180910390f35b620001db6004803603810190620001d591906200152c565b620005c1565b604051620001ea91906200157b565b60405180910390f35b6200021160048036038101906200020b9190620016e9565b620006fe565b604051620002209190620017c9565b60405180910390f35b620002336200075f565b6040516200024291906200180b565b60405180910390f35b6200025562000785565b60405162000264919062001407565b60405180910390f35b620002776200081f565b60405162000286919062001407565b60405180910390f35b620002ad6004803603810190620002a7919062001863565b620008b5565b005b620002b962000b67565b604051620002c89190620017c9565b60405180910390f35b620002ef6004803603810190620002e9919062001863565b62000b6f565b005b620002fb62000e67565b6040516200030a919062001a56565b60405180910390f35b6200033160048036038101906200032b91906200152c565b62000f14565b6040516200034091906200157b565b60405180910390f35b62000353620011b1565b604051620003629190620017c9565b60405180910390f35b62000375620011d7565b60405162000384919062001407565b60405180910390f35b620003976200126d565b604051620003a69190620017c9565b60405180910390f35b620003b962001297565b604051620003c8919062001a9f565b60405180910390f35b606060078054620003e29062001aeb565b80601f0160208091040260200160405190810160405280929190818152602001828054620004109062001aeb565b8015620004615780601f10620004355761010080835404028352916020019162000461565b820191906000526020600020905b8154815290600101906020018083116200044357829003601f168201915b5050505050905090565b600360009054906101000a900473ffffffffffffffffffffffffffffffffffffffff1681565b606060098054620004a29062001aeb565b80601f0160208091040260200160405190810160405280929190818152602001828054620004d09062001aeb565b8015620005215780601f10620004f55761010080835404028352916020019162000521565b820191906000526020600020905b8154815290600101906020018083116200050357829003601f168201915b5050505050905090565b600880546200053a9062001aeb565b80601f0160208091040260200160405190810160405280929190818152602001828054620005689062001aeb565b8015620005b95780601f106200058d57610100808354040283529160200191620005b9565b820191906000526020600020905b8154815290600101906020018083116200059b57829003601f168201915b505050505081565b6000600c60008373ffffffffffffffffffffffffffffffffffffffff1673ffffffffffffffffffffffffffffffffffffffff16815260200190815260200160002060009054906101000a900460ff1662000652576040517f08c379a0000000000000000000000000000000000000000000000000000000008152600401620006499062001b70565b60405180910390fd5b6000600c60008473ffffffffffffffffffffffffffffffffffffffff1673ffffffffffffffffffffffffffffffffffffffff16815260200190815260200160002060006101000a81548160ff021916908315150217905550600c60008373ffffffffffffffffffffffffffffffffffffffff1673ffffffffffffffffffffffffffffffffffffffff16815260200190815260200160002060009054906101000a900460ff169050919050565b600080308686868660405162000714906200135f565b6200072495949392919062001b92565b604051809103906000f08015801562000741573d6000803e3d6000fd5b509050620007538130878787620012bd565b80915050949350505050565b600160009054906101000a900473ffffffffffffffffffffffffffffffffffffffff1681565b606060088054620007969062001aeb565b80601f0160208091040260200160405190810160405280929190818152602001828054620007c49062001aeb565b8015620008155780601f10620007e95761010080835404028352916020019162000815565b820191906000526020600020905b815481529060010190602001808311620007f757829003601f168201915b5050505050905090565b600780546200082e9062001aeb565b80601f01602080910402602001604051908101604052809291908181526020018280546200085c9062001aeb565b8015620008ad5780601f106200088157610100808354040283529160200191620008ad565b820191906000526020600020905b8154815290600101906020018083116200088f57829003601f168201915b505050505081565b3373ffffffffffffffffffffffffffffffffffffffff16600560009054906101000a900473ffffffffffffffffffffffffffffffffffffffff1673ffffffffffffffffffffffffffffffffffffffff16146200091057600080fd5b80600260009054906101000a900473ffffffffffffffffffffffffffffffffffffffff1673ffffffffffffffffffffffffffffffffffffffff166370a08231306040518263ffffffff1660e01b81526004016200096e9190620017c9565b602060405180830381865afa1580156200098c573d6000803e3d6000fd5b505050506040513d601f19601f82011682018060405250810190620009b2919062001c1b565b1015620009f6576040517f08c379a0000000000000000000000000000000000000000000000000000000008152600401620009ed9062001c9d565b60405180910390fd5b600260009054906101000a900473ffffffffffffffffffffffffffffffffffffffff1673ffffffffffffffffffffffffffffffffffffffff1663095ea7b330836040518363ffffffff1660e01b815260040162000a5592919062001cd0565b6020604051808303816000875af115801562000a75573d6000803e3d6000fd5b505050506040513d601f19601f8201168201806040525081019062000a9b919062001d2e565b50600260009054906101000a900473ffffffffffffffffffffffffffffffffffffffff1673ffffffffffffffffffffffffffffffffffffffff1663a9059cbb600660009054906101000a900473ffffffffffffffffffffffffffffffffffffffff16836040518363ffffffff1660e01b815260040162000b1d92919062001cd0565b6020604051808303816000875af115801562000b3d573d6000803e3d6000fd5b505050506040513d601f19601f8201168201806040525081019062000b63919062001d2e565b5050565b600030905090565b3373ffffffffffffffffffffffffffffffffffffffff16600560009054906101000a900473ffffffffffffffffffffffffffffffffffffffff1673ffffffffffffffffffffffffffffffffffffffff161462000bca57600080fd5b80600260009054906101000a900473ffffffffffffffffffffffffffffffffffffffff1673ffffffffffffffffffffffffffffffffffffffff166370a08231600660009054906101000a900473ffffffffffffffffffffffffffffffffffffffff166040518263ffffffff1660e01b815260040162000c4a9190620017c9565b602060405180830381865afa15801562000c68573d6000803e3d6000fd5b505050506040513d601f19601f8201168201806040525081019062000c8e919062001c1b565b101562000cd2576040517f08c379a000000000000000000000000000000000000000000000000000000000815260040162000cc99062001c9d565b60405180910390fd5b600260009054906101000a900473ffffffffffffffffffffffffffffffffffffffff1673ffffffffffffffffffffffffffffffffffffffff1663095ea7b3600660009054906101000a900473ffffffffffffffffffffffffffffffffffffffff16836040518363ffffffff1660e01b815260040162000d5392919062001cd0565b6020604051808303816000875af115801562000d73573d6000803e3d6000fd5b505050506040513d601f19601f8201168201806040525081019062000d99919062001d2e565b50600260009054906101000a900473ffffffffffffffffffffffffffffffffffffffff1673ffffffffffffffffffffffffffffffffffffffff166323b872dd600660009054906101000a900473ffffffffffffffffffffffffffffffffffffffff1630846040518463ffffffff1660e01b815260040162000e1d9392919062001d60565b6020604051808303816000875af115801562000e3d573d6000803e3d6000fd5b505050506040513d601f19601f8201168201806040525081019062000e63919062001d2e565b5050565b6060600160009054906101000a900473ffffffffffffffffffffffffffffffffffffffff1673ffffffffffffffffffffffffffffffffffffffff166358cedf57306040518263ffffffff1660e01b815260040162000ec69190620017c9565b600060405180830381865afa15801562000ee4573d6000803e3d6000fd5b505050506040513d6000823e3d601f19601f8201168201806040525081019062000f0f919062002030565b905090565b6000600c60008373ffffffffffffffffffffffffffffffffffffffff1673ffffffffffffffffffffffffffffffffffffffff16815260200190815260200160002060009054906101000a900460ff161562000fa6576040517f08c379a000000000000000000000000000000000000000000000000000000000815260040162000f9d90620020d1565b60405180910390fd5b60005b600b805490508110156200115c578273ffffffffffffffffffffffffffffffffffffffff16600b828154811062000fe55762000fe4620020f3565b5b9060005260206000200160009054906101000a900473ffffffffffffffffffffffffffffffffffffffff1673ffffffffffffffffffffffffffffffffffffffff16036200108a576001600c60008573ffffffffffffffffffffffffffffffffffffffff1673ffffffffffffffffffffffffffffffffffffffff16815260200190815260200160002060006101000a81548160ff02191690831515021790555062001146565b600b839080600181540180825580915050600190039060005260206000200160009091909190916101000a81548173ffffffffffffffffffffffffffffffffffffffff021916908373ffffffffffffffffffffffffffffffffffffffff1602179055506001600c60008573ffffffffffffffffffffffffffffffffffffffff1673ffffffffffffffffffffffffffffffffffffffff16815260200190815260200160002060006101000a81548160ff0219169083151502179055505b8080620011539062002151565b91505062000fa9565b50600c60008373ffffffffffffffffffffffffffffffffffffffff1673ffffffffffffffffffffffffffffffffffffffff16815260200190815260200160002060009054906101000a900460ff169050919050565b600660009054906101000a900473ffffffffffffffffffffffffffffffffffffffff1681565b60098054620011e69062001aeb565b80601f0160208091040260200160405190810160405280929190818152602001828054620012149062001aeb565b8015620012655780601f10620012395761010080835404028352916020019162001265565b820191906000526020600020905b8154815290600101906020018083116200124757829003601f168201915b505050505081565b6000600660009054906101000a900473ffffffffffffffffffffffffffffffffffffffff16905090565b600260009054906101000a900473ffffffffffffffffffffffffffffffffffffffff1681565b600160009054906101000a900473ffffffffffffffffffffffffffffffffffffffff1673ffffffffffffffffffffffffffffffffffffffff1663c34b28f58630878787876040518763ffffffff1660e01b815260040162001324969594939291906200219e565b600060405180830381600087803b1580156200133f57600080fd5b505af115801562001354573d6000803e3d6000fd5b505050505050505050565b6123dd806200222183390190565b600081519050919050565b600082825260208201905092915050565b60005b83811015620013a95780820151818401526020810190506200138c565b60008484015250505050565b6000601f19601f8301169050919050565b6000620013d3826200136d565b620013df818562001378565b9350620013f181856020860162001389565b620013fc81620013b5565b840191505092915050565b60006020820190508181036000830152620014238184620013c6565b905092915050565b600073ffffffffffffffffffffffffffffffffffffffff82169050919050565b6000819050919050565b600062001476620014706200146a846200142b565b6200144b565b6200142b565b9050919050565b60006200148a8262001455565b9050919050565b60006200149e826200147d565b9050919050565b620014b08162001491565b82525050565b6000602082019050620014cd6000830184620014a5565b92915050565b6000604051905090565b600080fd5b600080fd5b6000620014f4826200142b565b9050919050565b6200150681620014e7565b81146200151257600080fd5b50565b6000813590506200152681620014fb565b92915050565b600060208284031215620015455762001544620014dd565b5b6000620015558482850162001515565b91505092915050565b60008115159050919050565b62001575816200155e565b82525050565b60006020820190506200159260008301846200156a565b92915050565b600080fd5b600080fd5b7f4e487b7100000000000000000000000000000000000000000000000000000000600052604160045260246000fd5b620015dc82620013b5565b810181811067ffffffffffffffff82111715620015fe57620015fd620015a2565b5b80604052505050565b600062001613620014d3565b9050620016218282620015d1565b919050565b600067ffffffffffffffff821115620016445762001643620015a2565b5b6200164f82620013b5565b9050602081019050919050565b82818337600083830152505050565b6000620016826200167c8462001626565b62001607565b905082815260208101848484011115620016a157620016a06200159d565b5b620016ae8482856200165c565b509392505050565b600082601f830112620016ce57620016cd62001598565b5b8135620016e08482602086016200166b565b91505092915050565b60008060008060808587031215620017065762001705620014dd565b5b6000620017168782880162001515565b945050602085013567ffffffffffffffff8111156200173a5762001739620014e2565b5b6200174887828801620016b6565b935050604085013567ffffffffffffffff8111156200176c576200176b620014e2565b5b6200177a87828801620016b6565b925050606085013567ffffffffffffffff8111156200179e576200179d620014e2565b5b620017ac87828801620016b6565b91505092959194509250565b620017c381620014e7565b82525050565b6000602082019050620017e06000830184620017b8565b92915050565b6000620017f3826200147d565b9050919050565b6200180581620017e6565b82525050565b6000602082019050620018226000830184620017fa565b92915050565b6000819050919050565b6200183d8162001828565b81146200184957600080fd5b50565b6000813590506200185d8162001832565b92915050565b6000602082840312156200187c576200187b620014dd565b5b60006200188c848285016200184c565b91505092915050565b600081519050919050565b600082825260208201905092915050565b6000819050602082019050919050565b620018cc81620014e7565b82525050565b600082825260208201905092915050565b6000620018f0826200136d565b620018fc8185620018d2565b93506200190e81856020860162001389565b6200191981620013b5565b840191505092915050565b600060a0830160008301516200193e6000860182620018c1565b506020830151620019536020860182620018c1565b50604083015184820360408601526200196d8282620018e3565b91505060608301518482036060860152620019898282620018e3565b91505060808301518482036080860152620019a58282620018e3565b9150508091505092915050565b6000620019c0838362001924565b905092915050565b6000602082019050919050565b6000620019e28262001895565b620019ee8185620018a0565b93508360208202850162001a0285620018b1565b8060005b8581101562001a44578484038952815162001a228582620019b2565b945062001a2f83620019c8565b925060208a0199505060018101905062001a06565b50829750879550505050505092915050565b6000602082019050818103600083015262001a728184620019d5565b905092915050565b600062001a87826200147d565b9050919050565b62001a998162001a7a565b82525050565b600060208201905062001ab6600083018462001a8e565b92915050565b7f4e487b7100000000000000000000000000000000000000000000000000000000600052602260045260246000fd5b6000600282049050600182168062001b0457607f821691505b60208210810362001b1a5762001b1962001abc565b5b50919050565b7f616c7265616479206e6f74206368656572000000000000000000000000000000600082015250565b600062001b5860118362001378565b915062001b658262001b20565b602082019050919050565b6000602082019050818103600083015262001b8b8162001b49565b9050919050565b600060a08201905062001ba96000830188620017b8565b62001bb86020830187620017b8565b818103604083015262001bcc8186620013c6565b9050818103606083015262001be28185620013c6565b9050818103608083015262001bf88184620013c6565b90509695505050505050565b60008151905062001c158162001832565b92915050565b60006020828403121562001c345762001c33620014dd565b5b600062001c448482850162001c04565b91505092915050565b7f6e6f7420696e73756666696369656e7400000000000000000000000000000000600082015250565b600062001c8560108362001378565b915062001c928262001c4d565b602082019050919050565b6000602082019050818103600083015262001cb88162001c76565b9050919050565b62001cca8162001828565b82525050565b600060408201905062001ce76000830185620017b8565b62001cf6602083018462001cbf565b9392505050565b62001d08816200155e565b811462001d1457600080fd5b50565b60008151905062001d288162001cfd565b92915050565b60006020828403121562001d475762001d46620014dd565b5b600062001d578482850162001d17565b91505092915050565b600060608201905062001d776000830186620017b8565b62001d866020830185620017b8565b62001d95604083018462001cbf565b949350505050565b600067ffffffffffffffff82111562001dbb5762001dba620015a2565b5b602082029050602081019050919050565b600080fd5b600080fd5b600080fd5b60008151905062001dec81620014fb565b92915050565b600062001e0962001e038462001626565b62001607565b90508281526020810184848401111562001e285762001e276200159d565b5b62001e3584828562001389565b509392505050565b600082601f83011262001e555762001e5462001598565b5b815162001e6784826020860162001df2565b91505092915050565b600060a0828403121562001e895762001e8862001dd1565b5b62001e9560a062001607565b9050600062001ea78482850162001ddb565b600083015250602062001ebd8482850162001ddb565b602083015250604082015167ffffffffffffffff81111562001ee45762001ee362001dd6565b5b62001ef28482850162001e3d565b604083015250606082015167ffffffffffffffff81111562001f195762001f1862001dd6565b5b62001f278482850162001e3d565b606083015250608082015167ffffffffffffffff81111562001f4e5762001f4d62001dd6565b5b62001f5c8482850162001e3d565b60808301525092915050565b600062001f7f62001f798462001d9d565b62001607565b9050808382526020820190506020840283018581111562001fa55762001fa462001dcc565b5b835b8181101562001ff357805167ffffffffffffffff81111562001fce5762001fcd62001598565b5b80860162001fdd898262001e70565b8552602085019450505060208101905062001fa7565b5050509392505050565b600082601f83011262002015576200201462001598565b5b81516200202784826020860162001f68565b91505092915050565b600060208284031215620020495762002048620014dd565b5b600082015167ffffffffffffffff8111156200206a5762002069620014e2565b5b620020788482850162001ffd565b91505092915050565b7f616c726561647920636865657200000000000000000000000000000000000000600082015250565b6000620020b9600d8362001378565b9150620020c68262002081565b602082019050919050565b60006020820190508181036000830152620020ec81620020aa565b9050919050565b7f4e487b7100000000000000000000000000000000000000000000000000000000600052603260045260246000fd5b7f4e487b7100000000000000000000000000000000000000000000000000000000600052601160045260246000fd5b60006200215e8262001828565b91507fffffffffffffffffffffffffffffffffffffffffffffffffffffffffffffffff820362002193576200219262002122565b5b600182019050919050565b600060c082019050620021b56000830189620017b8565b620021c46020830188620017b8565b620021d36040830187620017b8565b8181036060830152620021e78186620013c6565b90508181036080830152620021fd8185620013c6565b905081810360a0830152620022138184620013c6565b905097965050505050505056fe60806040527338d4172dde4e50a8cdd8b39abc572443d18ad72d600960006101000a81548173ffffffffffffffffffffffffffffffffffffffff021916908373ffffffffffffffffffffffffffffffffffffffff1602179055503480156200006657600080fd5b50604051620023dd380380620023dd83398181016040528101906200008c9190620004b0565b600c60009054906101000a900473ffffffffffffffffffffffffffffffffffffffff16600d60006101000a81548173ffffffffffffffffffffffffffffffffffffffff021916908373ffffffffffffffffffffffffffffffffffffffff160217905550600960009054906101000a900473ffffffffffffffffffffffffffffffffffffffff166000806101000a81548173ffffffffffffffffffffffffffffffffffffffff021916908373ffffffffffffffffffffffffffffffffffffffff160217905550600260009054906101000a900473ffffffffffffffffffffffffffffffffffffffff16600160006101000a81548173ffffffffffffffffffffffffffffffffffffffff021916908373ffffffffffffffffffffffffffffffffffffffff16021790555033600360006101000a81548173ffffffffffffffffffffffffffffffffffffffff021916908373ffffffffffffffffffffffffffffffffffffffff16021790555084600460006101000a81548173ffffffffffffffffffffffffffffffffffffffff021916908373ffffffffffffffffffffffffffffffffffffffff16021790555083600560006101000a81548173ffffffffffffffffffffffffffffffffffffffff021916908373ffffffffffffffffffffffffffffffffffffffff1602179055508260069081620002889190620007e0565b5081600790816200029a9190620007e0565b508060089081620002ac9190620007e0565b505050505050620008c7565b6000604051905090565b600080fd5b600080fd5b600073ffffffffffffffffffffffffffffffffffffffff82169050919050565b6000620002f982620002cc565b9050919050565b6200030b81620002ec565b81146200031757600080fd5b50565b6000815190506200032b8162000300565b92915050565b600080fd5b600080fd5b6000601f19601f8301169050919050565b7f4e487b7100000000000000000000000000000000000000000000000000000000600052604160045260246000fd5b62000386826200033b565b810181811067ffffffffffffffff82111715620003a857620003a76200034c565b5b80604052505050565b6000620003bd620002b8565b9050620003cb82826200037b565b919050565b600067ffffffffffffffff821115620003ee57620003ed6200034c565b5b620003f9826200033b565b9050602081019050919050565b60005b838110156200042657808201518184015260208101905062000409565b60008484015250505050565b6000620004496200044384620003d0565b620003b1565b90508281526020810184848401111562000468576200046762000336565b5b6200047584828562000406565b509392505050565b600082601f83011262000495576200049462000331565b5b8151620004a784826020860162000432565b91505092915050565b600080600080600060a08688031215620004cf57620004ce620002c2565b5b6000620004df888289016200031a565b9550506020620004f2888289016200031a565b945050604086015167ffffffffffffffff811115620005165762000515620002c7565b5b62000524888289016200047d565b935050606086015167ffffffffffffffff811115620005485762000547620002c7565b5b62000556888289016200047d565b925050608086015167ffffffffffffffff8111156200057a5762000579620002c7565b5b62000588888289016200047d565b9150509295509295909350565b600081519050919050565b7f4e487b7100000000000000000000000000000000000000000000000000000000600052602260045260246000fd5b60006002820490506001821680620005e857607f821691505b602082108103620005fe57620005fd620005a0565b5b50919050565b60008190508160005260206000209050919050565b60006020601f8301049050919050565b600082821b905092915050565b600060088302620006687fffffffffffffffffffffffffffffffffffffffffffffffffffffffffffffffff8262000629565b62000674868362000629565b95508019841693508086168417925050509392505050565b6000819050919050565b6000819050919050565b6000620006c1620006bb620006b5846200068c565b62000696565b6200068c565b9050919050565b6000819050919050565b620006dd83620006a0565b620006f5620006ec82620006c8565b84845462000636565b825550505050565b600090565b6200070c620006fd565b62000719818484620006d2565b505050565b5b8181101562000741576200073560008262000702565b6001810190506200071f565b5050565b601f82111562000790576200075a8162000604565b620007658462000619565b8101602085101562000775578190505b6200078d620007848562000619565b8301826200071e565b50505b505050565b600082821c905092915050565b6000620007b56000198460080262000795565b1980831691505092915050565b6000620007d08383620007a2565b9150826002028217905092915050565b620007eb8262000595565b67ffffffffffffffff8111156200080757620008066200034c565b5b620008138254620005cf565b6200082082828562000745565b600060209050601f83116001811462000858576000841562000843578287015190505b6200084f8582620007c2565b865550620008bf565b601f198416620008688662000604565b60005b8281101562000892578489015182556001820191506020850194506020810190506200086b565b86831015620008b25784890151620008ae601f891682620007a2565b8355505b6001600288020188555050505b505050505050565b611b0680620008d76000396000f3fe608060405234801561001057600080fd5b50600436106100a95760003560e01c806332b04e2b1161007157806332b04e2b146101425780635e001c341461016057806365550ba41461017c57806371b3423d146101985780639a33e300146101b6578063f6acee23146101d4576100a9565b806316e66f43146100ae5780631a314956146100ca5780631b5feff5146100e85780631d90fb1f14610106578063250a12d914610124575b600080fd5b6100c860048036038101906100c39190610efc565b6101f2565b005b6100d2610277565b6040516100df9190610fb9565b60405180910390f35b6100f0610305565b6040516100fd9190611172565b60405180910390f35b61010e610460565b60405161011b91906111f3565b60405180910390f35b61012c610486565b604051610139919061121d565b60405180910390f35b61014a610528565b6040516101579190610fb9565b60405180910390f35b61017a60048036038101906101759190610efc565b6105b6565b005b61019660048036038101906101919190611399565b61063a565b005b6101a06107be565b6040516101ad9190611416565b60405180910390f35b6101be6107e4565b6040516101cb9190610fb9565b60405180910390f35b6101dc610872565b6040516101e99190611452565b60405180910390f35b80600c60006101000a81548173ffffffffffffffffffffffffffffffffffffffff021916908373ffffffffffffffffffffffffffffffffffffffff16021790555080600d60006101000a81548173ffffffffffffffffffffffffffffffffffffffff021916908373ffffffffffffffffffffffffffffffffffffffff16021790555050565b600780546102849061149c565b80601f01602080910402602001604051908101604052809291908181526020018280546102b09061149c565b80156102fd5780601f106102d2576101008083540402835291602001916102fd565b820191906000526020600020905b8154815290600101906020018083116102e057829003601f168201915b505050505081565b6060600a805480602002602001604051908101604052809291908181526020016000905b8282101561045757838290600052602060002090600402016040518060800160405290816000820160009054906101000a900473ffffffffffffffffffffffffffffffffffffffff1673ffffffffffffffffffffffffffffffffffffffff1673ffffffffffffffffffffffffffffffffffffffff168152602001600182015481526020016002820180546103bc9061149c565b80601f01602080910402602001604051908101604052809291908181526020018280546103e89061149c565b80156104355780601f1061040a57610100808354040283529160200191610435565b820191906000526020600020905b81548152906001019060200180831161041857829003601f168201915b5050505050815260200160038201548152505081526020019060010190610329565b50505050905090565b600160009054906101000a900473ffffffffffffffffffffffffffffffffffffffff1681565b60008060009054906101000a900473ffffffffffffffffffffffffffffffffffffffff1673ffffffffffffffffffffffffffffffffffffffff166370a08231306040518263ffffffff1660e01b81526004016104e291906114dc565b602060405180830381865afa1580156104ff573d6000803e3d6000fd5b505050506040513d601f19601f82011682018060405250810190610523919061150c565b905090565b600880546105359061149c565b80601f01602080910402602001604051908101604052809291908181526020018280546105619061149c565b80156105ae5780601f10610583576101008083540402835291602001916105ae565b820191906000526020600020905b81548152906001019060200180831161059157829003601f168201915b505050505081565b80600960006101000a81548173ffffffffffffffffffffffffffffffffffffffff021916908373ffffffffffffffffffffffffffffffffffffffff160217905550806000806101000a81548173ffffffffffffffffffffffffffffffffffffffff021916908373ffffffffffffffffffffffffffffffffffffffff16021790555050565b8160008054906101000a900473ffffffffffffffffffffffffffffffffffffffff1673ffffffffffffffffffffffffffffffffffffffff166370a08231600d60009054906101000a900473ffffffffffffffffffffffffffffffffffffffff1673ffffffffffffffffffffffffffffffffffffffff16631599a352336040518263ffffffff1660e01b81526004016106d291906114dc565b602060405180830381865afa1580156106ef573d6000803e3d6000fd5b505050506040513d601f19601f82011682018060405250810190610713919061154e565b6040518263ffffffff1660e01b815260040161072f91906114dc565b602060405180830381865afa15801561074c573d6000803e3d6000fd5b505050506040513d601f19601f82011682018060405250810190610770919061150c565b116107b0576040517f08c379a00000000000000000000000000000000000000000000000000000000081526004016107a7906115c7565b60405180910390fd5b6107ba8282610896565b5050565b600d60009054906101000a900473ffffffffffffffffffffffffffffffffffffffff1681565b600680546107f19061149c565b80601f016020809104026020016040519081016040528092919081815260200182805461081d9061149c565b801561086a5780601f1061083f5761010080835404028352916020019161086a565b820191906000526020600020905b81548152906001019060200180831161084d57829003601f168201915b505050505081565b60008054906101000a900473ffffffffffffffffffffffffffffffffffffffff1681565b60008054906101000a900473ffffffffffffffffffffffffffffffffffffffff1673ffffffffffffffffffffffffffffffffffffffff166323b872dd600d60009054906101000a900473ffffffffffffffffffffffffffffffffffffffff1673ffffffffffffffffffffffffffffffffffffffff16631599a352336040518263ffffffff1660e01b815260040161092d91906114dc565b602060405180830381865afa15801561094a573d6000803e3d6000fd5b505050506040513d601f19601f8201168201806040525081019061096e919061154e565b30856040518463ffffffff1660e01b815260040161098e939291906115e7565b6020604051808303816000875af11580156109ad573d6000803e3d6000fd5b505050506040513d601f19601f820116820180604052508101906109d19190611656565b50600a6040518060800160405280600d60009054906101000a900473ffffffffffffffffffffffffffffffffffffffff1673ffffffffffffffffffffffffffffffffffffffff16631599a352336040518263ffffffff1660e01b8152600401610a3a91906114dc565b602060405180830381865afa158015610a57573d6000803e3d6000fd5b505050506040513d601f19601f82011682018060405250810190610a7b919061154e565b73ffffffffffffffffffffffffffffffffffffffff16815260200142815260200183815260200184815250908060018154018082558091505060019003906000526020600020906004020160009091909190915060008201518160000160006101000a81548173ffffffffffffffffffffffffffffffffffffffff021916908373ffffffffffffffffffffffffffffffffffffffff160217905550602082015181600101556040820151816002019081610b359190611825565b50606082015181600301555050610b4b82610b4f565b5050565b80600b6000828254610b619190611926565b9250508190555060006064604683610b79919061195a565b610b8391906119cb565b905060006064601984610b96919061195a565b610ba091906119cb565b90506000818385610bb191906119fc565b610bbb91906119fc565b905060005b600a80549050811015610d015760008054906101000a900473ffffffffffffffffffffffffffffffffffffffff1673ffffffffffffffffffffffffffffffffffffffff1663a9059cbb600a8381548110610c1d57610c1c611a30565b5b906000526020600020906004020160000160009054906101000a900473ffffffffffffffffffffffffffffffffffffffff16600b54600a8581548110610c6657610c65611a30565b5b90600052602060002090600402016003015488610c83919061195a565b610c8d91906119cb565b6040518363ffffffff1660e01b8152600401610caa929190611a5f565b6020604051808303816000875af1158015610cc9573d6000803e3d6000fd5b505050506040513d601f19601f82011682018060405250810190610ced9190611656565b508080610cf990611a88565b915050610bc0565b5060008054906101000a900473ffffffffffffffffffffffffffffffffffffffff1673ffffffffffffffffffffffffffffffffffffffff1663a9059cbb600460009054906101000a900473ffffffffffffffffffffffffffffffffffffffff16846040518363ffffffff1660e01b8152600401610d7f929190611a5f565b6020604051808303816000875af1158015610d9e573d6000803e3d6000fd5b505050506040513d601f19601f82011682018060405250810190610dc29190611656565b5060008054906101000a900473ffffffffffffffffffffffffffffffffffffffff1673ffffffffffffffffffffffffffffffffffffffff1663a9059cbb600560009054906101000a900473ffffffffffffffffffffffffffffffffffffffff16836040518363ffffffff1660e01b8152600401610e40929190611a5f565b6020604051808303816000875af1158015610e5f573d6000803e3d6000fd5b505050506040513d601f19601f82011682018060405250810190610e839190611656565b5050505050565b6000604051905090565b600080fd5b600080fd5b600073ffffffffffffffffffffffffffffffffffffffff82169050919050565b6000610ec982610e9e565b9050919050565b610ed981610ebe565b8114610ee457600080fd5b50565b600081359050610ef681610ed0565b92915050565b600060208284031215610f1257610f11610e94565b5b6000610f2084828501610ee7565b91505092915050565b600081519050919050565b600082825260208201905092915050565b60005b83811015610f63578082015181840152602081019050610f48565b60008484015250505050565b6000601f19601f8301169050919050565b6000610f8b82610f29565b610f958185610f34565b9350610fa5818560208601610f45565b610fae81610f6f565b840191505092915050565b60006020820190508181036000830152610fd38184610f80565b905092915050565b600081519050919050565b600082825260208201905092915050565b6000819050602082019050919050565b61101081610ebe565b82525050565b6000819050919050565b61102981611016565b82525050565b600082825260208201905092915050565b600061104b82610f29565b611055818561102f565b9350611065818560208601610f45565b61106e81610f6f565b840191505092915050565b60006080830160008301516110916000860182611007565b5060208301516110a46020860182611020565b50604083015184820360408601526110bc8282611040565b91505060608301516110d16060860182611020565b508091505092915050565b60006110e88383611079565b905092915050565b6000602082019050919050565b600061110882610fdb565b6111128185610fe6565b93508360208202850161112485610ff7565b8060005b85811015611160578484038952815161114185826110dc565b945061114c836110f0565b925060208a01995050600181019050611128565b50829750879550505050505092915050565b6000602082019050818103600083015261118c81846110fd565b905092915050565b6000819050919050565b60006111b96111b46111af84610e9e565b611194565b610e9e565b9050919050565b60006111cb8261119e565b9050919050565b60006111dd826111c0565b9050919050565b6111ed816111d2565b82525050565b600060208201905061120860008301846111e4565b92915050565b61121781611016565b82525050565b6000602082019050611232600083018461120e565b92915050565b61124181611016565b811461124c57600080fd5b50565b60008135905061125e81611238565b92915050565b600080fd5b600080fd5b7f4e487b7100000000000000000000000000000000000000000000000000000000600052604160045260246000fd5b6112a682610f6f565b810181811067ffffffffffffffff821117156112c5576112c461126e565b5b80604052505050565b60006112d8610e8a565b90506112e4828261129d565b919050565b600067ffffffffffffffff8211156113045761130361126e565b5b61130d82610f6f565b9050602081019050919050565b82818337600083830152505050565b600061133c611337846112e9565b6112ce565b90508281526020810184848401111561135857611357611269565b5b61136384828561131a565b509392505050565b600082601f8301126113805761137f611264565b5b8135611390848260208601611329565b91505092915050565b600080604083850312156113b0576113af610e94565b5b60006113be8582860161124f565b925050602083013567ffffffffffffffff8111156113df576113de610e99565b5b6113eb8582860161136b565b9150509250929050565b6000611400826111c0565b9050919050565b611410816113f5565b82525050565b600060208201905061142b6000830184611407565b92915050565b600061143c826111c0565b9050919050565b61144c81611431565b82525050565b60006020820190506114676000830184611443565b92915050565b7f4e487b7100000000000000000000000000000000000000000000000000000000600052602260045260246000fd5b600060028204905060018216806114b457607f821691505b6020821081036114c7576114c661146d565b5b50919050565b6114d681610ebe565b82525050565b60006020820190506114f160008301846114cd565b92915050565b60008151905061150681611238565b92915050565b60006020828403121561152257611521610e94565b5b6000611530848285016114f7565b91505092915050565b60008151905061154881610ed0565b92915050565b60006020828403121561156457611563610e94565b5b600061157284828501611539565b91505092915050565b7f4e6f7420656e6f75676800000000000000000000000000000000000000000000600082015250565b60006115b1600a83610f34565b91506115bc8261157b565b602082019050919050565b600060208201905081810360008301526115e0816115a4565b9050919050565b60006060820190506115fc60008301866114cd565b61160960208301856114cd565b611616604083018461120e565b949350505050565b60008115159050919050565b6116338161161e565b811461163e57600080fd5b50565b6000815190506116508161162a565b92915050565b60006020828403121561166c5761166b610e94565b5b600061167a84828501611641565b91505092915050565b60008190508160005260206000209050919050565b60006020601f8301049050919050565b600082821b905092915050565b6000600883026116e57fffffffffffffffffffffffffffffffffffffffffffffffffffffffffffffffff826116a8565b6116ef86836116a8565b95508019841693508086168417925050509392505050565b600061172261171d61171884611016565b611194565b611016565b9050919050565b6000819050919050565b61173c83611707565b61175061174882611729565b8484546116b5565b825550505050565b600090565b611765611758565b611770818484611733565b505050565b5b818110156117945761178960008261175d565b600181019050611776565b5050565b601f8211156117d9576117aa81611683565b6117b384611698565b810160208510156117c2578190505b6117d66117ce85611698565b830182611775565b50505b505050565b600082821c905092915050565b60006117fc600019846008026117de565b1980831691505092915050565b600061181583836117eb565b9150826002028217905092915050565b61182e82610f29565b67ffffffffffffffff8111156118475761184661126e565b5b611851825461149c565b61185c828285611798565b600060209050601f83116001811461188f576000841561187d578287015190505b6118878582611809565b8655506118ef565b601f19841661189d86611683565b60005b828110156118c5578489015182556001820191506020850194506020810190506118a0565b868310156118e257848901516118de601f8916826117eb565b8355505b6001600288020188555050505b505050505050565b7f4e487b7100000000000000000000000000000000000000000000000000000000600052601160045260246000fd5b600061193182611016565b915061193c83611016565b9250828201905080821115611954576119536118f7565b5b92915050565b600061196582611016565b915061197083611016565b925082820261197e81611016565b91508282048414831517611995576119946118f7565b5b5092915050565b7f4e487b7100000000000000000000000000000000000000000000000000000000600052601260045260246000fd5b60006119d682611016565b91506119e183611016565b9250826119f1576119f061199c565b5b828204905092915050565b6000611a0782611016565b9150611a1283611016565b9250828203905081811115611a2a57611a296118f7565b5b92915050565b7f4e487b7100000000000000000000000000000000000000000000000000000000600052603260045260246000fd5b6000604082019050611a7460008301856114cd565b611a81602083018461120e565b9392505050565b6000611a9382611016565b91507fffffffffffffffffffffffffffffffffffffffffffffffffffffffffffffffff8203611ac557611ac46118f7565b5b60018201905091905056fea2646970667358221220258a6a0a3d8ce3c90ac365c06971164c3a699d7ce48e891f8a90ff1450133adb64736f6c63430008110033a264697066735822122040584c6a9139d2f5951942b895ad4fd3830f3ab9f46adc66b13aec6e8e8c2cac64736f6c63430008110033",
  "linkReferences": {},
  "deployedLinkReferences": {}
}