{
  "_format": "hh-sol-artifact-1",
  "contractName": "ProjectPool",
  "sourceName": "contracts/ProjectPool.sol",
  "abi": [
    {
      "inputs": [
        {
          "internalType": "address",
          "name": "_ownerPoolAddress",
          "type": "address"
        },
        {
          "internalType": "address",
          "name": "_belongDaoAddress",
          "type": "address"
        },
        {
          "internalType": "string",
          "name": "_projectName",
          "type": "string"
        },
        {
          "internalType": "string",
          "name": "_projectContents",
          "type": "string"
        },
        {
          "internalType": "string",
          "name": "_projectReword",
          "type": "string"
        }
      ],
      "stateMutability": "nonpayable",
      "type": "constructor"
    },
    {
      "inputs": [],
      "name": "cheerListData",
      "outputs": [
        {
          "internalType": "contract ICheerListData",
          "name": "",
          "type": "address"
        }
      ],
      "stateMutability": "view",
      "type": "function"
    },
    {
      "inputs": [],
      "name": "cheersDapp",
      "outputs": [
        {
          "internalType": "contract ICheers",
          "name": "",
          "type": "address"
        }
      ],
      "stateMutability": "view",
      "type": "function"
    },
    {
      "inputs": [],
      "name": "cher",
      "outputs": [
        {
          "internalType": "contract IERC20",
          "name": "",
          "type": "address"
        }
      ],
      "stateMutability": "view",
      "type": "function"
    },
    {
      "inputs": [],
      "name": "getTotalCher",
      "outputs": [
        {
          "internalType": "uint256",
          "name": "",
          "type": "uint256"
        }
      ],
      "stateMutability": "view",
      "type": "function"
    },
    {
      "inputs": [
        {
          "internalType": "uint256",
          "name": "_cher",
          "type": "uint256"
        },
        {
          "internalType": "string",
          "name": "_cheerMessage",
          "type": "string"
        }
      ],
      "name": "mintCheer",
      "outputs": [],
      "stateMutability": "nonpayable",
      "type": "function"
    },
    {
      "inputs": [],
      "name": "poolListData",
      "outputs": [
        {
          "internalType": "contract IPoolListData",
          "name": "",
          "type": "address"
        }
      ],
      "stateMutability": "view",
      "type": "function"
    },
    {
      "inputs": [],
      "name": "projectContents",
      "outputs": [
        {
          "internalType": "string",
          "name": "",
          "type": "string"
        }
      ],
      "stateMutability": "view",
      "type": "function"
    },
    {
      "inputs": [],
      "name": "projectName",
      "outputs": [
        {
          "internalType": "string",
          "name": "",
          "type": "string"
        }
      ],
      "stateMutability": "view",
      "type": "function"
    },
    {
      "inputs": [],
      "name": "projectReword",
      "outputs": [
        {
          "internalType": "string",
          "name": "",
          "type": "string"
        }
      ],
      "stateMutability": "view",
      "type": "function"
    },
    {
      "inputs": [],
      "name": "totalCher",
      "outputs": [
        {
          "internalType": "uint256",
          "name": "",
          "type": "uint256"
        }
      ],
      "stateMutability": "view",
      "type": "function"
    }
  ],
  "bytecode": "0x608060405273c87d7fe5e5af9cfede29f8d362eeb1a788c539cf600960006101000a81548173ffffffffffffffffffffffffffffffffffffffff021916908373ffffffffffffffffffffffffffffffffffffffff1602179055507335fa06f351ed31f8ead5dcdf1e586e47fc064376600b60006101000a81548173ffffffffffffffffffffffffffffffffffffffff021916908373ffffffffffffffffffffffffffffffffffffffff16021790555073ce9adb57464657d74d8a8260b29b29bd07e2c3eb600d60006101000a81548173ffffffffffffffffffffffffffffffffffffffff021916908373ffffffffffffffffffffffffffffffffffffffff1602179055503480156200011057600080fd5b506040516200227e3803806200227e8339818101604052810190620001369190620005bd565b600b60009054906101000a900473ffffffffffffffffffffffffffffffffffffffff16600c60006101000a81548173ffffffffffffffffffffffffffffffffffffffff021916908373ffffffffffffffffffffffffffffffffffffffff160217905550600d60009054906101000a900473ffffffffffffffffffffffffffffffffffffffff16600e60006101000a81548173ffffffffffffffffffffffffffffffffffffffff021916908373ffffffffffffffffffffffffffffffffffffffff160217905550600960009054906101000a900473ffffffffffffffffffffffffffffffffffffffff166000806101000a81548173ffffffffffffffffffffffffffffffffffffffff021916908373ffffffffffffffffffffffffffffffffffffffff160217905550600260009054906101000a900473ffffffffffffffffffffffffffffffffffffffff16600160006101000a81548173ffffffffffffffffffffffffffffffffffffffff021916908373ffffffffffffffffffffffffffffffffffffffff16021790555033600360006101000a81548173ffffffffffffffffffffffffffffffffffffffff021916908373ffffffffffffffffffffffffffffffffffffffff16021790555084600460006101000a81548173ffffffffffffffffffffffffffffffffffffffff021916908373ffffffffffffffffffffffffffffffffffffffff16021790555083600560006101000a81548173ffffffffffffffffffffffffffffffffffffffff021916908373ffffffffffffffffffffffffffffffffffffffff1602179055508260069081620003959190620008ed565b508160079081620003a79190620008ed565b508060089081620003b99190620008ed565b505050505050620009d4565b6000604051905090565b600080fd5b600080fd5b600073ffffffffffffffffffffffffffffffffffffffff82169050919050565b60006200040682620003d9565b9050919050565b6200041881620003f9565b81146200042457600080fd5b50565b60008151905062000438816200040d565b92915050565b600080fd5b600080fd5b6000601f19601f8301169050919050565b7f4e487b7100000000000000000000000000000000000000000000000000000000600052604160045260246000fd5b620004938262000448565b810181811067ffffffffffffffff82111715620004b557620004b462000459565b5b80604052505050565b6000620004ca620003c5565b9050620004d8828262000488565b919050565b600067ffffffffffffffff821115620004fb57620004fa62000459565b5b620005068262000448565b9050602081019050919050565b60005b838110156200053357808201518184015260208101905062000516565b60008484015250505050565b6000620005566200055084620004dd565b620004be565b90508281526020810184848401111562000575576200057462000443565b5b6200058284828562000513565b509392505050565b600082601f830112620005a257620005a16200043e565b5b8151620005b48482602086016200053f565b91505092915050565b600080600080600060a08688031215620005dc57620005db620003cf565b5b6000620005ec8882890162000427565b9550506020620005ff8882890162000427565b945050604086015167ffffffffffffffff811115620006235762000622620003d4565b5b62000631888289016200058a565b935050606086015167ffffffffffffffff811115620006555762000654620003d4565b5b62000663888289016200058a565b925050608086015167ffffffffffffffff811115620006875762000686620003d4565b5b62000695888289016200058a565b9150509295509295909350565b600081519050919050565b7f4e487b7100000000000000000000000000000000000000000000000000000000600052602260045260246000fd5b60006002820490506001821680620006f557607f821691505b6020821081036200070b576200070a620006ad565b5b50919050565b60008190508160005260206000209050919050565b60006020601f8301049050919050565b600082821b905092915050565b600060088302620007757fffffffffffffffffffffffffffffffffffffffffffffffffffffffffffffffff8262000736565b62000781868362000736565b95508019841693508086168417925050509392505050565b6000819050919050565b6000819050919050565b6000620007ce620007c8620007c28462000799565b620007a3565b62000799565b9050919050565b6000819050919050565b620007ea83620007ad565b62000802620007f982620007d5565b84845462000743565b825550505050565b600090565b620008196200080a565b62000826818484620007df565b505050565b5b818110156200084e57620008426000826200080f565b6001810190506200082c565b5050565b601f8211156200089d57620008678162000711565b620008728462000726565b8101602085101562000882578190505b6200089a620008918562000726565b8301826200082b565b50505b505050565b600082821c905092915050565b6000620008c260001984600802620008a2565b1980831691505092915050565b6000620008dd8383620008af565b9150826002028217905092915050565b620008f882620006a2565b67ffffffffffffffff81111562000914576200091362000459565b5b620009208254620006dc565b6200092d82828562000852565b600060209050601f83116001811462000965576000841562000950578287015190505b6200095c8582620008cf565b865550620009cc565b601f198416620009758662000711565b60005b828110156200099f5784890151825560018201915060208501945060208101905062000978565b86831015620009bf5784890151620009bb601f891682620008af565b8355505b6001600288020188555050505b505050505050565b61189a80620009e46000396000f3fe608060405234801561001057600080fd5b506004361061009e5760003560e01c806371b3423d1161006657806371b3423d1461013757806373531cfe146101555780639a33e30014610173578063f48ca5c114610191578063f6acee23146101af5761009e565b80631a314956146100a35780631d90fb1f146100c1578063250a12d9146100df57806332b04e2b146100fd57806365550ba41461011b575b600080fd5b6100ab6101cd565b6040516100b89190610e2c565b60405180910390f35b6100c961025b565b6040516100d69190610ecd565b60405180910390f35b6100e7610281565b6040516100f49190610f01565b60405180910390f35b610105610323565b6040516101129190610e2c565b60405180910390f35b61013560048036038101906101309190611091565b6103b1565b005b61013f610536565b60405161014c919061110e565b60405180910390f35b61015d61055c565b60405161016a9190610f01565b60405180910390f35b61017b610562565b6040516101889190610e2c565b60405180910390f35b6101996105f0565b6040516101a6919061114a565b60405180910390f35b6101b7610616565b6040516101c49190611186565b60405180910390f35b600780546101da906111d0565b80601f0160208091040260200160405190810160405280929190818152602001828054610206906111d0565b80156102535780601f1061022857610100808354040283529160200191610253565b820191906000526020600020905b81548152906001019060200180831161023657829003601f168201915b505050505081565b600160009054906101000a900473ffffffffffffffffffffffffffffffffffffffff1681565b60008060009054906101000a900473ffffffffffffffffffffffffffffffffffffffff1673ffffffffffffffffffffffffffffffffffffffff166370a08231306040518263ffffffff1660e01b81526004016102dd9190611222565b602060405180830381865afa1580156102fa573d6000803e3d6000fd5b505050506040513d601f19601f8201168201806040525081019061031e9190611252565b905090565b60088054610330906111d0565b80601f016020809104026020016040519081016040528092919081815260200182805461035c906111d0565b80156103a95780601f1061037e576101008083540402835291602001916103a9565b820191906000526020600020905b81548152906001019060200180831161038c57829003601f168201915b505050505081565b8160008054906101000a900473ffffffffffffffffffffffffffffffffffffffff1673ffffffffffffffffffffffffffffffffffffffff166370a08231600c60009054906101000a900473ffffffffffffffffffffffffffffffffffffffff1673ffffffffffffffffffffffffffffffffffffffff16631599a352336040518263ffffffff1660e01b81526004016104499190611222565b602060405180830381865afa158015610466573d6000803e3d6000fd5b505050506040513d601f19601f8201168201806040525081019061048a91906112ab565b6040518263ffffffff1660e01b81526004016104a69190611222565b602060405180830381865afa1580156104c3573d6000803e3d6000fd5b505050506040513d601f19601f820116820180604052508101906104e79190611252565b1015610528576040517f08c379a000000000000000000000000000000000000000000000000000000000815260040161051f90611324565b60405180910390fd5b610532828261063a565b5050565b600c60009054906101000a900473ffffffffffffffffffffffffffffffffffffffff1681565b600a5481565b6006805461056f906111d0565b80601f016020809104026020016040519081016040528092919081815260200182805461059b906111d0565b80156105e85780601f106105bd576101008083540402835291602001916105e8565b820191906000526020600020905b8154815290600101906020018083116105cb57829003601f168201915b505050505081565b600e60009054906101000a900473ffffffffffffffffffffffffffffffffffffffff1681565b60008054906101000a900473ffffffffffffffffffffffffffffffffffffffff1681565b60008054906101000a900473ffffffffffffffffffffffffffffffffffffffff1673ffffffffffffffffffffffffffffffffffffffff166323b872dd600c60009054906101000a900473ffffffffffffffffffffffffffffffffffffffff1673ffffffffffffffffffffffffffffffffffffffff16631599a352336040518263ffffffff1660e01b81526004016106d19190611222565b602060405180830381865afa1580156106ee573d6000803e3d6000fd5b505050506040513d601f19601f8201168201806040525081019061071291906112ab565b30856040518463ffffffff1660e01b815260040161073293929190611344565b6020604051808303816000875af1158015610751573d6000803e3d6000fd5b505050506040513d601f19601f8201168201806040525081019061077591906113b3565b50600e60009054906101000a900473ffffffffffffffffffffffffffffffffffffffff1673ffffffffffffffffffffffffffffffffffffffff166308df15a330600c60009054906101000a900473ffffffffffffffffffffffffffffffffffffffff1673ffffffffffffffffffffffffffffffffffffffff16631599a352336040518263ffffffff1660e01b81526004016108109190611222565b602060405180830381865afa15801561082d573d6000803e3d6000fd5b505050506040513d601f19601f8201168201806040525081019061085191906112ab565b4285876040518663ffffffff1660e01b81526004016108749594939291906113e0565b600060405180830381600087803b15801561088e57600080fd5b505af11580156108a2573d6000803e3d6000fd5b505050506108af826108b3565b5050565b80600a60008282546108c59190611469565b92505081905550600060646046836108dd919061149d565b6108e7919061150e565b9050600060646019846108fa919061149d565b610904919061150e565b90506000818385610915919061153f565b61091f919061153f565b905060005b600e60009054906101000a900473ffffffffffffffffffffffffffffffffffffffff1673ffffffffffffffffffffffffffffffffffffffff166312d9ac69306040518263ffffffff1660e01b815260040161097f9190611222565b600060405180830381865afa15801561099c573d6000803e3d6000fd5b505050506040513d6000823e3d601f19601f820116820180604052508101906109c5919061177b565b51811015610c135760008054906101000a900473ffffffffffffffffffffffffffffffffffffffff1673ffffffffffffffffffffffffffffffffffffffff1663a9059cbb600e60009054906101000a900473ffffffffffffffffffffffffffffffffffffffff1673ffffffffffffffffffffffffffffffffffffffff166312d9ac69306040518263ffffffff1660e01b8152600401610a649190611222565b600060405180830381865afa158015610a81573d6000803e3d6000fd5b505050506040513d6000823e3d601f19601f82011682018060405250810190610aaa919061177b565b8381518110610abc57610abb6117c4565b5b602002602001015160200151600a54600e60009054906101000a900473ffffffffffffffffffffffffffffffffffffffff1673ffffffffffffffffffffffffffffffffffffffff166312d9ac69306040518263ffffffff1660e01b8152600401610b269190611222565b600060405180830381865afa158015610b43573d6000803e3d6000fd5b505050506040513d6000823e3d601f19601f82011682018060405250810190610b6c919061177b565b8581518110610b7e57610b7d6117c4565b5b60200260200101516080015188610b95919061149d565b610b9f919061150e565b6040518363ffffffff1660e01b8152600401610bbc9291906117f3565b6020604051808303816000875af1158015610bdb573d6000803e3d6000fd5b505050506040513d601f19601f82011682018060405250810190610bff91906113b3565b508080610c0b9061181c565b915050610924565b5060008054906101000a900473ffffffffffffffffffffffffffffffffffffffff1673ffffffffffffffffffffffffffffffffffffffff1663a9059cbb600460009054906101000a900473ffffffffffffffffffffffffffffffffffffffff16846040518363ffffffff1660e01b8152600401610c919291906117f3565b6020604051808303816000875af1158015610cb0573d6000803e3d6000fd5b505050506040513d601f19601f82011682018060405250810190610cd491906113b3565b5060008054906101000a900473ffffffffffffffffffffffffffffffffffffffff1673ffffffffffffffffffffffffffffffffffffffff1663a9059cbb600560009054906101000a900473ffffffffffffffffffffffffffffffffffffffff16836040518363ffffffff1660e01b8152600401610d529291906117f3565b6020604051808303816000875af1158015610d71573d6000803e3d6000fd5b505050506040513d601f19601f82011682018060405250810190610d9591906113b3565b5050505050565b600081519050919050565b600082825260208201905092915050565b60005b83811015610dd6578082015181840152602081019050610dbb565b60008484015250505050565b6000601f19601f8301169050919050565b6000610dfe82610d9c565b610e088185610da7565b9350610e18818560208601610db8565b610e2181610de2565b840191505092915050565b60006020820190508181036000830152610e468184610df3565b905092915050565b600073ffffffffffffffffffffffffffffffffffffffff82169050919050565b6000819050919050565b6000610e93610e8e610e8984610e4e565b610e6e565b610e4e565b9050919050565b6000610ea582610e78565b9050919050565b6000610eb782610e9a565b9050919050565b610ec781610eac565b82525050565b6000602082019050610ee26000830184610ebe565b92915050565b6000819050919050565b610efb81610ee8565b82525050565b6000602082019050610f166000830184610ef2565b92915050565b6000604051905090565b600080fd5b600080fd5b610f3981610ee8565b8114610f4457600080fd5b50565b600081359050610f5681610f30565b92915050565b600080fd5b600080fd5b7f4e487b7100000000000000000000000000000000000000000000000000000000600052604160045260246000fd5b610f9e82610de2565b810181811067ffffffffffffffff82111715610fbd57610fbc610f66565b5b80604052505050565b6000610fd0610f1c565b9050610fdc8282610f95565b919050565b600067ffffffffffffffff821115610ffc57610ffb610f66565b5b61100582610de2565b9050602081019050919050565b82818337600083830152505050565b600061103461102f84610fe1565b610fc6565b9050828152602081018484840111156110505761104f610f61565b5b61105b848285611012565b509392505050565b600082601f83011261107857611077610f5c565b5b8135611088848260208601611021565b91505092915050565b600080604083850312156110a8576110a7610f26565b5b60006110b685828601610f47565b925050602083013567ffffffffffffffff8111156110d7576110d6610f2b565b5b6110e385828601611063565b9150509250929050565b60006110f882610e9a565b9050919050565b611108816110ed565b82525050565b600060208201905061112360008301846110ff565b92915050565b600061113482610e9a565b9050919050565b61114481611129565b82525050565b600060208201905061115f600083018461113b565b92915050565b600061117082610e9a565b9050919050565b61118081611165565b82525050565b600060208201905061119b6000830184611177565b92915050565b7f4e487b7100000000000000000000000000000000000000000000000000000000600052602260045260246000fd5b600060028204905060018216806111e857607f821691505b6020821081036111fb576111fa6111a1565b5b50919050565b600061120c82610e4e565b9050919050565b61121c81611201565b82525050565b60006020820190506112376000830184611213565b92915050565b60008151905061124c81610f30565b92915050565b60006020828403121561126857611267610f26565b5b60006112768482850161123d565b91505092915050565b61128881611201565b811461129357600080fd5b50565b6000815190506112a58161127f565b92915050565b6000602082840312156112c1576112c0610f26565b5b60006112cf84828501611296565b91505092915050565b7f4e6f7420656e6f75676800000000000000000000000000000000000000000000600082015250565b600061130e600a83610da7565b9150611319826112d8565b602082019050919050565b6000602082019050818103600083015261133d81611301565b9050919050565b60006060820190506113596000830186611213565b6113666020830185611213565b6113736040830184610ef2565b949350505050565b60008115159050919050565b6113908161137b565b811461139b57600080fd5b50565b6000815190506113ad81611387565b92915050565b6000602082840312156113c9576113c8610f26565b5b60006113d78482850161139e565b91505092915050565b600060a0820190506113f56000830188611213565b6114026020830187611213565b61140f6040830186610ef2565b81810360608301526114218185610df3565b90506114306080830184610ef2565b9695505050505050565b7f4e487b7100000000000000000000000000000000000000000000000000000000600052601160045260246000fd5b600061147482610ee8565b915061147f83610ee8565b92508282019050808211156114975761149661143a565b5b92915050565b60006114a882610ee8565b91506114b383610ee8565b92508282026114c181610ee8565b915082820484148315176114d8576114d761143a565b5b5092915050565b7f4e487b7100000000000000000000000000000000000000000000000000000000600052601260045260246000fd5b600061151982610ee8565b915061152483610ee8565b925082611534576115336114df565b5b828204905092915050565b600061154a82610ee8565b915061155583610ee8565b925082820390508181111561156d5761156c61143a565b5b92915050565b600067ffffffffffffffff82111561158e5761158d610f66565b5b602082029050602081019050919050565b600080fd5b600080fd5b600080fd5b60006115c16115bc84610fe1565b610fc6565b9050828152602081018484840111156115dd576115dc610f61565b5b6115e8848285610db8565b509392505050565b600082601f83011261160557611604610f5c565b5b81516116158482602086016115ae565b91505092915050565b600060a08284031215611634576116336115a4565b5b61163e60a0610fc6565b9050600061164e84828501611296565b600083015250602061166284828501611296565b60208301525060406116768482850161123d565b604083015250606082015167ffffffffffffffff81111561169a576116996115a9565b5b6116a6848285016115f0565b60608301525060806116ba8482850161123d565b60808301525092915050565b60006116d96116d484611573565b610fc6565b905080838252602082019050602084028301858111156116fc576116fb61159f565b5b835b8181101561174357805167ffffffffffffffff81111561172157611720610f5c565b5b80860161172e898261161e565b855260208501945050506020810190506116fe565b5050509392505050565b600082601f83011261176257611761610f5c565b5b81516117728482602086016116c6565b91505092915050565b60006020828403121561179157611790610f26565b5b600082015167ffffffffffffffff8111156117af576117ae610f2b565b5b6117bb8482850161174d565b91505092915050565b7f4e487b7100000000000000000000000000000000000000000000000000000000600052603260045260246000fd5b60006040820190506118086000830185611213565b6118156020830184610ef2565b9392505050565b600061182782610ee8565b91507fffffffffffffffffffffffffffffffffffffffffffffffffffffffffffffffff82036118595761185861143a565b5b60018201905091905056fea264697066735822122089bd807c59228c0aef4c887416d238a5191eafe1680ac6826cc7bd75b3b867aa64736f6c63430008110033",
  "linkReferences": {},
  "deployedLinkReferences": {}
}