{
  "_format": "hh-sol-artifact-1",
  "contractName": "ProjectPool",
  "sourceName": "contracts/ProjectPool.sol",
  "abi": [
    {
      "inputs": [
        {
          "internalType": "address",
          "name": "_ownerPoolAddress",
          "type": "address"
        },
        {
          "internalType": "address",
          "name": "_belongDaoAddress",
          "type": "address"
        },
        {
          "internalType": "string",
          "name": "_projectName",
          "type": "string"
        },
        {
          "internalType": "string",
          "name": "_projectContents",
          "type": "string"
        },
        {
          "internalType": "string",
          "name": "_projectReword",
          "type": "string"
        }
      ],
      "stateMutability": "nonpayable",
      "type": "constructor"
    },
    {
      "inputs": [],
      "name": "cheersDapp",
      "outputs": [
        {
          "internalType": "contract ICheers",
          "name": "",
          "type": "address"
        }
      ],
      "stateMutability": "view",
      "type": "function"
    },
    {
      "inputs": [],
      "name": "cher",
      "outputs": [
        {
          "internalType": "contract IERC20",
          "name": "",
          "type": "address"
        }
      ],
      "stateMutability": "view",
      "type": "function"
    },
    {
      "inputs": [],
      "name": "getAllCheers",
      "outputs": [
        {
          "components": [
            {
              "internalType": "address",
              "name": "cheerPoolAddress",
              "type": "address"
            },
            {
              "internalType": "uint256",
              "name": "timestamp",
              "type": "uint256"
            },
            {
              "internalType": "string",
              "name": "message",
              "type": "string"
            },
            {
              "internalType": "uint256",
              "name": "cher",
              "type": "uint256"
            }
          ],
          "internalType": "struct SharedStruct.Cheer[]",
          "name": "",
          "type": "tuple[]"
        }
      ],
      "stateMutability": "view",
      "type": "function"
    },
    {
      "inputs": [],
      "name": "getTotalCher",
      "outputs": [
        {
          "internalType": "uint256",
          "name": "",
          "type": "uint256"
        }
      ],
      "stateMutability": "view",
      "type": "function"
    },
    {
      "inputs": [
        {
          "internalType": "uint256",
          "name": "_cher",
          "type": "uint256"
        },
        {
          "internalType": "string",
          "name": "_cheerMessage",
          "type": "string"
        }
      ],
      "name": "mintCheer",
      "outputs": [],
      "stateMutability": "nonpayable",
      "type": "function"
    },
    {
      "inputs": [],
      "name": "poolListData",
      "outputs": [
        {
          "internalType": "contract IPoolListData",
          "name": "",
          "type": "address"
        }
      ],
      "stateMutability": "view",
      "type": "function"
    },
    {
      "inputs": [],
      "name": "projectContents",
      "outputs": [
        {
          "internalType": "string",
          "name": "",
          "type": "string"
        }
      ],
      "stateMutability": "view",
      "type": "function"
    },
    {
      "inputs": [],
      "name": "projectName",
      "outputs": [
        {
          "internalType": "string",
          "name": "",
          "type": "string"
        }
      ],
      "stateMutability": "view",
      "type": "function"
    },
    {
      "inputs": [],
      "name": "projectReword",
      "outputs": [
        {
          "internalType": "string",
          "name": "",
          "type": "string"
        }
      ],
      "stateMutability": "view",
      "type": "function"
    },
    {
      "inputs": [
        {
          "internalType": "address",
          "name": "CHERAddress",
          "type": "address"
        }
      ],
      "name": "setCHER",
      "outputs": [],
      "stateMutability": "nonpayable",
      "type": "function"
    },
    {
      "inputs": [
        {
          "internalType": "address",
          "name": "poolListDataAddress",
          "type": "address"
        }
      ],
      "name": "setPoolListData",
      "outputs": [],
      "stateMutability": "nonpayable",
      "type": "function"
    }
  ],
  "bytecode": "0x60806040527338d4172dde4e50a8cdd8b39abc572443d18ad72d600960006101000a81548173ffffffffffffffffffffffffffffffffffffffff021916908373ffffffffffffffffffffffffffffffffffffffff1602179055503480156200006657600080fd5b506040516200235b3803806200235b83398181016040528101906200008c9190620004b0565b600c60009054906101000a900473ffffffffffffffffffffffffffffffffffffffff16600d60006101000a81548173ffffffffffffffffffffffffffffffffffffffff021916908373ffffffffffffffffffffffffffffffffffffffff160217905550600960009054906101000a900473ffffffffffffffffffffffffffffffffffffffff166000806101000a81548173ffffffffffffffffffffffffffffffffffffffff021916908373ffffffffffffffffffffffffffffffffffffffff160217905550600260009054906101000a900473ffffffffffffffffffffffffffffffffffffffff16600160006101000a81548173ffffffffffffffffffffffffffffffffffffffff021916908373ffffffffffffffffffffffffffffffffffffffff16021790555033600360006101000a81548173ffffffffffffffffffffffffffffffffffffffff021916908373ffffffffffffffffffffffffffffffffffffffff16021790555084600460006101000a81548173ffffffffffffffffffffffffffffffffffffffff021916908373ffffffffffffffffffffffffffffffffffffffff16021790555083600560006101000a81548173ffffffffffffffffffffffffffffffffffffffff021916908373ffffffffffffffffffffffffffffffffffffffff1602179055508260069081620002889190620007e0565b5081600790816200029a9190620007e0565b508060089081620002ac9190620007e0565b505050505050620008c7565b6000604051905090565b600080fd5b600080fd5b600073ffffffffffffffffffffffffffffffffffffffff82169050919050565b6000620002f982620002cc565b9050919050565b6200030b81620002ec565b81146200031757600080fd5b50565b6000815190506200032b8162000300565b92915050565b600080fd5b600080fd5b6000601f19601f8301169050919050565b7f4e487b7100000000000000000000000000000000000000000000000000000000600052604160045260246000fd5b62000386826200033b565b810181811067ffffffffffffffff82111715620003a857620003a76200034c565b5b80604052505050565b6000620003bd620002b8565b9050620003cb82826200037b565b919050565b600067ffffffffffffffff821115620003ee57620003ed6200034c565b5b620003f9826200033b565b9050602081019050919050565b60005b838110156200042657808201518184015260208101905062000409565b60008484015250505050565b6000620004496200044384620003d0565b620003b1565b90508281526020810184848401111562000468576200046762000336565b5b6200047584828562000406565b509392505050565b600082601f83011262000495576200049462000331565b5b8151620004a784826020860162000432565b91505092915050565b600080600080600060a08688031215620004cf57620004ce620002c2565b5b6000620004df888289016200031a565b9550506020620004f2888289016200031a565b945050604086015167ffffffffffffffff811115620005165762000515620002c7565b5b62000524888289016200047d565b935050606086015167ffffffffffffffff811115620005485762000547620002c7565b5b62000556888289016200047d565b925050608086015167ffffffffffffffff8111156200057a5762000579620002c7565b5b62000588888289016200047d565b9150509295509295909350565b600081519050919050565b7f4e487b7100000000000000000000000000000000000000000000000000000000600052602260045260246000fd5b60006002820490506001821680620005e857607f821691505b602082108103620005fe57620005fd620005a0565b5b50919050565b60008190508160005260206000209050919050565b60006020601f8301049050919050565b600082821b905092915050565b600060088302620006687fffffffffffffffffffffffffffffffffffffffffffffffffffffffffffffffff8262000629565b62000674868362000629565b95508019841693508086168417925050509392505050565b6000819050919050565b6000819050919050565b6000620006c1620006bb620006b5846200068c565b62000696565b6200068c565b9050919050565b6000819050919050565b620006dd83620006a0565b620006f5620006ec82620006c8565b84845462000636565b825550505050565b600090565b6200070c620006fd565b62000719818484620006d2565b505050565b5b8181101562000741576200073560008262000702565b6001810190506200071f565b5050565b601f82111562000790576200075a8162000604565b620007658462000619565b8101602085101562000775578190505b6200078d620007848562000619565b8301826200071e565b50505b505050565b600082821c905092915050565b6000620007b56000198460080262000795565b1980831691505092915050565b6000620007d08383620007a2565b9150826002028217905092915050565b620007eb8262000595565b67ffffffffffffffff8111156200080757620008066200034c565b5b620008138254620005cf565b6200082082828562000745565b600060209050601f83116001811462000858576000841562000843578287015190505b6200084f8582620007c2565b865550620008bf565b601f198416620008688662000604565b60005b8281101562000892578489015182556001820191506020850194506020810190506200086b565b86831015620008b25784890151620008ae601f891682620007a2565b8355505b6001600288020188555050505b505050505050565b611a8480620008d76000396000f3fe608060405234801561001057600080fd5b50600436106100a95760003560e01c806332b04e2b1161007157806332b04e2b146101425780635e001c341461016057806365550ba41461017c57806371b3423d146101985780639a33e300146101b6578063f6acee23146101d4576100a9565b806316e66f43146100ae5780631a314956146100ca5780631b5feff5146100e85780631d90fb1f14610106578063250a12d914610124575b600080fd5b6100c860048036038101906100c39190610e7a565b6101f2565b005b6100d2610236565b6040516100df9190610f37565b60405180910390f35b6100f06102c4565b6040516100fd91906110f0565b60405180910390f35b61010e61041f565b60405161011b9190611171565b60405180910390f35b61012c610445565b604051610139919061119b565b60405180910390f35b61014a6104e7565b6040516101579190610f37565b60405180910390f35b61017a60048036038101906101759190610e7a565b610575565b005b61019660048036038101906101919190611317565b6105b8565b005b6101a061073c565b6040516101ad9190611394565b60405180910390f35b6101be610762565b6040516101cb9190610f37565b60405180910390f35b6101dc6107f0565b6040516101e991906113d0565b60405180910390f35b80600d60006101000a81548173ffffffffffffffffffffffffffffffffffffffff021916908373ffffffffffffffffffffffffffffffffffffffff16021790555050565b600780546102439061141a565b80601f016020809104026020016040519081016040528092919081815260200182805461026f9061141a565b80156102bc5780601f10610291576101008083540402835291602001916102bc565b820191906000526020600020905b81548152906001019060200180831161029f57829003601f168201915b505050505081565b6060600a805480602002602001604051908101604052809291908181526020016000905b8282101561041657838290600052602060002090600402016040518060800160405290816000820160009054906101000a900473ffffffffffffffffffffffffffffffffffffffff1673ffffffffffffffffffffffffffffffffffffffff1673ffffffffffffffffffffffffffffffffffffffff1681526020016001820154815260200160028201805461037b9061141a565b80601f01602080910402602001604051908101604052809291908181526020018280546103a79061141a565b80156103f45780601f106103c9576101008083540402835291602001916103f4565b820191906000526020600020905b8154815290600101906020018083116103d757829003601f168201915b50505050508152602001600382015481525050815260200190600101906102e8565b50505050905090565b600160009054906101000a900473ffffffffffffffffffffffffffffffffffffffff1681565b60008060009054906101000a900473ffffffffffffffffffffffffffffffffffffffff1673ffffffffffffffffffffffffffffffffffffffff166370a08231306040518263ffffffff1660e01b81526004016104a1919061145a565b602060405180830381865afa1580156104be573d6000803e3d6000fd5b505050506040513d601f19601f820116820180604052508101906104e2919061148a565b905090565b600880546104f49061141a565b80601f01602080910402602001604051908101604052809291908181526020018280546105209061141a565b801561056d5780601f106105425761010080835404028352916020019161056d565b820191906000526020600020905b81548152906001019060200180831161055057829003601f168201915b505050505081565b806000806101000a81548173ffffffffffffffffffffffffffffffffffffffff021916908373ffffffffffffffffffffffffffffffffffffffff16021790555050565b8160008054906101000a900473ffffffffffffffffffffffffffffffffffffffff1673ffffffffffffffffffffffffffffffffffffffff166370a08231600d60009054906101000a900473ffffffffffffffffffffffffffffffffffffffff1673ffffffffffffffffffffffffffffffffffffffff16631599a352336040518263ffffffff1660e01b8152600401610650919061145a565b602060405180830381865afa15801561066d573d6000803e3d6000fd5b505050506040513d601f19601f8201168201806040525081019061069191906114cc565b6040518263ffffffff1660e01b81526004016106ad919061145a565b602060405180830381865afa1580156106ca573d6000803e3d6000fd5b505050506040513d601f19601f820116820180604052508101906106ee919061148a565b1161072e576040517f08c379a000000000000000000000000000000000000000000000000000000000815260040161072590611545565b60405180910390fd5b6107388282610814565b5050565b600d60009054906101000a900473ffffffffffffffffffffffffffffffffffffffff1681565b6006805461076f9061141a565b80601f016020809104026020016040519081016040528092919081815260200182805461079b9061141a565b80156107e85780601f106107bd576101008083540402835291602001916107e8565b820191906000526020600020905b8154815290600101906020018083116107cb57829003601f168201915b505050505081565b60008054906101000a900473ffffffffffffffffffffffffffffffffffffffff1681565b60008054906101000a900473ffffffffffffffffffffffffffffffffffffffff1673ffffffffffffffffffffffffffffffffffffffff166323b872dd600d60009054906101000a900473ffffffffffffffffffffffffffffffffffffffff1673ffffffffffffffffffffffffffffffffffffffff16631599a352336040518263ffffffff1660e01b81526004016108ab919061145a565b602060405180830381865afa1580156108c8573d6000803e3d6000fd5b505050506040513d601f19601f820116820180604052508101906108ec91906114cc565b30856040518463ffffffff1660e01b815260040161090c93929190611565565b6020604051808303816000875af115801561092b573d6000803e3d6000fd5b505050506040513d601f19601f8201168201806040525081019061094f91906115d4565b50600a6040518060800160405280600d60009054906101000a900473ffffffffffffffffffffffffffffffffffffffff1673ffffffffffffffffffffffffffffffffffffffff16631599a352336040518263ffffffff1660e01b81526004016109b8919061145a565b602060405180830381865afa1580156109d5573d6000803e3d6000fd5b505050506040513d601f19601f820116820180604052508101906109f991906114cc565b73ffffffffffffffffffffffffffffffffffffffff16815260200142815260200183815260200184815250908060018154018082558091505060019003906000526020600020906004020160009091909190915060008201518160000160006101000a81548173ffffffffffffffffffffffffffffffffffffffff021916908373ffffffffffffffffffffffffffffffffffffffff160217905550602082015181600101556040820151816002019081610ab391906117a3565b50606082015181600301555050610ac982610acd565b5050565b80600b6000828254610adf91906118a4565b9250508190555060006064604683610af791906118d8565b610b019190611949565b905060006064601984610b1491906118d8565b610b1e9190611949565b90506000818385610b2f919061197a565b610b39919061197a565b905060005b600a80549050811015610c7f5760008054906101000a900473ffffffffffffffffffffffffffffffffffffffff1673ffffffffffffffffffffffffffffffffffffffff1663a9059cbb600a8381548110610b9b57610b9a6119ae565b5b906000526020600020906004020160000160009054906101000a900473ffffffffffffffffffffffffffffffffffffffff16600b54600a8581548110610be457610be36119ae565b5b90600052602060002090600402016003015488610c0191906118d8565b610c0b9190611949565b6040518363ffffffff1660e01b8152600401610c289291906119dd565b6020604051808303816000875af1158015610c47573d6000803e3d6000fd5b505050506040513d601f19601f82011682018060405250810190610c6b91906115d4565b508080610c7790611a06565b915050610b3e565b5060008054906101000a900473ffffffffffffffffffffffffffffffffffffffff1673ffffffffffffffffffffffffffffffffffffffff1663a9059cbb600460009054906101000a900473ffffffffffffffffffffffffffffffffffffffff16846040518363ffffffff1660e01b8152600401610cfd9291906119dd565b6020604051808303816000875af1158015610d1c573d6000803e3d6000fd5b505050506040513d601f19601f82011682018060405250810190610d4091906115d4565b5060008054906101000a900473ffffffffffffffffffffffffffffffffffffffff1673ffffffffffffffffffffffffffffffffffffffff1663a9059cbb600560009054906101000a900473ffffffffffffffffffffffffffffffffffffffff16836040518363ffffffff1660e01b8152600401610dbe9291906119dd565b6020604051808303816000875af1158015610ddd573d6000803e3d6000fd5b505050506040513d601f19601f82011682018060405250810190610e0191906115d4565b5050505050565b6000604051905090565b600080fd5b600080fd5b600073ffffffffffffffffffffffffffffffffffffffff82169050919050565b6000610e4782610e1c565b9050919050565b610e5781610e3c565b8114610e6257600080fd5b50565b600081359050610e7481610e4e565b92915050565b600060208284031215610e9057610e8f610e12565b5b6000610e9e84828501610e65565b91505092915050565b600081519050919050565b600082825260208201905092915050565b60005b83811015610ee1578082015181840152602081019050610ec6565b60008484015250505050565b6000601f19601f8301169050919050565b6000610f0982610ea7565b610f138185610eb2565b9350610f23818560208601610ec3565b610f2c81610eed565b840191505092915050565b60006020820190508181036000830152610f518184610efe565b905092915050565b600081519050919050565b600082825260208201905092915050565b6000819050602082019050919050565b610f8e81610e3c565b82525050565b6000819050919050565b610fa781610f94565b82525050565b600082825260208201905092915050565b6000610fc982610ea7565b610fd38185610fad565b9350610fe3818560208601610ec3565b610fec81610eed565b840191505092915050565b600060808301600083015161100f6000860182610f85565b5060208301516110226020860182610f9e565b506040830151848203604086015261103a8282610fbe565b915050606083015161104f6060860182610f9e565b508091505092915050565b60006110668383610ff7565b905092915050565b6000602082019050919050565b600061108682610f59565b6110908185610f64565b9350836020820285016110a285610f75565b8060005b858110156110de57848403895281516110bf858261105a565b94506110ca8361106e565b925060208a019950506001810190506110a6565b50829750879550505050505092915050565b6000602082019050818103600083015261110a818461107b565b905092915050565b6000819050919050565b600061113761113261112d84610e1c565b611112565b610e1c565b9050919050565b60006111498261111c565b9050919050565b600061115b8261113e565b9050919050565b61116b81611150565b82525050565b60006020820190506111866000830184611162565b92915050565b61119581610f94565b82525050565b60006020820190506111b0600083018461118c565b92915050565b6111bf81610f94565b81146111ca57600080fd5b50565b6000813590506111dc816111b6565b92915050565b600080fd5b600080fd5b7f4e487b7100000000000000000000000000000000000000000000000000000000600052604160045260246000fd5b61122482610eed565b810181811067ffffffffffffffff82111715611243576112426111ec565b5b80604052505050565b6000611256610e08565b9050611262828261121b565b919050565b600067ffffffffffffffff821115611282576112816111ec565b5b61128b82610eed565b9050602081019050919050565b82818337600083830152505050565b60006112ba6112b584611267565b61124c565b9050828152602081018484840111156112d6576112d56111e7565b5b6112e1848285611298565b509392505050565b600082601f8301126112fe576112fd6111e2565b5b813561130e8482602086016112a7565b91505092915050565b6000806040838503121561132e5761132d610e12565b5b600061133c858286016111cd565b925050602083013567ffffffffffffffff81111561135d5761135c610e17565b5b611369858286016112e9565b9150509250929050565b600061137e8261113e565b9050919050565b61138e81611373565b82525050565b60006020820190506113a96000830184611385565b92915050565b60006113ba8261113e565b9050919050565b6113ca816113af565b82525050565b60006020820190506113e560008301846113c1565b92915050565b7f4e487b7100000000000000000000000000000000000000000000000000000000600052602260045260246000fd5b6000600282049050600182168061143257607f821691505b602082108103611445576114446113eb565b5b50919050565b61145481610e3c565b82525050565b600060208201905061146f600083018461144b565b92915050565b600081519050611484816111b6565b92915050565b6000602082840312156114a05761149f610e12565b5b60006114ae84828501611475565b91505092915050565b6000815190506114c681610e4e565b92915050565b6000602082840312156114e2576114e1610e12565b5b60006114f0848285016114b7565b91505092915050565b7f4e6f7420656e6f75676800000000000000000000000000000000000000000000600082015250565b600061152f600a83610eb2565b915061153a826114f9565b602082019050919050565b6000602082019050818103600083015261155e81611522565b9050919050565b600060608201905061157a600083018661144b565b611587602083018561144b565b611594604083018461118c565b949350505050565b60008115159050919050565b6115b18161159c565b81146115bc57600080fd5b50565b6000815190506115ce816115a8565b92915050565b6000602082840312156115ea576115e9610e12565b5b60006115f8848285016115bf565b91505092915050565b60008190508160005260206000209050919050565b60006020601f8301049050919050565b600082821b905092915050565b6000600883026116637fffffffffffffffffffffffffffffffffffffffffffffffffffffffffffffffff82611626565b61166d8683611626565b95508019841693508086168417925050509392505050565b60006116a061169b61169684610f94565b611112565b610f94565b9050919050565b6000819050919050565b6116ba83611685565b6116ce6116c6826116a7565b848454611633565b825550505050565b600090565b6116e36116d6565b6116ee8184846116b1565b505050565b5b81811015611712576117076000826116db565b6001810190506116f4565b5050565b601f8211156117575761172881611601565b61173184611616565b81016020851015611740578190505b61175461174c85611616565b8301826116f3565b50505b505050565b600082821c905092915050565b600061177a6000198460080261175c565b1980831691505092915050565b60006117938383611769565b9150826002028217905092915050565b6117ac82610ea7565b67ffffffffffffffff8111156117c5576117c46111ec565b5b6117cf825461141a565b6117da828285611716565b600060209050601f83116001811461180d57600084156117fb578287015190505b6118058582611787565b86555061186d565b601f19841661181b86611601565b60005b828110156118435784890151825560018201915060208501945060208101905061181e565b86831015611860578489015161185c601f891682611769565b8355505b6001600288020188555050505b505050505050565b7f4e487b7100000000000000000000000000000000000000000000000000000000600052601160045260246000fd5b60006118af82610f94565b91506118ba83610f94565b92508282019050808211156118d2576118d1611875565b5b92915050565b60006118e382610f94565b91506118ee83610f94565b92508282026118fc81610f94565b9150828204841483151761191357611912611875565b5b5092915050565b7f4e487b7100000000000000000000000000000000000000000000000000000000600052601260045260246000fd5b600061195482610f94565b915061195f83610f94565b92508261196f5761196e61191a565b5b828204905092915050565b600061198582610f94565b915061199083610f94565b92508282039050818111156119a8576119a7611875565b5b92915050565b7f4e487b7100000000000000000000000000000000000000000000000000000000600052603260045260246000fd5b60006040820190506119f2600083018561144b565b6119ff602083018461118c565b9392505050565b6000611a1182610f94565b91507fffffffffffffffffffffffffffffffffffffffffffffffffffffffffffffffff8203611a4357611a42611875565b5b60018201905091905056fea26469706673582212204288074dcdd738f7593e8d95879eb36a7a61e032aab6a7b742e55f5a7b9458fe64736f6c63430008110033",
  "linkReferences": {},
  "deployedLinkReferences": {}
}