{
  "_format": "hh-sol-artifact-1",
  "contractName": "ProjectPool",
  "sourceName": "contracts/ProjectPool.sol",
  "abi": [
    {
      "inputs": [
        {
          "internalType": "address",
          "name": "_belongDaoAddress",
          "type": "address"
        },
        {
          "internalType": "string",
          "name": "_projectName",
          "type": "string"
        },
        {
          "internalType": "string",
          "name": "_projectContents",
          "type": "string"
        },
        {
          "internalType": "string",
          "name": "_projectReword",
          "type": "string"
        },
        {
          "internalType": "address",
          "name": "_cheersDappAddress",
          "type": "address"
        }
      ],
      "stateMutability": "nonpayable",
      "type": "constructor"
    },
    {
      "inputs": [],
      "name": "cheersDapp",
      "outputs": [
        {
          "internalType": "contract ICheers",
          "name": "",
          "type": "address"
        }
      ],
      "stateMutability": "view",
      "type": "function"
    },
    {
      "inputs": [],
      "name": "cher",
      "outputs": [
        {
          "internalType": "contract IERC20",
          "name": "",
          "type": "address"
        }
      ],
      "stateMutability": "view",
      "type": "function"
    },
    {
      "inputs": [],
      "name": "getAllCheers",
      "outputs": [
        {
          "components": [
            {
              "internalType": "address",
              "name": "cheerPoolAddress",
              "type": "address"
            },
            {
              "internalType": "uint256",
              "name": "timestamp",
              "type": "uint256"
            },
            {
              "internalType": "string",
              "name": "message",
              "type": "string"
            },
            {
              "internalType": "uint256",
              "name": "cher",
              "type": "uint256"
            }
          ],
          "internalType": "struct SharedStruct.Cheer[]",
          "name": "",
          "type": "tuple[]"
        }
      ],
      "stateMutability": "view",
      "type": "function"
    },
    {
      "inputs": [],
      "name": "getTotalCher",
      "outputs": [
        {
          "internalType": "uint256",
          "name": "",
          "type": "uint256"
        }
      ],
      "stateMutability": "view",
      "type": "function"
    },
    {
      "inputs": [
        {
          "internalType": "uint256",
          "name": "_cher",
          "type": "uint256"
        },
        {
          "internalType": "string",
          "name": "_cheerMessage",
          "type": "string"
        }
      ],
      "name": "mintCheer",
      "outputs": [],
      "stateMutability": "nonpayable",
      "type": "function"
    },
    {
      "inputs": [],
      "name": "projectContents",
      "outputs": [
        {
          "internalType": "string",
          "name": "",
          "type": "string"
        }
      ],
      "stateMutability": "view",
      "type": "function"
    },
    {
      "inputs": [],
      "name": "projectName",
      "outputs": [
        {
          "internalType": "string",
          "name": "",
          "type": "string"
        }
      ],
      "stateMutability": "view",
      "type": "function"
    },
    {
      "inputs": [],
      "name": "projectReword",
      "outputs": [
        {
          "internalType": "string",
          "name": "",
          "type": "string"
        }
      ],
      "stateMutability": "view",
      "type": "function"
    }
  ],
  "bytecode": "0x60806040527338d4172dde4e50a8cdd8b39abc572443d18ad72d600860006101000a81548173ffffffffffffffffffffffffffffffffffffffff021916908373ffffffffffffffffffffffffffffffffffffffff1602179055503480156200006657600080fd5b5060405162001c4538038062001c4583398181016040528101906200008c91906200044d565b600860009054906101000a900473ffffffffffffffffffffffffffffffffffffffff166000806101000a81548173ffffffffffffffffffffffffffffffffffffffff021916908373ffffffffffffffffffffffffffffffffffffffff160217905550600760009054906101000a900473ffffffffffffffffffffffffffffffffffffffff16600160006101000a81548173ffffffffffffffffffffffffffffffffffffffff021916908373ffffffffffffffffffffffffffffffffffffffff16021790555033600260006101000a81548173ffffffffffffffffffffffffffffffffffffffff021916908373ffffffffffffffffffffffffffffffffffffffff16021790555084600360006101000a81548173ffffffffffffffffffffffffffffffffffffffff021916908373ffffffffffffffffffffffffffffffffffffffff1602179055508360049081620001e491906200077d565b508260059081620001f691906200077d565b5081600690816200020891906200077d565b5080600760006101000a81548173ffffffffffffffffffffffffffffffffffffffff021916908373ffffffffffffffffffffffffffffffffffffffff160217905550505050505062000864565b6000604051905090565b600080fd5b600080fd5b600073ffffffffffffffffffffffffffffffffffffffff82169050919050565b6000620002968262000269565b9050919050565b620002a88162000289565b8114620002b457600080fd5b50565b600081519050620002c8816200029d565b92915050565b600080fd5b600080fd5b6000601f19601f8301169050919050565b7f4e487b7100000000000000000000000000000000000000000000000000000000600052604160045260246000fd5b6200032382620002d8565b810181811067ffffffffffffffff82111715620003455762000344620002e9565b5b80604052505050565b60006200035a62000255565b905062000368828262000318565b919050565b600067ffffffffffffffff8211156200038b576200038a620002e9565b5b6200039682620002d8565b9050602081019050919050565b60005b83811015620003c3578082015181840152602081019050620003a6565b60008484015250505050565b6000620003e6620003e0846200036d565b6200034e565b905082815260208101848484011115620004055762000404620002d3565b5b62000412848285620003a3565b509392505050565b600082601f830112620004325762000431620002ce565b5b815162000444848260208601620003cf565b91505092915050565b600080600080600060a086880312156200046c576200046b6200025f565b5b60006200047c88828901620002b7565b955050602086015167ffffffffffffffff811115620004a0576200049f62000264565b5b620004ae888289016200041a565b945050604086015167ffffffffffffffff811115620004d257620004d162000264565b5b620004e0888289016200041a565b935050606086015167ffffffffffffffff81111562000504576200050362000264565b5b62000512888289016200041a565b92505060806200052588828901620002b7565b9150509295509295909350565b600081519050919050565b7f4e487b7100000000000000000000000000000000000000000000000000000000600052602260045260246000fd5b600060028204905060018216806200058557607f821691505b6020821081036200059b576200059a6200053d565b5b50919050565b60008190508160005260206000209050919050565b60006020601f8301049050919050565b600082821b905092915050565b600060088302620006057fffffffffffffffffffffffffffffffffffffffffffffffffffffffffffffffff82620005c6565b620006118683620005c6565b95508019841693508086168417925050509392505050565b6000819050919050565b6000819050919050565b60006200065e62000658620006528462000629565b62000633565b62000629565b9050919050565b6000819050919050565b6200067a836200063d565b62000692620006898262000665565b848454620005d3565b825550505050565b600090565b620006a96200069a565b620006b68184846200066f565b505050565b5b81811015620006de57620006d26000826200069f565b600181019050620006bc565b5050565b601f8211156200072d57620006f781620005a1565b6200070284620005b6565b8101602085101562000712578190505b6200072a6200072185620005b6565b830182620006bb565b50505b505050565b600082821c905092915050565b6000620007526000198460080262000732565b1980831691505092915050565b60006200076d83836200073f565b9150826002028217905092915050565b620007888262000532565b67ffffffffffffffff811115620007a457620007a3620002e9565b5b620007b082546200056c565b620007bd828285620006e2565b600060209050601f831160018114620007f55760008415620007e0578287015190505b620007ec85826200075f565b8655506200085c565b601f1984166200080586620005a1565b60005b828110156200082f5784890151825560018201915060208501945060208101905062000808565b868310156200084f57848901516200084b601f8916826200073f565b8355505b6001600288020188555050505b505050505050565b6113d180620008746000396000f3fe608060405234801561001057600080fd5b50600436106100885760003560e01c806332b04e2b1161005b57806332b04e2b1461010557806365550ba4146101235780639a33e3001461013f578063f6acee231461015d57610088565b80631a3149561461008d5780631b5feff5146100ab5780631d90fb1f146100c9578063250a12d9146100e7575b600080fd5b61009561017b565b6040516100a29190610a3c565b60405180910390f35b6100b3610209565b6040516100c09190610c27565b60405180910390f35b6100d1610364565b6040516100de9190610ca8565b60405180910390f35b6100ef61038a565b6040516100fc9190610cd2565b60405180910390f35b61010d61042c565b60405161011a9190610a3c565b60405180910390f35b61013d60048036038101906101389190610e62565b6104ba565b005b61014761063e565b6040516101549190610a3c565b60405180910390f35b6101656106cc565b6040516101729190610edf565b60405180910390f35b6005805461018890610f29565b80601f01602080910402602001604051908101604052809291908181526020018280546101b490610f29565b80156102015780601f106101d657610100808354040283529160200191610201565b820191906000526020600020905b8154815290600101906020018083116101e457829003601f168201915b505050505081565b60606009805480602002602001604051908101604052809291908181526020016000905b8282101561035b57838290600052602060002090600402016040518060800160405290816000820160009054906101000a900473ffffffffffffffffffffffffffffffffffffffff1673ffffffffffffffffffffffffffffffffffffffff1673ffffffffffffffffffffffffffffffffffffffff168152602001600182015481526020016002820180546102c090610f29565b80601f01602080910402602001604051908101604052809291908181526020018280546102ec90610f29565b80156103395780601f1061030e57610100808354040283529160200191610339565b820191906000526020600020905b81548152906001019060200180831161031c57829003601f168201915b505050505081526020016003820154815250508152602001906001019061022d565b50505050905090565b600160009054906101000a900473ffffffffffffffffffffffffffffffffffffffff1681565b60008060009054906101000a900473ffffffffffffffffffffffffffffffffffffffff1673ffffffffffffffffffffffffffffffffffffffff166370a08231306040518263ffffffff1660e01b81526004016103e69190610f69565b602060405180830381865afa158015610403573d6000803e3d6000fd5b505050506040513d601f19601f820116820180604052508101906104279190610f99565b905090565b6006805461043990610f29565b80601f016020809104026020016040519081016040528092919081815260200182805461046590610f29565b80156104b25780601f10610487576101008083540402835291602001916104b2565b820191906000526020600020905b81548152906001019060200180831161049557829003601f168201915b505050505081565b8160008054906101000a900473ffffffffffffffffffffffffffffffffffffffff1673ffffffffffffffffffffffffffffffffffffffff166370a08231600160009054906101000a900473ffffffffffffffffffffffffffffffffffffffff1673ffffffffffffffffffffffffffffffffffffffff16631599a352336040518263ffffffff1660e01b81526004016105529190610f69565b602060405180830381865afa15801561056f573d6000803e3d6000fd5b505050506040513d601f19601f820116820180604052508101906105939190610ff2565b6040518263ffffffff1660e01b81526004016105af9190610f69565b602060405180830381865afa1580156105cc573d6000803e3d6000fd5b505050506040513d601f19601f820116820180604052508101906105f09190610f99565b11610630576040517f08c379a00000000000000000000000000000000000000000000000000000000081526004016106279061106b565b60405180910390fd5b61063a82826106f0565b5050565b6004805461064b90610f29565b80601f016020809104026020016040519081016040528092919081815260200182805461067790610f29565b80156106c45780601f10610699576101008083540402835291602001916106c4565b820191906000526020600020905b8154815290600101906020018083116106a757829003601f168201915b505050505081565b60008054906101000a900473ffffffffffffffffffffffffffffffffffffffff1681565b60008054906101000a900473ffffffffffffffffffffffffffffffffffffffff1673ffffffffffffffffffffffffffffffffffffffff166323b872dd600160009054906101000a900473ffffffffffffffffffffffffffffffffffffffff1673ffffffffffffffffffffffffffffffffffffffff16631599a352336040518263ffffffff1660e01b81526004016107879190610f69565b602060405180830381865afa1580156107a4573d6000803e3d6000fd5b505050506040513d601f19601f820116820180604052508101906107c89190610ff2565b30856040518463ffffffff1660e01b81526004016107e89392919061108b565b6020604051808303816000875af1158015610807573d6000803e3d6000fd5b505050506040513d601f19601f8201168201806040525081019061082b91906110fa565b5060096040518060800160405280600160009054906101000a900473ffffffffffffffffffffffffffffffffffffffff1673ffffffffffffffffffffffffffffffffffffffff16631599a352336040518263ffffffff1660e01b81526004016108949190610f69565b602060405180830381865afa1580156108b1573d6000803e3d6000fd5b505050506040513d601f19601f820116820180604052508101906108d59190610ff2565b73ffffffffffffffffffffffffffffffffffffffff16815260200142815260200183815260200184815250908060018154018082558091505060019003906000526020600020906004020160009091909190915060008201518160000160006101000a81548173ffffffffffffffffffffffffffffffffffffffff021916908373ffffffffffffffffffffffffffffffffffffffff16021790555060208201518160010155604082015181600201908161098f91906112c9565b506060820151816003015550506109a5826109a9565b5050565b50565b600081519050919050565b600082825260208201905092915050565b60005b838110156109e65780820151818401526020810190506109cb565b60008484015250505050565b6000601f19601f8301169050919050565b6000610a0e826109ac565b610a1881856109b7565b9350610a288185602086016109c8565b610a31816109f2565b840191505092915050565b60006020820190508181036000830152610a568184610a03565b905092915050565b600081519050919050565b600082825260208201905092915050565b6000819050602082019050919050565b600073ffffffffffffffffffffffffffffffffffffffff82169050919050565b6000610ab582610a8a565b9050919050565b610ac581610aaa565b82525050565b6000819050919050565b610ade81610acb565b82525050565b600082825260208201905092915050565b6000610b00826109ac565b610b0a8185610ae4565b9350610b1a8185602086016109c8565b610b23816109f2565b840191505092915050565b6000608083016000830151610b466000860182610abc565b506020830151610b596020860182610ad5565b5060408301518482036040860152610b718282610af5565b9150506060830151610b866060860182610ad5565b508091505092915050565b6000610b9d8383610b2e565b905092915050565b6000602082019050919050565b6000610bbd82610a5e565b610bc78185610a69565b935083602082028501610bd985610a7a565b8060005b85811015610c155784840389528151610bf68582610b91565b9450610c0183610ba5565b925060208a01995050600181019050610bdd565b50829750879550505050505092915050565b60006020820190508181036000830152610c418184610bb2565b905092915050565b6000819050919050565b6000610c6e610c69610c6484610a8a565b610c49565b610a8a565b9050919050565b6000610c8082610c53565b9050919050565b6000610c9282610c75565b9050919050565b610ca281610c87565b82525050565b6000602082019050610cbd6000830184610c99565b92915050565b610ccc81610acb565b82525050565b6000602082019050610ce76000830184610cc3565b92915050565b6000604051905090565b600080fd5b600080fd5b610d0a81610acb565b8114610d1557600080fd5b50565b600081359050610d2781610d01565b92915050565b600080fd5b600080fd5b7f4e487b7100000000000000000000000000000000000000000000000000000000600052604160045260246000fd5b610d6f826109f2565b810181811067ffffffffffffffff82111715610d8e57610d8d610d37565b5b80604052505050565b6000610da1610ced565b9050610dad8282610d66565b919050565b600067ffffffffffffffff821115610dcd57610dcc610d37565b5b610dd6826109f2565b9050602081019050919050565b82818337600083830152505050565b6000610e05610e0084610db2565b610d97565b905082815260208101848484011115610e2157610e20610d32565b5b610e2c848285610de3565b509392505050565b600082601f830112610e4957610e48610d2d565b5b8135610e59848260208601610df2565b91505092915050565b60008060408385031215610e7957610e78610cf7565b5b6000610e8785828601610d18565b925050602083013567ffffffffffffffff811115610ea857610ea7610cfc565b5b610eb485828601610e34565b9150509250929050565b6000610ec982610c75565b9050919050565b610ed981610ebe565b82525050565b6000602082019050610ef46000830184610ed0565b92915050565b7f4e487b7100000000000000000000000000000000000000000000000000000000600052602260045260246000fd5b60006002820490506001821680610f4157607f821691505b602082108103610f5457610f53610efa565b5b50919050565b610f6381610aaa565b82525050565b6000602082019050610f7e6000830184610f5a565b92915050565b600081519050610f9381610d01565b92915050565b600060208284031215610faf57610fae610cf7565b5b6000610fbd84828501610f84565b91505092915050565b610fcf81610aaa565b8114610fda57600080fd5b50565b600081519050610fec81610fc6565b92915050565b60006020828403121561100857611007610cf7565b5b600061101684828501610fdd565b91505092915050565b7f4e6f7420656e6f75676800000000000000000000000000000000000000000000600082015250565b6000611055600a836109b7565b91506110608261101f565b602082019050919050565b6000602082019050818103600083015261108481611048565b9050919050565b60006060820190506110a06000830186610f5a565b6110ad6020830185610f5a565b6110ba6040830184610cc3565b949350505050565b60008115159050919050565b6110d7816110c2565b81146110e257600080fd5b50565b6000815190506110f4816110ce565b92915050565b6000602082840312156111105761110f610cf7565b5b600061111e848285016110e5565b91505092915050565b60008190508160005260206000209050919050565b60006020601f8301049050919050565b600082821b905092915050565b6000600883026111897fffffffffffffffffffffffffffffffffffffffffffffffffffffffffffffffff8261114c565b611193868361114c565b95508019841693508086168417925050509392505050565b60006111c66111c16111bc84610acb565b610c49565b610acb565b9050919050565b6000819050919050565b6111e0836111ab565b6111f46111ec826111cd565b848454611159565b825550505050565b600090565b6112096111fc565b6112148184846111d7565b505050565b5b818110156112385761122d600082611201565b60018101905061121a565b5050565b601f82111561127d5761124e81611127565b6112578461113c565b81016020851015611266578190505b61127a6112728561113c565b830182611219565b50505b505050565b600082821c905092915050565b60006112a060001984600802611282565b1980831691505092915050565b60006112b9838361128f565b9150826002028217905092915050565b6112d2826109ac565b67ffffffffffffffff8111156112eb576112ea610d37565b5b6112f58254610f29565b61130082828561123c565b600060209050601f8311600181146113335760008415611321578287015190505b61132b85826112ad565b865550611393565b601f19841661134186611127565b60005b8281101561136957848901518255600182019150602085019450602081019050611344565b868310156113865784890151611382601f89168261128f565b8355505b6001600288020188555050505b50505050505056fea2646970667358221220faf773270037854d685e181daeafd32047cb595fd4bbc38896c7943ec3e6970564736f6c63430008110033",
  "linkReferences": {},
  "deployedLinkReferences": {}
}