{
  "_format": "hh-sol-artifact-1",
  "contractName": "DaoPoolFactory",
  "sourceName": "contracts/factory/DaoPoolFactory.sol",
  "abi": [
    {
      "inputs": [],
      "stateMutability": "nonpayable",
      "type": "constructor"
    },
    {
      "inputs": [],
      "name": "daosData",
      "outputs": [
        {
          "internalType": "contract IDaosData",
          "name": "",
          "type": "address"
        }
      ],
      "stateMutability": "view",
      "type": "function"
    },
    {
      "inputs": [
        {
          "internalType": "string",
          "name": "_daoName",
          "type": "string"
        },
        {
          "internalType": "string",
          "name": "_daoProfile",
          "type": "string"
        },
        {
          "internalType": "string",
          "name": "_daoIcon",
          "type": "string"
        }
      ],
      "name": "newDaoPoolFactory",
      "outputs": [
        {
          "internalType": "address",
          "name": "",
          "type": "address"
        }
      ],
      "stateMutability": "nonpayable",
      "type": "function"
    },
    {
      "inputs": [],
      "name": "poolListData",
      "outputs": [
        {
          "internalType": "contract IPoolListData",
          "name": "",
          "type": "address"
        }
      ],
      "stateMutability": "view",
      "type": "function"
    }
  ],
  "bytecode": "0x608060405234801561001057600080fd5b5060008054906101000a900473ffffffffffffffffffffffffffffffffffffffff16600160006101000a81548173ffffffffffffffffffffffffffffffffffffffff021916908373ffffffffffffffffffffffffffffffffffffffff160217905550600260009054906101000a900473ffffffffffffffffffffffffffffffffffffffff16600360006101000a81548173ffffffffffffffffffffffffffffffffffffffff021916908373ffffffffffffffffffffffffffffffffffffffff1602179055506156e4806100e46000396000f3fe60806040523480156200001157600080fd5b5060043610620000465760003560e01c806371b3423d146200004b578063ba280f26146200006d578063d5988a3614620000a3575b600080fd5b62000055620000c5565b604051620000649190620004d7565b60405180910390f35b6200008b60048036038101906200008591906200066a565b620000eb565b6040516200009a919062000748565b60405180910390f35b620000ad62000418565b604051620000bc91906200078a565b60405180910390f35b600160009054906101000a900473ffffffffffffffffffffffffffffffffffffffff1681565b60008073ffffffffffffffffffffffffffffffffffffffff16600160009054906101000a900473ffffffffffffffffffffffffffffffffffffffff1673ffffffffffffffffffffffffffffffffffffffff16631599a352336040518263ffffffff1660e01b815260040162000161919062000748565b602060405180830381865afa1580156200017f573d6000803e3d6000fd5b505050506040513d601f19601f82011682018060405250810190620001a59190620007d8565b73ffffffffffffffffffffffffffffffffffffffff1614620001fe576040517f08c379a0000000000000000000000000000000000000000000000000000000008152600401620001f5906200086b565b60405180910390fd5b6000338585853060405162000213906200043e565b6200022395949392919062000905565b604051809103906000f08015801562000240573d6000803e3d6000fd5b509050600360009054906101000a900473ffffffffffffffffffffffffffffffffffffffff1673ffffffffffffffffffffffffffffffffffffffff166302c256f6338787876040518563ffffffff1660e01b8152600401620002a6949392919062000977565b600060405180830381600087803b158015620002c157600080fd5b505af1158015620002d6573d6000803e3d6000fd5b50505050600160009054906101000a900473ffffffffffffffffffffffffffffffffffffffff1673ffffffffffffffffffffffffffffffffffffffff16635e52fe5033836040518363ffffffff1660e01b815260040162000339929190620009d9565b600060405180830381600087803b1580156200035457600080fd5b505af115801562000369573d6000803e3d6000fd5b50505050600160009054906101000a900473ffffffffffffffffffffffffffffffffffffffff1673ffffffffffffffffffffffffffffffffffffffff16631599a352336040518263ffffffff1660e01b8152600401620003ca919062000748565b602060405180830381865afa158015620003e8573d6000803e3d6000fd5b505050506040513d601f19601f820116820180604052508101906200040e9190620007d8565b9150509392505050565b600360009054906101000a900473ffffffffffffffffffffffffffffffffffffffff1681565b614ca88062000a0783390190565b600073ffffffffffffffffffffffffffffffffffffffff82169050919050565b6000819050919050565b600062000497620004916200048b846200044c565b6200046c565b6200044c565b9050919050565b6000620004ab8262000476565b9050919050565b6000620004bf826200049e565b9050919050565b620004d181620004b2565b82525050565b6000602082019050620004ee6000830184620004c6565b92915050565b6000604051905090565b600080fd5b600080fd5b600080fd5b600080fd5b6000601f19601f8301169050919050565b7f4e487b7100000000000000000000000000000000000000000000000000000000600052604160045260246000fd5b6200055d8262000512565b810181811067ffffffffffffffff821117156200057f576200057e62000523565b5b80604052505050565b600062000594620004f4565b9050620005a2828262000552565b919050565b600067ffffffffffffffff821115620005c557620005c462000523565b5b620005d08262000512565b9050602081019050919050565b82818337600083830152505050565b600062000603620005fd84620005a7565b62000588565b9050828152602081018484840111156200062257620006216200050d565b5b6200062f848285620005dd565b509392505050565b600082601f8301126200064f576200064e62000508565b5b813562000661848260208601620005ec565b91505092915050565b600080600060608486031215620006865762000685620004fe565b5b600084013567ffffffffffffffff811115620006a757620006a662000503565b5b620006b58682870162000637565b935050602084013567ffffffffffffffff811115620006d957620006d862000503565b5b620006e78682870162000637565b925050604084013567ffffffffffffffff8111156200070b576200070a62000503565b5b620007198682870162000637565b9150509250925092565b600062000730826200044c565b9050919050565b620007428162000723565b82525050565b60006020820190506200075f600083018462000737565b92915050565b600062000772826200049e565b9050919050565b620007848162000765565b82525050565b6000602082019050620007a1600083018462000779565b92915050565b620007b28162000723565b8114620007be57600080fd5b50565b600081519050620007d281620007a7565b92915050565b600060208284031215620007f157620007f0620004fe565b5b60006200080184828501620007c1565b91505092915050565b600082825260208201905092915050565b7f616c726564792063726561746564210000000000000000000000000000000000600082015250565b600062000853600f836200080a565b915062000860826200081b565b602082019050919050565b60006020820190508181036000830152620008868162000844565b9050919050565b600081519050919050565b60005b83811015620008b85780820151818401526020810190506200089b565b60008484015250505050565b6000620008d1826200088d565b620008dd81856200080a565b9350620008ef81856020860162000898565b620008fa8162000512565b840191505092915050565b600060a0820190506200091c600083018862000737565b8181036020830152620009308187620008c4565b90508181036040830152620009468186620008c4565b905081810360608301526200095c8185620008c4565b90506200096d608083018462000737565b9695505050505050565b60006080820190506200098e600083018762000737565b8181036020830152620009a28186620008c4565b90508181036040830152620009b88185620008c4565b90508181036060830152620009ce8184620008c4565b905095945050505050565b6000604082019050620009f0600083018562000737565b620009ff602083018462000737565b939250505056fe60806040527338d4172dde4e50a8cdd8b39abc572443d18ad72d600a60006101000a81548173ffffffffffffffffffffffffffffffffffffffff021916908373ffffffffffffffffffffffffffffffffffffffff1602179055503480156200006657600080fd5b5060405162004ca838038062004ca883398181016040528101906200008c9190620004af565b600a60009054906101000a900473ffffffffffffffffffffffffffffffffffffffff16600260006101000a81548173ffffffffffffffffffffffffffffffffffffffff021916908373ffffffffffffffffffffffffffffffffffffffff16021790555084600560006101000a81548173ffffffffffffffffffffffffffffffffffffffff021916908373ffffffffffffffffffffffffffffffffffffffff16021790555084600660006101000a81548173ffffffffffffffffffffffffffffffffffffffff021916908373ffffffffffffffffffffffffffffffffffffffff1602179055508360079081620001829190620007df565b508260089081620001949190620007df565b508160099081620001a69190620007df565b5080600460006101000a81548173ffffffffffffffffffffffffffffffffffffffff021916908373ffffffffffffffffffffffffffffffffffffffff160217905550600460009054906101000a900473ffffffffffffffffffffffffffffffffffffffff16600360006101000a81548173ffffffffffffffffffffffffffffffffffffffff021916908373ffffffffffffffffffffffffffffffffffffffff16021790555060008054906101000a900473ffffffffffffffffffffffffffffffffffffffff16600160006101000a81548173ffffffffffffffffffffffffffffffffffffffff021916908373ffffffffffffffffffffffffffffffffffffffff1602179055505050505050620008c6565b6000604051905090565b600080fd5b600080fd5b600073ffffffffffffffffffffffffffffffffffffffff82169050919050565b6000620002f882620002cb565b9050919050565b6200030a81620002eb565b81146200031657600080fd5b50565b6000815190506200032a81620002ff565b92915050565b600080fd5b600080fd5b6000601f19601f8301169050919050565b7f4e487b7100000000000000000000000000000000000000000000000000000000600052604160045260246000fd5b62000385826200033a565b810181811067ffffffffffffffff82111715620003a757620003a66200034b565b5b80604052505050565b6000620003bc620002b7565b9050620003ca82826200037a565b919050565b600067ffffffffffffffff821115620003ed57620003ec6200034b565b5b620003f8826200033a565b9050602081019050919050565b60005b838110156200042557808201518184015260208101905062000408565b60008484015250505050565b6000620004486200044284620003cf565b620003b0565b90508281526020810184848401111562000467576200046662000335565b5b6200047484828562000405565b509392505050565b600082601f83011262000494576200049362000330565b5b8151620004a684826020860162000431565b91505092915050565b600080600080600060a08688031215620004ce57620004cd620002c1565b5b6000620004de8882890162000319565b955050602086015167ffffffffffffffff811115620005025762000501620002c6565b5b62000510888289016200047c565b945050604086015167ffffffffffffffff811115620005345762000533620002c6565b5b62000542888289016200047c565b935050606086015167ffffffffffffffff811115620005665762000565620002c6565b5b62000574888289016200047c565b9250506080620005878882890162000319565b9150509295509295909350565b600081519050919050565b7f4e487b7100000000000000000000000000000000000000000000000000000000600052602260045260246000fd5b60006002820490506001821680620005e757607f821691505b602082108103620005fd57620005fc6200059f565b5b50919050565b60008190508160005260206000209050919050565b60006020601f8301049050919050565b600082821b905092915050565b600060088302620006677fffffffffffffffffffffffffffffffffffffffffffffffffffffffffffffffff8262000628565b62000673868362000628565b95508019841693508086168417925050509392505050565b6000819050919050565b6000819050919050565b6000620006c0620006ba620006b4846200068b565b62000695565b6200068b565b9050919050565b6000819050919050565b620006dc836200069f565b620006f4620006eb82620006c7565b84845462000635565b825550505050565b600090565b6200070b620006fc565b62000718818484620006d1565b505050565b5b8181101562000740576200073460008262000701565b6001810190506200071e565b5050565b601f8211156200078f57620007598162000603565b620007648462000618565b8101602085101562000774578190505b6200078c620007838562000618565b8301826200071d565b50505b505050565b600082821c905092915050565b6000620007b46000198460080262000794565b1980831691505092915050565b6000620007cf8383620007a1565b9150826002028217905092915050565b620007ea8262000594565b67ffffffffffffffff8111156200080657620008056200034b565b5b620008128254620005ce565b6200081f82828562000744565b600060209050601f83116001811462000857576000841562000842578287015190505b6200084e8582620007c1565b865550620008be565b601f198416620008678662000603565b60005b8281101562000891578489015182556001820191506020850194506020810190506200086a565b86831015620008b15784890151620008ad601f891682620007a1565b8355505b6001600288020188555050505b505050505050565b6143d280620008d66000396000f3fe60806040523480156200001157600080fd5b5060043610620001305760003560e01c80636e1c120211620000b1578063cc371c14116200007b578063cc371c141462000315578063d4a4fc4c1462000337578063d4dadf011462000359578063dfaca4a2146200038f578063f6acee2314620003af5762000130565b80636e1c1202146200028f578063a36b5fa214620002b1578063a7319fd814620002d1578063a80fcbf014620002f35762000130565b80634897693611620000ff5780634897693614620001bd5780634a37787014620001df5780634c18308a14620002155780634d7adf09146200024b578063649c3f2b146200026d5762000130565b80631d68702d14620001355780631d90fb1f14620001575780632131c68c14620001795780632f593a0b146200019b575b600080fd5b6200013f620003d1565b6040516200014e9190620013ad565b60405180910390f35b62000161620003fb565b60405162000170919062001435565b60405180910390f35b6200018362000421565b604051620001929190620013ad565b60405180910390f35b620001a562000447565b604051620001b49190620014ec565b60405180910390f35b620001c7620004e1565b604051620001d69190620014ec565b60405180910390f35b620001fd6004803603810190620001f7919062001555565b62000577565b6040516200020c9190620015a4565b60405180910390f35b6200023360048036038101906200022d919062001712565b620006b4565b604051620002429190620013ad565b60405180910390f35b6200025562000713565b604051620002649190620017f0565b60405180910390f35b6200027762000739565b604051620002869190620014ec565b60405180910390f35b62000299620007cf565b604051620002a89190620014ec565b60405180910390f35b620002cf6004803603810190620002c9919062001848565b62000865565b005b620002db62000b5d565b604051620002ea9190620013ad565b60405180910390f35b620002fd62000b65565b6040516200030c9190620014ec565b60405180910390f35b6200031f62000bff565b6040516200032e919062001a26565b60405180910390f35b6200034162000cac565b604051620003509190620014ec565b60405180910390f35b62000377600480360381019062000371919062001555565b62000d46565b604051620003869190620015a4565b60405180910390f35b620003ad6004803603810190620003a7919062001848565b62000fe3565b005b620003b962001295565b604051620003c8919062001a6f565b60405180910390f35b6000600660009054906101000a900473ffffffffffffffffffffffffffffffffffffffff16905090565b600360009054906101000a900473ffffffffffffffffffffffffffffffffffffffff1681565b600660009054906101000a900473ffffffffffffffffffffffffffffffffffffffff1681565b606060088054620004589062001abb565b80601f0160208091040260200160405190810160405280929190818152602001828054620004869062001abb565b8015620004d75780601f10620004ab57610100808354040283529160200191620004d7565b820191906000526020600020905b815481529060010190602001808311620004b957829003601f168201915b5050505050905090565b60078054620004f09062001abb565b80601f01602080910402602001604051908101604052809291908181526020018280546200051e9062001abb565b80156200056f5780601f1062000543576101008083540402835291602001916200056f565b820191906000526020600020905b8154815290600101906020018083116200055157829003601f168201915b505050505081565b6000600c60008373ffffffffffffffffffffffffffffffffffffffff1673ffffffffffffffffffffffffffffffffffffffff16815260200190815260200160002060009054906101000a900460ff1662000608576040517f08c379a0000000000000000000000000000000000000000000000000000000008152600401620005ff9062001b40565b60405180910390fd5b6000600c60008473ffffffffffffffffffffffffffffffffffffffff1673ffffffffffffffffffffffffffffffffffffffff16815260200190815260200160002060006101000a81548160ff021916908315150217905550600c60008373ffffffffffffffffffffffffffffffffffffffff1673ffffffffffffffffffffffffffffffffffffffff16815260200190815260200160002060009054906101000a900460ff169050919050565b6000803030868686604051620006ca906200135a565b620006da95949392919062001b62565b604051809103906000f080158015620006f7573d6000803e3d6000fd5b5090506200070830868686620012bb565b809150509392505050565b600160009054906101000a900473ffffffffffffffffffffffffffffffffffffffff1681565b60088054620007489062001abb565b80601f0160208091040260200160405190810160405280929190818152602001828054620007769062001abb565b8015620007c75780601f106200079b57610100808354040283529160200191620007c7565b820191906000526020600020905b815481529060010190602001808311620007a957829003601f168201915b505050505081565b60098054620007de9062001abb565b80601f01602080910402602001604051908101604052809291908181526020018280546200080c9062001abb565b80156200085d5780601f1062000831576101008083540402835291602001916200085d565b820191906000526020600020905b8154815290600101906020018083116200083f57829003601f168201915b505050505081565b3373ffffffffffffffffffffffffffffffffffffffff16600560009054906101000a900473ffffffffffffffffffffffffffffffffffffffff1673ffffffffffffffffffffffffffffffffffffffff1614620008c057600080fd5b80600260009054906101000a900473ffffffffffffffffffffffffffffffffffffffff1673ffffffffffffffffffffffffffffffffffffffff166370a08231600660009054906101000a900473ffffffffffffffffffffffffffffffffffffffff166040518263ffffffff1660e01b8152600401620009409190620013ad565b602060405180830381865afa1580156200095e573d6000803e3d6000fd5b505050506040513d601f19601f8201168201806040525081019062000984919062001beb565b1015620009c8576040517f08c379a0000000000000000000000000000000000000000000000000000000008152600401620009bf9062001c6d565b60405180910390fd5b600260009054906101000a900473ffffffffffffffffffffffffffffffffffffffff1673ffffffffffffffffffffffffffffffffffffffff1663095ea7b3600660009054906101000a900473ffffffffffffffffffffffffffffffffffffffff16836040518363ffffffff1660e01b815260040162000a4992919062001ca0565b6020604051808303816000875af115801562000a69573d6000803e3d6000fd5b505050506040513d601f19601f8201168201806040525081019062000a8f919062001cfe565b50600260009054906101000a900473ffffffffffffffffffffffffffffffffffffffff1673ffffffffffffffffffffffffffffffffffffffff166323b872dd600660009054906101000a900473ffffffffffffffffffffffffffffffffffffffff1630846040518463ffffffff1660e01b815260040162000b139392919062001d30565b6020604051808303816000875af115801562000b33573d6000803e3d6000fd5b505050506040513d601f19601f8201168201806040525081019062000b59919062001cfe565b5050565b600030905090565b60606009805462000b769062001abb565b80601f016020809104026020016040519081016040528092919081815260200182805462000ba49062001abb565b801562000bf55780601f1062000bc95761010080835404028352916020019162000bf5565b820191906000526020600020905b81548152906001019060200180831162000bd757829003601f168201915b5050505050905090565b6060600160009054906101000a900473ffffffffffffffffffffffffffffffffffffffff1673ffffffffffffffffffffffffffffffffffffffff166358cedf57306040518263ffffffff1660e01b815260040162000c5e9190620013ad565b600060405180830381865afa15801562000c7c573d6000803e3d6000fd5b505050506040513d6000823e3d601f19601f8201168201806040525081019062000ca7919062001fea565b905090565b60606007805462000cbd9062001abb565b80601f016020809104026020016040519081016040528092919081815260200182805462000ceb9062001abb565b801562000d3c5780601f1062000d105761010080835404028352916020019162000d3c565b820191906000526020600020905b81548152906001019060200180831162000d1e57829003601f168201915b5050505050905090565b6000600c60008373ffffffffffffffffffffffffffffffffffffffff1673ffffffffffffffffffffffffffffffffffffffff16815260200190815260200160002060009054906101000a900460ff161562000dd8576040517f08c379a000000000000000000000000000000000000000000000000000000000815260040162000dcf906200208b565b60405180910390fd5b60005b600b8054905081101562000f8e578273ffffffffffffffffffffffffffffffffffffffff16600b828154811062000e175762000e16620020ad565b5b9060005260206000200160009054906101000a900473ffffffffffffffffffffffffffffffffffffffff1673ffffffffffffffffffffffffffffffffffffffff160362000ebc576001600c60008573ffffffffffffffffffffffffffffffffffffffff1673ffffffffffffffffffffffffffffffffffffffff16815260200190815260200160002060006101000a81548160ff02191690831515021790555062000f78565b600b839080600181540180825580915050600190039060005260206000200160009091909190916101000a81548173ffffffffffffffffffffffffffffffffffffffff021916908373ffffffffffffffffffffffffffffffffffffffff1602179055506001600c60008573ffffffffffffffffffffffffffffffffffffffff1673ffffffffffffffffffffffffffffffffffffffff16815260200190815260200160002060006101000a81548160ff0219169083151502179055505b808062000f85906200210b565b91505062000ddb565b50600c60008373ffffffffffffffffffffffffffffffffffffffff1673ffffffffffffffffffffffffffffffffffffffff16815260200190815260200160002060009054906101000a900460ff169050919050565b3373ffffffffffffffffffffffffffffffffffffffff16600560009054906101000a900473ffffffffffffffffffffffffffffffffffffffff1673ffffffffffffffffffffffffffffffffffffffff16146200103e57600080fd5b80600260009054906101000a900473ffffffffffffffffffffffffffffffffffffffff1673ffffffffffffffffffffffffffffffffffffffff166370a08231306040518263ffffffff1660e01b81526004016200109c9190620013ad565b602060405180830381865afa158015620010ba573d6000803e3d6000fd5b505050506040513d601f19601f82011682018060405250810190620010e0919062001beb565b101562001124576040517f08c379a00000000000000000000000000000000000000000000000000000000081526004016200111b9062001c6d565b60405180910390fd5b600260009054906101000a900473ffffffffffffffffffffffffffffffffffffffff1673ffffffffffffffffffffffffffffffffffffffff1663095ea7b330836040518363ffffffff1660e01b81526004016200118392919062001ca0565b6020604051808303816000875af1158015620011a3573d6000803e3d6000fd5b505050506040513d601f19601f82011682018060405250810190620011c9919062001cfe565b50600260009054906101000a900473ffffffffffffffffffffffffffffffffffffffff1673ffffffffffffffffffffffffffffffffffffffff1663a9059cbb600660009054906101000a900473ffffffffffffffffffffffffffffffffffffffff16836040518363ffffffff1660e01b81526004016200124b92919062001ca0565b6020604051808303816000875af11580156200126b573d6000803e3d6000fd5b505050506040513d601f19601f8201168201806040525081019062001291919062001cfe565b5050565b600260009054906101000a900473ffffffffffffffffffffffffffffffffffffffff1681565b600160009054906101000a900473ffffffffffffffffffffffffffffffffffffffff1673ffffffffffffffffffffffffffffffffffffffff16632f92fb2e30868686866040518663ffffffff1660e01b81526004016200132095949392919062001b62565b600060405180830381600087803b1580156200133b57600080fd5b505af115801562001350573d6000803e3d6000fd5b5050505050505050565b612244806200215983390190565b600073ffffffffffffffffffffffffffffffffffffffff82169050919050565b6000620013958262001368565b9050919050565b620013a78162001388565b82525050565b6000602082019050620013c460008301846200139c565b92915050565b6000819050919050565b6000620013f5620013ef620013e98462001368565b620013ca565b62001368565b9050919050565b60006200140982620013d4565b9050919050565b60006200141d82620013fc565b9050919050565b6200142f8162001410565b82525050565b60006020820190506200144c600083018462001424565b92915050565b600081519050919050565b600082825260208201905092915050565b60005b838110156200148e57808201518184015260208101905062001471565b60008484015250505050565b6000601f19601f8301169050919050565b6000620014b88262001452565b620014c481856200145d565b9350620014d68185602086016200146e565b620014e1816200149a565b840191505092915050565b60006020820190508181036000830152620015088184620014ab565b905092915050565b6000604051905090565b600080fd5b600080fd5b6200152f8162001388565b81146200153b57600080fd5b50565b6000813590506200154f8162001524565b92915050565b6000602082840312156200156e576200156d6200151a565b5b60006200157e848285016200153e565b91505092915050565b60008115159050919050565b6200159e8162001587565b82525050565b6000602082019050620015bb600083018462001593565b92915050565b600080fd5b600080fd5b7f4e487b7100000000000000000000000000000000000000000000000000000000600052604160045260246000fd5b62001605826200149a565b810181811067ffffffffffffffff82111715620016275762001626620015cb565b5b80604052505050565b60006200163c62001510565b90506200164a8282620015fa565b919050565b600067ffffffffffffffff8211156200166d576200166c620015cb565b5b62001678826200149a565b9050602081019050919050565b82818337600083830152505050565b6000620016ab620016a5846200164f565b62001630565b905082815260208101848484011115620016ca57620016c9620015c6565b5b620016d784828562001685565b509392505050565b600082601f830112620016f757620016f6620015c1565b5b81356200170984826020860162001694565b91505092915050565b6000806000606084860312156200172e576200172d6200151a565b5b600084013567ffffffffffffffff8111156200174f576200174e6200151f565b5b6200175d86828701620016df565b935050602084013567ffffffffffffffff8111156200178157620017806200151f565b5b6200178f86828701620016df565b925050604084013567ffffffffffffffff811115620017b357620017b26200151f565b5b620017c186828701620016df565b9150509250925092565b6000620017d882620013fc565b9050919050565b620017ea81620017cb565b82525050565b6000602082019050620018076000830184620017df565b92915050565b6000819050919050565b62001822816200180d565b81146200182e57600080fd5b50565b600081359050620018428162001817565b92915050565b6000602082840312156200186157620018606200151a565b5b6000620018718482850162001831565b91505092915050565b600081519050919050565b600082825260208201905092915050565b6000819050602082019050919050565b620018b18162001388565b82525050565b600082825260208201905092915050565b6000620018d58262001452565b620018e18185620018b7565b9350620018f38185602086016200146e565b620018fe816200149a565b840191505092915050565b6000608083016000830151620019236000860182620018a6565b50602083015184820360208601526200193d8282620018c8565b91505060408301518482036040860152620019598282620018c8565b91505060608301518482036060860152620019758282620018c8565b9150508091505092915050565b600062001990838362001909565b905092915050565b6000602082019050919050565b6000620019b2826200187a565b620019be818562001885565b935083602082028501620019d28562001896565b8060005b8581101562001a145784840389528151620019f2858262001982565b9450620019ff8362001998565b925060208a01995050600181019050620019d6565b50829750879550505050505092915050565b6000602082019050818103600083015262001a428184620019a5565b905092915050565b600062001a5782620013fc565b9050919050565b62001a698162001a4a565b82525050565b600060208201905062001a86600083018462001a5e565b92915050565b7f4e487b7100000000000000000000000000000000000000000000000000000000600052602260045260246000fd5b6000600282049050600182168062001ad457607f821691505b60208210810362001aea5762001ae962001a8c565b5b50919050565b7f616c72656479206e6f7420636865657200000000000000000000000000000000600082015250565b600062001b286010836200145d565b915062001b358262001af0565b602082019050919050565b6000602082019050818103600083015262001b5b8162001b19565b9050919050565b600060a08201905062001b7960008301886200139c565b62001b8860208301876200139c565b818103604083015262001b9c8186620014ab565b9050818103606083015262001bb28185620014ab565b9050818103608083015262001bc88184620014ab565b90509695505050505050565b60008151905062001be58162001817565b92915050565b60006020828403121562001c045762001c036200151a565b5b600062001c148482850162001bd4565b91505092915050565b7f6e6f7420696e73756666696369656e7400000000000000000000000000000000600082015250565b600062001c556010836200145d565b915062001c628262001c1d565b602082019050919050565b6000602082019050818103600083015262001c888162001c46565b9050919050565b62001c9a816200180d565b82525050565b600060408201905062001cb760008301856200139c565b62001cc6602083018462001c8f565b9392505050565b62001cd88162001587565b811462001ce457600080fd5b50565b60008151905062001cf88162001ccd565b92915050565b60006020828403121562001d175762001d166200151a565b5b600062001d278482850162001ce7565b91505092915050565b600060608201905062001d4760008301866200139c565b62001d5660208301856200139c565b62001d65604083018462001c8f565b949350505050565b600067ffffffffffffffff82111562001d8b5762001d8a620015cb565b5b602082029050602081019050919050565b600080fd5b600080fd5b600080fd5b60008151905062001dbc8162001524565b92915050565b600062001dd962001dd3846200164f565b62001630565b90508281526020810184848401111562001df85762001df7620015c6565b5b62001e058482856200146e565b509392505050565b600082601f83011262001e255762001e24620015c1565b5b815162001e3784826020860162001dc2565b91505092915050565b60006080828403121562001e595762001e5862001da1565b5b62001e65608062001630565b9050600062001e778482850162001dab565b600083015250602082015167ffffffffffffffff81111562001e9e5762001e9d62001da6565b5b62001eac8482850162001e0d565b602083015250604082015167ffffffffffffffff81111562001ed35762001ed262001da6565b5b62001ee18482850162001e0d565b604083015250606082015167ffffffffffffffff81111562001f085762001f0762001da6565b5b62001f168482850162001e0d565b60608301525092915050565b600062001f3962001f338462001d6d565b62001630565b9050808382526020820190506020840283018581111562001f5f5762001f5e62001d9c565b5b835b8181101562001fad57805167ffffffffffffffff81111562001f885762001f87620015c1565b5b80860162001f97898262001e40565b8552602085019450505060208101905062001f61565b5050509392505050565b600082601f83011262001fcf5762001fce620015c1565b5b815162001fe184826020860162001f22565b91505092915050565b6000602082840312156200200357620020026200151a565b5b600082015167ffffffffffffffff8111156200202457620020236200151f565b5b620020328482850162001fb7565b91505092915050565b7f616c726564792063686565720000000000000000000000000000000000000000600082015250565b600062002073600c836200145d565b915062002080826200203b565b602082019050919050565b60006020820190508181036000830152620020a68162002064565b9050919050565b7f4e487b7100000000000000000000000000000000000000000000000000000000600052603260045260246000fd5b7f4e487b7100000000000000000000000000000000000000000000000000000000600052601160045260246000fd5b600062002118826200180d565b91507fffffffffffffffffffffffffffffffffffffffffffffffffffffffffffffffff82036200214d576200214c620020dc565b5b60018201905091905056fe60806040527338d4172dde4e50a8cdd8b39abc572443d18ad72d600960006101000a81548173ffffffffffffffffffffffffffffffffffffffff021916908373ffffffffffffffffffffffffffffffffffffffff1602179055503480156200006657600080fd5b50604051620022443803806200224483398181016040528101906200008c9190620004b0565b600c60009054906101000a900473ffffffffffffffffffffffffffffffffffffffff16600d60006101000a81548173ffffffffffffffffffffffffffffffffffffffff021916908373ffffffffffffffffffffffffffffffffffffffff160217905550600960009054906101000a900473ffffffffffffffffffffffffffffffffffffffff166000806101000a81548173ffffffffffffffffffffffffffffffffffffffff021916908373ffffffffffffffffffffffffffffffffffffffff160217905550600260009054906101000a900473ffffffffffffffffffffffffffffffffffffffff16600160006101000a81548173ffffffffffffffffffffffffffffffffffffffff021916908373ffffffffffffffffffffffffffffffffffffffff16021790555033600360006101000a81548173ffffffffffffffffffffffffffffffffffffffff021916908373ffffffffffffffffffffffffffffffffffffffff16021790555084600460006101000a81548173ffffffffffffffffffffffffffffffffffffffff021916908373ffffffffffffffffffffffffffffffffffffffff16021790555083600560006101000a81548173ffffffffffffffffffffffffffffffffffffffff021916908373ffffffffffffffffffffffffffffffffffffffff1602179055508260069081620002889190620007e0565b5081600790816200029a9190620007e0565b508060089081620002ac9190620007e0565b505050505050620008c7565b6000604051905090565b600080fd5b600080fd5b600073ffffffffffffffffffffffffffffffffffffffff82169050919050565b6000620002f982620002cc565b9050919050565b6200030b81620002ec565b81146200031757600080fd5b50565b6000815190506200032b8162000300565b92915050565b600080fd5b600080fd5b6000601f19601f8301169050919050565b7f4e487b7100000000000000000000000000000000000000000000000000000000600052604160045260246000fd5b62000386826200033b565b810181811067ffffffffffffffff82111715620003a857620003a76200034c565b5b80604052505050565b6000620003bd620002b8565b9050620003cb82826200037b565b919050565b600067ffffffffffffffff821115620003ee57620003ed6200034c565b5b620003f9826200033b565b9050602081019050919050565b60005b838110156200042657808201518184015260208101905062000409565b60008484015250505050565b6000620004496200044384620003d0565b620003b1565b90508281526020810184848401111562000468576200046762000336565b5b6200047584828562000406565b509392505050565b600082601f83011262000495576200049462000331565b5b8151620004a784826020860162000432565b91505092915050565b600080600080600060a08688031215620004cf57620004ce620002c2565b5b6000620004df888289016200031a565b9550506020620004f2888289016200031a565b945050604086015167ffffffffffffffff811115620005165762000515620002c7565b5b62000524888289016200047d565b935050606086015167ffffffffffffffff811115620005485762000547620002c7565b5b62000556888289016200047d565b925050608086015167ffffffffffffffff8111156200057a5762000579620002c7565b5b62000588888289016200047d565b9150509295509295909350565b600081519050919050565b7f4e487b7100000000000000000000000000000000000000000000000000000000600052602260045260246000fd5b60006002820490506001821680620005e857607f821691505b602082108103620005fe57620005fd620005a0565b5b50919050565b60008190508160005260206000209050919050565b60006020601f8301049050919050565b600082821b905092915050565b600060088302620006687fffffffffffffffffffffffffffffffffffffffffffffffffffffffffffffffff8262000629565b62000674868362000629565b95508019841693508086168417925050509392505050565b6000819050919050565b6000819050919050565b6000620006c1620006bb620006b5846200068c565b62000696565b6200068c565b9050919050565b6000819050919050565b620006dd83620006a0565b620006f5620006ec82620006c8565b84845462000636565b825550505050565b600090565b6200070c620006fd565b62000719818484620006d2565b505050565b5b8181101562000741576200073560008262000702565b6001810190506200071f565b5050565b601f82111562000790576200075a8162000604565b620007658462000619565b8101602085101562000775578190505b6200078d620007848562000619565b8301826200071e565b50505b505050565b600082821c905092915050565b6000620007b56000198460080262000795565b1980831691505092915050565b6000620007d08383620007a2565b9150826002028217905092915050565b620007eb8262000595565b67ffffffffffffffff8111156200080757620008066200034c565b5b620008138254620005cf565b6200082082828562000745565b600060209050601f83116001811462000858576000841562000843578287015190505b6200084f8582620007c2565b865550620008bf565b601f198416620008688662000604565b60005b8281101562000892578489015182556001820191506020850194506020810190506200086b565b86831015620008b25784890151620008ae601f891682620007a2565b8355505b6001600288020188555050505b505050505050565b61196d80620008d76000396000f3fe608060405234801561001057600080fd5b50600436106100935760003560e01c806332b04e2b1161006657806332b04e2b1461011057806365550ba41461012e57806371b3423d1461014a5780639a33e30014610168578063f6acee231461018657610093565b80631a314956146100985780631b5feff5146100b65780631d90fb1f146100d4578063250a12d9146100f2575b600080fd5b6100a06101a4565b6040516100ad9190610dc3565b60405180910390f35b6100be610232565b6040516100cb9190610fae565b60405180910390f35b6100dc61038d565b6040516100e9919061102f565b60405180910390f35b6100fa6103b3565b6040516101079190611059565b60405180910390f35b610118610455565b6040516101259190610dc3565b60405180910390f35b610148600480360381019061014391906111e9565b6104e3565b005b610152610667565b60405161015f9190611266565b60405180910390f35b61017061068d565b60405161017d9190610dc3565b60405180910390f35b61018e61071b565b60405161019b91906112a2565b60405180910390f35b600780546101b1906112ec565b80601f01602080910402602001604051908101604052809291908181526020018280546101dd906112ec565b801561022a5780601f106101ff5761010080835404028352916020019161022a565b820191906000526020600020905b81548152906001019060200180831161020d57829003601f168201915b505050505081565b6060600a805480602002602001604051908101604052809291908181526020016000905b8282101561038457838290600052602060002090600402016040518060800160405290816000820160009054906101000a900473ffffffffffffffffffffffffffffffffffffffff1673ffffffffffffffffffffffffffffffffffffffff1673ffffffffffffffffffffffffffffffffffffffff168152602001600182015481526020016002820180546102e9906112ec565b80601f0160208091040260200160405190810160405280929190818152602001828054610315906112ec565b80156103625780601f1061033757610100808354040283529160200191610362565b820191906000526020600020905b81548152906001019060200180831161034557829003601f168201915b5050505050815260200160038201548152505081526020019060010190610256565b50505050905090565b600160009054906101000a900473ffffffffffffffffffffffffffffffffffffffff1681565b60008060009054906101000a900473ffffffffffffffffffffffffffffffffffffffff1673ffffffffffffffffffffffffffffffffffffffff166370a08231306040518263ffffffff1660e01b815260040161040f919061132c565b602060405180830381865afa15801561042c573d6000803e3d6000fd5b505050506040513d601f19601f82011682018060405250810190610450919061135c565b905090565b60088054610462906112ec565b80601f016020809104026020016040519081016040528092919081815260200182805461048e906112ec565b80156104db5780601f106104b0576101008083540402835291602001916104db565b820191906000526020600020905b8154815290600101906020018083116104be57829003601f168201915b505050505081565b8160008054906101000a900473ffffffffffffffffffffffffffffffffffffffff1673ffffffffffffffffffffffffffffffffffffffff166370a08231600d60009054906101000a900473ffffffffffffffffffffffffffffffffffffffff1673ffffffffffffffffffffffffffffffffffffffff16631599a352336040518263ffffffff1660e01b815260040161057b919061132c565b602060405180830381865afa158015610598573d6000803e3d6000fd5b505050506040513d601f19601f820116820180604052508101906105bc91906113b5565b6040518263ffffffff1660e01b81526004016105d8919061132c565b602060405180830381865afa1580156105f5573d6000803e3d6000fd5b505050506040513d601f19601f82011682018060405250810190610619919061135c565b11610659576040517f08c379a00000000000000000000000000000000000000000000000000000000081526004016106509061142e565b60405180910390fd5b610663828261073f565b5050565b600d60009054906101000a900473ffffffffffffffffffffffffffffffffffffffff1681565b6006805461069a906112ec565b80601f01602080910402602001604051908101604052809291908181526020018280546106c6906112ec565b80156107135780601f106106e857610100808354040283529160200191610713565b820191906000526020600020905b8154815290600101906020018083116106f657829003601f168201915b505050505081565b60008054906101000a900473ffffffffffffffffffffffffffffffffffffffff1681565b60008054906101000a900473ffffffffffffffffffffffffffffffffffffffff1673ffffffffffffffffffffffffffffffffffffffff166323b872dd600d60009054906101000a900473ffffffffffffffffffffffffffffffffffffffff1673ffffffffffffffffffffffffffffffffffffffff16631599a352336040518263ffffffff1660e01b81526004016107d6919061132c565b602060405180830381865afa1580156107f3573d6000803e3d6000fd5b505050506040513d601f19601f8201168201806040525081019061081791906113b5565b30856040518463ffffffff1660e01b81526004016108379392919061144e565b6020604051808303816000875af1158015610856573d6000803e3d6000fd5b505050506040513d601f19601f8201168201806040525081019061087a91906114bd565b50600a6040518060800160405280600d60009054906101000a900473ffffffffffffffffffffffffffffffffffffffff1673ffffffffffffffffffffffffffffffffffffffff16631599a352336040518263ffffffff1660e01b81526004016108e3919061132c565b602060405180830381865afa158015610900573d6000803e3d6000fd5b505050506040513d601f19601f8201168201806040525081019061092491906113b5565b73ffffffffffffffffffffffffffffffffffffffff16815260200142815260200183815260200184815250908060018154018082558091505060019003906000526020600020906004020160009091909190915060008201518160000160006101000a81548173ffffffffffffffffffffffffffffffffffffffff021916908373ffffffffffffffffffffffffffffffffffffffff1602179055506020820151816001015560408201518160020190816109de919061168c565b506060820151816003015550506109f4826109f8565b5050565b80600b6000828254610a0a919061178d565b9250508190555060006064604683610a2291906117c1565b610a2c9190611832565b905060006064601984610a3f91906117c1565b610a499190611832565b90506000818385610a5a9190611863565b610a649190611863565b905060005b600a80549050811015610baa5760008054906101000a900473ffffffffffffffffffffffffffffffffffffffff1673ffffffffffffffffffffffffffffffffffffffff1663a9059cbb600a8381548110610ac657610ac5611897565b5b906000526020600020906004020160000160009054906101000a900473ffffffffffffffffffffffffffffffffffffffff16600b54600a8581548110610b0f57610b0e611897565b5b90600052602060002090600402016003015488610b2c91906117c1565b610b369190611832565b6040518363ffffffff1660e01b8152600401610b539291906118c6565b6020604051808303816000875af1158015610b72573d6000803e3d6000fd5b505050506040513d601f19601f82011682018060405250810190610b9691906114bd565b508080610ba2906118ef565b915050610a69565b5060008054906101000a900473ffffffffffffffffffffffffffffffffffffffff1673ffffffffffffffffffffffffffffffffffffffff1663a9059cbb600460009054906101000a900473ffffffffffffffffffffffffffffffffffffffff16846040518363ffffffff1660e01b8152600401610c289291906118c6565b6020604051808303816000875af1158015610c47573d6000803e3d6000fd5b505050506040513d601f19601f82011682018060405250810190610c6b91906114bd565b5060008054906101000a900473ffffffffffffffffffffffffffffffffffffffff1673ffffffffffffffffffffffffffffffffffffffff1663a9059cbb600560009054906101000a900473ffffffffffffffffffffffffffffffffffffffff16836040518363ffffffff1660e01b8152600401610ce99291906118c6565b6020604051808303816000875af1158015610d08573d6000803e3d6000fd5b505050506040513d601f19601f82011682018060405250810190610d2c91906114bd565b5050505050565b600081519050919050565b600082825260208201905092915050565b60005b83811015610d6d578082015181840152602081019050610d52565b60008484015250505050565b6000601f19601f8301169050919050565b6000610d9582610d33565b610d9f8185610d3e565b9350610daf818560208601610d4f565b610db881610d79565b840191505092915050565b60006020820190508181036000830152610ddd8184610d8a565b905092915050565b600081519050919050565b600082825260208201905092915050565b6000819050602082019050919050565b600073ffffffffffffffffffffffffffffffffffffffff82169050919050565b6000610e3c82610e11565b9050919050565b610e4c81610e31565b82525050565b6000819050919050565b610e6581610e52565b82525050565b600082825260208201905092915050565b6000610e8782610d33565b610e918185610e6b565b9350610ea1818560208601610d4f565b610eaa81610d79565b840191505092915050565b6000608083016000830151610ecd6000860182610e43565b506020830151610ee06020860182610e5c565b5060408301518482036040860152610ef88282610e7c565b9150506060830151610f0d6060860182610e5c565b508091505092915050565b6000610f248383610eb5565b905092915050565b6000602082019050919050565b6000610f4482610de5565b610f4e8185610df0565b935083602082028501610f6085610e01565b8060005b85811015610f9c5784840389528151610f7d8582610f18565b9450610f8883610f2c565b925060208a01995050600181019050610f64565b50829750879550505050505092915050565b60006020820190508181036000830152610fc88184610f39565b905092915050565b6000819050919050565b6000610ff5610ff0610feb84610e11565b610fd0565b610e11565b9050919050565b600061100782610fda565b9050919050565b600061101982610ffc565b9050919050565b6110298161100e565b82525050565b60006020820190506110446000830184611020565b92915050565b61105381610e52565b82525050565b600060208201905061106e600083018461104a565b92915050565b6000604051905090565b600080fd5b600080fd5b61109181610e52565b811461109c57600080fd5b50565b6000813590506110ae81611088565b92915050565b600080fd5b600080fd5b7f4e487b7100000000000000000000000000000000000000000000000000000000600052604160045260246000fd5b6110f682610d79565b810181811067ffffffffffffffff82111715611115576111146110be565b5b80604052505050565b6000611128611074565b905061113482826110ed565b919050565b600067ffffffffffffffff821115611154576111536110be565b5b61115d82610d79565b9050602081019050919050565b82818337600083830152505050565b600061118c61118784611139565b61111e565b9050828152602081018484840111156111a8576111a76110b9565b5b6111b384828561116a565b509392505050565b600082601f8301126111d0576111cf6110b4565b5b81356111e0848260208601611179565b91505092915050565b60008060408385031215611200576111ff61107e565b5b600061120e8582860161109f565b925050602083013567ffffffffffffffff81111561122f5761122e611083565b5b61123b858286016111bb565b9150509250929050565b600061125082610ffc565b9050919050565b61126081611245565b82525050565b600060208201905061127b6000830184611257565b92915050565b600061128c82610ffc565b9050919050565b61129c81611281565b82525050565b60006020820190506112b76000830184611293565b92915050565b7f4e487b7100000000000000000000000000000000000000000000000000000000600052602260045260246000fd5b6000600282049050600182168061130457607f821691505b602082108103611317576113166112bd565b5b50919050565b61132681610e31565b82525050565b6000602082019050611341600083018461131d565b92915050565b60008151905061135681611088565b92915050565b6000602082840312156113725761137161107e565b5b600061138084828501611347565b91505092915050565b61139281610e31565b811461139d57600080fd5b50565b6000815190506113af81611389565b92915050565b6000602082840312156113cb576113ca61107e565b5b60006113d9848285016113a0565b91505092915050565b7f4e6f7420656e6f75676800000000000000000000000000000000000000000000600082015250565b6000611418600a83610d3e565b9150611423826113e2565b602082019050919050565b600060208201905081810360008301526114478161140b565b9050919050565b6000606082019050611463600083018661131d565b611470602083018561131d565b61147d604083018461104a565b949350505050565b60008115159050919050565b61149a81611485565b81146114a557600080fd5b50565b6000815190506114b781611491565b92915050565b6000602082840312156114d3576114d261107e565b5b60006114e1848285016114a8565b91505092915050565b60008190508160005260206000209050919050565b60006020601f8301049050919050565b600082821b905092915050565b60006008830261154c7fffffffffffffffffffffffffffffffffffffffffffffffffffffffffffffffff8261150f565b611556868361150f565b95508019841693508086168417925050509392505050565b600061158961158461157f84610e52565b610fd0565b610e52565b9050919050565b6000819050919050565b6115a38361156e565b6115b76115af82611590565b84845461151c565b825550505050565b600090565b6115cc6115bf565b6115d781848461159a565b505050565b5b818110156115fb576115f06000826115c4565b6001810190506115dd565b5050565b601f82111561164057611611816114ea565b61161a846114ff565b81016020851015611629578190505b61163d611635856114ff565b8301826115dc565b50505b505050565b600082821c905092915050565b600061166360001984600802611645565b1980831691505092915050565b600061167c8383611652565b9150826002028217905092915050565b61169582610d33565b67ffffffffffffffff8111156116ae576116ad6110be565b5b6116b882546112ec565b6116c38282856115ff565b600060209050601f8311600181146116f657600084156116e4578287015190505b6116ee8582611670565b865550611756565b601f198416611704866114ea565b60005b8281101561172c57848901518255600182019150602085019450602081019050611707565b868310156117495784890151611745601f891682611652565b8355505b6001600288020188555050505b505050505050565b7f4e487b7100000000000000000000000000000000000000000000000000000000600052601160045260246000fd5b600061179882610e52565b91506117a383610e52565b92508282019050808211156117bb576117ba61175e565b5b92915050565b60006117cc82610e52565b91506117d783610e52565b92508282026117e581610e52565b915082820484148315176117fc576117fb61175e565b5b5092915050565b7f4e487b7100000000000000000000000000000000000000000000000000000000600052601260045260246000fd5b600061183d82610e52565b915061184883610e52565b92508261185857611857611803565b5b828204905092915050565b600061186e82610e52565b915061187983610e52565b92508282039050818111156118915761189061175e565b5b92915050565b7f4e487b7100000000000000000000000000000000000000000000000000000000600052603260045260246000fd5b60006040820190506118db600083018561131d565b6118e8602083018461104a565b9392505050565b60006118fa82610e52565b91507fffffffffffffffffffffffffffffffffffffffffffffffffffffffffffffffff820361192c5761192b61175e565b5b60018201905091905056fea2646970667358221220b92e05800c852f5811922c73f73c991b35de6a38c41f55503e5b474466dadfcf64736f6c63430008110033a2646970667358221220fa58c25fd6c571318efd37e6363d44d272ba3363fa15cb3f793dbfb46b2570d464736f6c63430008110033a2646970667358221220f29db93af5e2d75b7a552451ee46942a028f71d8cc2c844afb75ed6ba2aeab5664736f6c63430008110033",
  "linkReferences": {},
  "deployedLinkReferences": {}
}