{
  "_format": "hh-sol-artifact-1",
  "contractName": "DaoPoolFactory",
  "sourceName": "contracts/factory/DaoPoolFactory.sol",
  "abi": [
    {
      "inputs": [],
      "stateMutability": "nonpayable",
      "type": "constructor"
    },
    {
      "inputs": [],
      "name": "daosData",
      "outputs": [
        {
          "internalType": "contract IDaosData",
          "name": "",
          "type": "address"
        }
      ],
      "stateMutability": "view",
      "type": "function"
    },
    {
      "inputs": [
        {
          "internalType": "string",
          "name": "_daoName",
          "type": "string"
        },
        {
          "internalType": "string",
          "name": "_daoProfile",
          "type": "string"
        },
        {
          "internalType": "string",
          "name": "_daoIcon",
          "type": "string"
        }
      ],
      "name": "newDaoPoolFactory",
      "outputs": [
        {
          "internalType": "address",
          "name": "",
          "type": "address"
        }
      ],
      "stateMutability": "nonpayable",
      "type": "function"
    },
    {
      "inputs": [],
      "name": "poolListData",
      "outputs": [
        {
          "internalType": "contract IPoolListData",
          "name": "",
          "type": "address"
        }
      ],
      "stateMutability": "view",
      "type": "function"
    },
    {
      "inputs": [
        {
          "internalType": "address",
          "name": "daosDataAddress",
          "type": "address"
        }
      ],
      "name": "setDaosData",
      "outputs": [],
      "stateMutability": "nonpayable",
      "type": "function"
    },
    {
      "inputs": [
        {
          "internalType": "address",
          "name": "poolListDataAddress",
          "type": "address"
        }
      ],
      "name": "setPoolListData",
      "outputs": [],
      "stateMutability": "nonpayable",
      "type": "function"
    }
  ],
  "bytecode": "0x608060405234801561001057600080fd5b5060008054906101000a900473ffffffffffffffffffffffffffffffffffffffff16600160006101000a81548173ffffffffffffffffffffffffffffffffffffffff021916908373ffffffffffffffffffffffffffffffffffffffff160217905550600260009054906101000a900473ffffffffffffffffffffffffffffffffffffffff16600360006101000a81548173ffffffffffffffffffffffffffffffffffffffff021916908373ffffffffffffffffffffffffffffffffffffffff160217905550615f31806100e46000396000f3fe60806040523480156200001157600080fd5b50600436106200005e5760003560e01c806316e66f43146200006357806371b3423d14620000835780637965d0de14620000a5578063ba280f2614620000c5578063d5988a3614620000fb575b600080fd5b6200008160048036038101906200007b919062000626565b6200011d565b005b6200008d620001a1565b6040516200009c9190620006c3565b60405180910390f35b620000c36004803603810190620000bd919062000626565b620001c7565b005b620000e36004803603810190620000dd919062000842565b6200024c565b604051620000f291906200090c565b60405180910390f35b6200010562000579565b6040516200011491906200094e565b60405180910390f35b806000806101000a81548173ffffffffffffffffffffffffffffffffffffffff021916908373ffffffffffffffffffffffffffffffffffffffff16021790555080600160006101000a81548173ffffffffffffffffffffffffffffffffffffffff021916908373ffffffffffffffffffffffffffffffffffffffff16021790555050565b600160009054906101000a900473ffffffffffffffffffffffffffffffffffffffff1681565b80600260006101000a81548173ffffffffffffffffffffffffffffffffffffffff021916908373ffffffffffffffffffffffffffffffffffffffff16021790555080600360006101000a81548173ffffffffffffffffffffffffffffffffffffffff021916908373ffffffffffffffffffffffffffffffffffffffff16021790555050565b60008073ffffffffffffffffffffffffffffffffffffffff16600160009054906101000a900473ffffffffffffffffffffffffffffffffffffffff1673ffffffffffffffffffffffffffffffffffffffff16631599a352336040518263ffffffff1660e01b8152600401620002c291906200090c565b602060405180830381865afa158015620002e0573d6000803e3d6000fd5b505050506040513d601f19601f8201168201806040525081019062000306919062000982565b73ffffffffffffffffffffffffffffffffffffffff16146200035f576040517f08c379a0000000000000000000000000000000000000000000000000000000008152600401620003569062000a15565b60405180910390fd5b6000338585853060405162000374906200059f565b6200038495949392919062000aaf565b604051809103906000f080158015620003a1573d6000803e3d6000fd5b509050600360009054906101000a900473ffffffffffffffffffffffffffffffffffffffff1673ffffffffffffffffffffffffffffffffffffffff166302c256f6338787876040518563ffffffff1660e01b815260040162000407949392919062000b21565b600060405180830381600087803b1580156200042257600080fd5b505af115801562000437573d6000803e3d6000fd5b50505050600160009054906101000a900473ffffffffffffffffffffffffffffffffffffffff1673ffffffffffffffffffffffffffffffffffffffff16635e52fe5033836040518363ffffffff1660e01b81526004016200049a92919062000b83565b600060405180830381600087803b158015620004b557600080fd5b505af1158015620004ca573d6000803e3d6000fd5b50505050600160009054906101000a900473ffffffffffffffffffffffffffffffffffffffff1673ffffffffffffffffffffffffffffffffffffffff16631599a352336040518263ffffffff1660e01b81526004016200052b91906200090c565b602060405180830381865afa15801562000549573d6000803e3d6000fd5b505050506040513d601f19601f820116820180604052508101906200056f919062000982565b9150509392505050565b600360009054906101000a900473ffffffffffffffffffffffffffffffffffffffff1681565b61534b8062000bb183390190565b6000604051905090565b600080fd5b600080fd5b600073ffffffffffffffffffffffffffffffffffffffff82169050919050565b6000620005ee82620005c1565b9050919050565b6200060081620005e1565b81146200060c57600080fd5b50565b6000813590506200062081620005f5565b92915050565b6000602082840312156200063f576200063e620005b7565b5b60006200064f848285016200060f565b91505092915050565b6000819050919050565b6000620006836200067d6200067784620005c1565b62000658565b620005c1565b9050919050565b6000620006978262000662565b9050919050565b6000620006ab826200068a565b9050919050565b620006bd816200069e565b82525050565b6000602082019050620006da6000830184620006b2565b92915050565b600080fd5b600080fd5b6000601f19601f8301169050919050565b7f4e487b7100000000000000000000000000000000000000000000000000000000600052604160045260246000fd5b6200073582620006ea565b810181811067ffffffffffffffff82111715620007575762000756620006fb565b5b80604052505050565b60006200076c620005ad565b90506200077a82826200072a565b919050565b600067ffffffffffffffff8211156200079d576200079c620006fb565b5b620007a882620006ea565b9050602081019050919050565b82818337600083830152505050565b6000620007db620007d5846200077f565b62000760565b905082815260208101848484011115620007fa57620007f9620006e5565b5b62000807848285620007b5565b509392505050565b600082601f830112620008275762000826620006e0565b5b813562000839848260208601620007c4565b91505092915050565b6000806000606084860312156200085e576200085d620005b7565b5b600084013567ffffffffffffffff8111156200087f576200087e620005bc565b5b6200088d868287016200080f565b935050602084013567ffffffffffffffff811115620008b157620008b0620005bc565b5b620008bf868287016200080f565b925050604084013567ffffffffffffffff811115620008e357620008e2620005bc565b5b620008f1868287016200080f565b9150509250925092565b6200090681620005e1565b82525050565b6000602082019050620009236000830184620008fb565b92915050565b600062000936826200068a565b9050919050565b620009488162000929565b82525050565b60006020820190506200096560008301846200093d565b92915050565b6000815190506200097c81620005f5565b92915050565b6000602082840312156200099b576200099a620005b7565b5b6000620009ab848285016200096b565b91505092915050565b600082825260208201905092915050565b7f616c726561647920637265617465642100000000000000000000000000000000600082015250565b6000620009fd601083620009b4565b915062000a0a82620009c5565b602082019050919050565b6000602082019050818103600083015262000a3081620009ee565b9050919050565b600081519050919050565b60005b8381101562000a6257808201518184015260208101905062000a45565b60008484015250505050565b600062000a7b8262000a37565b62000a878185620009b4565b935062000a9981856020860162000a42565b62000aa481620006ea565b840191505092915050565b600060a08201905062000ac66000830188620008fb565b818103602083015262000ada818762000a6e565b9050818103604083015262000af0818662000a6e565b9050818103606083015262000b06818562000a6e565b905062000b176080830184620008fb565b9695505050505050565b600060808201905062000b386000830187620008fb565b818103602083015262000b4c818662000a6e565b9050818103604083015262000b62818562000a6e565b9050818103606083015262000b78818462000a6e565b905095945050505050565b600060408201905062000b9a6000830185620008fb565b62000ba96020830184620008fb565b939250505056fe60806040527338d4172dde4e50a8cdd8b39abc572443d18ad72d600a60006101000a81548173ffffffffffffffffffffffffffffffffffffffff021916908373ffffffffffffffffffffffffffffffffffffffff1602179055503480156200006657600080fd5b506040516200534b3803806200534b83398181016040528101906200008c9190620004af565b600a60009054906101000a900473ffffffffffffffffffffffffffffffffffffffff16600260006101000a81548173ffffffffffffffffffffffffffffffffffffffff021916908373ffffffffffffffffffffffffffffffffffffffff16021790555084600560006101000a81548173ffffffffffffffffffffffffffffffffffffffff021916908373ffffffffffffffffffffffffffffffffffffffff16021790555084600660006101000a81548173ffffffffffffffffffffffffffffffffffffffff021916908373ffffffffffffffffffffffffffffffffffffffff1602179055508360079081620001829190620007df565b508260089081620001949190620007df565b508160099081620001a69190620007df565b5080600460006101000a81548173ffffffffffffffffffffffffffffffffffffffff021916908373ffffffffffffffffffffffffffffffffffffffff160217905550600460009054906101000a900473ffffffffffffffffffffffffffffffffffffffff16600360006101000a81548173ffffffffffffffffffffffffffffffffffffffff021916908373ffffffffffffffffffffffffffffffffffffffff16021790555060008054906101000a900473ffffffffffffffffffffffffffffffffffffffff16600160006101000a81548173ffffffffffffffffffffffffffffffffffffffff021916908373ffffffffffffffffffffffffffffffffffffffff1602179055505050505050620008c6565b6000604051905090565b600080fd5b600080fd5b600073ffffffffffffffffffffffffffffffffffffffff82169050919050565b6000620002f882620002cb565b9050919050565b6200030a81620002eb565b81146200031657600080fd5b50565b6000815190506200032a81620002ff565b92915050565b600080fd5b600080fd5b6000601f19601f8301169050919050565b7f4e487b7100000000000000000000000000000000000000000000000000000000600052604160045260246000fd5b62000385826200033a565b810181811067ffffffffffffffff82111715620003a757620003a66200034b565b5b80604052505050565b6000620003bc620002b7565b9050620003ca82826200037a565b919050565b600067ffffffffffffffff821115620003ed57620003ec6200034b565b5b620003f8826200033a565b9050602081019050919050565b60005b838110156200042557808201518184015260208101905062000408565b60008484015250505050565b6000620004486200044284620003cf565b620003b0565b90508281526020810184848401111562000467576200046662000335565b5b6200047484828562000405565b509392505050565b600082601f83011262000494576200049362000330565b5b8151620004a684826020860162000431565b91505092915050565b600080600080600060a08688031215620004ce57620004cd620002c1565b5b6000620004de8882890162000319565b955050602086015167ffffffffffffffff811115620005025762000501620002c6565b5b62000510888289016200047c565b945050604086015167ffffffffffffffff811115620005345762000533620002c6565b5b62000542888289016200047c565b935050606086015167ffffffffffffffff811115620005665762000565620002c6565b5b62000574888289016200047c565b9250506080620005878882890162000319565b9150509295509295909350565b600081519050919050565b7f4e487b7100000000000000000000000000000000000000000000000000000000600052602260045260246000fd5b60006002820490506001821680620005e757607f821691505b602082108103620005fd57620005fc6200059f565b5b50919050565b60008190508160005260206000209050919050565b60006020601f8301049050919050565b600082821b905092915050565b600060088302620006677fffffffffffffffffffffffffffffffffffffffffffffffffffffffffffffffff8262000628565b62000673868362000628565b95508019841693508086168417925050509392505050565b6000819050919050565b6000819050919050565b6000620006c0620006ba620006b4846200068b565b62000695565b6200068b565b9050919050565b6000819050919050565b620006dc836200069f565b620006f4620006eb82620006c7565b84845462000635565b825550505050565b600090565b6200070b620006fc565b62000718818484620006d1565b505050565b5b8181101562000740576200073460008262000701565b6001810190506200071e565b5050565b601f8211156200078f57620007598162000603565b620007648462000618565b8101602085101562000774578190505b6200078c620007838562000618565b8301826200071d565b50505b505050565b600082821c905092915050565b6000620007b46000198460080262000794565b1980831691505092915050565b6000620007cf8383620007a1565b9150826002028217905092915050565b620007ea8262000594565b67ffffffffffffffff8111156200080657620008056200034b565b5b620008128254620005ce565b6200081f82828562000744565b600060209050601f83116001811462000857576000841562000842578287015190505b6200084e8582620007c1565b865550620008be565b601f198416620008678662000603565b60005b8281101562000891578489015182556001820191506020850194506020810190506200086a565b86831015620008b15784890151620008ad601f891682620007a1565b8355505b6001600288020188555050505b505050505050565b614a7580620008d66000396000f3fe60806040523480156200001157600080fd5b50600436106200016c5760003560e01c8063649c3f2b11620000d5578063cc371c141162000087578063cc371c1414620003d3578063d39d655e14620003f5578063d4a4fc4c1462000415578063d4dadf011462000437578063f6acee23146200046d578063ffd17c89146200048f576200016c565b8063649c3f2b146200030b5780636e1c1202146200032d57806397987faf146200034f578063a36b5fa2146200036f578063a7319fd8146200038f578063a80fcbf014620003b1576200016c565b806348976936116200012f57806348976936146200021b5780634a377870146200023d5780634c18308a14620002735780634d7adf0914620002a95780634ec9e9dc14620002cb5780635e001c3414620002eb576200016c565b80631d68702d14620001715780631d90fb1f14620001935780632131c68c14620001b5578063250a12d914620001d75780632f593a0b14620001f9575b600080fd5b6200017b620004c5565b6040516200018a9190620017c3565b60405180910390f35b6200019d620004ef565b604051620001ac91906200184b565b60405180910390f35b620001bf62000515565b604051620001ce9190620017c3565b60405180910390f35b620001e16200053b565b604051620001f0919062001883565b60405180910390f35b62000203620005e3565b6040516200021291906200193a565b60405180910390f35b620002256200067d565b6040516200023491906200193a565b60405180910390f35b6200025b6004803603810190620002559190620019a3565b62000713565b6040516200026a9190620019f2565b60405180910390f35b6200029160048036038101906200028b919062001b60565b62000850565b604051620002a09190620017c3565b60405180910390f35b620002b3620008b0565b604051620002c2919062001c3e565b60405180910390f35b620002e96004803603810190620002e3919062001c8c565b620008d6565b005b620003096004803603810190620003039190620019a3565b62000ac1565b005b6200031562000b46565b6040516200032491906200193a565b60405180910390f35b6200033762000bdc565b6040516200034691906200193a565b60405180910390f35b6200036d600480360381019062000367919062001cd3565b62000c72565b005b6200038d600480360381019062000387919062001cd3565b62000e7e565b005b62000399620010ae565b604051620003a89190620017c3565b60405180910390f35b620003bb620010b6565b604051620003ca91906200193a565b60405180910390f35b620003dd62001150565b604051620003ec919062001f01565b60405180910390f35b6200041360048036038101906200040d9190620019a3565b620011fd565b005b6200041f62001281565b6040516200042e91906200193a565b60405180910390f35b6200045560048036038101906200044f9190620019a3565b6200131b565b604051620004649190620019f2565b60405180910390f35b6200047762001688565b60405162000486919062001f4a565b60405180910390f35b620004ad6004803603810190620004a79190620019a3565b620016ae565b604051620004bc9190620019f2565b60405180910390f35b6000600660009054906101000a900473ffffffffffffffffffffffffffffffffffffffff16905090565b600360009054906101000a900473ffffffffffffffffffffffffffffffffffffffff1681565b600660009054906101000a900473ffffffffffffffffffffffffffffffffffffffff1681565b6000600260009054906101000a900473ffffffffffffffffffffffffffffffffffffffff1673ffffffffffffffffffffffffffffffffffffffff166370a08231306040518263ffffffff1660e01b81526004016200059a9190620017c3565b602060405180830381865afa158015620005b8573d6000803e3d6000fd5b505050506040513d601f19601f82011682018060405250810190620005de919062001f7e565b905090565b606060088054620005f49062001fdf565b80601f0160208091040260200160405190810160405280929190818152602001828054620006229062001fdf565b8015620006735780601f10620006475761010080835404028352916020019162000673565b820191906000526020600020905b8154815290600101906020018083116200065557829003601f168201915b5050505050905090565b600780546200068c9062001fdf565b80601f0160208091040260200160405190810160405280929190818152602001828054620006ba9062001fdf565b80156200070b5780601f10620006df576101008083540402835291602001916200070b565b820191906000526020600020905b815481529060010190602001808311620006ed57829003601f168201915b505050505081565b6000600c60008373ffffffffffffffffffffffffffffffffffffffff1673ffffffffffffffffffffffffffffffffffffffff16815260200190815260200160002060009054906101000a900460ff16620007a4576040517f08c379a00000000000000000000000000000000000000000000000000000000081526004016200079b9062002064565b60405180910390fd5b6000600c60008473ffffffffffffffffffffffffffffffffffffffff1673ffffffffffffffffffffffffffffffffffffffff16815260200190815260200160002060006101000a81548160ff021916908315150217905550600c60008373ffffffffffffffffffffffffffffffffffffffff1673ffffffffffffffffffffffffffffffffffffffff16815260200190815260200160002060009054906101000a900460ff169050919050565b6000803030868686604051620008669062001770565b6200087695949392919062002086565b604051809103906000f08015801562000893573d6000803e3d6000fd5b509050620008a58130878787620016ce565b809150509392505050565b600160009054906101000a900473ffffffffffffffffffffffffffffffffffffffff1681565b3373ffffffffffffffffffffffffffffffffffffffff16600560009054906101000a900473ffffffffffffffffffffffffffffffffffffffff1673ffffffffffffffffffffffffffffffffffffffff16146200093157600080fd5b80600260009054906101000a900473ffffffffffffffffffffffffffffffffffffffff1673ffffffffffffffffffffffffffffffffffffffff166370a08231306040518263ffffffff1660e01b81526004016200098f9190620017c3565b602060405180830381865afa158015620009ad573d6000803e3d6000fd5b505050506040513d601f19601f82011682018060405250810190620009d3919062001f7e565b101562000a17576040517f08c379a000000000000000000000000000000000000000000000000000000000815260040162000a0e9062002148565b60405180910390fd5b600260009054906101000a900473ffffffffffffffffffffffffffffffffffffffff1673ffffffffffffffffffffffffffffffffffffffff1663095ea7b383836040518363ffffffff1660e01b815260040162000a769291906200216a565b6020604051808303816000875af115801562000a96573d6000803e3d6000fd5b505050506040513d601f19601f8201168201806040525081019062000abc9190620021c8565b505050565b80600a60006101000a81548173ffffffffffffffffffffffffffffffffffffffff021916908373ffffffffffffffffffffffffffffffffffffffff16021790555080600260006101000a81548173ffffffffffffffffffffffffffffffffffffffff021916908373ffffffffffffffffffffffffffffffffffffffff16021790555050565b6008805462000b559062001fdf565b80601f016020809104026020016040519081016040528092919081815260200182805462000b839062001fdf565b801562000bd45780601f1062000ba85761010080835404028352916020019162000bd4565b820191906000526020600020905b81548152906001019060200180831162000bb657829003601f168201915b505050505081565b6009805462000beb9062001fdf565b80601f016020809104026020016040519081016040528092919081815260200182805462000c199062001fdf565b801562000c6a5780601f1062000c3e5761010080835404028352916020019162000c6a565b820191906000526020600020905b81548152906001019060200180831162000c4c57829003601f168201915b505050505081565b3373ffffffffffffffffffffffffffffffffffffffff16600560009054906101000a900473ffffffffffffffffffffffffffffffffffffffff1673ffffffffffffffffffffffffffffffffffffffff161462000ccd57600080fd5b80600260009054906101000a900473ffffffffffffffffffffffffffffffffffffffff1673ffffffffffffffffffffffffffffffffffffffff166370a08231306040518263ffffffff1660e01b815260040162000d2b9190620017c3565b602060405180830381865afa15801562000d49573d6000803e3d6000fd5b505050506040513d601f19601f8201168201806040525081019062000d6f919062001f7e565b101562000db3576040517f08c379a000000000000000000000000000000000000000000000000000000000815260040162000daa9062002148565b60405180910390fd5b600260009054906101000a900473ffffffffffffffffffffffffffffffffffffffff1673ffffffffffffffffffffffffffffffffffffffff1663a9059cbb600660009054906101000a900473ffffffffffffffffffffffffffffffffffffffff16836040518363ffffffff1660e01b815260040162000e349291906200216a565b6020604051808303816000875af115801562000e54573d6000803e3d6000fd5b505050506040513d601f19601f8201168201806040525081019062000e7a9190620021c8565b5050565b3373ffffffffffffffffffffffffffffffffffffffff16600560009054906101000a900473ffffffffffffffffffffffffffffffffffffffff1673ffffffffffffffffffffffffffffffffffffffff161462000ed957600080fd5b80600260009054906101000a900473ffffffffffffffffffffffffffffffffffffffff1673ffffffffffffffffffffffffffffffffffffffff166370a08231600660009054906101000a900473ffffffffffffffffffffffffffffffffffffffff166040518263ffffffff1660e01b815260040162000f599190620017c3565b602060405180830381865afa15801562000f77573d6000803e3d6000fd5b505050506040513d601f19601f8201168201806040525081019062000f9d919062001f7e565b101562000fe1576040517f08c379a000000000000000000000000000000000000000000000000000000000815260040162000fd89062002148565b60405180910390fd5b600260009054906101000a900473ffffffffffffffffffffffffffffffffffffffff1673ffffffffffffffffffffffffffffffffffffffff166323b872dd600660009054906101000a900473ffffffffffffffffffffffffffffffffffffffff1630846040518463ffffffff1660e01b81526004016200106493929190620021fa565b6020604051808303816000875af115801562001084573d6000803e3d6000fd5b505050506040513d601f19601f82011682018060405250810190620010aa9190620021c8565b5050565b600030905090565b606060098054620010c79062001fdf565b80601f0160208091040260200160405190810160405280929190818152602001828054620010f59062001fdf565b8015620011465780601f106200111a5761010080835404028352916020019162001146565b820191906000526020600020905b8154815290600101906020018083116200112857829003601f168201915b5050505050905090565b6060600160009054906101000a900473ffffffffffffffffffffffffffffffffffffffff1673ffffffffffffffffffffffffffffffffffffffff166358cedf57306040518263ffffffff1660e01b8152600401620011af9190620017c3565b600060405180830381865afa158015620011cd573d6000803e3d6000fd5b505050506040513d6000823e3d601f19601f82011682018060405250810190620011f89190620024f6565b905090565b806000806101000a81548173ffffffffffffffffffffffffffffffffffffffff021916908373ffffffffffffffffffffffffffffffffffffffff16021790555080600160006101000a81548173ffffffffffffffffffffffffffffffffffffffff021916908373ffffffffffffffffffffffffffffffffffffffff16021790555050565b606060078054620012929062001fdf565b80601f0160208091040260200160405190810160405280929190818152602001828054620012c09062001fdf565b8015620013115780601f10620012e55761010080835404028352916020019162001311565b820191906000526020600020905b815481529060010190602001808311620012f357829003601f168201915b5050505050905090565b6000600c60008373ffffffffffffffffffffffffffffffffffffffff1673ffffffffffffffffffffffffffffffffffffffff16815260200190815260200160002060009054906101000a900460ff1615620013ad576040517f08c379a0000000000000000000000000000000000000000000000000000000008152600401620013a49062002597565b60405180910390fd5b6000600b80549050036200147c57600b829080600181540180825580915050600190039060005260206000200160009091909190916101000a81548173ffffffffffffffffffffffffffffffffffffffff021916908373ffffffffffffffffffffffffffffffffffffffff1602179055506001600c60008473ffffffffffffffffffffffffffffffffffffffff1673ffffffffffffffffffffffffffffffffffffffff16815260200190815260200160002060006101000a81548160ff02191690831515021790555062001634565b60005b600b8054905081101562001632578273ffffffffffffffffffffffffffffffffffffffff16600b8281548110620014bb57620014ba620025b9565b5b9060005260206000200160009054906101000a900473ffffffffffffffffffffffffffffffffffffffff1673ffffffffffffffffffffffffffffffffffffffff160362001560576001600c60008573ffffffffffffffffffffffffffffffffffffffff1673ffffffffffffffffffffffffffffffffffffffff16815260200190815260200160002060006101000a81548160ff0219169083151502179055506200161c565b600b839080600181540180825580915050600190039060005260206000200160009091909190916101000a81548173ffffffffffffffffffffffffffffffffffffffff021916908373ffffffffffffffffffffffffffffffffffffffff1602179055506001600c60008573ffffffffffffffffffffffffffffffffffffffff1673ffffffffffffffffffffffffffffffffffffffff16815260200190815260200160002060006101000a81548160ff0219169083151502179055505b8080620016299062002617565b9150506200147f565b505b600c60008373ffffffffffffffffffffffffffffffffffffffff1673ffffffffffffffffffffffffffffffffffffffff16815260200190815260200160002060009054906101000a900460ff169050919050565b600260009054906101000a900473ffffffffffffffffffffffffffffffffffffffff1681565b600c6020528060005260406000206000915054906101000a900460ff1681565b600160009054906101000a900473ffffffffffffffffffffffffffffffffffffffff1673ffffffffffffffffffffffffffffffffffffffff1663c34b28f53087878787876040518763ffffffff1660e01b8152600401620017359695949392919062002664565b600060405180830381600087803b1580156200175057600080fd5b505af115801562001765573d6000803e3d6000fd5b505050505050505050565b61235980620026e783390190565b600073ffffffffffffffffffffffffffffffffffffffff82169050919050565b6000620017ab826200177e565b9050919050565b620017bd816200179e565b82525050565b6000602082019050620017da6000830184620017b2565b92915050565b6000819050919050565b60006200180b62001805620017ff846200177e565b620017e0565b6200177e565b9050919050565b60006200181f82620017ea565b9050919050565b6000620018338262001812565b9050919050565b620018458162001826565b82525050565b60006020820190506200186260008301846200183a565b92915050565b6000819050919050565b6200187d8162001868565b82525050565b60006020820190506200189a600083018462001872565b92915050565b600081519050919050565b600082825260208201905092915050565b60005b83811015620018dc578082015181840152602081019050620018bf565b60008484015250505050565b6000601f19601f8301169050919050565b60006200190682620018a0565b620019128185620018ab565b935062001924818560208601620018bc565b6200192f81620018e8565b840191505092915050565b60006020820190508181036000830152620019568184620018f9565b905092915050565b6000604051905090565b600080fd5b600080fd5b6200197d816200179e565b81146200198957600080fd5b50565b6000813590506200199d8162001972565b92915050565b600060208284031215620019bc57620019bb62001968565b5b6000620019cc848285016200198c565b91505092915050565b60008115159050919050565b620019ec81620019d5565b82525050565b600060208201905062001a096000830184620019e1565b92915050565b600080fd5b600080fd5b7f4e487b7100000000000000000000000000000000000000000000000000000000600052604160045260246000fd5b62001a5382620018e8565b810181811067ffffffffffffffff8211171562001a755762001a7462001a19565b5b80604052505050565b600062001a8a6200195e565b905062001a98828262001a48565b919050565b600067ffffffffffffffff82111562001abb5762001aba62001a19565b5b62001ac682620018e8565b9050602081019050919050565b82818337600083830152505050565b600062001af962001af38462001a9d565b62001a7e565b90508281526020810184848401111562001b185762001b1762001a14565b5b62001b2584828562001ad3565b509392505050565b600082601f83011262001b455762001b4462001a0f565b5b813562001b5784826020860162001ae2565b91505092915050565b60008060006060848603121562001b7c5762001b7b62001968565b5b600084013567ffffffffffffffff81111562001b9d5762001b9c6200196d565b5b62001bab8682870162001b2d565b935050602084013567ffffffffffffffff81111562001bcf5762001bce6200196d565b5b62001bdd8682870162001b2d565b925050604084013567ffffffffffffffff81111562001c015762001c006200196d565b5b62001c0f8682870162001b2d565b9150509250925092565b600062001c268262001812565b9050919050565b62001c388162001c19565b82525050565b600060208201905062001c55600083018462001c2d565b92915050565b62001c668162001868565b811462001c7257600080fd5b50565b60008135905062001c868162001c5b565b92915050565b6000806040838503121562001ca65762001ca562001968565b5b600062001cb6858286016200198c565b925050602062001cc98582860162001c75565b9150509250929050565b60006020828403121562001cec5762001ceb62001968565b5b600062001cfc8482850162001c75565b91505092915050565b600081519050919050565b600082825260208201905092915050565b6000819050602082019050919050565b62001d3c816200179e565b82525050565b600082825260208201905092915050565b600062001d6082620018a0565b62001d6c818562001d42565b935062001d7e818560208601620018bc565b62001d8981620018e8565b840191505092915050565b62001d9f8162001868565b82525050565b600060e08301600083015162001dbf600086018262001d31565b50602083015162001dd4602086018262001d31565b50604083015162001de9604086018262001d31565b506060830151848203606086015262001e03828262001d53565b9150506080830151848203608086015262001e1f828262001d53565b91505060a083015184820360a086015262001e3b828262001d53565b91505060c083015162001e5260c086018262001d94565b508091505092915050565b600062001e6b838362001da5565b905092915050565b6000602082019050919050565b600062001e8d8262001d05565b62001e99818562001d10565b93508360208202850162001ead8562001d21565b8060005b8581101562001eef578484038952815162001ecd858262001e5d565b945062001eda8362001e73565b925060208a0199505060018101905062001eb1565b50829750879550505050505092915050565b6000602082019050818103600083015262001f1d818462001e80565b905092915050565b600062001f328262001812565b9050919050565b62001f448162001f25565b82525050565b600060208201905062001f61600083018462001f39565b92915050565b60008151905062001f788162001c5b565b92915050565b60006020828403121562001f975762001f9662001968565b5b600062001fa78482850162001f67565b91505092915050565b7f4e487b7100000000000000000000000000000000000000000000000000000000600052602260045260246000fd5b6000600282049050600182168062001ff857607f821691505b6020821081036200200e576200200d62001fb0565b5b50919050565b7f616c7265616479206e6f74206368656572000000000000000000000000000000600082015250565b60006200204c601183620018ab565b9150620020598262002014565b602082019050919050565b600060208201905081810360008301526200207f816200203d565b9050919050565b600060a0820190506200209d6000830188620017b2565b620020ac6020830187620017b2565b8181036040830152620020c08186620018f9565b90508181036060830152620020d68185620018f9565b90508181036080830152620020ec8184620018f9565b90509695505050505050565b7f6e6f7420696e73756666696369656e7400000000000000000000000000000000600082015250565b600062002130601083620018ab565b91506200213d82620020f8565b602082019050919050565b60006020820190508181036000830152620021638162002121565b9050919050565b6000604082019050620021816000830185620017b2565b62002190602083018462001872565b9392505050565b620021a281620019d5565b8114620021ae57600080fd5b50565b600081519050620021c28162002197565b92915050565b600060208284031215620021e157620021e062001968565b5b6000620021f184828501620021b1565b91505092915050565b6000606082019050620022116000830186620017b2565b620022206020830185620017b2565b6200222f604083018462001872565b949350505050565b600067ffffffffffffffff82111562002255576200225462001a19565b5b602082029050602081019050919050565b600080fd5b600080fd5b600080fd5b600081519050620022868162001972565b92915050565b6000620022a36200229d8462001a9d565b62001a7e565b905082815260208101848484011115620022c257620022c162001a14565b5b620022cf848285620018bc565b509392505050565b600082601f830112620022ef57620022ee62001a0f565b5b8151620023018482602086016200228c565b91505092915050565b600060e082840312156200232357620023226200226b565b5b6200232f60e062001a7e565b90506000620023418482850162002275565b6000830152506020620023578482850162002275565b60208301525060406200236d8482850162002275565b604083015250606082015167ffffffffffffffff81111562002394576200239362002270565b5b620023a284828501620022d7565b606083015250608082015167ffffffffffffffff811115620023c957620023c862002270565b5b620023d784828501620022d7565b60808301525060a082015167ffffffffffffffff811115620023fe57620023fd62002270565b5b6200240c84828501620022d7565b60a08301525060c0620024228482850162001f67565b60c08301525092915050565b6000620024456200243f8462002237565b62001a7e565b905080838252602082019050602084028301858111156200246b576200246a62002266565b5b835b81811015620024b957805167ffffffffffffffff81111562002494576200249362001a0f565b5b808601620024a389826200230a565b855260208501945050506020810190506200246d565b5050509392505050565b600082601f830112620024db57620024da62001a0f565b5b8151620024ed8482602086016200242e565b91505092915050565b6000602082840312156200250f576200250e62001968565b5b600082015167ffffffffffffffff81111562002530576200252f6200196d565b5b6200253e84828501620024c3565b91505092915050565b7f616c726561647920636865657200000000000000000000000000000000000000600082015250565b60006200257f600d83620018ab565b91506200258c8262002547565b602082019050919050565b60006020820190508181036000830152620025b28162002570565b9050919050565b7f4e487b7100000000000000000000000000000000000000000000000000000000600052603260045260246000fd5b7f4e487b7100000000000000000000000000000000000000000000000000000000600052601160045260246000fd5b6000620026248262001868565b91507fffffffffffffffffffffffffffffffffffffffffffffffffffffffffffffffff8203620026595762002658620025e8565b5b600182019050919050565b600060c0820190506200267b6000830189620017b2565b6200268a6020830188620017b2565b620026996040830187620017b2565b8181036060830152620026ad8186620018f9565b90508181036080830152620026c38185620018f9565b905081810360a0830152620026d98184620018f9565b905097965050505050505056fe60806040527338d4172dde4e50a8cdd8b39abc572443d18ad72d600960006101000a81548173ffffffffffffffffffffffffffffffffffffffff021916908373ffffffffffffffffffffffffffffffffffffffff1602179055503480156200006657600080fd5b50604051620023593803806200235983398181016040528101906200008c919062000513565b600b60009054906101000a900473ffffffffffffffffffffffffffffffffffffffff16600c60006101000a81548173ffffffffffffffffffffffffffffffffffffffff021916908373ffffffffffffffffffffffffffffffffffffffff160217905550600d60009054906101000a900473ffffffffffffffffffffffffffffffffffffffff16600e60006101000a81548173ffffffffffffffffffffffffffffffffffffffff021916908373ffffffffffffffffffffffffffffffffffffffff160217905550600960009054906101000a900473ffffffffffffffffffffffffffffffffffffffff166000806101000a81548173ffffffffffffffffffffffffffffffffffffffff021916908373ffffffffffffffffffffffffffffffffffffffff160217905550600260009054906101000a900473ffffffffffffffffffffffffffffffffffffffff16600160006101000a81548173ffffffffffffffffffffffffffffffffffffffff021916908373ffffffffffffffffffffffffffffffffffffffff16021790555033600360006101000a81548173ffffffffffffffffffffffffffffffffffffffff021916908373ffffffffffffffffffffffffffffffffffffffff16021790555084600460006101000a81548173ffffffffffffffffffffffffffffffffffffffff021916908373ffffffffffffffffffffffffffffffffffffffff16021790555083600560006101000a81548173ffffffffffffffffffffffffffffffffffffffff021916908373ffffffffffffffffffffffffffffffffffffffff1602179055508260069081620002eb919062000843565b508160079081620002fd919062000843565b5080600890816200030f919062000843565b5050505050506200092a565b6000604051905090565b600080fd5b600080fd5b600073ffffffffffffffffffffffffffffffffffffffff82169050919050565b60006200035c826200032f565b9050919050565b6200036e816200034f565b81146200037a57600080fd5b50565b6000815190506200038e8162000363565b92915050565b600080fd5b600080fd5b6000601f19601f8301169050919050565b7f4e487b7100000000000000000000000000000000000000000000000000000000600052604160045260246000fd5b620003e9826200039e565b810181811067ffffffffffffffff821117156200040b576200040a620003af565b5b80604052505050565b6000620004206200031b565b90506200042e8282620003de565b919050565b600067ffffffffffffffff821115620004515762000450620003af565b5b6200045c826200039e565b9050602081019050919050565b60005b83811015620004895780820151818401526020810190506200046c565b60008484015250505050565b6000620004ac620004a68462000433565b62000414565b905082815260208101848484011115620004cb57620004ca62000399565b5b620004d884828562000469565b509392505050565b600082601f830112620004f857620004f762000394565b5b81516200050a84826020860162000495565b91505092915050565b600080600080600060a0868803121562000532576200053162000325565b5b600062000542888289016200037d565b955050602062000555888289016200037d565b945050604086015167ffffffffffffffff8111156200057957620005786200032a565b5b6200058788828901620004e0565b935050606086015167ffffffffffffffff811115620005ab57620005aa6200032a565b5b620005b988828901620004e0565b925050608086015167ffffffffffffffff811115620005dd57620005dc6200032a565b5b620005eb88828901620004e0565b9150509295509295909350565b600081519050919050565b7f4e487b7100000000000000000000000000000000000000000000000000000000600052602260045260246000fd5b600060028204905060018216806200064b57607f821691505b60208210810362000661576200066062000603565b5b50919050565b60008190508160005260206000209050919050565b60006020601f8301049050919050565b600082821b905092915050565b600060088302620006cb7fffffffffffffffffffffffffffffffffffffffffffffffffffffffffffffffff826200068c565b620006d786836200068c565b95508019841693508086168417925050509392505050565b6000819050919050565b6000819050919050565b6000620007246200071e6200071884620006ef565b620006f9565b620006ef565b9050919050565b6000819050919050565b620007408362000703565b620007586200074f826200072b565b84845462000699565b825550505050565b600090565b6200076f62000760565b6200077c81848462000735565b505050565b5b81811015620007a4576200079860008262000765565b60018101905062000782565b5050565b601f821115620007f357620007bd8162000667565b620007c8846200067c565b81016020851015620007d8578190505b620007f0620007e7856200067c565b83018262000781565b50505b505050565b600082821c905092915050565b60006200081860001984600802620007f8565b1980831691505092915050565b600062000833838362000805565b9150826002028217905092915050565b6200084e82620005f8565b67ffffffffffffffff8111156200086a5762000869620003af565b5b62000876825462000632565b62000883828285620007a8565b600060209050601f831160018114620008bb5760008415620008a6578287015190505b620008b2858262000825565b86555062000922565b601f198416620008cb8662000667565b60005b82811015620008f557848901518255600182019150602085019450602081019050620008ce565b8683101562000915578489015162000911601f89168262000805565b8355505b6001600288020188555050505b505050505050565b611a1f806200093a6000396000f3fe608060405234801561001057600080fd5b50600436106100b45760003560e01c80635e001c34116100715780635e001c341461016b57806365550ba41461018757806371b3423d146101a357806373531cfe146101c15780639a33e300146101df578063f6acee23146101fd576100b4565b806316e66f43146100b95780631a314956146100d55780631d90fb1f146100f3578063250a12d91461011157806332b04e2b1461012f5780634d7adf091461014d575b600080fd5b6100d360048036038101906100ce9190610f65565b61021b565b005b6100dd6102a0565b6040516100ea9190611022565b60405180910390f35b6100fb61032e565b60405161010891906110a3565b60405180910390f35b610119610354565b60405161012691906110d7565b60405180910390f35b6101376103f6565b6040516101449190611022565b60405180910390f35b610155610484565b6040516101629190611113565b60405180910390f35b61018560048036038101906101809190610f65565b6104aa565b005b6101a1600480360381019061019c919061128f565b61052e565b005b6101ab6106b3565b6040516101b8919061130c565b60405180910390f35b6101c96106d9565b6040516101d691906110d7565b60405180910390f35b6101e76106df565b6040516101f49190611022565b60405180910390f35b61020561076d565b6040516102129190611348565b60405180910390f35b80600b60006101000a81548173ffffffffffffffffffffffffffffffffffffffff021916908373ffffffffffffffffffffffffffffffffffffffff16021790555080600c60006101000a81548173ffffffffffffffffffffffffffffffffffffffff021916908373ffffffffffffffffffffffffffffffffffffffff16021790555050565b600780546102ad90611392565b80601f01602080910402602001604051908101604052809291908181526020018280546102d990611392565b80156103265780601f106102fb57610100808354040283529160200191610326565b820191906000526020600020905b81548152906001019060200180831161030957829003601f168201915b505050505081565b600160009054906101000a900473ffffffffffffffffffffffffffffffffffffffff1681565b60008060009054906101000a900473ffffffffffffffffffffffffffffffffffffffff1673ffffffffffffffffffffffffffffffffffffffff166370a08231306040518263ffffffff1660e01b81526004016103b091906113d2565b602060405180830381865afa1580156103cd573d6000803e3d6000fd5b505050506040513d601f19601f820116820180604052508101906103f19190611402565b905090565b6008805461040390611392565b80601f016020809104026020016040519081016040528092919081815260200182805461042f90611392565b801561047c5780601f106104515761010080835404028352916020019161047c565b820191906000526020600020905b81548152906001019060200180831161045f57829003601f168201915b505050505081565b600e60009054906101000a900473ffffffffffffffffffffffffffffffffffffffff1681565b80600960006101000a81548173ffffffffffffffffffffffffffffffffffffffff021916908373ffffffffffffffffffffffffffffffffffffffff160217905550806000806101000a81548173ffffffffffffffffffffffffffffffffffffffff021916908373ffffffffffffffffffffffffffffffffffffffff16021790555050565b8160008054906101000a900473ffffffffffffffffffffffffffffffffffffffff1673ffffffffffffffffffffffffffffffffffffffff166370a08231600c60009054906101000a900473ffffffffffffffffffffffffffffffffffffffff1673ffffffffffffffffffffffffffffffffffffffff16631599a352336040518263ffffffff1660e01b81526004016105c691906113d2565b602060405180830381865afa1580156105e3573d6000803e3d6000fd5b505050506040513d601f19601f820116820180604052508101906106079190611444565b6040518263ffffffff1660e01b815260040161062391906113d2565b602060405180830381865afa158015610640573d6000803e3d6000fd5b505050506040513d601f19601f820116820180604052508101906106649190611402565b10156106a5576040517f08c379a000000000000000000000000000000000000000000000000000000000815260040161069c906114bd565b60405180910390fd5b6106af8282610791565b5050565b600c60009054906101000a900473ffffffffffffffffffffffffffffffffffffffff1681565b600a5481565b600680546106ec90611392565b80601f016020809104026020016040519081016040528092919081815260200182805461071890611392565b80156107655780601f1061073a57610100808354040283529160200191610765565b820191906000526020600020905b81548152906001019060200180831161074857829003601f168201915b505050505081565b60008054906101000a900473ffffffffffffffffffffffffffffffffffffffff1681565b60008054906101000a900473ffffffffffffffffffffffffffffffffffffffff1673ffffffffffffffffffffffffffffffffffffffff166323b872dd600c60009054906101000a900473ffffffffffffffffffffffffffffffffffffffff1673ffffffffffffffffffffffffffffffffffffffff16631599a352336040518263ffffffff1660e01b815260040161082891906113d2565b602060405180830381865afa158015610845573d6000803e3d6000fd5b505050506040513d601f19601f820116820180604052508101906108699190611444565b30856040518463ffffffff1660e01b8152600401610889939291906114dd565b6020604051808303816000875af11580156108a8573d6000803e3d6000fd5b505050506040513d601f19601f820116820180604052508101906108cc919061154c565b50600e60009054906101000a900473ffffffffffffffffffffffffffffffffffffffff1673ffffffffffffffffffffffffffffffffffffffff1663c4ee4c0d30600c60009054906101000a900473ffffffffffffffffffffffffffffffffffffffff1673ffffffffffffffffffffffffffffffffffffffff16631599a352336040518263ffffffff1660e01b815260040161096791906113d2565b602060405180830381865afa158015610984573d6000803e3d6000fd5b505050506040513d601f19601f820116820180604052508101906109a89190611444565b4285876040518663ffffffff1660e01b81526004016109cb959493929190611579565b600060405180830381600087803b1580156109e557600080fd5b505af11580156109f9573d6000803e3d6000fd5b50505050610a0682610a0a565b5050565b80600a6000828254610a1c9190611602565b9250508190555060006064604683610a349190611636565b610a3e91906116a7565b905060006064601984610a519190611636565b610a5b91906116a7565b90506000818385610a6c91906116d8565b610a7691906116d8565b905060005b600e60009054906101000a900473ffffffffffffffffffffffffffffffffffffffff1673ffffffffffffffffffffffffffffffffffffffff1663d621e518306040518263ffffffff1660e01b8152600401610ad691906113d2565b600060405180830381865afa158015610af3573d6000803e3d6000fd5b505050506040513d6000823e3d601f19601f82011682018060405250810190610b1c9190611900565b51811015610d6a5760008054906101000a900473ffffffffffffffffffffffffffffffffffffffff1673ffffffffffffffffffffffffffffffffffffffff1663a9059cbb600e60009054906101000a900473ffffffffffffffffffffffffffffffffffffffff1673ffffffffffffffffffffffffffffffffffffffff1663d621e518306040518263ffffffff1660e01b8152600401610bbb91906113d2565b600060405180830381865afa158015610bd8573d6000803e3d6000fd5b505050506040513d6000823e3d601f19601f82011682018060405250810190610c019190611900565b8381518110610c1357610c12611949565b5b602002602001015160000151600a54600e60009054906101000a900473ffffffffffffffffffffffffffffffffffffffff1673ffffffffffffffffffffffffffffffffffffffff1663d621e518306040518263ffffffff1660e01b8152600401610c7d91906113d2565b600060405180830381865afa158015610c9a573d6000803e3d6000fd5b505050506040513d6000823e3d601f19601f82011682018060405250810190610cc39190611900565b8581518110610cd557610cd4611949565b5b60200260200101516060015188610cec9190611636565b610cf691906116a7565b6040518363ffffffff1660e01b8152600401610d13929190611978565b6020604051808303816000875af1158015610d32573d6000803e3d6000fd5b505050506040513d601f19601f82011682018060405250810190610d56919061154c565b508080610d62906119a1565b915050610a7b565b5060008054906101000a900473ffffffffffffffffffffffffffffffffffffffff1673ffffffffffffffffffffffffffffffffffffffff1663a9059cbb600460009054906101000a900473ffffffffffffffffffffffffffffffffffffffff16846040518363ffffffff1660e01b8152600401610de8929190611978565b6020604051808303816000875af1158015610e07573d6000803e3d6000fd5b505050506040513d601f19601f82011682018060405250810190610e2b919061154c565b5060008054906101000a900473ffffffffffffffffffffffffffffffffffffffff1673ffffffffffffffffffffffffffffffffffffffff1663a9059cbb600560009054906101000a900473ffffffffffffffffffffffffffffffffffffffff16836040518363ffffffff1660e01b8152600401610ea9929190611978565b6020604051808303816000875af1158015610ec8573d6000803e3d6000fd5b505050506040513d601f19601f82011682018060405250810190610eec919061154c565b5050505050565b6000604051905090565b600080fd5b600080fd5b600073ffffffffffffffffffffffffffffffffffffffff82169050919050565b6000610f3282610f07565b9050919050565b610f4281610f27565b8114610f4d57600080fd5b50565b600081359050610f5f81610f39565b92915050565b600060208284031215610f7b57610f7a610efd565b5b6000610f8984828501610f50565b91505092915050565b600081519050919050565b600082825260208201905092915050565b60005b83811015610fcc578082015181840152602081019050610fb1565b60008484015250505050565b6000601f19601f8301169050919050565b6000610ff482610f92565b610ffe8185610f9d565b935061100e818560208601610fae565b61101781610fd8565b840191505092915050565b6000602082019050818103600083015261103c8184610fe9565b905092915050565b6000819050919050565b600061106961106461105f84610f07565b611044565b610f07565b9050919050565b600061107b8261104e565b9050919050565b600061108d82611070565b9050919050565b61109d81611082565b82525050565b60006020820190506110b86000830184611094565b92915050565b6000819050919050565b6110d1816110be565b82525050565b60006020820190506110ec60008301846110c8565b92915050565b60006110fd82611070565b9050919050565b61110d816110f2565b82525050565b60006020820190506111286000830184611104565b92915050565b611137816110be565b811461114257600080fd5b50565b6000813590506111548161112e565b92915050565b600080fd5b600080fd5b7f4e487b7100000000000000000000000000000000000000000000000000000000600052604160045260246000fd5b61119c82610fd8565b810181811067ffffffffffffffff821117156111bb576111ba611164565b5b80604052505050565b60006111ce610ef3565b90506111da8282611193565b919050565b600067ffffffffffffffff8211156111fa576111f9611164565b5b61120382610fd8565b9050602081019050919050565b82818337600083830152505050565b600061123261122d846111df565b6111c4565b90508281526020810184848401111561124e5761124d61115f565b5b611259848285611210565b509392505050565b600082601f8301126112765761127561115a565b5b813561128684826020860161121f565b91505092915050565b600080604083850312156112a6576112a5610efd565b5b60006112b485828601611145565b925050602083013567ffffffffffffffff8111156112d5576112d4610f02565b5b6112e185828601611261565b9150509250929050565b60006112f682611070565b9050919050565b611306816112eb565b82525050565b600060208201905061132160008301846112fd565b92915050565b600061133282611070565b9050919050565b61134281611327565b82525050565b600060208201905061135d6000830184611339565b92915050565b7f4e487b7100000000000000000000000000000000000000000000000000000000600052602260045260246000fd5b600060028204905060018216806113aa57607f821691505b6020821081036113bd576113bc611363565b5b50919050565b6113cc81610f27565b82525050565b60006020820190506113e760008301846113c3565b92915050565b6000815190506113fc8161112e565b92915050565b60006020828403121561141857611417610efd565b5b6000611426848285016113ed565b91505092915050565b60008151905061143e81610f39565b92915050565b60006020828403121561145a57611459610efd565b5b60006114688482850161142f565b91505092915050565b7f4e6f7420656e6f75676800000000000000000000000000000000000000000000600082015250565b60006114a7600a83610f9d565b91506114b282611471565b602082019050919050565b600060208201905081810360008301526114d68161149a565b9050919050565b60006060820190506114f260008301866113c3565b6114ff60208301856113c3565b61150c60408301846110c8565b949350505050565b60008115159050919050565b61152981611514565b811461153457600080fd5b50565b60008151905061154681611520565b92915050565b60006020828403121561156257611561610efd565b5b600061157084828501611537565b91505092915050565b600060a08201905061158e60008301886113c3565b61159b60208301876113c3565b6115a860408301866110c8565b81810360608301526115ba8185610fe9565b90506115c960808301846110c8565b9695505050505050565b7f4e487b7100000000000000000000000000000000000000000000000000000000600052601160045260246000fd5b600061160d826110be565b9150611618836110be565b92508282019050808211156116305761162f6115d3565b5b92915050565b6000611641826110be565b915061164c836110be565b925082820261165a816110be565b91508282048414831517611671576116706115d3565b5b5092915050565b7f4e487b7100000000000000000000000000000000000000000000000000000000600052601260045260246000fd5b60006116b2826110be565b91506116bd836110be565b9250826116cd576116cc611678565b5b828204905092915050565b60006116e3826110be565b91506116ee836110be565b9250828203905081811115611706576117056115d3565b5b92915050565b600067ffffffffffffffff82111561172757611726611164565b5b602082029050602081019050919050565b600080fd5b600080fd5b600080fd5b600061175a611755846111df565b6111c4565b9050828152602081018484840111156117765761177561115f565b5b611781848285610fae565b509392505050565b600082601f83011261179e5761179d61115a565b5b81516117ae848260208601611747565b91505092915050565b6000608082840312156117cd576117cc61173d565b5b6117d760806111c4565b905060006117e78482850161142f565b60008301525060206117fb848285016113ed565b602083015250604082015167ffffffffffffffff81111561181f5761181e611742565b5b61182b84828501611789565b604083015250606061183f848285016113ed565b60608301525092915050565b600061185e6118598461170c565b6111c4565b9050808382526020820190506020840283018581111561188157611880611738565b5b835b818110156118c857805167ffffffffffffffff8111156118a6576118a561115a565b5b8086016118b389826117b7565b85526020850194505050602081019050611883565b5050509392505050565b600082601f8301126118e7576118e661115a565b5b81516118f784826020860161184b565b91505092915050565b60006020828403121561191657611915610efd565b5b600082015167ffffffffffffffff81111561193457611933610f02565b5b611940848285016118d2565b91505092915050565b7f4e487b7100000000000000000000000000000000000000000000000000000000600052603260045260246000fd5b600060408201905061198d60008301856113c3565b61199a60208301846110c8565b9392505050565b60006119ac826110be565b91507fffffffffffffffffffffffffffffffffffffffffffffffffffffffffffffffff82036119de576119dd6115d3565b5b60018201905091905056fea264697066735822122050335bffc8188ca208f07108bafb20a9a9e96fcf8adb36d11f8d15480685063c64736f6c63430008110033a2646970667358221220a10382f28123a7198f23dd7a208f3c0a9cbc6056c8882befa3ef7c865163ce5864736f6c63430008110033a2646970667358221220bc6f45c678b9d54a71d95d9883418d28a9fc623755316ea66693bcbaa304092064736f6c63430008110033",
  "linkReferences": {},
  "deployedLinkReferences": {}
}