{
  "_format": "hh-sol-artifact-1",
  "contractName": "DaoPoolFactory",
  "sourceName": "contracts/factory/DaoPoolFactory.sol",
  "abi": [
    {
      "inputs": [],
      "stateMutability": "nonpayable",
      "type": "constructor"
    },
    {
      "inputs": [],
      "name": "daosData",
      "outputs": [
        {
          "internalType": "contract IDaosData",
          "name": "",
          "type": "address"
        }
      ],
      "stateMutability": "view",
      "type": "function"
    },
    {
      "inputs": [
        {
          "internalType": "string",
          "name": "_daoName",
          "type": "string"
        },
        {
          "internalType": "string",
          "name": "_daoProfile",
          "type": "string"
        },
        {
          "internalType": "string",
          "name": "_daoIcon",
          "type": "string"
        }
      ],
      "name": "newDaoPoolFactory",
      "outputs": [
        {
          "internalType": "address",
          "name": "",
          "type": "address"
        }
      ],
      "stateMutability": "nonpayable",
      "type": "function"
    },
    {
      "inputs": [],
      "name": "poolListData",
      "outputs": [
        {
          "internalType": "contract IPoolListData",
          "name": "",
          "type": "address"
        }
      ],
      "stateMutability": "view",
      "type": "function"
    },
    {
      "inputs": [
        {
          "internalType": "address",
          "name": "daosDataAddress",
          "type": "address"
        }
      ],
      "name": "setDaosData",
      "outputs": [],
      "stateMutability": "nonpayable",
      "type": "function"
    },
    {
      "inputs": [
        {
          "internalType": "address",
          "name": "poolListDataAddress",
          "type": "address"
        }
      ],
      "name": "setPoolListData",
      "outputs": [],
      "stateMutability": "nonpayable",
      "type": "function"
    }
  ],
  "bytecode": "0x608060405234801561001057600080fd5b5060008054906101000a900473ffffffffffffffffffffffffffffffffffffffff16600160006101000a81548173ffffffffffffffffffffffffffffffffffffffff021916908373ffffffffffffffffffffffffffffffffffffffff160217905550600260009054906101000a900473ffffffffffffffffffffffffffffffffffffffff16600360006101000a81548173ffffffffffffffffffffffffffffffffffffffff021916908373ffffffffffffffffffffffffffffffffffffffff160217905550615b93806100e46000396000f3fe60806040523480156200001157600080fd5b50600436106200005e5760003560e01c806316e66f43146200006357806371b3423d14620000835780637965d0de14620000a5578063ba280f2614620000c5578063d5988a3614620000fb575b600080fd5b6200008160048036038101906200007b919062000626565b6200011d565b005b6200008d620001a1565b6040516200009c9190620006c3565b60405180910390f35b620000c36004803603810190620000bd919062000626565b620001c7565b005b620000e36004803603810190620000dd919062000842565b6200024c565b604051620000f291906200090c565b60405180910390f35b6200010562000579565b6040516200011491906200094e565b60405180910390f35b806000806101000a81548173ffffffffffffffffffffffffffffffffffffffff021916908373ffffffffffffffffffffffffffffffffffffffff16021790555080600160006101000a81548173ffffffffffffffffffffffffffffffffffffffff021916908373ffffffffffffffffffffffffffffffffffffffff16021790555050565b600160009054906101000a900473ffffffffffffffffffffffffffffffffffffffff1681565b80600260006101000a81548173ffffffffffffffffffffffffffffffffffffffff021916908373ffffffffffffffffffffffffffffffffffffffff16021790555080600360006101000a81548173ffffffffffffffffffffffffffffffffffffffff021916908373ffffffffffffffffffffffffffffffffffffffff16021790555050565b60008073ffffffffffffffffffffffffffffffffffffffff16600160009054906101000a900473ffffffffffffffffffffffffffffffffffffffff1673ffffffffffffffffffffffffffffffffffffffff16631599a352336040518263ffffffff1660e01b8152600401620002c291906200090c565b602060405180830381865afa158015620002e0573d6000803e3d6000fd5b505050506040513d601f19601f8201168201806040525081019062000306919062000982565b73ffffffffffffffffffffffffffffffffffffffff16146200035f576040517f08c379a0000000000000000000000000000000000000000000000000000000008152600401620003569062000a15565b60405180910390fd5b6000338585853060405162000374906200059f565b6200038495949392919062000aaf565b604051809103906000f080158015620003a1573d6000803e3d6000fd5b509050600360009054906101000a900473ffffffffffffffffffffffffffffffffffffffff1673ffffffffffffffffffffffffffffffffffffffff166302c256f6338787876040518563ffffffff1660e01b815260040162000407949392919062000b21565b600060405180830381600087803b1580156200042257600080fd5b505af115801562000437573d6000803e3d6000fd5b50505050600160009054906101000a900473ffffffffffffffffffffffffffffffffffffffff1673ffffffffffffffffffffffffffffffffffffffff16635e52fe5033836040518363ffffffff1660e01b81526004016200049a92919062000b83565b600060405180830381600087803b158015620004b557600080fd5b505af1158015620004ca573d6000803e3d6000fd5b50505050600160009054906101000a900473ffffffffffffffffffffffffffffffffffffffff1673ffffffffffffffffffffffffffffffffffffffff16631599a352336040518263ffffffff1660e01b81526004016200052b91906200090c565b602060405180830381865afa15801562000549573d6000803e3d6000fd5b505050506040513d601f19601f820116820180604052508101906200056f919062000982565b9150509392505050565b600360009054906101000a900473ffffffffffffffffffffffffffffffffffffffff1681565b614fad8062000bb183390190565b6000604051905090565b600080fd5b600080fd5b600073ffffffffffffffffffffffffffffffffffffffff82169050919050565b6000620005ee82620005c1565b9050919050565b6200060081620005e1565b81146200060c57600080fd5b50565b6000813590506200062081620005f5565b92915050565b6000602082840312156200063f576200063e620005b7565b5b60006200064f848285016200060f565b91505092915050565b6000819050919050565b6000620006836200067d6200067784620005c1565b62000658565b620005c1565b9050919050565b6000620006978262000662565b9050919050565b6000620006ab826200068a565b9050919050565b620006bd816200069e565b82525050565b6000602082019050620006da6000830184620006b2565b92915050565b600080fd5b600080fd5b6000601f19601f8301169050919050565b7f4e487b7100000000000000000000000000000000000000000000000000000000600052604160045260246000fd5b6200073582620006ea565b810181811067ffffffffffffffff82111715620007575762000756620006fb565b5b80604052505050565b60006200076c620005ad565b90506200077a82826200072a565b919050565b600067ffffffffffffffff8211156200079d576200079c620006fb565b5b620007a882620006ea565b9050602081019050919050565b82818337600083830152505050565b6000620007db620007d5846200077f565b62000760565b905082815260208101848484011115620007fa57620007f9620006e5565b5b62000807848285620007b5565b509392505050565b600082601f830112620008275762000826620006e0565b5b813562000839848260208601620007c4565b91505092915050565b6000806000606084860312156200085e576200085d620005b7565b5b600084013567ffffffffffffffff8111156200087f576200087e620005bc565b5b6200088d868287016200080f565b935050602084013567ffffffffffffffff811115620008b157620008b0620005bc565b5b620008bf868287016200080f565b925050604084013567ffffffffffffffff811115620008e357620008e2620005bc565b5b620008f1868287016200080f565b9150509250925092565b6200090681620005e1565b82525050565b6000602082019050620009236000830184620008fb565b92915050565b600062000936826200068a565b9050919050565b620009488162000929565b82525050565b60006020820190506200096560008301846200093d565b92915050565b6000815190506200097c81620005f5565b92915050565b6000602082840312156200099b576200099a620005b7565b5b6000620009ab848285016200096b565b91505092915050565b600082825260208201905092915050565b7f616c726561647920637265617465642100000000000000000000000000000000600082015250565b6000620009fd601083620009b4565b915062000a0a82620009c5565b602082019050919050565b6000602082019050818103600083015262000a3081620009ee565b9050919050565b600081519050919050565b60005b8381101562000a6257808201518184015260208101905062000a45565b60008484015250505050565b600062000a7b8262000a37565b62000a878185620009b4565b935062000a9981856020860162000a42565b62000aa481620006ea565b840191505092915050565b600060a08201905062000ac66000830188620008fb565b818103602083015262000ada818762000a6e565b9050818103604083015262000af0818662000a6e565b9050818103606083015262000b06818562000a6e565b905062000b176080830184620008fb565b9695505050505050565b600060808201905062000b386000830187620008fb565b818103602083015262000b4c818662000a6e565b9050818103604083015262000b62818562000a6e565b9050818103606083015262000b78818462000a6e565b905095945050505050565b600060408201905062000b9a6000830185620008fb565b62000ba96020830184620008fb565b939250505056fe60806040527338d4172dde4e50a8cdd8b39abc572443d18ad72d600a60006101000a81548173ffffffffffffffffffffffffffffffffffffffff021916908373ffffffffffffffffffffffffffffffffffffffff1602179055503480156200006657600080fd5b5060405162004fad38038062004fad83398181016040528101906200008c9190620004af565b600a60009054906101000a900473ffffffffffffffffffffffffffffffffffffffff16600260006101000a81548173ffffffffffffffffffffffffffffffffffffffff021916908373ffffffffffffffffffffffffffffffffffffffff16021790555084600560006101000a81548173ffffffffffffffffffffffffffffffffffffffff021916908373ffffffffffffffffffffffffffffffffffffffff16021790555084600660006101000a81548173ffffffffffffffffffffffffffffffffffffffff021916908373ffffffffffffffffffffffffffffffffffffffff1602179055508360079081620001829190620007df565b508260089081620001949190620007df565b508160099081620001a69190620007df565b5080600460006101000a81548173ffffffffffffffffffffffffffffffffffffffff021916908373ffffffffffffffffffffffffffffffffffffffff160217905550600460009054906101000a900473ffffffffffffffffffffffffffffffffffffffff16600360006101000a81548173ffffffffffffffffffffffffffffffffffffffff021916908373ffffffffffffffffffffffffffffffffffffffff16021790555060008054906101000a900473ffffffffffffffffffffffffffffffffffffffff16600160006101000a81548173ffffffffffffffffffffffffffffffffffffffff021916908373ffffffffffffffffffffffffffffffffffffffff1602179055505050505050620008c6565b6000604051905090565b600080fd5b600080fd5b600073ffffffffffffffffffffffffffffffffffffffff82169050919050565b6000620002f882620002cb565b9050919050565b6200030a81620002eb565b81146200031657600080fd5b50565b6000815190506200032a81620002ff565b92915050565b600080fd5b600080fd5b6000601f19601f8301169050919050565b7f4e487b7100000000000000000000000000000000000000000000000000000000600052604160045260246000fd5b62000385826200033a565b810181811067ffffffffffffffff82111715620003a757620003a66200034b565b5b80604052505050565b6000620003bc620002b7565b9050620003ca82826200037a565b919050565b600067ffffffffffffffff821115620003ed57620003ec6200034b565b5b620003f8826200033a565b9050602081019050919050565b60005b838110156200042557808201518184015260208101905062000408565b60008484015250505050565b6000620004486200044284620003cf565b620003b0565b90508281526020810184848401111562000467576200046662000335565b5b6200047484828562000405565b509392505050565b600082601f83011262000494576200049362000330565b5b8151620004a684826020860162000431565b91505092915050565b600080600080600060a08688031215620004ce57620004cd620002c1565b5b6000620004de8882890162000319565b955050602086015167ffffffffffffffff811115620005025762000501620002c6565b5b62000510888289016200047c565b945050604086015167ffffffffffffffff811115620005345762000533620002c6565b5b62000542888289016200047c565b935050606086015167ffffffffffffffff811115620005665762000565620002c6565b5b62000574888289016200047c565b9250506080620005878882890162000319565b9150509295509295909350565b600081519050919050565b7f4e487b7100000000000000000000000000000000000000000000000000000000600052602260045260246000fd5b60006002820490506001821680620005e757607f821691505b602082108103620005fd57620005fc6200059f565b5b50919050565b60008190508160005260206000209050919050565b60006020601f8301049050919050565b600082821b905092915050565b600060088302620006677fffffffffffffffffffffffffffffffffffffffffffffffffffffffffffffffff8262000628565b62000673868362000628565b95508019841693508086168417925050509392505050565b6000819050919050565b6000819050919050565b6000620006c0620006ba620006b4846200068b565b62000695565b6200068b565b9050919050565b6000819050919050565b620006dc836200069f565b620006f4620006eb82620006c7565b84845462000635565b825550505050565b600090565b6200070b620006fc565b62000718818484620006d1565b505050565b5b8181101562000740576200073460008262000701565b6001810190506200071e565b5050565b601f8211156200078f57620007598162000603565b620007648462000618565b8101602085101562000774578190505b6200078c620007838562000618565b8301826200071d565b50505b505050565b600082821c905092915050565b6000620007b46000198460080262000794565b1980831691505092915050565b6000620007cf8383620007a1565b9150826002028217905092915050565b620007ea8262000594565b67ffffffffffffffff8111156200080657620008056200034b565b5b620008128254620005ce565b6200081f82828562000744565b600060209050601f83116001811462000857576000841562000842578287015190505b6200084e8582620007c1565b865550620008be565b601f198416620008678662000603565b60005b8281101562000891578489015182556001820191506020850194506020810190506200086a565b86831015620008b15784890151620008ad601f891682620007a1565b8355505b6001600288020188555050505b505050505050565b6146d780620008d66000396000f3fe60806040523480156200001157600080fd5b5060043610620001485760003560e01c80636e1c120211620000bd578063cc371c14116200007b578063cc371c14146200036d578063d39d655e146200038f578063d4a4fc4c14620003af578063d4dadf0114620003d1578063f6acee2314620004075762000148565b80636e1c120214620002c757806397987faf14620002e9578063a36b5fa21462000309578063a7319fd81462000329578063a80fcbf0146200034b5762000148565b80634a377870116200010b5780634a37787014620001f75780634c18308a146200022d5780634d7adf0914620002635780635e001c341462000285578063649c3f2b14620002a55762000148565b80631d68702d146200014d5780631d90fb1f146200016f5780632131c68c14620001915780632f593a0b14620001b35780634897693614620001d5575b600080fd5b6200015762000429565b6040516200016691906200146c565b60405180910390f35b6200017962000453565b604051620001889190620014f4565b60405180910390f35b6200019b62000479565b604051620001aa91906200146c565b60405180910390f35b620001bd6200049f565b604051620001cc9190620015ab565b60405180910390f35b620001df62000539565b604051620001ee9190620015ab565b60405180910390f35b6200021560048036038101906200020f919062001614565b620005cf565b60405162000224919062001663565b60405180910390f35b6200024b6004803603810190620002459190620017d1565b6200070c565b6040516200025a91906200146c565b60405180910390f35b6200026d6200076c565b6040516200027c9190620018af565b60405180910390f35b620002a360048036038101906200029d919062001614565b62000792565b005b620002af62000817565b604051620002be9190620015ab565b60405180910390f35b620002d1620008ad565b604051620002e09190620015ab565b60405180910390f35b62000307600480360381019062000301919062001907565b62000943565b005b62000327600480360381019062000321919062001907565b62000b4f565b005b6200033362000e47565b6040516200034291906200146c565b60405180910390f35b6200035562000e4f565b604051620003649190620015ab565b60405180910390f35b6200037762000ee9565b60405162000386919062001afa565b60405180910390f35b620003ad6004803603810190620003a7919062001614565b62000f96565b005b620003b96200101a565b604051620003c89190620015ab565b60405180910390f35b620003ef6004803603810190620003e9919062001614565b620010b4565b604051620003fe919062001663565b60405180910390f35b6200041162001351565b60405162000420919062001b43565b60405180910390f35b6000600660009054906101000a900473ffffffffffffffffffffffffffffffffffffffff16905090565b600360009054906101000a900473ffffffffffffffffffffffffffffffffffffffff1681565b600660009054906101000a900473ffffffffffffffffffffffffffffffffffffffff1681565b606060088054620004b09062001b8f565b80601f0160208091040260200160405190810160405280929190818152602001828054620004de9062001b8f565b80156200052f5780601f1062000503576101008083540402835291602001916200052f565b820191906000526020600020905b8154815290600101906020018083116200051157829003601f168201915b5050505050905090565b60078054620005489062001b8f565b80601f0160208091040260200160405190810160405280929190818152602001828054620005769062001b8f565b8015620005c75780601f106200059b57610100808354040283529160200191620005c7565b820191906000526020600020905b815481529060010190602001808311620005a957829003601f168201915b505050505081565b6000600c60008373ffffffffffffffffffffffffffffffffffffffff1673ffffffffffffffffffffffffffffffffffffffff16815260200190815260200160002060009054906101000a900460ff1662000660576040517f08c379a0000000000000000000000000000000000000000000000000000000008152600401620006579062001c14565b60405180910390fd5b6000600c60008473ffffffffffffffffffffffffffffffffffffffff1673ffffffffffffffffffffffffffffffffffffffff16815260200190815260200160002060006101000a81548160ff021916908315150217905550600c60008373ffffffffffffffffffffffffffffffffffffffff1673ffffffffffffffffffffffffffffffffffffffff16815260200190815260200160002060009054906101000a900460ff169050919050565b6000803030868686604051620007229062001419565b6200073295949392919062001c36565b604051809103906000f0801580156200074f573d6000803e3d6000fd5b50905062000761813087878762001377565b809150509392505050565b600160009054906101000a900473ffffffffffffffffffffffffffffffffffffffff1681565b80600a60006101000a81548173ffffffffffffffffffffffffffffffffffffffff021916908373ffffffffffffffffffffffffffffffffffffffff16021790555080600260006101000a81548173ffffffffffffffffffffffffffffffffffffffff021916908373ffffffffffffffffffffffffffffffffffffffff16021790555050565b60088054620008269062001b8f565b80601f0160208091040260200160405190810160405280929190818152602001828054620008549062001b8f565b8015620008a55780601f106200087957610100808354040283529160200191620008a5565b820191906000526020600020905b8154815290600101906020018083116200088757829003601f168201915b505050505081565b60098054620008bc9062001b8f565b80601f0160208091040260200160405190810160405280929190818152602001828054620008ea9062001b8f565b80156200093b5780601f106200090f576101008083540402835291602001916200093b565b820191906000526020600020905b8154815290600101906020018083116200091d57829003601f168201915b505050505081565b3373ffffffffffffffffffffffffffffffffffffffff16600560009054906101000a900473ffffffffffffffffffffffffffffffffffffffff1673ffffffffffffffffffffffffffffffffffffffff16146200099e57600080fd5b80600260009054906101000a900473ffffffffffffffffffffffffffffffffffffffff1673ffffffffffffffffffffffffffffffffffffffff166370a08231306040518263ffffffff1660e01b8152600401620009fc91906200146c565b602060405180830381865afa15801562000a1a573d6000803e3d6000fd5b505050506040513d601f19601f8201168201806040525081019062000a40919062001cbf565b101562000a84576040517f08c379a000000000000000000000000000000000000000000000000000000000815260040162000a7b9062001d41565b60405180910390fd5b600260009054906101000a900473ffffffffffffffffffffffffffffffffffffffff1673ffffffffffffffffffffffffffffffffffffffff1663a9059cbb600660009054906101000a900473ffffffffffffffffffffffffffffffffffffffff16836040518363ffffffff1660e01b815260040162000b0592919062001d74565b6020604051808303816000875af115801562000b25573d6000803e3d6000fd5b505050506040513d601f19601f8201168201806040525081019062000b4b919062001dd2565b5050565b3373ffffffffffffffffffffffffffffffffffffffff16600560009054906101000a900473ffffffffffffffffffffffffffffffffffffffff1673ffffffffffffffffffffffffffffffffffffffff161462000baa57600080fd5b80600260009054906101000a900473ffffffffffffffffffffffffffffffffffffffff1673ffffffffffffffffffffffffffffffffffffffff166370a08231600660009054906101000a900473ffffffffffffffffffffffffffffffffffffffff166040518263ffffffff1660e01b815260040162000c2a91906200146c565b602060405180830381865afa15801562000c48573d6000803e3d6000fd5b505050506040513d601f19601f8201168201806040525081019062000c6e919062001cbf565b101562000cb2576040517f08c379a000000000000000000000000000000000000000000000000000000000815260040162000ca99062001d41565b60405180910390fd5b600260009054906101000a900473ffffffffffffffffffffffffffffffffffffffff1673ffffffffffffffffffffffffffffffffffffffff1663095ea7b3600660009054906101000a900473ffffffffffffffffffffffffffffffffffffffff16836040518363ffffffff1660e01b815260040162000d3392919062001d74565b6020604051808303816000875af115801562000d53573d6000803e3d6000fd5b505050506040513d601f19601f8201168201806040525081019062000d79919062001dd2565b50600260009054906101000a900473ffffffffffffffffffffffffffffffffffffffff1673ffffffffffffffffffffffffffffffffffffffff166323b872dd600660009054906101000a900473ffffffffffffffffffffffffffffffffffffffff1630846040518463ffffffff1660e01b815260040162000dfd9392919062001e04565b6020604051808303816000875af115801562000e1d573d6000803e3d6000fd5b505050506040513d601f19601f8201168201806040525081019062000e43919062001dd2565b5050565b600030905090565b60606009805462000e609062001b8f565b80601f016020809104026020016040519081016040528092919081815260200182805462000e8e9062001b8f565b801562000edf5780601f1062000eb35761010080835404028352916020019162000edf565b820191906000526020600020905b81548152906001019060200180831162000ec157829003601f168201915b5050505050905090565b6060600160009054906101000a900473ffffffffffffffffffffffffffffffffffffffff1673ffffffffffffffffffffffffffffffffffffffff166358cedf57306040518263ffffffff1660e01b815260040162000f4891906200146c565b600060405180830381865afa15801562000f66573d6000803e3d6000fd5b505050506040513d6000823e3d601f19601f8201168201806040525081019062000f919190620020d4565b905090565b806000806101000a81548173ffffffffffffffffffffffffffffffffffffffff021916908373ffffffffffffffffffffffffffffffffffffffff16021790555080600160006101000a81548173ffffffffffffffffffffffffffffffffffffffff021916908373ffffffffffffffffffffffffffffffffffffffff16021790555050565b6060600780546200102b9062001b8f565b80601f0160208091040260200160405190810160405280929190818152602001828054620010599062001b8f565b8015620010aa5780601f106200107e57610100808354040283529160200191620010aa565b820191906000526020600020905b8154815290600101906020018083116200108c57829003601f168201915b5050505050905090565b6000600c60008373ffffffffffffffffffffffffffffffffffffffff1673ffffffffffffffffffffffffffffffffffffffff16815260200190815260200160002060009054906101000a900460ff161562001146576040517f08c379a00000000000000000000000000000000000000000000000000000000081526004016200113d9062002175565b60405180910390fd5b60005b600b80549050811015620012fc578273ffffffffffffffffffffffffffffffffffffffff16600b828154811062001185576200118462002197565b5b9060005260206000200160009054906101000a900473ffffffffffffffffffffffffffffffffffffffff1673ffffffffffffffffffffffffffffffffffffffff16036200122a576001600c60008573ffffffffffffffffffffffffffffffffffffffff1673ffffffffffffffffffffffffffffffffffffffff16815260200190815260200160002060006101000a81548160ff021916908315150217905550620012e6565b600b839080600181540180825580915050600190039060005260206000200160009091909190916101000a81548173ffffffffffffffffffffffffffffffffffffffff021916908373ffffffffffffffffffffffffffffffffffffffff1602179055506001600c60008573ffffffffffffffffffffffffffffffffffffffff1673ffffffffffffffffffffffffffffffffffffffff16815260200190815260200160002060006101000a81548160ff0219169083151502179055505b8080620012f390620021f5565b91505062001149565b50600c60008373ffffffffffffffffffffffffffffffffffffffff1673ffffffffffffffffffffffffffffffffffffffff16815260200190815260200160002060009054906101000a900460ff169050919050565b600260009054906101000a900473ffffffffffffffffffffffffffffffffffffffff1681565b600160009054906101000a900473ffffffffffffffffffffffffffffffffffffffff1673ffffffffffffffffffffffffffffffffffffffff1663c34b28f53087878787876040518763ffffffff1660e01b8152600401620013de9695949392919062002242565b600060405180830381600087803b158015620013f957600080fd5b505af11580156200140e573d6000803e3d6000fd5b505050505050505050565b6123dd80620022c583390190565b600073ffffffffffffffffffffffffffffffffffffffff82169050919050565b6000620014548262001427565b9050919050565b620014668162001447565b82525050565b60006020820190506200148360008301846200145b565b92915050565b6000819050919050565b6000620014b4620014ae620014a88462001427565b62001489565b62001427565b9050919050565b6000620014c88262001493565b9050919050565b6000620014dc82620014bb565b9050919050565b620014ee81620014cf565b82525050565b60006020820190506200150b6000830184620014e3565b92915050565b600081519050919050565b600082825260208201905092915050565b60005b838110156200154d57808201518184015260208101905062001530565b60008484015250505050565b6000601f19601f8301169050919050565b6000620015778262001511565b6200158381856200151c565b9350620015958185602086016200152d565b620015a08162001559565b840191505092915050565b60006020820190508181036000830152620015c781846200156a565b905092915050565b6000604051905090565b600080fd5b600080fd5b620015ee8162001447565b8114620015fa57600080fd5b50565b6000813590506200160e81620015e3565b92915050565b6000602082840312156200162d576200162c620015d9565b5b60006200163d84828501620015fd565b91505092915050565b60008115159050919050565b6200165d8162001646565b82525050565b60006020820190506200167a600083018462001652565b92915050565b600080fd5b600080fd5b7f4e487b7100000000000000000000000000000000000000000000000000000000600052604160045260246000fd5b620016c48262001559565b810181811067ffffffffffffffff82111715620016e657620016e56200168a565b5b80604052505050565b6000620016fb620015cf565b9050620017098282620016b9565b919050565b600067ffffffffffffffff8211156200172c576200172b6200168a565b5b620017378262001559565b9050602081019050919050565b82818337600083830152505050565b60006200176a62001764846200170e565b620016ef565b90508281526020810184848401111562001789576200178862001685565b5b6200179684828562001744565b509392505050565b600082601f830112620017b657620017b562001680565b5b8135620017c884826020860162001753565b91505092915050565b600080600060608486031215620017ed57620017ec620015d9565b5b600084013567ffffffffffffffff8111156200180e576200180d620015de565b5b6200181c868287016200179e565b935050602084013567ffffffffffffffff81111562001840576200183f620015de565b5b6200184e868287016200179e565b925050604084013567ffffffffffffffff811115620018725762001871620015de565b5b62001880868287016200179e565b9150509250925092565b60006200189782620014bb565b9050919050565b620018a9816200188a565b82525050565b6000602082019050620018c660008301846200189e565b92915050565b6000819050919050565b620018e181620018cc565b8114620018ed57600080fd5b50565b6000813590506200190181620018d6565b92915050565b60006020828403121562001920576200191f620015d9565b5b60006200193084828501620018f0565b91505092915050565b600081519050919050565b600082825260208201905092915050565b6000819050602082019050919050565b620019708162001447565b82525050565b600082825260208201905092915050565b6000620019948262001511565b620019a0818562001976565b9350620019b28185602086016200152d565b620019bd8162001559565b840191505092915050565b600060a083016000830151620019e2600086018262001965565b506020830151620019f7602086018262001965565b506040830151848203604086015262001a11828262001987565b9150506060830151848203606086015262001a2d828262001987565b9150506080830151848203608086015262001a49828262001987565b9150508091505092915050565b600062001a648383620019c8565b905092915050565b6000602082019050919050565b600062001a868262001939565b62001a92818562001944565b93508360208202850162001aa68562001955565b8060005b8581101562001ae8578484038952815162001ac6858262001a56565b945062001ad38362001a6c565b925060208a0199505060018101905062001aaa565b50829750879550505050505092915050565b6000602082019050818103600083015262001b16818462001a79565b905092915050565b600062001b2b82620014bb565b9050919050565b62001b3d8162001b1e565b82525050565b600060208201905062001b5a600083018462001b32565b92915050565b7f4e487b7100000000000000000000000000000000000000000000000000000000600052602260045260246000fd5b6000600282049050600182168062001ba857607f821691505b60208210810362001bbe5762001bbd62001b60565b5b50919050565b7f616c7265616479206e6f74206368656572000000000000000000000000000000600082015250565b600062001bfc6011836200151c565b915062001c098262001bc4565b602082019050919050565b6000602082019050818103600083015262001c2f8162001bed565b9050919050565b600060a08201905062001c4d60008301886200145b565b62001c5c60208301876200145b565b818103604083015262001c7081866200156a565b9050818103606083015262001c8681856200156a565b9050818103608083015262001c9c81846200156a565b90509695505050505050565b60008151905062001cb981620018d6565b92915050565b60006020828403121562001cd85762001cd7620015d9565b5b600062001ce88482850162001ca8565b91505092915050565b7f6e6f7420696e73756666696369656e7400000000000000000000000000000000600082015250565b600062001d296010836200151c565b915062001d368262001cf1565b602082019050919050565b6000602082019050818103600083015262001d5c8162001d1a565b9050919050565b62001d6e81620018cc565b82525050565b600060408201905062001d8b60008301856200145b565b62001d9a602083018462001d63565b9392505050565b62001dac8162001646565b811462001db857600080fd5b50565b60008151905062001dcc8162001da1565b92915050565b60006020828403121562001deb5762001dea620015d9565b5b600062001dfb8482850162001dbb565b91505092915050565b600060608201905062001e1b60008301866200145b565b62001e2a60208301856200145b565b62001e39604083018462001d63565b949350505050565b600067ffffffffffffffff82111562001e5f5762001e5e6200168a565b5b602082029050602081019050919050565b600080fd5b600080fd5b600080fd5b60008151905062001e9081620015e3565b92915050565b600062001ead62001ea7846200170e565b620016ef565b90508281526020810184848401111562001ecc5762001ecb62001685565b5b62001ed98482856200152d565b509392505050565b600082601f83011262001ef95762001ef862001680565b5b815162001f0b84826020860162001e96565b91505092915050565b600060a0828403121562001f2d5762001f2c62001e75565b5b62001f3960a0620016ef565b9050600062001f4b8482850162001e7f565b600083015250602062001f618482850162001e7f565b602083015250604082015167ffffffffffffffff81111562001f885762001f8762001e7a565b5b62001f968482850162001ee1565b604083015250606082015167ffffffffffffffff81111562001fbd5762001fbc62001e7a565b5b62001fcb8482850162001ee1565b606083015250608082015167ffffffffffffffff81111562001ff25762001ff162001e7a565b5b620020008482850162001ee1565b60808301525092915050565b6000620020236200201d8462001e41565b620016ef565b9050808382526020820190506020840283018581111562002049576200204862001e70565b5b835b818110156200209757805167ffffffffffffffff81111562002072576200207162001680565b5b80860162002081898262001f14565b855260208501945050506020810190506200204b565b5050509392505050565b600082601f830112620020b957620020b862001680565b5b8151620020cb8482602086016200200c565b91505092915050565b600060208284031215620020ed57620020ec620015d9565b5b600082015167ffffffffffffffff8111156200210e576200210d620015de565b5b6200211c84828501620020a1565b91505092915050565b7f616c726561647920636865657200000000000000000000000000000000000000600082015250565b60006200215d600d836200151c565b91506200216a8262002125565b602082019050919050565b6000602082019050818103600083015262002190816200214e565b9050919050565b7f4e487b7100000000000000000000000000000000000000000000000000000000600052603260045260246000fd5b7f4e487b7100000000000000000000000000000000000000000000000000000000600052601160045260246000fd5b60006200220282620018cc565b91507fffffffffffffffffffffffffffffffffffffffffffffffffffffffffffffffff8203620022375762002236620021c6565b5b600182019050919050565b600060c0820190506200225960008301896200145b565b6200226860208301886200145b565b6200227760408301876200145b565b81810360608301526200228b81866200156a565b90508181036080830152620022a181856200156a565b905081810360a0830152620022b781846200156a565b905097965050505050505056fe60806040527338d4172dde4e50a8cdd8b39abc572443d18ad72d600960006101000a81548173ffffffffffffffffffffffffffffffffffffffff021916908373ffffffffffffffffffffffffffffffffffffffff1602179055503480156200006657600080fd5b50604051620023dd380380620023dd83398181016040528101906200008c9190620004b0565b600c60009054906101000a900473ffffffffffffffffffffffffffffffffffffffff16600d60006101000a81548173ffffffffffffffffffffffffffffffffffffffff021916908373ffffffffffffffffffffffffffffffffffffffff160217905550600960009054906101000a900473ffffffffffffffffffffffffffffffffffffffff166000806101000a81548173ffffffffffffffffffffffffffffffffffffffff021916908373ffffffffffffffffffffffffffffffffffffffff160217905550600260009054906101000a900473ffffffffffffffffffffffffffffffffffffffff16600160006101000a81548173ffffffffffffffffffffffffffffffffffffffff021916908373ffffffffffffffffffffffffffffffffffffffff16021790555033600360006101000a81548173ffffffffffffffffffffffffffffffffffffffff021916908373ffffffffffffffffffffffffffffffffffffffff16021790555084600460006101000a81548173ffffffffffffffffffffffffffffffffffffffff021916908373ffffffffffffffffffffffffffffffffffffffff16021790555083600560006101000a81548173ffffffffffffffffffffffffffffffffffffffff021916908373ffffffffffffffffffffffffffffffffffffffff1602179055508260069081620002889190620007e0565b5081600790816200029a9190620007e0565b508060089081620002ac9190620007e0565b505050505050620008c7565b6000604051905090565b600080fd5b600080fd5b600073ffffffffffffffffffffffffffffffffffffffff82169050919050565b6000620002f982620002cc565b9050919050565b6200030b81620002ec565b81146200031757600080fd5b50565b6000815190506200032b8162000300565b92915050565b600080fd5b600080fd5b6000601f19601f8301169050919050565b7f4e487b7100000000000000000000000000000000000000000000000000000000600052604160045260246000fd5b62000386826200033b565b810181811067ffffffffffffffff82111715620003a857620003a76200034c565b5b80604052505050565b6000620003bd620002b8565b9050620003cb82826200037b565b919050565b600067ffffffffffffffff821115620003ee57620003ed6200034c565b5b620003f9826200033b565b9050602081019050919050565b60005b838110156200042657808201518184015260208101905062000409565b60008484015250505050565b6000620004496200044384620003d0565b620003b1565b90508281526020810184848401111562000468576200046762000336565b5b6200047584828562000406565b509392505050565b600082601f83011262000495576200049462000331565b5b8151620004a784826020860162000432565b91505092915050565b600080600080600060a08688031215620004cf57620004ce620002c2565b5b6000620004df888289016200031a565b9550506020620004f2888289016200031a565b945050604086015167ffffffffffffffff811115620005165762000515620002c7565b5b62000524888289016200047d565b935050606086015167ffffffffffffffff811115620005485762000547620002c7565b5b62000556888289016200047d565b925050608086015167ffffffffffffffff8111156200057a5762000579620002c7565b5b62000588888289016200047d565b9150509295509295909350565b600081519050919050565b7f4e487b7100000000000000000000000000000000000000000000000000000000600052602260045260246000fd5b60006002820490506001821680620005e857607f821691505b602082108103620005fe57620005fd620005a0565b5b50919050565b60008190508160005260206000209050919050565b60006020601f8301049050919050565b600082821b905092915050565b600060088302620006687fffffffffffffffffffffffffffffffffffffffffffffffffffffffffffffffff8262000629565b62000674868362000629565b95508019841693508086168417925050509392505050565b6000819050919050565b6000819050919050565b6000620006c1620006bb620006b5846200068c565b62000696565b6200068c565b9050919050565b6000819050919050565b620006dd83620006a0565b620006f5620006ec82620006c8565b84845462000636565b825550505050565b600090565b6200070c620006fd565b62000719818484620006d2565b505050565b5b8181101562000741576200073560008262000702565b6001810190506200071f565b5050565b601f82111562000790576200075a8162000604565b620007658462000619565b8101602085101562000775578190505b6200078d620007848562000619565b8301826200071e565b50505b505050565b600082821c905092915050565b6000620007b56000198460080262000795565b1980831691505092915050565b6000620007d08383620007a2565b9150826002028217905092915050565b620007eb8262000595565b67ffffffffffffffff8111156200080757620008066200034c565b5b620008138254620005cf565b6200082082828562000745565b600060209050601f83116001811462000858576000841562000843578287015190505b6200084f8582620007c2565b865550620008bf565b601f198416620008688662000604565b60005b8281101562000892578489015182556001820191506020850194506020810190506200086b565b86831015620008b25784890151620008ae601f891682620007a2565b8355505b6001600288020188555050505b505050505050565b611b0680620008d76000396000f3fe608060405234801561001057600080fd5b50600436106100a95760003560e01c806332b04e2b1161007157806332b04e2b146101425780635e001c341461016057806365550ba41461017c57806371b3423d146101985780639a33e300146101b6578063f6acee23146101d4576100a9565b806316e66f43146100ae5780631a314956146100ca5780631b5feff5146100e85780631d90fb1f14610106578063250a12d914610124575b600080fd5b6100c860048036038101906100c39190610efc565b6101f2565b005b6100d2610277565b6040516100df9190610fb9565b60405180910390f35b6100f0610305565b6040516100fd9190611172565b60405180910390f35b61010e610460565b60405161011b91906111f3565b60405180910390f35b61012c610486565b604051610139919061121d565b60405180910390f35b61014a610528565b6040516101579190610fb9565b60405180910390f35b61017a60048036038101906101759190610efc565b6105b6565b005b61019660048036038101906101919190611399565b61063a565b005b6101a06107be565b6040516101ad9190611416565b60405180910390f35b6101be6107e4565b6040516101cb9190610fb9565b60405180910390f35b6101dc610872565b6040516101e99190611452565b60405180910390f35b80600c60006101000a81548173ffffffffffffffffffffffffffffffffffffffff021916908373ffffffffffffffffffffffffffffffffffffffff16021790555080600d60006101000a81548173ffffffffffffffffffffffffffffffffffffffff021916908373ffffffffffffffffffffffffffffffffffffffff16021790555050565b600780546102849061149c565b80601f01602080910402602001604051908101604052809291908181526020018280546102b09061149c565b80156102fd5780601f106102d2576101008083540402835291602001916102fd565b820191906000526020600020905b8154815290600101906020018083116102e057829003601f168201915b505050505081565b6060600a805480602002602001604051908101604052809291908181526020016000905b8282101561045757838290600052602060002090600402016040518060800160405290816000820160009054906101000a900473ffffffffffffffffffffffffffffffffffffffff1673ffffffffffffffffffffffffffffffffffffffff1673ffffffffffffffffffffffffffffffffffffffff168152602001600182015481526020016002820180546103bc9061149c565b80601f01602080910402602001604051908101604052809291908181526020018280546103e89061149c565b80156104355780601f1061040a57610100808354040283529160200191610435565b820191906000526020600020905b81548152906001019060200180831161041857829003601f168201915b5050505050815260200160038201548152505081526020019060010190610329565b50505050905090565b600160009054906101000a900473ffffffffffffffffffffffffffffffffffffffff1681565b60008060009054906101000a900473ffffffffffffffffffffffffffffffffffffffff1673ffffffffffffffffffffffffffffffffffffffff166370a08231306040518263ffffffff1660e01b81526004016104e291906114dc565b602060405180830381865afa1580156104ff573d6000803e3d6000fd5b505050506040513d601f19601f82011682018060405250810190610523919061150c565b905090565b600880546105359061149c565b80601f01602080910402602001604051908101604052809291908181526020018280546105619061149c565b80156105ae5780601f10610583576101008083540402835291602001916105ae565b820191906000526020600020905b81548152906001019060200180831161059157829003601f168201915b505050505081565b80600960006101000a81548173ffffffffffffffffffffffffffffffffffffffff021916908373ffffffffffffffffffffffffffffffffffffffff160217905550806000806101000a81548173ffffffffffffffffffffffffffffffffffffffff021916908373ffffffffffffffffffffffffffffffffffffffff16021790555050565b8160008054906101000a900473ffffffffffffffffffffffffffffffffffffffff1673ffffffffffffffffffffffffffffffffffffffff166370a08231600d60009054906101000a900473ffffffffffffffffffffffffffffffffffffffff1673ffffffffffffffffffffffffffffffffffffffff16631599a352336040518263ffffffff1660e01b81526004016106d291906114dc565b602060405180830381865afa1580156106ef573d6000803e3d6000fd5b505050506040513d601f19601f82011682018060405250810190610713919061154e565b6040518263ffffffff1660e01b815260040161072f91906114dc565b602060405180830381865afa15801561074c573d6000803e3d6000fd5b505050506040513d601f19601f82011682018060405250810190610770919061150c565b116107b0576040517f08c379a00000000000000000000000000000000000000000000000000000000081526004016107a7906115c7565b60405180910390fd5b6107ba8282610896565b5050565b600d60009054906101000a900473ffffffffffffffffffffffffffffffffffffffff1681565b600680546107f19061149c565b80601f016020809104026020016040519081016040528092919081815260200182805461081d9061149c565b801561086a5780601f1061083f5761010080835404028352916020019161086a565b820191906000526020600020905b81548152906001019060200180831161084d57829003601f168201915b505050505081565b60008054906101000a900473ffffffffffffffffffffffffffffffffffffffff1681565b60008054906101000a900473ffffffffffffffffffffffffffffffffffffffff1673ffffffffffffffffffffffffffffffffffffffff166323b872dd600d60009054906101000a900473ffffffffffffffffffffffffffffffffffffffff1673ffffffffffffffffffffffffffffffffffffffff16631599a352336040518263ffffffff1660e01b815260040161092d91906114dc565b602060405180830381865afa15801561094a573d6000803e3d6000fd5b505050506040513d601f19601f8201168201806040525081019061096e919061154e565b30856040518463ffffffff1660e01b815260040161098e939291906115e7565b6020604051808303816000875af11580156109ad573d6000803e3d6000fd5b505050506040513d601f19601f820116820180604052508101906109d19190611656565b50600a6040518060800160405280600d60009054906101000a900473ffffffffffffffffffffffffffffffffffffffff1673ffffffffffffffffffffffffffffffffffffffff16631599a352336040518263ffffffff1660e01b8152600401610a3a91906114dc565b602060405180830381865afa158015610a57573d6000803e3d6000fd5b505050506040513d601f19601f82011682018060405250810190610a7b919061154e565b73ffffffffffffffffffffffffffffffffffffffff16815260200142815260200183815260200184815250908060018154018082558091505060019003906000526020600020906004020160009091909190915060008201518160000160006101000a81548173ffffffffffffffffffffffffffffffffffffffff021916908373ffffffffffffffffffffffffffffffffffffffff160217905550602082015181600101556040820151816002019081610b359190611825565b50606082015181600301555050610b4b82610b4f565b5050565b80600b6000828254610b619190611926565b9250508190555060006064604683610b79919061195a565b610b8391906119cb565b905060006064601984610b96919061195a565b610ba091906119cb565b90506000818385610bb191906119fc565b610bbb91906119fc565b905060005b600a80549050811015610d015760008054906101000a900473ffffffffffffffffffffffffffffffffffffffff1673ffffffffffffffffffffffffffffffffffffffff1663a9059cbb600a8381548110610c1d57610c1c611a30565b5b906000526020600020906004020160000160009054906101000a900473ffffffffffffffffffffffffffffffffffffffff16600b54600a8581548110610c6657610c65611a30565b5b90600052602060002090600402016003015488610c83919061195a565b610c8d91906119cb565b6040518363ffffffff1660e01b8152600401610caa929190611a5f565b6020604051808303816000875af1158015610cc9573d6000803e3d6000fd5b505050506040513d601f19601f82011682018060405250810190610ced9190611656565b508080610cf990611a88565b915050610bc0565b5060008054906101000a900473ffffffffffffffffffffffffffffffffffffffff1673ffffffffffffffffffffffffffffffffffffffff1663a9059cbb600460009054906101000a900473ffffffffffffffffffffffffffffffffffffffff16846040518363ffffffff1660e01b8152600401610d7f929190611a5f565b6020604051808303816000875af1158015610d9e573d6000803e3d6000fd5b505050506040513d601f19601f82011682018060405250810190610dc29190611656565b5060008054906101000a900473ffffffffffffffffffffffffffffffffffffffff1673ffffffffffffffffffffffffffffffffffffffff1663a9059cbb600560009054906101000a900473ffffffffffffffffffffffffffffffffffffffff16836040518363ffffffff1660e01b8152600401610e40929190611a5f565b6020604051808303816000875af1158015610e5f573d6000803e3d6000fd5b505050506040513d601f19601f82011682018060405250810190610e839190611656565b5050505050565b6000604051905090565b600080fd5b600080fd5b600073ffffffffffffffffffffffffffffffffffffffff82169050919050565b6000610ec982610e9e565b9050919050565b610ed981610ebe565b8114610ee457600080fd5b50565b600081359050610ef681610ed0565b92915050565b600060208284031215610f1257610f11610e94565b5b6000610f2084828501610ee7565b91505092915050565b600081519050919050565b600082825260208201905092915050565b60005b83811015610f63578082015181840152602081019050610f48565b60008484015250505050565b6000601f19601f8301169050919050565b6000610f8b82610f29565b610f958185610f34565b9350610fa5818560208601610f45565b610fae81610f6f565b840191505092915050565b60006020820190508181036000830152610fd38184610f80565b905092915050565b600081519050919050565b600082825260208201905092915050565b6000819050602082019050919050565b61101081610ebe565b82525050565b6000819050919050565b61102981611016565b82525050565b600082825260208201905092915050565b600061104b82610f29565b611055818561102f565b9350611065818560208601610f45565b61106e81610f6f565b840191505092915050565b60006080830160008301516110916000860182611007565b5060208301516110a46020860182611020565b50604083015184820360408601526110bc8282611040565b91505060608301516110d16060860182611020565b508091505092915050565b60006110e88383611079565b905092915050565b6000602082019050919050565b600061110882610fdb565b6111128185610fe6565b93508360208202850161112485610ff7565b8060005b85811015611160578484038952815161114185826110dc565b945061114c836110f0565b925060208a01995050600181019050611128565b50829750879550505050505092915050565b6000602082019050818103600083015261118c81846110fd565b905092915050565b6000819050919050565b60006111b96111b46111af84610e9e565b611194565b610e9e565b9050919050565b60006111cb8261119e565b9050919050565b60006111dd826111c0565b9050919050565b6111ed816111d2565b82525050565b600060208201905061120860008301846111e4565b92915050565b61121781611016565b82525050565b6000602082019050611232600083018461120e565b92915050565b61124181611016565b811461124c57600080fd5b50565b60008135905061125e81611238565b92915050565b600080fd5b600080fd5b7f4e487b7100000000000000000000000000000000000000000000000000000000600052604160045260246000fd5b6112a682610f6f565b810181811067ffffffffffffffff821117156112c5576112c461126e565b5b80604052505050565b60006112d8610e8a565b90506112e4828261129d565b919050565b600067ffffffffffffffff8211156113045761130361126e565b5b61130d82610f6f565b9050602081019050919050565b82818337600083830152505050565b600061133c611337846112e9565b6112ce565b90508281526020810184848401111561135857611357611269565b5b61136384828561131a565b509392505050565b600082601f8301126113805761137f611264565b5b8135611390848260208601611329565b91505092915050565b600080604083850312156113b0576113af610e94565b5b60006113be8582860161124f565b925050602083013567ffffffffffffffff8111156113df576113de610e99565b5b6113eb8582860161136b565b9150509250929050565b6000611400826111c0565b9050919050565b611410816113f5565b82525050565b600060208201905061142b6000830184611407565b92915050565b600061143c826111c0565b9050919050565b61144c81611431565b82525050565b60006020820190506114676000830184611443565b92915050565b7f4e487b7100000000000000000000000000000000000000000000000000000000600052602260045260246000fd5b600060028204905060018216806114b457607f821691505b6020821081036114c7576114c661146d565b5b50919050565b6114d681610ebe565b82525050565b60006020820190506114f160008301846114cd565b92915050565b60008151905061150681611238565b92915050565b60006020828403121561152257611521610e94565b5b6000611530848285016114f7565b91505092915050565b60008151905061154881610ed0565b92915050565b60006020828403121561156457611563610e94565b5b600061157284828501611539565b91505092915050565b7f4e6f7420656e6f75676800000000000000000000000000000000000000000000600082015250565b60006115b1600a83610f34565b91506115bc8261157b565b602082019050919050565b600060208201905081810360008301526115e0816115a4565b9050919050565b60006060820190506115fc60008301866114cd565b61160960208301856114cd565b611616604083018461120e565b949350505050565b60008115159050919050565b6116338161161e565b811461163e57600080fd5b50565b6000815190506116508161162a565b92915050565b60006020828403121561166c5761166b610e94565b5b600061167a84828501611641565b91505092915050565b60008190508160005260206000209050919050565b60006020601f8301049050919050565b600082821b905092915050565b6000600883026116e57fffffffffffffffffffffffffffffffffffffffffffffffffffffffffffffffff826116a8565b6116ef86836116a8565b95508019841693508086168417925050509392505050565b600061172261171d61171884611016565b611194565b611016565b9050919050565b6000819050919050565b61173c83611707565b61175061174882611729565b8484546116b5565b825550505050565b600090565b611765611758565b611770818484611733565b505050565b5b818110156117945761178960008261175d565b600181019050611776565b5050565b601f8211156117d9576117aa81611683565b6117b384611698565b810160208510156117c2578190505b6117d66117ce85611698565b830182611775565b50505b505050565b600082821c905092915050565b60006117fc600019846008026117de565b1980831691505092915050565b600061181583836117eb565b9150826002028217905092915050565b61182e82610f29565b67ffffffffffffffff8111156118475761184661126e565b5b611851825461149c565b61185c828285611798565b600060209050601f83116001811461188f576000841561187d578287015190505b6118878582611809565b8655506118ef565b601f19841661189d86611683565b60005b828110156118c5578489015182556001820191506020850194506020810190506118a0565b868310156118e257848901516118de601f8916826117eb565b8355505b6001600288020188555050505b505050505050565b7f4e487b7100000000000000000000000000000000000000000000000000000000600052601160045260246000fd5b600061193182611016565b915061193c83611016565b9250828201905080821115611954576119536118f7565b5b92915050565b600061196582611016565b915061197083611016565b925082820261197e81611016565b91508282048414831517611995576119946118f7565b5b5092915050565b7f4e487b7100000000000000000000000000000000000000000000000000000000600052601260045260246000fd5b60006119d682611016565b91506119e183611016565b9250826119f1576119f061199c565b5b828204905092915050565b6000611a0782611016565b9150611a1283611016565b9250828203905081811115611a2a57611a296118f7565b5b92915050565b7f4e487b7100000000000000000000000000000000000000000000000000000000600052603260045260246000fd5b6000604082019050611a7460008301856114cd565b611a81602083018461120e565b9392505050565b6000611a9382611016565b91507fffffffffffffffffffffffffffffffffffffffffffffffffffffffffffffffff8203611ac557611ac46118f7565b5b60018201905091905056fea2646970667358221220258a6a0a3d8ce3c90ac365c06971164c3a699d7ce48e891f8a90ff1450133adb64736f6c63430008110033a2646970667358221220465513dab22c105c59765b448a1e89ff94dc4a5e71cd27a0854e5644435f14c064736f6c63430008110033a264697066735822122059c9b6861f91e96bc8c4883f834dd80260a3b54f942c22cb2c1bcf949d743a1e64736f6c63430008110033",
  "linkReferences": {},
  "deployedLinkReferences": {}
}