{
  "_format": "hh-sol-artifact-1",
  "contractName": "Cheers",
  "sourceName": "contracts/Cheers.sol",
  "abi": [
    {
      "inputs": [],
      "stateMutability": "nonpayable",
      "type": "constructor"
    },
    {
      "inputs": [],
      "name": "daoPoolFactory",
      "outputs": [
        {
          "internalType": "contract IDaoPoolFactory",
          "name": "",
          "type": "address"
        }
      ],
      "stateMutability": "view",
      "type": "function"
    },
    {
      "inputs": [
        {
          "internalType": "string",
          "name": "_daoName",
          "type": "string"
        },
        {
          "internalType": "string",
          "name": "_daoProfile",
          "type": "string"
        },
        {
          "internalType": "string",
          "name": "_daoIcon",
          "type": "string"
        }
      ],
      "name": "newDaoPoolFactory",
      "outputs": [],
      "stateMutability": "nonpayable",
      "type": "function"
    },
    {
      "inputs": [
        {
          "internalType": "string",
          "name": "_userName",
          "type": "string"
        },
        {
          "internalType": "string",
          "name": "_userProfile",
          "type": "string"
        },
        {
          "internalType": "string",
          "name": "_userIcon",
          "type": "string"
        }
      ],
      "name": "newUserPoolFactory",
      "outputs": [],
      "stateMutability": "nonpayable",
      "type": "function"
    },
    {
      "inputs": [
        {
          "internalType": "address",
          "name": "daoPoolFactoryAddress",
          "type": "address"
        }
      ],
      "name": "setDaoPoolFactory",
      "outputs": [],
      "stateMutability": "nonpayable",
      "type": "function"
    },
    {
      "inputs": [
        {
          "internalType": "address",
          "name": "userPoolFactoryAddress",
          "type": "address"
        }
      ],
      "name": "setUserPoolFactory",
      "outputs": [],
      "stateMutability": "nonpayable",
      "type": "function"
    },
    {
      "inputs": [],
      "name": "userPoolFactory",
      "outputs": [
        {
          "internalType": "contract IUserPoolFactory",
          "name": "",
          "type": "address"
        }
      ],
      "stateMutability": "view",
      "type": "function"
    }
  ],
  "bytecode": "0x608060405273a8474d6642a5c98e7be8563e3d85e7ffa28805f76000806101000a81548173ffffffffffffffffffffffffffffffffffffffff021916908373ffffffffffffffffffffffffffffffffffffffff1602179055507325fbd1291de7ca6d89cfd054d9184051787fcca8600260006101000a81548173ffffffffffffffffffffffffffffffffffffffff021916908373ffffffffffffffffffffffffffffffffffffffff1602179055503480156100b957600080fd5b5060008054906101000a900473ffffffffffffffffffffffffffffffffffffffff16600160006101000a81548173ffffffffffffffffffffffffffffffffffffffff021916908373ffffffffffffffffffffffffffffffffffffffff160217905550600260009054906101000a900473ffffffffffffffffffffffffffffffffffffffff16600360006101000a81548173ffffffffffffffffffffffffffffffffffffffff021916908373ffffffffffffffffffffffffffffffffffffffff16021790555061085e8061018d6000396000f3fe608060405234801561001057600080fd5b50600436106100625760003560e01c806321991798146100675780636de25e2214610083578063ba280f261461009f578063c0dbf8e3146100bb578063c8edbf8d146100d7578063f73ee1ef146100f5575b600080fd5b610081600480360381019061007c9190610516565b610113565b005b61009d6004803603810190610098919061061b565b6101bd565b005b6100b960048036038101906100b49190610516565b610241565b005b6100d560048036038101906100d0919061061b565b6102eb565b005b6100df610370565b6040516100ec91906106a7565b60405180910390f35b6100fd610396565b60405161010a91906106e3565b60405180910390f35b600360009054906101000a900473ffffffffffffffffffffffffffffffffffffffff1673ffffffffffffffffffffffffffffffffffffffff166301681c6d338585856040518563ffffffff1660e01b8152600401610174949392919061078c565b6020604051808303816000875af1158015610193573d6000803e3d6000fd5b505050506040513d601f19601f820116820180604052508101906101b791906107fb565b50505050565b806000806101000a81548173ffffffffffffffffffffffffffffffffffffffff021916908373ffffffffffffffffffffffffffffffffffffffff16021790555080600160006101000a81548173ffffffffffffffffffffffffffffffffffffffff021916908373ffffffffffffffffffffffffffffffffffffffff16021790555050565b600160009054906101000a900473ffffffffffffffffffffffffffffffffffffffff1673ffffffffffffffffffffffffffffffffffffffff1663d55fada4338585856040518563ffffffff1660e01b81526004016102a2949392919061078c565b6020604051808303816000875af11580156102c1573d6000803e3d6000fd5b505050506040513d601f19601f820116820180604052508101906102e591906107fb565b50505050565b80600260006101000a81548173ffffffffffffffffffffffffffffffffffffffff021916908373ffffffffffffffffffffffffffffffffffffffff16021790555080600360006101000a81548173ffffffffffffffffffffffffffffffffffffffff021916908373ffffffffffffffffffffffffffffffffffffffff16021790555050565b600160009054906101000a900473ffffffffffffffffffffffffffffffffffffffff1681565b600360009054906101000a900473ffffffffffffffffffffffffffffffffffffffff1681565b6000604051905090565b600080fd5b600080fd5b600080fd5b600080fd5b6000601f19601f8301169050919050565b7f4e487b7100000000000000000000000000000000000000000000000000000000600052604160045260246000fd5b610423826103da565b810181811067ffffffffffffffff82111715610442576104416103eb565b5b80604052505050565b60006104556103bc565b9050610461828261041a565b919050565b600067ffffffffffffffff821115610481576104806103eb565b5b61048a826103da565b9050602081019050919050565b82818337600083830152505050565b60006104b96104b484610466565b61044b565b9050828152602081018484840111156104d5576104d46103d5565b5b6104e0848285610497565b509392505050565b600082601f8301126104fd576104fc6103d0565b5b813561050d8482602086016104a6565b91505092915050565b60008060006060848603121561052f5761052e6103c6565b5b600084013567ffffffffffffffff81111561054d5761054c6103cb565b5b610559868287016104e8565b935050602084013567ffffffffffffffff81111561057a576105796103cb565b5b610586868287016104e8565b925050604084013567ffffffffffffffff8111156105a7576105a66103cb565b5b6105b3868287016104e8565b9150509250925092565b600073ffffffffffffffffffffffffffffffffffffffff82169050919050565b60006105e8826105bd565b9050919050565b6105f8816105dd565b811461060357600080fd5b50565b600081359050610615816105ef565b92915050565b600060208284031215610631576106306103c6565b5b600061063f84828501610606565b91505092915050565b6000819050919050565b600061066d610668610663846105bd565b610648565b6105bd565b9050919050565b600061067f82610652565b9050919050565b600061069182610674565b9050919050565b6106a181610686565b82525050565b60006020820190506106bc6000830184610698565b92915050565b60006106cd82610674565b9050919050565b6106dd816106c2565b82525050565b60006020820190506106f860008301846106d4565b92915050565b610707816105dd565b82525050565b600081519050919050565b600082825260208201905092915050565b60005b8381101561074757808201518184015260208101905061072c565b60008484015250505050565b600061075e8261070d565b6107688185610718565b9350610778818560208601610729565b610781816103da565b840191505092915050565b60006080820190506107a160008301876106fe565b81810360208301526107b38186610753565b905081810360408301526107c78185610753565b905081810360608301526107db8184610753565b905095945050505050565b6000815190506107f5816105ef565b92915050565b600060208284031215610811576108106103c6565b5b600061081f848285016107e6565b9150509291505056fea2646970667358221220b4a27ec0ad677610b9414e8178f3e0b012cf3fef780e01f4a31daf227600ad0c64736f6c63430008110033",
  "linkReferences": {},
  "deployedLinkReferences": {}
}