{
  "_format": "hh-sol-artifact-1",
  "contractName": "Cheers",
  "sourceName": "contracts/Cheers.sol",
  "abi": [
    {
      "inputs": [],
      "stateMutability": "nonpayable",
      "type": "constructor"
    },
    {
      "inputs": [],
      "name": "daoPoolFactory",
      "outputs": [
        {
          "internalType": "contract IDaoPoolFactory",
          "name": "",
          "type": "address"
        }
      ],
      "stateMutability": "view",
      "type": "function"
    },
    {
      "inputs": [
        {
          "internalType": "string",
          "name": "_daoName",
          "type": "string"
        },
        {
          "internalType": "string",
          "name": "_daoProfile",
          "type": "string"
        },
        {
          "internalType": "string",
          "name": "_daoIcon",
          "type": "string"
        }
      ],
      "name": "newDaoPoolFactory",
      "outputs": [],
      "stateMutability": "nonpayable",
      "type": "function"
    },
    {
      "inputs": [
        {
          "internalType": "string",
          "name": "_userName",
          "type": "string"
        },
        {
          "internalType": "string",
          "name": "_userProfile",
          "type": "string"
        },
        {
          "internalType": "string",
          "name": "_userIcon",
          "type": "string"
        }
      ],
      "name": "newUserPoolFactory",
      "outputs": [],
      "stateMutability": "nonpayable",
      "type": "function"
    },
    {
      "inputs": [],
      "name": "userPoolFactory",
      "outputs": [
        {
          "internalType": "contract IUserPoolFactory",
          "name": "",
          "type": "address"
        }
      ],
      "stateMutability": "view",
      "type": "function"
    }
  ],
  "bytecode": "0x608060405234801561001057600080fd5b5060008054906101000a900473ffffffffffffffffffffffffffffffffffffffff16600160006101000a81548173ffffffffffffffffffffffffffffffffffffffff021916908373ffffffffffffffffffffffffffffffffffffffff160217905550600260009054906101000a900473ffffffffffffffffffffffffffffffffffffffff16600360006101000a81548173ffffffffffffffffffffffffffffffffffffffff021916908373ffffffffffffffffffffffffffffffffffffffff1602179055506106a4806100e46000396000f3fe608060405234801561001057600080fd5b506004361061004c5760003560e01c80632199179814610051578063ba280f261461006d578063c8edbf8d14610089578063f73ee1ef146100a7575b600080fd5b61006b600480360381019061006691906103bb565b6100c5565b005b610087600480360381019061008291906103bb565b61016d565b005b610091610215565b60405161009e91906104e1565b60405180910390f35b6100af61023b565b6040516100bc919061051d565b60405180910390f35b600360009054906101000a900473ffffffffffffffffffffffffffffffffffffffff1673ffffffffffffffffffffffffffffffffffffffff1663219917988484846040518463ffffffff1660e01b8152600401610124939291906105b7565b6020604051808303816000875af1158015610143573d6000803e3d6000fd5b505050506040513d601f19601f820116820180604052508101906101679190610641565b50505050565b600160009054906101000a900473ffffffffffffffffffffffffffffffffffffffff1673ffffffffffffffffffffffffffffffffffffffff1663ba280f268484846040518463ffffffff1660e01b81526004016101cc939291906105b7565b6020604051808303816000875af11580156101eb573d6000803e3d6000fd5b505050506040513d601f19601f8201168201806040525081019061020f9190610641565b50505050565b600160009054906101000a900473ffffffffffffffffffffffffffffffffffffffff1681565b600360009054906101000a900473ffffffffffffffffffffffffffffffffffffffff1681565b6000604051905090565b600080fd5b600080fd5b600080fd5b600080fd5b6000601f19601f8301169050919050565b7f4e487b7100000000000000000000000000000000000000000000000000000000600052604160045260246000fd5b6102c88261027f565b810181811067ffffffffffffffff821117156102e7576102e6610290565b5b80604052505050565b60006102fa610261565b905061030682826102bf565b919050565b600067ffffffffffffffff82111561032657610325610290565b5b61032f8261027f565b9050602081019050919050565b82818337600083830152505050565b600061035e6103598461030b565b6102f0565b90508281526020810184848401111561037a5761037961027a565b5b61038584828561033c565b509392505050565b600082601f8301126103a2576103a1610275565b5b81356103b284826020860161034b565b91505092915050565b6000806000606084860312156103d4576103d361026b565b5b600084013567ffffffffffffffff8111156103f2576103f1610270565b5b6103fe8682870161038d565b935050602084013567ffffffffffffffff81111561041f5761041e610270565b5b61042b8682870161038d565b925050604084013567ffffffffffffffff81111561044c5761044b610270565b5b6104588682870161038d565b9150509250925092565b600073ffffffffffffffffffffffffffffffffffffffff82169050919050565b6000819050919050565b60006104a76104a261049d84610462565b610482565b610462565b9050919050565b60006104b98261048c565b9050919050565b60006104cb826104ae565b9050919050565b6104db816104c0565b82525050565b60006020820190506104f660008301846104d2565b92915050565b6000610507826104ae565b9050919050565b610517816104fc565b82525050565b6000602082019050610532600083018461050e565b92915050565b600081519050919050565b600082825260208201905092915050565b60005b83811015610572578082015181840152602081019050610557565b60008484015250505050565b600061058982610538565b6105938185610543565b93506105a3818560208601610554565b6105ac8161027f565b840191505092915050565b600060608201905081810360008301526105d1818661057e565b905081810360208301526105e5818561057e565b905081810360408301526105f9818461057e565b9050949350505050565b600061060e82610462565b9050919050565b61061e81610603565b811461062957600080fd5b50565b60008151905061063b81610615565b92915050565b6000602082840312156106575761065661026b565b5b60006106658482850161062c565b9150509291505056fea26469706673582212209090e8fbb6c6c8f27e9ae286198d515b566caad32336f466510dcc91c690835164736f6c63430008110033",
  "linkReferences": {},
  "deployedLinkReferences": {}
}