{
  "_format": "hh-sol-artifact-1",
  "contractName": "ProjectsData",
  "sourceName": "contracts/data/ProjectsData.sol",
  "abi": [
    {
      "inputs": [
        {
          "internalType": "address",
          "name": "_projectOwnerAddress",
          "type": "address"
        },
        {
          "internalType": "address",
          "name": "_belongDaoAddress",
          "type": "address"
        },
        {
          "internalType": "string",
          "name": "_projectName",
          "type": "string"
        },
        {
          "internalType": "string",
          "name": "_projectContents",
          "type": "string"
        },
        {
          "internalType": "string",
          "name": "_projectReword",
          "type": "string"
        }
      ],
      "name": "addProjects",
      "outputs": [],
      "stateMutability": "nonpayable",
      "type": "function"
    },
    {
      "inputs": [
        {
          "internalType": "address",
          "name": "",
          "type": "address"
        },
        {
          "internalType": "uint256",
          "name": "",
          "type": "uint256"
        }
      ],
      "name": "eachProjectsList",
      "outputs": [
        {
          "internalType": "address",
          "name": "belongDaoAddress",
          "type": "address"
        },
        {
          "internalType": "string",
          "name": "projectName",
          "type": "string"
        },
        {
          "internalType": "string",
          "name": "projectContents",
          "type": "string"
        },
        {
          "internalType": "string",
          "name": "projectReword",
          "type": "string"
        }
      ],
      "stateMutability": "view",
      "type": "function"
    },
    {
      "inputs": [
        {
          "internalType": "address",
          "name": "_projectOwnerAddress",
          "type": "address"
        }
      ],
      "name": "getEachProjectList",
      "outputs": [
        {
          "components": [
            {
              "internalType": "address",
              "name": "belongDaoAddress",
              "type": "address"
            },
            {
              "internalType": "string",
              "name": "projectName",
              "type": "string"
            },
            {
              "internalType": "string",
              "name": "projectContents",
              "type": "string"
            },
            {
              "internalType": "string",
              "name": "projectReword",
              "type": "string"
            }
          ],
          "internalType": "struct SharedStruct.Project[]",
          "name": "",
          "type": "tuple[]"
        }
      ],
      "stateMutability": "view",
      "type": "function"
    }
  ],
  "bytecode": "0x608060405234801561001057600080fd5b50610f77806100206000396000f3fe608060405234801561001057600080fd5b50600436106100415760003560e01c80632f92fb2e146100465780635874a8121461006257806358cedf5714610095575b600080fd5b610060600480360381019061005b919061085b565b6100c5565b005b61007c60048036038101906100779190610960565b6101f5565b60405161008c9493929190610a2e565b60405180910390f35b6100af60048036038101906100aa9190610a88565b6103fa565b6040516100bc9190610c41565b60405180910390f35b6000808673ffffffffffffffffffffffffffffffffffffffff1673ffffffffffffffffffffffffffffffffffffffff16815260200190815260200160002060405180608001604052808673ffffffffffffffffffffffffffffffffffffffff16815260200185815260200184815260200183815250908060018154018082558091505060019003906000526020600020906004020160009091909190915060008201518160000160006101000a81548173ffffffffffffffffffffffffffffffffffffffff021916908373ffffffffffffffffffffffffffffffffffffffff16021790555060208201518160010190816101bf9190610e6f565b5060408201518160020190816101d59190610e6f565b5060608201518160030190816101eb9190610e6f565b5050505050505050565b6000602052816000526040600020818154811061021157600080fd5b9060005260206000209060040201600091509150508060000160009054906101000a900473ffffffffffffffffffffffffffffffffffffffff169080600101805461025b90610c92565b80601f016020809104026020016040519081016040528092919081815260200182805461028790610c92565b80156102d45780601f106102a9576101008083540402835291602001916102d4565b820191906000526020600020905b8154815290600101906020018083116102b757829003601f168201915b5050505050908060020180546102e990610c92565b80601f016020809104026020016040519081016040528092919081815260200182805461031590610c92565b80156103625780601f1061033757610100808354040283529160200191610362565b820191906000526020600020905b81548152906001019060200180831161034557829003601f168201915b50505050509080600301805461037790610c92565b80601f01602080910402602001604051908101604052809291908181526020018280546103a390610c92565b80156103f05780601f106103c5576101008083540402835291602001916103f0565b820191906000526020600020905b8154815290600101906020018083116103d357829003601f168201915b5050505050905084565b60606000808373ffffffffffffffffffffffffffffffffffffffff1673ffffffffffffffffffffffffffffffffffffffff168152602001908152602001600020805480602002602001604051908101604052809291908181526020016000905b8282101561069857838290600052602060002090600402016040518060800160405290816000820160009054906101000a900473ffffffffffffffffffffffffffffffffffffffff1673ffffffffffffffffffffffffffffffffffffffff1673ffffffffffffffffffffffffffffffffffffffff1681526020016001820180546104e390610c92565b80601f016020809104026020016040519081016040528092919081815260200182805461050f90610c92565b801561055c5780601f106105315761010080835404028352916020019161055c565b820191906000526020600020905b81548152906001019060200180831161053f57829003601f168201915b5050505050815260200160028201805461057590610c92565b80601f01602080910402602001604051908101604052809291908181526020018280546105a190610c92565b80156105ee5780601f106105c3576101008083540402835291602001916105ee565b820191906000526020600020905b8154815290600101906020018083116105d157829003601f168201915b5050505050815260200160038201805461060790610c92565b80601f016020809104026020016040519081016040528092919081815260200182805461063390610c92565b80156106805780601f1061065557610100808354040283529160200191610680565b820191906000526020600020905b81548152906001019060200180831161066357829003601f168201915b5050505050815250508152602001906001019061045a565b505050509050919050565b6000604051905090565b600080fd5b600080fd5b600073ffffffffffffffffffffffffffffffffffffffff82169050919050565b60006106e2826106b7565b9050919050565b6106f2816106d7565b81146106fd57600080fd5b50565b60008135905061070f816106e9565b92915050565b600080fd5b600080fd5b6000601f19601f8301169050919050565b7f4e487b7100000000000000000000000000000000000000000000000000000000600052604160045260246000fd5b6107688261071f565b810181811067ffffffffffffffff8211171561078757610786610730565b5b80604052505050565b600061079a6106a3565b90506107a6828261075f565b919050565b600067ffffffffffffffff8211156107c6576107c5610730565b5b6107cf8261071f565b9050602081019050919050565b82818337600083830152505050565b60006107fe6107f9846107ab565b610790565b90508281526020810184848401111561081a5761081961071a565b5b6108258482856107dc565b509392505050565b600082601f83011261084257610841610715565b5b81356108528482602086016107eb565b91505092915050565b600080600080600060a08688031215610877576108766106ad565b5b600061088588828901610700565b955050602061089688828901610700565b945050604086013567ffffffffffffffff8111156108b7576108b66106b2565b5b6108c38882890161082d565b935050606086013567ffffffffffffffff8111156108e4576108e36106b2565b5b6108f08882890161082d565b925050608086013567ffffffffffffffff811115610911576109106106b2565b5b61091d8882890161082d565b9150509295509295909350565b6000819050919050565b61093d8161092a565b811461094857600080fd5b50565b60008135905061095a81610934565b92915050565b60008060408385031215610977576109766106ad565b5b600061098585828601610700565b92505060206109968582860161094b565b9150509250929050565b6109a9816106d7565b82525050565b600081519050919050565b600082825260208201905092915050565b60005b838110156109e95780820151818401526020810190506109ce565b60008484015250505050565b6000610a00826109af565b610a0a81856109ba565b9350610a1a8185602086016109cb565b610a238161071f565b840191505092915050565b6000608082019050610a4360008301876109a0565b8181036020830152610a5581866109f5565b90508181036040830152610a6981856109f5565b90508181036060830152610a7d81846109f5565b905095945050505050565b600060208284031215610a9e57610a9d6106ad565b5b6000610aac84828501610700565b91505092915050565b600081519050919050565b600082825260208201905092915050565b6000819050602082019050919050565b610aea816106d7565b82525050565b600082825260208201905092915050565b6000610b0c826109af565b610b168185610af0565b9350610b268185602086016109cb565b610b2f8161071f565b840191505092915050565b6000608083016000830151610b526000860182610ae1565b5060208301518482036020860152610b6a8282610b01565b91505060408301518482036040860152610b848282610b01565b91505060608301518482036060860152610b9e8282610b01565b9150508091505092915050565b6000610bb78383610b3a565b905092915050565b6000602082019050919050565b6000610bd782610ab5565b610be18185610ac0565b935083602082028501610bf385610ad1565b8060005b85811015610c2f5784840389528151610c108582610bab565b9450610c1b83610bbf565b925060208a01995050600181019050610bf7565b50829750879550505050505092915050565b60006020820190508181036000830152610c5b8184610bcc565b905092915050565b7f4e487b7100000000000000000000000000000000000000000000000000000000600052602260045260246000fd5b60006002820490506001821680610caa57607f821691505b602082108103610cbd57610cbc610c63565b5b50919050565b60008190508160005260206000209050919050565b60006020601f8301049050919050565b600082821b905092915050565b600060088302610d257fffffffffffffffffffffffffffffffffffffffffffffffffffffffffffffffff82610ce8565b610d2f8683610ce8565b95508019841693508086168417925050509392505050565b6000819050919050565b6000610d6c610d67610d628461092a565b610d47565b61092a565b9050919050565b6000819050919050565b610d8683610d51565b610d9a610d9282610d73565b848454610cf5565b825550505050565b600090565b610daf610da2565b610dba818484610d7d565b505050565b5b81811015610dde57610dd3600082610da7565b600181019050610dc0565b5050565b601f821115610e2357610df481610cc3565b610dfd84610cd8565b81016020851015610e0c578190505b610e20610e1885610cd8565b830182610dbf565b50505b505050565b600082821c905092915050565b6000610e4660001984600802610e28565b1980831691505092915050565b6000610e5f8383610e35565b9150826002028217905092915050565b610e78826109af565b67ffffffffffffffff811115610e9157610e90610730565b5b610e9b8254610c92565b610ea6828285610de2565b600060209050601f831160018114610ed95760008415610ec7578287015190505b610ed18582610e53565b865550610f39565b601f198416610ee786610cc3565b60005b82811015610f0f57848901518255600182019150602085019450602081019050610eea565b86831015610f2c5784890151610f28601f891682610e35565b8355505b6001600288020188555050505b50505050505056fea2646970667358221220839c63f462e7773bb1e2e5a3fb3b75ec54574ff375fa814641db4d27944089cc64736f6c63430008110033",
  "linkReferences": {},
  "deployedLinkReferences": {}
}