{
  "_format": "hh-sol-artifact-1",
  "contractName": "ProjectsData",
  "sourceName": "contracts/data/ProjectsData.sol",
  "abi": [
    {
      "inputs": [
        {
          "internalType": "address",
          "name": "_projectPoolAddress",
          "type": "address"
        },
        {
          "internalType": "address",
          "name": "_cheerPoolAddres",
          "type": "address"
        },
        {
          "internalType": "uint256",
          "name": "_creationTime",
          "type": "uint256"
        },
        {
          "internalType": "string",
          "name": "_message",
          "type": "string"
        },
        {
          "internalType": "uint256",
          "name": "_cher",
          "type": "uint256"
        }
      ],
      "name": "addEachProjectCheerList",
      "outputs": [],
      "stateMutability": "nonpayable",
      "type": "function"
    },
    {
      "inputs": [
        {
          "internalType": "address",
          "name": "_projectOwnerAddress",
          "type": "address"
        },
        {
          "internalType": "address",
          "name": "_projectPoolAddress",
          "type": "address"
        },
        {
          "internalType": "address",
          "name": "_belongDaoAddress",
          "type": "address"
        },
        {
          "internalType": "string",
          "name": "_projectName",
          "type": "string"
        },
        {
          "internalType": "string",
          "name": "_projectContents",
          "type": "string"
        },
        {
          "internalType": "string",
          "name": "_projectReword",
          "type": "string"
        }
      ],
      "name": "addProjects",
      "outputs": [],
      "stateMutability": "nonpayable",
      "type": "function"
    },
    {
      "inputs": [
        {
          "internalType": "uint256",
          "name": "",
          "type": "uint256"
        }
      ],
      "name": "allProjectsList",
      "outputs": [
        {
          "internalType": "address",
          "name": "projectOwnerAddress",
          "type": "address"
        },
        {
          "internalType": "address",
          "name": "projectAddress",
          "type": "address"
        },
        {
          "internalType": "address",
          "name": "belongDaoAddress",
          "type": "address"
        },
        {
          "internalType": "string",
          "name": "projectName",
          "type": "string"
        },
        {
          "internalType": "string",
          "name": "projectContents",
          "type": "string"
        },
        {
          "internalType": "string",
          "name": "projectReword",
          "type": "string"
        },
        {
          "internalType": "uint256",
          "name": "creationTime",
          "type": "uint256"
        }
      ],
      "stateMutability": "view",
      "type": "function"
    },
    {
      "inputs": [
        {
          "internalType": "address",
          "name": "",
          "type": "address"
        },
        {
          "internalType": "uint256",
          "name": "",
          "type": "uint256"
        }
      ],
      "name": "eachProjectCheerList",
      "outputs": [
        {
          "internalType": "address",
          "name": "projectAddress",
          "type": "address"
        },
        {
          "internalType": "address",
          "name": "cheerPoolAddress",
          "type": "address"
        },
        {
          "internalType": "uint256",
          "name": "creationTime",
          "type": "uint256"
        },
        {
          "internalType": "string",
          "name": "message",
          "type": "string"
        },
        {
          "internalType": "uint256",
          "name": "cher",
          "type": "uint256"
        }
      ],
      "stateMutability": "view",
      "type": "function"
    },
    {
      "inputs": [
        {
          "internalType": "address",
          "name": "",
          "type": "address"
        },
        {
          "internalType": "uint256",
          "name": "",
          "type": "uint256"
        }
      ],
      "name": "eachProjectsList",
      "outputs": [
        {
          "internalType": "address",
          "name": "projectOwnerAddress",
          "type": "address"
        },
        {
          "internalType": "address",
          "name": "projectAddress",
          "type": "address"
        },
        {
          "internalType": "address",
          "name": "belongDaoAddress",
          "type": "address"
        },
        {
          "internalType": "string",
          "name": "projectName",
          "type": "string"
        },
        {
          "internalType": "string",
          "name": "projectContents",
          "type": "string"
        },
        {
          "internalType": "string",
          "name": "projectReword",
          "type": "string"
        },
        {
          "internalType": "uint256",
          "name": "creationTime",
          "type": "uint256"
        }
      ],
      "stateMutability": "view",
      "type": "function"
    },
    {
      "inputs": [],
      "name": "getAllProjectList",
      "outputs": [
        {
          "components": [
            {
              "internalType": "address",
              "name": "projectOwnerAddress",
              "type": "address"
            },
            {
              "internalType": "address",
              "name": "projectAddress",
              "type": "address"
            },
            {
              "internalType": "address",
              "name": "belongDaoAddress",
              "type": "address"
            },
            {
              "internalType": "string",
              "name": "projectName",
              "type": "string"
            },
            {
              "internalType": "string",
              "name": "projectContents",
              "type": "string"
            },
            {
              "internalType": "string",
              "name": "projectReword",
              "type": "string"
            },
            {
              "internalType": "uint256",
              "name": "creationTime",
              "type": "uint256"
            }
          ],
          "internalType": "struct SharedStruct.Project[]",
          "name": "",
          "type": "tuple[]"
        }
      ],
      "stateMutability": "view",
      "type": "function"
    },
    {
      "inputs": [
        {
          "internalType": "address",
          "name": "_projectPoolAddress",
          "type": "address"
        }
      ],
      "name": "getEachProjectCheerList",
      "outputs": [
        {
          "components": [
            {
              "internalType": "address",
              "name": "projectAddress",
              "type": "address"
            },
            {
              "internalType": "address",
              "name": "cheerPoolAddress",
              "type": "address"
            },
            {
              "internalType": "uint256",
              "name": "creationTime",
              "type": "uint256"
            },
            {
              "internalType": "string",
              "name": "message",
              "type": "string"
            },
            {
              "internalType": "uint256",
              "name": "cher",
              "type": "uint256"
            }
          ],
          "internalType": "struct SharedStruct.Cheer[]",
          "name": "",
          "type": "tuple[]"
        }
      ],
      "stateMutability": "view",
      "type": "function"
    },
    {
      "inputs": [
        {
          "internalType": "address",
          "name": "_projectOwnerAddress",
          "type": "address"
        }
      ],
      "name": "getEachProjectList",
      "outputs": [
        {
          "components": [
            {
              "internalType": "address",
              "name": "projectOwnerAddress",
              "type": "address"
            },
            {
              "internalType": "address",
              "name": "projectAddress",
              "type": "address"
            },
            {
              "internalType": "address",
              "name": "belongDaoAddress",
              "type": "address"
            },
            {
              "internalType": "string",
              "name": "projectName",
              "type": "string"
            },
            {
              "internalType": "string",
              "name": "projectContents",
              "type": "string"
            },
            {
              "internalType": "string",
              "name": "projectReword",
              "type": "string"
            },
            {
              "internalType": "uint256",
              "name": "creationTime",
              "type": "uint256"
            }
          ],
          "internalType": "struct SharedStruct.Project[]",
          "name": "",
          "type": "tuple[]"
        }
      ],
      "stateMutability": "view",
      "type": "function"
    }
  ],
  "bytecode": "0x608060405234801561001057600080fd5b5061213a806100206000396000f3fe608060405234801561001057600080fd5b50600436106100885760003560e01c8063c327dc3f1161005b578063c327dc3f1461015d578063c34b28f51461017b578063c4ee4c0d14610197578063d621e518146101b357610088565b80635874a8121461008d57806358cedf57146100c3578063a444a193146100f3578063b0addd1d14610129575b600080fd5b6100a760048036038101906100a29190611603565b6101e3565b6040516100ba97969594939291906116f1565b60405180910390f35b6100dd60048036038101906100d89190611775565b61043a565b6040516100ea9190611976565b60405180910390f35b61010d60048036038101906101089190611998565b61079a565b60405161012097969594939291906116f1565b60405180910390f35b610143600480360381019061013e9190611603565b6109e4565b6040516101549594939291906119c5565b60405180910390f35b610165610aff565b6040516101729190611976565b60405180910390f35b61019560048036038101906101909190611b54565b610e20565b005b6101b160048036038101906101ac9190611c35565b6111f1565b005b6101cd60048036038101906101c89190611775565b61136c565b6040516101da9190611e04565b60405180910390f35b600160205281600052604060002081815481106101ff57600080fd5b9060005260206000209060070201600091509150508060000160009054906101000a900473ffffffffffffffffffffffffffffffffffffffff16908060010160009054906101000a900473ffffffffffffffffffffffffffffffffffffffff16908060020160009054906101000a900473ffffffffffffffffffffffffffffffffffffffff169080600301805461029590611e55565b80601f01602080910402602001604051908101604052809291908181526020018280546102c190611e55565b801561030e5780601f106102e35761010080835404028352916020019161030e565b820191906000526020600020905b8154815290600101906020018083116102f157829003601f168201915b50505050509080600401805461032390611e55565b80601f016020809104026020016040519081016040528092919081815260200182805461034f90611e55565b801561039c5780601f106103715761010080835404028352916020019161039c565b820191906000526020600020905b81548152906001019060200180831161037f57829003601f168201915b5050505050908060050180546103b190611e55565b80601f01602080910402602001604051908101604052809291908181526020018280546103dd90611e55565b801561042a5780601f106103ff5761010080835404028352916020019161042a565b820191906000526020600020905b81548152906001019060200180831161040d57829003601f168201915b5050505050908060060154905087565b6060600160008373ffffffffffffffffffffffffffffffffffffffff1673ffffffffffffffffffffffffffffffffffffffff168152602001908152602001600020805480602002602001604051908101604052809291908181526020016000905b8282101561078f57838290600052602060002090600702016040518060e00160405290816000820160009054906101000a900473ffffffffffffffffffffffffffffffffffffffff1673ffffffffffffffffffffffffffffffffffffffff1673ffffffffffffffffffffffffffffffffffffffff1681526020016001820160009054906101000a900473ffffffffffffffffffffffffffffffffffffffff1673ffffffffffffffffffffffffffffffffffffffff1673ffffffffffffffffffffffffffffffffffffffff1681526020016002820160009054906101000a900473ffffffffffffffffffffffffffffffffffffffff1673ffffffffffffffffffffffffffffffffffffffff1673ffffffffffffffffffffffffffffffffffffffff1681526020016003820180546105d090611e55565b80601f01602080910402602001604051908101604052809291908181526020018280546105fc90611e55565b80156106495780601f1061061e57610100808354040283529160200191610649565b820191906000526020600020905b81548152906001019060200180831161062c57829003601f168201915b5050505050815260200160048201805461066290611e55565b80601f016020809104026020016040519081016040528092919081815260200182805461068e90611e55565b80156106db5780601f106106b0576101008083540402835291602001916106db565b820191906000526020600020905b8154815290600101906020018083116106be57829003601f168201915b505050505081526020016005820180546106f490611e55565b80601f016020809104026020016040519081016040528092919081815260200182805461072090611e55565b801561076d5780601f106107425761010080835404028352916020019161076d565b820191906000526020600020905b81548152906001019060200180831161075057829003601f168201915b505050505081526020016006820154815250508152602001906001019061049b565b505050509050919050565b600281815481106107aa57600080fd5b90600052602060002090600702016000915090508060000160009054906101000a900473ffffffffffffffffffffffffffffffffffffffff16908060010160009054906101000a900473ffffffffffffffffffffffffffffffffffffffff16908060020160009054906101000a900473ffffffffffffffffffffffffffffffffffffffff169080600301805461083f90611e55565b80601f016020809104026020016040519081016040528092919081815260200182805461086b90611e55565b80156108b85780601f1061088d576101008083540402835291602001916108b8565b820191906000526020600020905b81548152906001019060200180831161089b57829003601f168201915b5050505050908060040180546108cd90611e55565b80601f01602080910402602001604051908101604052809291908181526020018280546108f990611e55565b80156109465780601f1061091b57610100808354040283529160200191610946565b820191906000526020600020905b81548152906001019060200180831161092957829003601f168201915b50505050509080600501805461095b90611e55565b80601f016020809104026020016040519081016040528092919081815260200182805461098790611e55565b80156109d45780601f106109a9576101008083540402835291602001916109d4565b820191906000526020600020905b8154815290600101906020018083116109b757829003601f168201915b5050505050908060060154905087565b60006020528160005260406000208181548110610a0057600080fd5b9060005260206000209060050201600091509150508060000160009054906101000a900473ffffffffffffffffffffffffffffffffffffffff16908060010160009054906101000a900473ffffffffffffffffffffffffffffffffffffffff1690806002015490806003018054610a7690611e55565b80601f0160208091040260200160405190810160405280929190818152602001828054610aa290611e55565b8015610aef5780601f10610ac457610100808354040283529160200191610aef565b820191906000526020600020905b815481529060010190602001808311610ad257829003601f168201915b5050505050908060040154905085565b60606002805480602002602001604051908101604052809291908181526020016000905b82821015610e1757838290600052602060002090600702016040518060e00160405290816000820160009054906101000a900473ffffffffffffffffffffffffffffffffffffffff1673ffffffffffffffffffffffffffffffffffffffff1673ffffffffffffffffffffffffffffffffffffffff1681526020016001820160009054906101000a900473ffffffffffffffffffffffffffffffffffffffff1673ffffffffffffffffffffffffffffffffffffffff1673ffffffffffffffffffffffffffffffffffffffff1681526020016002820160009054906101000a900473ffffffffffffffffffffffffffffffffffffffff1673ffffffffffffffffffffffffffffffffffffffff1673ffffffffffffffffffffffffffffffffffffffff168152602001600382018054610c5890611e55565b80601f0160208091040260200160405190810160405280929190818152602001828054610c8490611e55565b8015610cd15780601f10610ca657610100808354040283529160200191610cd1565b820191906000526020600020905b815481529060010190602001808311610cb457829003601f168201915b50505050508152602001600482018054610cea90611e55565b80601f0160208091040260200160405190810160405280929190818152602001828054610d1690611e55565b8015610d635780601f10610d3857610100808354040283529160200191610d63565b820191906000526020600020905b815481529060010190602001808311610d4657829003601f168201915b50505050508152602001600582018054610d7c90611e55565b80601f0160208091040260200160405190810160405280929190818152602001828054610da890611e55565b8015610df55780601f10610dca57610100808354040283529160200191610df5565b820191906000526020600020905b815481529060010190602001808311610dd857829003601f168201915b5050505050815260200160068201548152505081526020019060010190610b23565b50505050905090565b6000429050600160008873ffffffffffffffffffffffffffffffffffffffff1673ffffffffffffffffffffffffffffffffffffffff1681526020019081526020016000206040518060e001604052808973ffffffffffffffffffffffffffffffffffffffff1681526020018873ffffffffffffffffffffffffffffffffffffffff1681526020018773ffffffffffffffffffffffffffffffffffffffff16815260200186815260200185815260200184815260200183815250908060018154018082558091505060019003906000526020600020906007020160009091909190915060008201518160000160006101000a81548173ffffffffffffffffffffffffffffffffffffffff021916908373ffffffffffffffffffffffffffffffffffffffff16021790555060208201518160010160006101000a81548173ffffffffffffffffffffffffffffffffffffffff021916908373ffffffffffffffffffffffffffffffffffffffff16021790555060408201518160020160006101000a81548173ffffffffffffffffffffffffffffffffffffffff021916908373ffffffffffffffffffffffffffffffffffffffff1602179055506060820151816003019081610fec9190612032565b5060808201518160040190816110029190612032565b5060a08201518160050190816110189190612032565b5060c08201518160060155505060026040518060e001604052808973ffffffffffffffffffffffffffffffffffffffff1681526020018873ffffffffffffffffffffffffffffffffffffffff1681526020018773ffffffffffffffffffffffffffffffffffffffff16815260200186815260200185815260200184815260200183815250908060018154018082558091505060019003906000526020600020906007020160009091909190915060008201518160000160006101000a81548173ffffffffffffffffffffffffffffffffffffffff021916908373ffffffffffffffffffffffffffffffffffffffff16021790555060208201518160010160006101000a81548173ffffffffffffffffffffffffffffffffffffffff021916908373ffffffffffffffffffffffffffffffffffffffff16021790555060408201518160020160006101000a81548173ffffffffffffffffffffffffffffffffffffffff021916908373ffffffffffffffffffffffffffffffffffffffff16021790555060608201518160030190816111af9190612032565b5060808201518160040190816111c59190612032565b5060a08201518160050190816111db9190612032565b5060c08201518160060155505050505050505050565b6000808673ffffffffffffffffffffffffffffffffffffffff1673ffffffffffffffffffffffffffffffffffffffff1681526020019081526020016000206040518060a001604052808773ffffffffffffffffffffffffffffffffffffffff1681526020018673ffffffffffffffffffffffffffffffffffffffff16815260200185815260200184815260200183815250908060018154018082558091505060019003906000526020600020906005020160009091909190915060008201518160000160006101000a81548173ffffffffffffffffffffffffffffffffffffffff021916908373ffffffffffffffffffffffffffffffffffffffff16021790555060208201518160010160006101000a81548173ffffffffffffffffffffffffffffffffffffffff021916908373ffffffffffffffffffffffffffffffffffffffff1602179055506040820151816002015560608201518160030190816113589190612032565b506080820151816004015550505050505050565b60606000808373ffffffffffffffffffffffffffffffffffffffff1673ffffffffffffffffffffffffffffffffffffffff168152602001908152602001600020805480602002602001604051908101604052809291908181526020016000905b8282101561155057838290600052602060002090600502016040518060a00160405290816000820160009054906101000a900473ffffffffffffffffffffffffffffffffffffffff1673ffffffffffffffffffffffffffffffffffffffff1673ffffffffffffffffffffffffffffffffffffffff1681526020016001820160009054906101000a900473ffffffffffffffffffffffffffffffffffffffff1673ffffffffffffffffffffffffffffffffffffffff1673ffffffffffffffffffffffffffffffffffffffff168152602001600282015481526020016003820180546114b590611e55565b80601f01602080910402602001604051908101604052809291908181526020018280546114e190611e55565b801561152e5780601f106115035761010080835404028352916020019161152e565b820191906000526020600020905b81548152906001019060200180831161151157829003601f168201915b50505050508152602001600482015481525050815260200190600101906113cc565b505050509050919050565b6000604051905090565b600080fd5b600080fd5b600073ffffffffffffffffffffffffffffffffffffffff82169050919050565b600061159a8261156f565b9050919050565b6115aa8161158f565b81146115b557600080fd5b50565b6000813590506115c7816115a1565b92915050565b6000819050919050565b6115e0816115cd565b81146115eb57600080fd5b50565b6000813590506115fd816115d7565b92915050565b6000806040838503121561161a57611619611565565b5b6000611628858286016115b8565b9250506020611639858286016115ee565b9150509250929050565b61164c8161158f565b82525050565b600081519050919050565b600082825260208201905092915050565b60005b8381101561168c578082015181840152602081019050611671565b60008484015250505050565b6000601f19601f8301169050919050565b60006116b482611652565b6116be818561165d565b93506116ce81856020860161166e565b6116d781611698565b840191505092915050565b6116eb816115cd565b82525050565b600060e082019050611706600083018a611643565b6117136020830189611643565b6117206040830188611643565b818103606083015261173281876116a9565b9050818103608083015261174681866116a9565b905081810360a083015261175a81856116a9565b905061176960c08301846116e2565b98975050505050505050565b60006020828403121561178b5761178a611565565b5b6000611799848285016115b8565b91505092915050565b600081519050919050565b600082825260208201905092915050565b6000819050602082019050919050565b6117d78161158f565b82525050565b600082825260208201905092915050565b60006117f982611652565b61180381856117dd565b935061181381856020860161166e565b61181c81611698565b840191505092915050565b611830816115cd565b82525050565b600060e08301600083015161184e60008601826117ce565b50602083015161186160208601826117ce565b50604083015161187460408601826117ce565b506060830151848203606086015261188c82826117ee565b915050608083015184820360808601526118a682826117ee565b91505060a083015184820360a08601526118c082826117ee565b91505060c08301516118d560c0860182611827565b508091505092915050565b60006118ec8383611836565b905092915050565b6000602082019050919050565b600061190c826117a2565b61191681856117ad565b935083602082028501611928856117be565b8060005b85811015611964578484038952815161194585826118e0565b9450611950836118f4565b925060208a0199505060018101905061192c565b50829750879550505050505092915050565b600060208201905081810360008301526119908184611901565b905092915050565b6000602082840312156119ae576119ad611565565b5b60006119bc848285016115ee565b91505092915050565b600060a0820190506119da6000830188611643565b6119e76020830187611643565b6119f460408301866116e2565b8181036060830152611a0681856116a9565b9050611a1560808301846116e2565b9695505050505050565b600080fd5b600080fd5b7f4e487b7100000000000000000000000000000000000000000000000000000000600052604160045260246000fd5b611a6182611698565b810181811067ffffffffffffffff82111715611a8057611a7f611a29565b5b80604052505050565b6000611a9361155b565b9050611a9f8282611a58565b919050565b600067ffffffffffffffff821115611abf57611abe611a29565b5b611ac882611698565b9050602081019050919050565b82818337600083830152505050565b6000611af7611af284611aa4565b611a89565b905082815260208101848484011115611b1357611b12611a24565b5b611b1e848285611ad5565b509392505050565b600082601f830112611b3b57611b3a611a1f565b5b8135611b4b848260208601611ae4565b91505092915050565b60008060008060008060c08789031215611b7157611b70611565565b5b6000611b7f89828a016115b8565b9650506020611b9089828a016115b8565b9550506040611ba189828a016115b8565b945050606087013567ffffffffffffffff811115611bc257611bc161156a565b5b611bce89828a01611b26565b935050608087013567ffffffffffffffff811115611bef57611bee61156a565b5b611bfb89828a01611b26565b92505060a087013567ffffffffffffffff811115611c1c57611c1b61156a565b5b611c2889828a01611b26565b9150509295509295509295565b600080600080600060a08688031215611c5157611c50611565565b5b6000611c5f888289016115b8565b9550506020611c70888289016115b8565b9450506040611c81888289016115ee565b935050606086013567ffffffffffffffff811115611ca257611ca161156a565b5b611cae88828901611b26565b9250506080611cbf888289016115ee565b9150509295509295909350565b600081519050919050565b600082825260208201905092915050565b6000819050602082019050919050565b600060a083016000830151611d1060008601826117ce565b506020830151611d2360208601826117ce565b506040830151611d366040860182611827565b5060608301518482036060860152611d4e82826117ee565b9150506080830151611d636080860182611827565b508091505092915050565b6000611d7a8383611cf8565b905092915050565b6000602082019050919050565b6000611d9a82611ccc565b611da48185611cd7565b935083602082028501611db685611ce8565b8060005b85811015611df25784840389528151611dd38582611d6e565b9450611dde83611d82565b925060208a01995050600181019050611dba565b50829750879550505050505092915050565b60006020820190508181036000830152611e1e8184611d8f565b905092915050565b7f4e487b7100000000000000000000000000000000000000000000000000000000600052602260045260246000fd5b60006002820490506001821680611e6d57607f821691505b602082108103611e8057611e7f611e26565b5b50919050565b60008190508160005260206000209050919050565b60006020601f8301049050919050565b600082821b905092915050565b600060088302611ee87fffffffffffffffffffffffffffffffffffffffffffffffffffffffffffffffff82611eab565b611ef28683611eab565b95508019841693508086168417925050509392505050565b6000819050919050565b6000611f2f611f2a611f25846115cd565b611f0a565b6115cd565b9050919050565b6000819050919050565b611f4983611f14565b611f5d611f5582611f36565b848454611eb8565b825550505050565b600090565b611f72611f65565b611f7d818484611f40565b505050565b5b81811015611fa157611f96600082611f6a565b600181019050611f83565b5050565b601f821115611fe657611fb781611e86565b611fc084611e9b565b81016020851015611fcf578190505b611fe3611fdb85611e9b565b830182611f82565b50505b505050565b600082821c905092915050565b600061200960001984600802611feb565b1980831691505092915050565b60006120228383611ff8565b9150826002028217905092915050565b61203b82611652565b67ffffffffffffffff81111561205457612053611a29565b5b61205e8254611e55565b612069828285611fa5565b600060209050601f83116001811461209c576000841561208a578287015190505b6120948582612016565b8655506120fc565b601f1984166120aa86611e86565b60005b828110156120d2578489015182556001820191506020850194506020810190506120ad565b868310156120ef57848901516120eb601f891682611ff8565b8355505b6001600288020188555050505b50505050505056fea264697066735822122056aacd7230e907d2d65a4cbd31ccac348fbf2e6b7ea148eb54a5bb148546feff64736f6c63430008110033",
  "linkReferences": {},
  "deployedLinkReferences": {}
}