{
  "_format": "hh-sol-artifact-1",
  "contractName": "ProjectsData",
  "sourceName": "contracts/data/ProjectsData.sol",
  "abi": [
    {
      "inputs": [
        {
          "internalType": "address",
          "name": "_projectPoolAddress",
          "type": "address"
        },
        {
          "internalType": "address",
          "name": "_cheerPoolAddres",
          "type": "address"
        },
        {
          "internalType": "uint256",
          "name": "_creationTime",
          "type": "uint256"
        },
        {
          "internalType": "string",
          "name": "_message",
          "type": "string"
        },
        {
          "internalType": "uint256",
          "name": "_cher",
          "type": "uint256"
        }
      ],
      "name": "addEachProjectCheerList",
      "outputs": [],
      "stateMutability": "nonpayable",
      "type": "function"
    },
    {
      "inputs": [
        {
          "internalType": "address",
          "name": "_projectOwnerAddress",
          "type": "address"
        },
        {
          "internalType": "address",
          "name": "_projectPoolAddress",
          "type": "address"
        },
        {
          "internalType": "address",
          "name": "_belongDaoAddress",
          "type": "address"
        },
        {
          "internalType": "string",
          "name": "_projectName",
          "type": "string"
        },
        {
          "internalType": "string",
          "name": "_projectContents",
          "type": "string"
        },
        {
          "internalType": "string",
          "name": "_projectReword",
          "type": "string"
        }
      ],
      "name": "addProjects",
      "outputs": [],
      "stateMutability": "nonpayable",
      "type": "function"
    },
    {
      "inputs": [
        {
          "internalType": "uint256",
          "name": "",
          "type": "uint256"
        }
      ],
      "name": "allProjectsList",
      "outputs": [
        {
          "internalType": "address",
          "name": "projectOwnerAddress",
          "type": "address"
        },
        {
          "internalType": "address",
          "name": "projectAddress",
          "type": "address"
        },
        {
          "internalType": "address",
          "name": "belongDaoAddress",
          "type": "address"
        },
        {
          "internalType": "string",
          "name": "projectName",
          "type": "string"
        },
        {
          "internalType": "string",
          "name": "projectContents",
          "type": "string"
        },
        {
          "internalType": "string",
          "name": "projectReword",
          "type": "string"
        },
        {
          "internalType": "uint256",
          "name": "creationTime",
          "type": "uint256"
        }
      ],
      "stateMutability": "view",
      "type": "function"
    },
    {
      "inputs": [
        {
          "internalType": "address",
          "name": "",
          "type": "address"
        },
        {
          "internalType": "uint256",
          "name": "",
          "type": "uint256"
        }
      ],
      "name": "eachProjectCheerList",
      "outputs": [
        {
          "internalType": "address",
          "name": "cheerPoolAddress",
          "type": "address"
        },
        {
          "internalType": "uint256",
          "name": "creationTime",
          "type": "uint256"
        },
        {
          "internalType": "string",
          "name": "message",
          "type": "string"
        },
        {
          "internalType": "uint256",
          "name": "cher",
          "type": "uint256"
        }
      ],
      "stateMutability": "view",
      "type": "function"
    },
    {
      "inputs": [
        {
          "internalType": "address",
          "name": "",
          "type": "address"
        },
        {
          "internalType": "uint256",
          "name": "",
          "type": "uint256"
        }
      ],
      "name": "eachProjectsList",
      "outputs": [
        {
          "internalType": "address",
          "name": "projectOwnerAddress",
          "type": "address"
        },
        {
          "internalType": "address",
          "name": "projectAddress",
          "type": "address"
        },
        {
          "internalType": "address",
          "name": "belongDaoAddress",
          "type": "address"
        },
        {
          "internalType": "string",
          "name": "projectName",
          "type": "string"
        },
        {
          "internalType": "string",
          "name": "projectContents",
          "type": "string"
        },
        {
          "internalType": "string",
          "name": "projectReword",
          "type": "string"
        },
        {
          "internalType": "uint256",
          "name": "creationTime",
          "type": "uint256"
        }
      ],
      "stateMutability": "view",
      "type": "function"
    },
    {
      "inputs": [],
      "name": "getAllProjectList",
      "outputs": [
        {
          "components": [
            {
              "internalType": "address",
              "name": "projectOwnerAddress",
              "type": "address"
            },
            {
              "internalType": "address",
              "name": "projectAddress",
              "type": "address"
            },
            {
              "internalType": "address",
              "name": "belongDaoAddress",
              "type": "address"
            },
            {
              "internalType": "string",
              "name": "projectName",
              "type": "string"
            },
            {
              "internalType": "string",
              "name": "projectContents",
              "type": "string"
            },
            {
              "internalType": "string",
              "name": "projectReword",
              "type": "string"
            },
            {
              "internalType": "uint256",
              "name": "creationTime",
              "type": "uint256"
            }
          ],
          "internalType": "struct SharedStruct.Project[]",
          "name": "",
          "type": "tuple[]"
        }
      ],
      "stateMutability": "view",
      "type": "function"
    },
    {
      "inputs": [
        {
          "internalType": "address",
          "name": "_projectPoolAddress",
          "type": "address"
        }
      ],
      "name": "getEachProjectCheerList",
      "outputs": [
        {
          "components": [
            {
              "internalType": "address",
              "name": "cheerPoolAddress",
              "type": "address"
            },
            {
              "internalType": "uint256",
              "name": "creationTime",
              "type": "uint256"
            },
            {
              "internalType": "string",
              "name": "message",
              "type": "string"
            },
            {
              "internalType": "uint256",
              "name": "cher",
              "type": "uint256"
            }
          ],
          "internalType": "struct SharedStruct.Cheer[]",
          "name": "",
          "type": "tuple[]"
        }
      ],
      "stateMutability": "view",
      "type": "function"
    },
    {
      "inputs": [
        {
          "internalType": "address",
          "name": "_projectOwnerAddress",
          "type": "address"
        }
      ],
      "name": "getEachProjectList",
      "outputs": [
        {
          "components": [
            {
              "internalType": "address",
              "name": "projectOwnerAddress",
              "type": "address"
            },
            {
              "internalType": "address",
              "name": "projectAddress",
              "type": "address"
            },
            {
              "internalType": "address",
              "name": "belongDaoAddress",
              "type": "address"
            },
            {
              "internalType": "string",
              "name": "projectName",
              "type": "string"
            },
            {
              "internalType": "string",
              "name": "projectContents",
              "type": "string"
            },
            {
              "internalType": "string",
              "name": "projectReword",
              "type": "string"
            },
            {
              "internalType": "uint256",
              "name": "creationTime",
              "type": "uint256"
            }
          ],
          "internalType": "struct SharedStruct.Project[]",
          "name": "",
          "type": "tuple[]"
        }
      ],
      "stateMutability": "view",
      "type": "function"
    }
  ],
  "bytecode": "0x608060405234801561001057600080fd5b50612039806100206000396000f3fe608060405234801561001057600080fd5b50600436106100885760003560e01c8063c327dc3f1161005b578063c327dc3f1461015c578063c34b28f51461017a578063c4ee4c0d14610196578063d621e518146101b257610088565b80635874a8121461008d57806358cedf57146100c3578063a444a193146100f3578063b0addd1d14610129575b600080fd5b6100a760048036038101906100a29190611523565b6101e2565b6040516100ba9796959493929190611611565b60405180910390f35b6100dd60048036038101906100d89190611695565b610439565b6040516100ea9190611896565b60405180910390f35b61010d600480360381019061010891906118b8565b610799565b6040516101209796959493929190611611565b60405180910390f35b610143600480360381019061013e9190611523565b6109e3565b60405161015394939291906118e5565b60405180910390f35b610164610ad8565b6040516101719190611896565b60405180910390f35b610194600480360381019061018f9190611a66565b610df9565b005b6101b060048036038101906101ab9190611b47565b6111ca565b005b6101cc60048036038101906101c79190611695565b6112e2565b6040516101d99190611d03565b60405180910390f35b600160205281600052604060002081815481106101fe57600080fd5b9060005260206000209060070201600091509150508060000160009054906101000a900473ffffffffffffffffffffffffffffffffffffffff16908060010160009054906101000a900473ffffffffffffffffffffffffffffffffffffffff16908060020160009054906101000a900473ffffffffffffffffffffffffffffffffffffffff169080600301805461029490611d54565b80601f01602080910402602001604051908101604052809291908181526020018280546102c090611d54565b801561030d5780601f106102e25761010080835404028352916020019161030d565b820191906000526020600020905b8154815290600101906020018083116102f057829003601f168201915b50505050509080600401805461032290611d54565b80601f016020809104026020016040519081016040528092919081815260200182805461034e90611d54565b801561039b5780601f106103705761010080835404028352916020019161039b565b820191906000526020600020905b81548152906001019060200180831161037e57829003601f168201915b5050505050908060050180546103b090611d54565b80601f01602080910402602001604051908101604052809291908181526020018280546103dc90611d54565b80156104295780601f106103fe57610100808354040283529160200191610429565b820191906000526020600020905b81548152906001019060200180831161040c57829003601f168201915b5050505050908060060154905087565b6060600160008373ffffffffffffffffffffffffffffffffffffffff1673ffffffffffffffffffffffffffffffffffffffff168152602001908152602001600020805480602002602001604051908101604052809291908181526020016000905b8282101561078e57838290600052602060002090600702016040518060e00160405290816000820160009054906101000a900473ffffffffffffffffffffffffffffffffffffffff1673ffffffffffffffffffffffffffffffffffffffff1673ffffffffffffffffffffffffffffffffffffffff1681526020016001820160009054906101000a900473ffffffffffffffffffffffffffffffffffffffff1673ffffffffffffffffffffffffffffffffffffffff1673ffffffffffffffffffffffffffffffffffffffff1681526020016002820160009054906101000a900473ffffffffffffffffffffffffffffffffffffffff1673ffffffffffffffffffffffffffffffffffffffff1673ffffffffffffffffffffffffffffffffffffffff1681526020016003820180546105cf90611d54565b80601f01602080910402602001604051908101604052809291908181526020018280546105fb90611d54565b80156106485780601f1061061d57610100808354040283529160200191610648565b820191906000526020600020905b81548152906001019060200180831161062b57829003601f168201915b5050505050815260200160048201805461066190611d54565b80601f016020809104026020016040519081016040528092919081815260200182805461068d90611d54565b80156106da5780601f106106af576101008083540402835291602001916106da565b820191906000526020600020905b8154815290600101906020018083116106bd57829003601f168201915b505050505081526020016005820180546106f390611d54565b80601f016020809104026020016040519081016040528092919081815260200182805461071f90611d54565b801561076c5780601f106107415761010080835404028352916020019161076c565b820191906000526020600020905b81548152906001019060200180831161074f57829003601f168201915b505050505081526020016006820154815250508152602001906001019061049a565b505050509050919050565b600281815481106107a957600080fd5b90600052602060002090600702016000915090508060000160009054906101000a900473ffffffffffffffffffffffffffffffffffffffff16908060010160009054906101000a900473ffffffffffffffffffffffffffffffffffffffff16908060020160009054906101000a900473ffffffffffffffffffffffffffffffffffffffff169080600301805461083e90611d54565b80601f016020809104026020016040519081016040528092919081815260200182805461086a90611d54565b80156108b75780601f1061088c576101008083540402835291602001916108b7565b820191906000526020600020905b81548152906001019060200180831161089a57829003601f168201915b5050505050908060040180546108cc90611d54565b80601f01602080910402602001604051908101604052809291908181526020018280546108f890611d54565b80156109455780601f1061091a57610100808354040283529160200191610945565b820191906000526020600020905b81548152906001019060200180831161092857829003601f168201915b50505050509080600501805461095a90611d54565b80601f016020809104026020016040519081016040528092919081815260200182805461098690611d54565b80156109d35780601f106109a8576101008083540402835291602001916109d3565b820191906000526020600020905b8154815290600101906020018083116109b657829003601f168201915b5050505050908060060154905087565b600060205281600052604060002081815481106109ff57600080fd5b9060005260206000209060040201600091509150508060000160009054906101000a900473ffffffffffffffffffffffffffffffffffffffff1690806001015490806002018054610a4f90611d54565b80601f0160208091040260200160405190810160405280929190818152602001828054610a7b90611d54565b8015610ac85780601f10610a9d57610100808354040283529160200191610ac8565b820191906000526020600020905b815481529060010190602001808311610aab57829003601f168201915b5050505050908060030154905084565b60606002805480602002602001604051908101604052809291908181526020016000905b82821015610df057838290600052602060002090600702016040518060e00160405290816000820160009054906101000a900473ffffffffffffffffffffffffffffffffffffffff1673ffffffffffffffffffffffffffffffffffffffff1673ffffffffffffffffffffffffffffffffffffffff1681526020016001820160009054906101000a900473ffffffffffffffffffffffffffffffffffffffff1673ffffffffffffffffffffffffffffffffffffffff1673ffffffffffffffffffffffffffffffffffffffff1681526020016002820160009054906101000a900473ffffffffffffffffffffffffffffffffffffffff1673ffffffffffffffffffffffffffffffffffffffff1673ffffffffffffffffffffffffffffffffffffffff168152602001600382018054610c3190611d54565b80601f0160208091040260200160405190810160405280929190818152602001828054610c5d90611d54565b8015610caa5780601f10610c7f57610100808354040283529160200191610caa565b820191906000526020600020905b815481529060010190602001808311610c8d57829003601f168201915b50505050508152602001600482018054610cc390611d54565b80601f0160208091040260200160405190810160405280929190818152602001828054610cef90611d54565b8015610d3c5780601f10610d1157610100808354040283529160200191610d3c565b820191906000526020600020905b815481529060010190602001808311610d1f57829003601f168201915b50505050508152602001600582018054610d5590611d54565b80601f0160208091040260200160405190810160405280929190818152602001828054610d8190611d54565b8015610dce5780601f10610da357610100808354040283529160200191610dce565b820191906000526020600020905b815481529060010190602001808311610db157829003601f168201915b5050505050815260200160068201548152505081526020019060010190610afc565b50505050905090565b6000429050600160008873ffffffffffffffffffffffffffffffffffffffff1673ffffffffffffffffffffffffffffffffffffffff1681526020019081526020016000206040518060e001604052808973ffffffffffffffffffffffffffffffffffffffff1681526020018873ffffffffffffffffffffffffffffffffffffffff1681526020018773ffffffffffffffffffffffffffffffffffffffff16815260200186815260200185815260200184815260200183815250908060018154018082558091505060019003906000526020600020906007020160009091909190915060008201518160000160006101000a81548173ffffffffffffffffffffffffffffffffffffffff021916908373ffffffffffffffffffffffffffffffffffffffff16021790555060208201518160010160006101000a81548173ffffffffffffffffffffffffffffffffffffffff021916908373ffffffffffffffffffffffffffffffffffffffff16021790555060408201518160020160006101000a81548173ffffffffffffffffffffffffffffffffffffffff021916908373ffffffffffffffffffffffffffffffffffffffff1602179055506060820151816003019081610fc59190611f31565b506080820151816004019081610fdb9190611f31565b5060a0820151816005019081610ff19190611f31565b5060c08201518160060155505060026040518060e001604052808973ffffffffffffffffffffffffffffffffffffffff1681526020018873ffffffffffffffffffffffffffffffffffffffff1681526020018773ffffffffffffffffffffffffffffffffffffffff16815260200186815260200185815260200184815260200183815250908060018154018082558091505060019003906000526020600020906007020160009091909190915060008201518160000160006101000a81548173ffffffffffffffffffffffffffffffffffffffff021916908373ffffffffffffffffffffffffffffffffffffffff16021790555060208201518160010160006101000a81548173ffffffffffffffffffffffffffffffffffffffff021916908373ffffffffffffffffffffffffffffffffffffffff16021790555060408201518160020160006101000a81548173ffffffffffffffffffffffffffffffffffffffff021916908373ffffffffffffffffffffffffffffffffffffffff16021790555060608201518160030190816111889190611f31565b50608082015181600401908161119e9190611f31565b5060a08201518160050190816111b49190611f31565b5060c08201518160060155505050505050505050565b6000808673ffffffffffffffffffffffffffffffffffffffff1673ffffffffffffffffffffffffffffffffffffffff16815260200190815260200160002060405180608001604052808673ffffffffffffffffffffffffffffffffffffffff16815260200185815260200184815260200183815250908060018154018082558091505060019003906000526020600020906004020160009091909190915060008201518160000160006101000a81548173ffffffffffffffffffffffffffffffffffffffff021916908373ffffffffffffffffffffffffffffffffffffffff1602179055506020820151816001015560408201518160020190816112ce9190611f31565b506060820151816003015550505050505050565b60606000808373ffffffffffffffffffffffffffffffffffffffff1673ffffffffffffffffffffffffffffffffffffffff168152602001908152602001600020805480602002602001604051908101604052809291908181526020016000905b8282101561147057838290600052602060002090600402016040518060800160405290816000820160009054906101000a900473ffffffffffffffffffffffffffffffffffffffff1673ffffffffffffffffffffffffffffffffffffffff1673ffffffffffffffffffffffffffffffffffffffff168152602001600182015481526020016002820180546113d590611d54565b80601f016020809104026020016040519081016040528092919081815260200182805461140190611d54565b801561144e5780601f106114235761010080835404028352916020019161144e565b820191906000526020600020905b81548152906001019060200180831161143157829003601f168201915b5050505050815260200160038201548152505081526020019060010190611342565b505050509050919050565b6000604051905090565b600080fd5b600080fd5b600073ffffffffffffffffffffffffffffffffffffffff82169050919050565b60006114ba8261148f565b9050919050565b6114ca816114af565b81146114d557600080fd5b50565b6000813590506114e7816114c1565b92915050565b6000819050919050565b611500816114ed565b811461150b57600080fd5b50565b60008135905061151d816114f7565b92915050565b6000806040838503121561153a57611539611485565b5b6000611548858286016114d8565b92505060206115598582860161150e565b9150509250929050565b61156c816114af565b82525050565b600081519050919050565b600082825260208201905092915050565b60005b838110156115ac578082015181840152602081019050611591565b60008484015250505050565b6000601f19601f8301169050919050565b60006115d482611572565b6115de818561157d565b93506115ee81856020860161158e565b6115f7816115b8565b840191505092915050565b61160b816114ed565b82525050565b600060e082019050611626600083018a611563565b6116336020830189611563565b6116406040830188611563565b818103606083015261165281876115c9565b9050818103608083015261166681866115c9565b905081810360a083015261167a81856115c9565b905061168960c0830184611602565b98975050505050505050565b6000602082840312156116ab576116aa611485565b5b60006116b9848285016114d8565b91505092915050565b600081519050919050565b600082825260208201905092915050565b6000819050602082019050919050565b6116f7816114af565b82525050565b600082825260208201905092915050565b600061171982611572565b61172381856116fd565b935061173381856020860161158e565b61173c816115b8565b840191505092915050565b611750816114ed565b82525050565b600060e08301600083015161176e60008601826116ee565b50602083015161178160208601826116ee565b50604083015161179460408601826116ee565b50606083015184820360608601526117ac828261170e565b915050608083015184820360808601526117c6828261170e565b91505060a083015184820360a08601526117e0828261170e565b91505060c08301516117f560c0860182611747565b508091505092915050565b600061180c8383611756565b905092915050565b6000602082019050919050565b600061182c826116c2565b61183681856116cd565b935083602082028501611848856116de565b8060005b8581101561188457848403895281516118658582611800565b945061187083611814565b925060208a0199505060018101905061184c565b50829750879550505050505092915050565b600060208201905081810360008301526118b08184611821565b905092915050565b6000602082840312156118ce576118cd611485565b5b60006118dc8482850161150e565b91505092915050565b60006080820190506118fa6000830187611563565b6119076020830186611602565b818103604083015261191981856115c9565b90506119286060830184611602565b95945050505050565b600080fd5b600080fd5b7f4e487b7100000000000000000000000000000000000000000000000000000000600052604160045260246000fd5b611973826115b8565b810181811067ffffffffffffffff821117156119925761199161193b565b5b80604052505050565b60006119a561147b565b90506119b1828261196a565b919050565b600067ffffffffffffffff8211156119d1576119d061193b565b5b6119da826115b8565b9050602081019050919050565b82818337600083830152505050565b6000611a09611a04846119b6565b61199b565b905082815260208101848484011115611a2557611a24611936565b5b611a308482856119e7565b509392505050565b600082601f830112611a4d57611a4c611931565b5b8135611a5d8482602086016119f6565b91505092915050565b60008060008060008060c08789031215611a8357611a82611485565b5b6000611a9189828a016114d8565b9650506020611aa289828a016114d8565b9550506040611ab389828a016114d8565b945050606087013567ffffffffffffffff811115611ad457611ad361148a565b5b611ae089828a01611a38565b935050608087013567ffffffffffffffff811115611b0157611b0061148a565b5b611b0d89828a01611a38565b92505060a087013567ffffffffffffffff811115611b2e57611b2d61148a565b5b611b3a89828a01611a38565b9150509295509295509295565b600080600080600060a08688031215611b6357611b62611485565b5b6000611b71888289016114d8565b9550506020611b82888289016114d8565b9450506040611b938882890161150e565b935050606086013567ffffffffffffffff811115611bb457611bb361148a565b5b611bc088828901611a38565b9250506080611bd18882890161150e565b9150509295509295909350565b600081519050919050565b600082825260208201905092915050565b6000819050602082019050919050565b6000608083016000830151611c2260008601826116ee565b506020830151611c356020860182611747565b5060408301518482036040860152611c4d828261170e565b9150506060830151611c626060860182611747565b508091505092915050565b6000611c798383611c0a565b905092915050565b6000602082019050919050565b6000611c9982611bde565b611ca38185611be9565b935083602082028501611cb585611bfa565b8060005b85811015611cf15784840389528151611cd28582611c6d565b9450611cdd83611c81565b925060208a01995050600181019050611cb9565b50829750879550505050505092915050565b60006020820190508181036000830152611d1d8184611c8e565b905092915050565b7f4e487b7100000000000000000000000000000000000000000000000000000000600052602260045260246000fd5b60006002820490506001821680611d6c57607f821691505b602082108103611d7f57611d7e611d25565b5b50919050565b60008190508160005260206000209050919050565b60006020601f8301049050919050565b600082821b905092915050565b600060088302611de77fffffffffffffffffffffffffffffffffffffffffffffffffffffffffffffffff82611daa565b611df18683611daa565b95508019841693508086168417925050509392505050565b6000819050919050565b6000611e2e611e29611e24846114ed565b611e09565b6114ed565b9050919050565b6000819050919050565b611e4883611e13565b611e5c611e5482611e35565b848454611db7565b825550505050565b600090565b611e71611e64565b611e7c818484611e3f565b505050565b5b81811015611ea057611e95600082611e69565b600181019050611e82565b5050565b601f821115611ee557611eb681611d85565b611ebf84611d9a565b81016020851015611ece578190505b611ee2611eda85611d9a565b830182611e81565b50505b505050565b600082821c905092915050565b6000611f0860001984600802611eea565b1980831691505092915050565b6000611f218383611ef7565b9150826002028217905092915050565b611f3a82611572565b67ffffffffffffffff811115611f5357611f5261193b565b5b611f5d8254611d54565b611f68828285611ea4565b600060209050601f831160018114611f9b5760008415611f89578287015190505b611f938582611f15565b865550611ffb565b601f198416611fa986611d85565b60005b82811015611fd157848901518255600182019150602085019450602081019050611fac565b86831015611fee5784890151611fea601f891682611ef7565b8355505b6001600288020188555050505b50505050505056fea264697066735822122051eda0f1633a7f56b9c0944524c8a449afdad0f4c21d626f664fc216b3cb924f64736f6c63430008110033",
  "linkReferences": {},
  "deployedLinkReferences": {}
}